{"contracts/InsuranceManager.sol":{"InsuranceManager":{"abi":[{"anonymous":false,"inputs":[{"indexed":true,"internalType":"address","name":"patient","type":"address"},{"indexed":false,"internalType":"string","name":"policyNumber","type":"string"}],"name":"InsurancePlanAdded","type":"event"},{"anonymous":false,"inputs":[{"indexed":true,"internalType":"address","name":"patient","type":"address"},{"indexed":false,"internalType":"string","name":"policyNumber","type":"string"}],"name":"InsurancePlanCancelled","type":"event"},{"anonymous":false,"inputs":[{"indexed":true,"internalType":"address","name":"patient","type":"address"},{"indexed":false,"internalType":"string","name":"policyNumber","type":"string"}],"name":"InsurancePlanUpdated","type":"event"},{"inputs":[{"internalType":"string","name":"_policyNumber","type":"string"},{"internalType":"string","name":"_provider","type":"string"},{"internalType":"string","name":"_planName","type":"string"},{"internalType":"uint256","name":"_coverageAmount","type":"uint256"},{"internalType":"uint256","name":"_startDate","type":"uint256"},{"internalType":"uint256","name":"_endDate","type":"uint256"},{"internalType":"uint256","name":"_premiumAmount","type":"uint256"},{"internalType":"uint256","name":"_nextPremiumDate","type":"uint256"},{"internalType":"address[]","name":"_beneficiaries","type":"address[]"},{"internalType":"bool","name":"_hospitalCoverage","type":"bool"},{"internalType":"bool","name":"_medicineCoverage","type":"bool"},{"internalType":"bool","name":"_accidentCoverage","type":"bool"},{"internalType":"bool","name":"_criticalIllnessCoverage","type":"bool"}],"name":"addInsurancePlan","outputs":[],"stateMutability":"nonpayable","type":"function"},{"inputs":[{"internalType":"string","name":"_policyNumber","type":"string"}],"name":"cancelInsurancePlan","outputs":[],"stateMutability":"nonpayable","type":"function"},{"inputs":[{"internalType":"address","name":"_patient","type":"address"}],"name":"getActiveInsurancePlans","outputs":[{"components":[{"internalType":"string","name":"policyNumber","type":"string"},{"internalType":"string","name":"provider","type":"string"},{"internalType":"string","name":"planName","type":"string"},{"internalType":"uint256","name":"coverageAmount","type":"uint256"},{"internalType":"uint256","name":"startDate","type":"uint256"},{"internalType":"uint256","name":"endDate","type":"uint256"},{"internalType":"bool","name":"isActive","type":"bool"},{"internalType":"uint256","name":"premiumAmount","type":"uint256"},{"internalType":"uint256","name":"nextPremiumDate","type":"uint256"},{"internalType":"address[]","name":"beneficiaries","type":"address[]"},{"internalType":"bool","name":"hospitalCoverage","type":"bool"},{"internalType":"bool","name":"medicineCoverage","type":"bool"},{"internalType":"bool","name":"accidentCoverage","type":"bool"},{"internalType":"bool","name":"criticalIllnessCoverage","type":"bool"}],"internalType":"struct InsuranceManager.InsurancePlan[]","name":"","type":"tuple[]"}],"stateMutability":"view","type":"function"},{"inputs":[{"internalType":"address","name":"_patient","type":"address"}],"name":"getInsurancePlans","outputs":[{"components":[{"internalType":"string","name":"policyNumber","type":"string"},{"internalType":"string","name":"provider","type":"string"},{"internalType":"string","name":"planName","type":"string"},{"internalType":"uint256","name":"coverageAmount","type":"uint256"},{"internalType":"uint256","name":"startDate","type":"uint256"},{"internalType":"uint256","name":"endDate","type":"uint256"},{"internalType":"bool","name":"isActive","type":"bool"},{"internalType":"uint256","name":"premiumAmount","type":"uint256"},{"internalType":"uint256","name":"nextPremiumDate","type":"uint256"},{"internalType":"address[]","name":"beneficiaries","type":"address[]"},{"internalType":"bool","name":"hospitalCoverage","type":"bool"},{"internalType":"bool","name":"medicineCoverage","type":"bool"},{"internalType":"bool","name":"accidentCoverage","type":"bool"},{"internalType":"bool","name":"criticalIllnessCoverage","type":"bool"}],"internalType":"struct InsuranceManager.InsurancePlan[]","name":"","type":"tuple[]"}],"stateMutability":"view","type":"function"}],"evm":{"bytecode":{"linkReferences":{},"object":"6080806040523461001657611095908161001c8239f35b600080fdfe6080604052600436101561001257600080fd5b60003560e01c80634dc596c41461062957806378041a8b146105485780637b7c1c0e146102045763ccc2e7b31461004857600080fd5b346101ff576020806003193601126101ff576001600160a01b038061006b610d5c565b166000526000825260406000209182549061008582610d45565b926100936040519485610cce565b8284526000948552818520908285015b8487106100bc57604051806100b88882610db2565b0390f35b836040516100c981610cb2565b6040516100e1816100da8189610f90565b0382610cce565b81526040516001906100f9816100da81858b01610f90565b83830152604051610111816100da8160028b01610f90565b60408301526003860154606083015260048601546080830152600586015460a083015260ff9081600688015416151560c0840152600787015460e08401526008908188015461010085015260098801604051918287835491828152019260005287600020916000915b8083106101e65750505050918161019b6001989593600b9897950382610cce565b61012084015281600a8a0154809282821615156101408701521c161515610160840152818160101c16151561018084015260181c1615156101a08201528152019301960195916100a3565b83548c1685528d9990940193928101929181019161017a565b600080fd5b346101ff576020806003193601126101ff576001600160a01b039081610228610d5c565b1660005260008152604060002091825461024181610d45565b9361024f6040519586610cce565b81855260009081528381208486015b83831061040e5786866000805b83518110156102ca5760c0610280828661104b565b5101511515806102b3575b61029e575b61029990611026565b61026b565b906102ab61029991611026565b919050610290565b5060a06102c0828661104b565b510151421061028b565b50906102d582610d45565b916102e36040519384610cce565b8083526102f2601f1991610d45565b0160005b8181106103945750505060009060005b83518110156103865760c061031b828661104b565b51015115158061036f575b610339575b61033490611026565b610306565b916103676103349161034b858761104b565b51610356828661104b565b52610361818561104b565b50611026565b92905061032b565b5060a061037c828661104b565b5101514210610326565b604051806100b88482610db2565b82906040516103a281610cb2565b6060808252808483015280604083015260008183015260006080830152600060a0830152600060c0830152600060e0830152600061010083015261012082015260006101408201526000610160820152600061018082015260006101a0820152828287010152016102f6565b8560405161041b81610cb2565b60405161042c816100da8188610f90565b8152604051610442816100da8160018901610f90565b8282015260405161045a816100da8160028901610f90565b60408201526003840154606082015260048401546080820152600584015460a082015260ff80600686015416151560c0830152600785015460e0830152600885015461010083015260098501604051908185825491828152019160005285600020906000905b8c81831061052d575050505091816104e1600b969593600198950382610cce565b610120830152600a8701548181161515610140840152818160081c161515610160840152818160101c16151561018084015260181c1615156101a082015281520192019201919061025e565b83541684528d979093019260019283019291909101906104c0565b346101ff576020806003193601126101ff576004356001600160401b0381116101ff57610579903690600401610cef565b3360005260008252604060002090600091838201925b8154811015610627576100da6105b56105a88385610f0d565b5060405192838092610f90565b85815191012083518520146105d2576105cd90611026565b61058f565b7f0c80f4286dd0995f3a3ee6e0e6d35061ee7a310804f3efe30614119d319c257393506106056006916106229493610f0d565b500160ff1981541690556040519182918583523395830190610d72565b0390a2005b005b346101ff576101a03660031901126101ff576004356001600160401b0381116101ff5761065a903690600401610cef565b6024356001600160401b0381116101ff57610679903690600401610cef565b6044356001600160401b0381116101ff57610698903690600401610cef565b610104356001600160401b0381116101ff57366023820112156101ff5780600401356106c381610d45565b916106d16040519384610cce565b8183526024602084019260051b820101903682116101ff57602401915b818310610c92575050506101243580151581036101ff57610144359081151582036101ff57610164359283151584036101ff57610184359485151586036101ff576040519661073c88610cb2565b888852602088015260408701526064356060870152608435608087015260a43560a0870152600160c087015260c43560e087015260e43561010087015261012086015215156101408501521515610160840152151561018083015215156101a082015233600052600060205260406000208054600160401b811015610a57576107ca91600182018155610f0d565b610c7c5781519283516001600160401b038111610a57576107eb8354610f3f565b601f8111610c4a575b506020601f8211600114610be1578192939495600092610bd6575b50508160011b916000199060031b1c19161782555b60208301519283516001600160401b038111610a57576108476001850154610f3f565b601f8111610ba1575b506020601f8211600114610b32578192939495600092610b27575b50508160011b916000199060031b1c19161760018401555b60408101519283516001600160401b038111610a57576108a66002830154610f3f565b601f8111610ae7575b506020601f8211600114610a78578192939495600092610a6d575b50508160011b916000199060031b1c19161760028201555b606082015160038201556080820151600482015560a0820151600582015561091f60c08301511515600683019060ff801983541691151516179055565b60e08201516007820155610100820151600882015560098101610120830151908151916001600160401b038311610a5757600160401b8311610a57576020908254848455808510610a3a575b500190600052602060002060005b838110610a1d578686600a8701906109a46101408201511515839060ff801983541691151516179055565b610160810151151590825461ff0063ff0000006101a062ff0000610180860151151560101b16940151151560181b169360081b169063ffffff00191617171790557f25b930c9d71e8cd9ead4bf0c25f5cd650c1b71533c4fc8e0f3d3bc3b8c9b6156604051602081528061062233946020830190610d72565b82516001600160a01b031681830155602090920191600101610979565b610a51908460005285846000209182019101610f79565b8761096b565b634e487b7160e01b600052604160045260246000fd5b0151905085806108ca565b6002830160005260206000209060005b601f1984168110610acf575060019394959683601f19811610610ab6575b505050811b0160028201556108e2565b015160001960f88460031b161c19169055858080610aa6565b9091602060018192858b015181550193019101610a88565b610b1790600284016000526020600020601f840160051c81019160208510610b1d575b601f0160051c0190610f79565b856108af565b9091508190610b0a565b01519050858061086b565b6001850160005260206000209060005b601f1984168110610b89575060019394959683601f19811610610b70575b505050811b016001840155610883565b015160001960f88460031b161c19169055858080610b60565b9091602060018192858b015181550193019101610b42565b610bd090600186016000526020600020601f840160051c81019160208510610b1d57601f0160051c0190610f79565b85610850565b01519050858061080f565b8360005260206000209060005b601f1984168110610c32575060019394959683601f19811610610c19575b505050811b018255610824565b015160001960f88460031b161c19169055858080610c0c565b9091602060018192858b015181550193019101610bee565b610c7690846000526020600020601f840160051c81019160208510610b1d57601f0160051c0190610f79565b856107f4565b634e487b7160e01b600052600060045260246000fd5b82356001600160a01b03811681036101ff578152602092830192016106ee565b6101c081019081106001600160401b03821117610a5757604052565b90601f801991011681019081106001600160401b03821117610a5757604052565b81601f820112156101ff578035906001600160401b038211610a575760405192610d23601f8401601f191660200185610cce565b828452602083830101116101ff57816000926020809301838601378301015290565b6001600160401b038111610a575760051b60200190565b600435906001600160a01b03821682036101ff57565b919082519283825260005b848110610d9e575050826000602080949584010152601f8019910116010190565b602081830181015184830182015201610d7d565b602080820190808352835180925260409283810182858560051b84010196019460009081935b868510610dea57505050505050505090565b9091929394959697603f19828203018552868951610e37610e27610e1783516101c0808852870190610d72565b8484015186820386880152610d72565b8683015185820388870152610d72565b90606080820151908501526080808201519085015260a0808201519085015260c08082015115159085015260e0808201519085015261010080820151908501526101209182820151928582039086015283808451928381520193019088905b808210610eea575050506101408082015115159085015261016080820151151590850152610180808201511515908501526101a0908101511515930192909252909881019796956001019401929190610dd8565b82516001600160a01b031685528c95948501949092019160019190910190610e96565b8054821015610f2957600052600b602060002091020190600090565b634e487b7160e01b600052603260045260246000fd5b90600182811c92168015610f6f575b6020831014610f5957565b634e487b7160e01b600052602260045260246000fd5b91607f1691610f4e565b818110610f84575050565b60008155600101610f79565b9060009291805491610fa183610f3f565b9182825260019384811690816000146110035750600114610fc3575b50505050565b90919394506000526020928360002092846000945b838610610fef575050505001019038808080610fbd565b805485870183015294019385908201610fd8565b9294505050602093945060ff191683830152151560051b01019038808080610fbd565b60001981146110355760010190565b634e487b7160e01b600052601160045260246000fd5b8051821015610f295760209160051b01019056fea26469706673582212205c64e708e3433e7927050386eb6f4a8de10933f7fc664d3222d6c818a33e030e64736f6c63430008130033","opcodes":"PUSH1 0x80 DUP1 PUSH1 0x40 MSTORE CALLVALUE PUSH2 0x16 JUMPI PUSH2 0x1095 SWAP1 DUP2 PUSH2 0x1C DUP3 CODECOPY RETURN JUMPDEST PUSH1 0x0 DUP1 REVERT INVALID PUSH1 0x80 PUSH1 0x40 MSTORE PUSH1 0x4 CALLDATASIZE LT ISZERO PUSH2 0x12 JUMPI PUSH1 0x0 DUP1 REVERT JUMPDEST PUSH1 0x0 CALLDATALOAD PUSH1 0xE0 SHR DUP1 PUSH4 0x4DC596C4 EQ PUSH2 0x629 JUMPI DUP1 PUSH4 0x78041A8B EQ PUSH2 0x548 JUMPI DUP1 PUSH4 0x7B7C1C0E EQ PUSH2 0x204 JUMPI PUSH4 0xCCC2E7B3 EQ PUSH2 0x48 JUMPI PUSH1 0x0 DUP1 REVERT JUMPDEST CALLVALUE PUSH2 0x1FF JUMPI PUSH1 0x20 DUP1 PUSH1 0x3 NOT CALLDATASIZE ADD SLT PUSH2 0x1FF JUMPI PUSH1 0x1 PUSH1 0x1 PUSH1 0xA0 SHL SUB DUP1 PUSH2 0x6B PUSH2 0xD5C JUMP JUMPDEST AND PUSH1 0x0 MSTORE PUSH1 0x0 DUP3 MSTORE PUSH1 0x40 PUSH1 0x0 KECCAK256 SWAP2 DUP3 SLOAD SWAP1 PUSH2 0x85 DUP3 PUSH2 0xD45 JUMP JUMPDEST SWAP3 PUSH2 0x93 PUSH1 0x40 MLOAD SWAP5 DUP6 PUSH2 0xCCE JUMP JUMPDEST DUP3 DUP5 MSTORE PUSH1 0x0 SWAP5 DUP6 MSTORE DUP2 DUP6 KECCAK256 SWAP1 DUP3 DUP6 ADD JUMPDEST DUP5 DUP8 LT PUSH2 0xBC JUMPI PUSH1 0x40 MLOAD DUP1 PUSH2 0xB8 DUP9 DUP3 PUSH2 0xDB2 JUMP JUMPDEST SUB SWAP1 RETURN JUMPDEST DUP4 PUSH1 0x40 MLOAD PUSH2 0xC9 DUP2 PUSH2 0xCB2 JUMP JUMPDEST PUSH1 0x40 MLOAD PUSH2 0xE1 DUP2 PUSH2 0xDA DUP2 DUP10 PUSH2 0xF90 JUMP JUMPDEST SUB DUP3 PUSH2 0xCCE JUMP JUMPDEST DUP2 MSTORE PUSH1 0x40 MLOAD PUSH1 0x1 SWAP1 PUSH2 0xF9 DUP2 PUSH2 0xDA DUP2 DUP6 DUP12 ADD PUSH2 0xF90 JUMP JUMPDEST DUP4 DUP4 ADD MSTORE PUSH1 0x40 MLOAD PUSH2 0x111 DUP2 PUSH2 0xDA DUP2 PUSH1 0x2 DUP12 ADD PUSH2 0xF90 JUMP JUMPDEST PUSH1 0x40 DUP4 ADD MSTORE PUSH1 0x3 DUP7 ADD SLOAD PUSH1 0x60 DUP4 ADD MSTORE PUSH1 0x4 DUP7 ADD SLOAD PUSH1 0x80 DUP4 ADD MSTORE PUSH1 0x5 DUP7 ADD SLOAD PUSH1 0xA0 DUP4 ADD MSTORE PUSH1 0xFF SWAP1 DUP2 PUSH1 0x6 DUP9 ADD SLOAD AND ISZERO ISZERO PUSH1 0xC0 DUP5 ADD MSTORE PUSH1 0x7 DUP8 ADD SLOAD PUSH1 0xE0 DUP5 ADD MSTORE PUSH1 0x8 SWAP1 DUP2 DUP9 ADD SLOAD PUSH2 0x100 DUP6 ADD MSTORE PUSH1 0x9 DUP9 ADD PUSH1 0x40 MLOAD SWAP2 DUP3 DUP8 DUP4 SLOAD SWAP2 DUP3 DUP2 MSTORE ADD SWAP3 PUSH1 0x0 MSTORE DUP8 PUSH1 0x0 KECCAK256 SWAP2 PUSH1 0x0 SWAP2 JUMPDEST DUP1 DUP4 LT PUSH2 0x1E6 JUMPI POP POP POP POP SWAP2 DUP2 PUSH2 0x19B PUSH1 0x1 SWAP9 SWAP6 SWAP4 PUSH1 0xB SWAP9 SWAP8 SWAP6 SUB DUP3 PUSH2 0xCCE JUMP JUMPDEST PUSH2 0x120 DUP5 ADD MSTORE DUP2 PUSH1 0xA DUP11 ADD SLOAD DUP1 SWAP3 DUP3 DUP3 AND ISZERO ISZERO PUSH2 0x140 DUP8 ADD MSTORE SHR AND ISZERO ISZERO PUSH2 0x160 DUP5 ADD MSTORE DUP2 DUP2 PUSH1 0x10 SHR AND ISZERO ISZERO PUSH2 0x180 DUP5 ADD MSTORE PUSH1 0x18 SHR AND ISZERO ISZERO PUSH2 0x1A0 DUP3 ADD MSTORE DUP2 MSTORE ADD SWAP4 ADD SWAP7 ADD SWAP6 SWAP2 PUSH2 0xA3 JUMP JUMPDEST DUP4 SLOAD DUP13 AND DUP6 MSTORE DUP14 SWAP10 SWAP1 SWAP5 ADD SWAP4 SWAP3 DUP2 ADD SWAP3 SWAP2 DUP2 ADD SWAP2 PUSH2 0x17A JUMP JUMPDEST PUSH1 0x0 DUP1 REVERT JUMPDEST CALLVALUE PUSH2 0x1FF JUMPI PUSH1 0x20 DUP1 PUSH1 0x3 NOT CALLDATASIZE ADD SLT PUSH2 0x1FF JUMPI PUSH1 0x1 PUSH1 0x1 PUSH1 0xA0 SHL SUB SWAP1 DUP2 PUSH2 0x228 PUSH2 0xD5C JUMP JUMPDEST AND PUSH1 0x0 MSTORE PUSH1 0x0 DUP2 MSTORE PUSH1 0x40 PUSH1 0x0 KECCAK256 SWAP2 DUP3 SLOAD PUSH2 0x241 DUP2 PUSH2 0xD45 JUMP JUMPDEST SWAP4 PUSH2 0x24F PUSH1 0x40 MLOAD SWAP6 DUP7 PUSH2 0xCCE JUMP JUMPDEST DUP2 DUP6 MSTORE PUSH1 0x0 SWAP1 DUP2 MSTORE DUP4 DUP2 KECCAK256 DUP5 DUP7 ADD JUMPDEST DUP4 DUP4 LT PUSH2 0x40E JUMPI DUP7 DUP7 PUSH1 0x0 DUP1 JUMPDEST DUP4 MLOAD DUP2 LT ISZERO PUSH2 0x2CA JUMPI PUSH1 0xC0 PUSH2 0x280 DUP3 DUP7 PUSH2 0x104B JUMP JUMPDEST MLOAD ADD MLOAD ISZERO ISZERO DUP1 PUSH2 0x2B3 JUMPI JUMPDEST PUSH2 0x29E JUMPI JUMPDEST PUSH2 0x299 SWAP1 PUSH2 0x1026 JUMP JUMPDEST PUSH2 0x26B JUMP JUMPDEST SWAP1 PUSH2 0x2AB PUSH2 0x299 SWAP2 PUSH2 0x1026 JUMP JUMPDEST SWAP2 SWAP1 POP PUSH2 0x290 JUMP JUMPDEST POP PUSH1 0xA0 PUSH2 0x2C0 DUP3 DUP7 PUSH2 0x104B JUMP JUMPDEST MLOAD ADD MLOAD TIMESTAMP LT PUSH2 0x28B JUMP JUMPDEST POP SWAP1 PUSH2 0x2D5 DUP3 PUSH2 0xD45 JUMP JUMPDEST SWAP2 PUSH2 0x2E3 PUSH1 0x40 MLOAD SWAP4 DUP5 PUSH2 0xCCE JUMP JUMPDEST DUP1 DUP4 MSTORE PUSH2 0x2F2 PUSH1 0x1F NOT SWAP2 PUSH2 0xD45 JUMP JUMPDEST ADD PUSH1 0x0 JUMPDEST DUP2 DUP2 LT PUSH2 0x394 JUMPI POP POP POP PUSH1 0x0 SWAP1 PUSH1 0x0 JUMPDEST DUP4 MLOAD DUP2 LT ISZERO PUSH2 0x386 JUMPI PUSH1 0xC0 PUSH2 0x31B DUP3 DUP7 PUSH2 0x104B JUMP JUMPDEST MLOAD ADD MLOAD ISZERO ISZERO DUP1 PUSH2 0x36F JUMPI JUMPDEST PUSH2 0x339 JUMPI JUMPDEST PUSH2 0x334 SWAP1 PUSH2 0x1026 JUMP JUMPDEST PUSH2 0x306 JUMP JUMPDEST SWAP2 PUSH2 0x367 PUSH2 0x334 SWAP2 PUSH2 0x34B DUP6 DUP8 PUSH2 0x104B JUMP JUMPDEST MLOAD PUSH2 0x356 DUP3 DUP7 PUSH2 0x104B JUMP JUMPDEST MSTORE PUSH2 0x361 DUP2 DUP6 PUSH2 0x104B JUMP JUMPDEST POP PUSH2 0x1026 JUMP JUMPDEST SWAP3 SWAP1 POP PUSH2 0x32B JUMP JUMPDEST POP PUSH1 0xA0 PUSH2 0x37C DUP3 DUP7 PUSH2 0x104B JUMP JUMPDEST MLOAD ADD MLOAD TIMESTAMP LT PUSH2 0x326 JUMP JUMPDEST PUSH1 0x40 MLOAD DUP1 PUSH2 0xB8 DUP5 DUP3 PUSH2 0xDB2 JUMP JUMPDEST DUP3 SWAP1 PUSH1 0x40 MLOAD PUSH2 0x3A2 DUP2 PUSH2 0xCB2 JUMP JUMPDEST PUSH1 0x60 DUP1 DUP3 MSTORE DUP1 DUP5 DUP4 ADD MSTORE DUP1 PUSH1 0x40 DUP4 ADD MSTORE PUSH1 0x0 DUP2 DUP4 ADD MSTORE PUSH1 0x0 PUSH1 0x80 DUP4 ADD MSTORE PUSH1 0x0 PUSH1 0xA0 DUP4 ADD MSTORE PUSH1 0x0 PUSH1 0xC0 DUP4 ADD MSTORE PUSH1 0x0 PUSH1 0xE0 DUP4 ADD MSTORE PUSH1 0x0 PUSH2 0x100 DUP4 ADD MSTORE PUSH2 0x120 DUP3 ADD MSTORE PUSH1 0x0 PUSH2 0x140 DUP3 ADD MSTORE PUSH1 0x0 PUSH2 0x160 DUP3 ADD MSTORE PUSH1 0x0 PUSH2 0x180 DUP3 ADD MSTORE PUSH1 0x0 PUSH2 0x1A0 DUP3 ADD MSTORE DUP3 DUP3 DUP8 ADD ADD MSTORE ADD PUSH2 0x2F6 JUMP JUMPDEST DUP6 PUSH1 0x40 MLOAD PUSH2 0x41B DUP2 PUSH2 0xCB2 JUMP JUMPDEST PUSH1 0x40 MLOAD PUSH2 0x42C DUP2 PUSH2 0xDA DUP2 DUP9 PUSH2 0xF90 JUMP JUMPDEST DUP2 MSTORE PUSH1 0x40 MLOAD PUSH2 0x442 DUP2 PUSH2 0xDA DUP2 PUSH1 0x1 DUP10 ADD PUSH2 0xF90 JUMP JUMPDEST DUP3 DUP3 ADD MSTORE PUSH1 0x40 MLOAD PUSH2 0x45A DUP2 PUSH2 0xDA DUP2 PUSH1 0x2 DUP10 ADD PUSH2 0xF90 JUMP JUMPDEST PUSH1 0x40 DUP3 ADD MSTORE PUSH1 0x3 DUP5 ADD SLOAD PUSH1 0x60 DUP3 ADD MSTORE PUSH1 0x4 DUP5 ADD SLOAD PUSH1 0x80 DUP3 ADD MSTORE PUSH1 0x5 DUP5 ADD SLOAD PUSH1 0xA0 DUP3 ADD MSTORE PUSH1 0xFF DUP1 PUSH1 0x6 DUP7 ADD SLOAD AND ISZERO ISZERO PUSH1 0xC0 DUP4 ADD MSTORE PUSH1 0x7 DUP6 ADD SLOAD PUSH1 0xE0 DUP4 ADD MSTORE PUSH1 0x8 DUP6 ADD SLOAD PUSH2 0x100 DUP4 ADD MSTORE PUSH1 0x9 DUP6 ADD PUSH1 0x40 MLOAD SWAP1 DUP2 DUP6 DUP3 SLOAD SWAP2 DUP3 DUP2 MSTORE ADD SWAP2 PUSH1 0x0 MSTORE DUP6 PUSH1 0x0 KECCAK256 SWAP1 PUSH1 0x0 SWAP1 JUMPDEST DUP13 DUP2 DUP4 LT PUSH2 0x52D JUMPI POP POP POP POP SWAP2 DUP2 PUSH2 0x4E1 PUSH1 0xB SWAP7 SWAP6 SWAP4 PUSH1 0x1 SWAP9 SWAP6 SUB DUP3 PUSH2 0xCCE JUMP JUMPDEST PUSH2 0x120 DUP4 ADD MSTORE PUSH1 0xA DUP8 ADD SLOAD DUP2 DUP2 AND ISZERO ISZERO PUSH2 0x140 DUP5 ADD MSTORE DUP2 DUP2 PUSH1 0x8 SHR AND ISZERO ISZERO PUSH2 0x160 DUP5 ADD MSTORE DUP2 DUP2 PUSH1 0x10 SHR AND ISZERO ISZERO PUSH2 0x180 DUP5 ADD MSTORE PUSH1 0x18 SHR AND ISZERO ISZERO PUSH2 0x1A0 DUP3 ADD MSTORE DUP2 MSTORE ADD SWAP3 ADD SWAP3 ADD SWAP2 SWAP1 PUSH2 0x25E JUMP JUMPDEST DUP4 SLOAD AND DUP5 MSTORE DUP14 SWAP8 SWAP1 SWAP4 ADD SWAP3 PUSH1 0x1 SWAP3 DUP4 ADD SWAP3 SWAP2 SWAP1 SWAP2 ADD SWAP1 PUSH2 0x4C0 JUMP JUMPDEST CALLVALUE PUSH2 0x1FF JUMPI PUSH1 0x20 DUP1 PUSH1 0x3 NOT CALLDATASIZE ADD SLT PUSH2 0x1FF JUMPI PUSH1 0x4 CALLDATALOAD PUSH1 0x1 PUSH1 0x1 PUSH1 0x40 SHL SUB DUP2 GT PUSH2 0x1FF JUMPI PUSH2 0x579 SWAP1 CALLDATASIZE SWAP1 PUSH1 0x4 ADD PUSH2 0xCEF JUMP JUMPDEST CALLER PUSH1 0x0 MSTORE PUSH1 0x0 DUP3 MSTORE PUSH1 0x40 PUSH1 0x0 KECCAK256 SWAP1 PUSH1 0x0 SWAP2 DUP4 DUP3 ADD SWAP3 JUMPDEST DUP2 SLOAD DUP2 LT ISZERO PUSH2 0x627 JUMPI PUSH2 0xDA PUSH2 0x5B5 PUSH2 0x5A8 DUP4 DUP6 PUSH2 0xF0D JUMP JUMPDEST POP PUSH1 0x40 MLOAD SWAP3 DUP4 DUP1 SWAP3 PUSH2 0xF90 JUMP JUMPDEST DUP6 DUP2 MLOAD SWAP2 ADD KECCAK256 DUP4 MLOAD DUP6 KECCAK256 EQ PUSH2 0x5D2 JUMPI PUSH2 0x5CD SWAP1 PUSH2 0x1026 JUMP JUMPDEST PUSH2 0x58F JUMP JUMPDEST PUSH32 0xC80F4286DD0995F3A3EE6E0E6D35061EE7A310804F3EFE30614119D319C2573 SWAP4 POP PUSH2 0x605 PUSH1 0x6 SWAP2 PUSH2 0x622 SWAP5 SWAP4 PUSH2 0xF0D JUMP JUMPDEST POP ADD PUSH1 0xFF NOT DUP2 SLOAD AND SWAP1 SSTORE PUSH1 0x40 MLOAD SWAP2 DUP3 SWAP2 DUP6 DUP4 MSTORE CALLER SWAP6 DUP4 ADD SWAP1 PUSH2 0xD72 JUMP JUMPDEST SUB SWAP1 LOG2 STOP JUMPDEST STOP JUMPDEST CALLVALUE PUSH2 0x1FF JUMPI PUSH2 0x1A0 CALLDATASIZE PUSH1 0x3 NOT ADD SLT PUSH2 0x1FF JUMPI PUSH1 0x4 CALLDATALOAD PUSH1 0x1 PUSH1 0x1 PUSH1 0x40 SHL SUB DUP2 GT PUSH2 0x1FF JUMPI PUSH2 0x65A SWAP1 CALLDATASIZE SWAP1 PUSH1 0x4 ADD PUSH2 0xCEF JUMP JUMPDEST PUSH1 0x24 CALLDATALOAD PUSH1 0x1 PUSH1 0x1 PUSH1 0x40 SHL SUB DUP2 GT PUSH2 0x1FF JUMPI PUSH2 0x679 SWAP1 CALLDATASIZE SWAP1 PUSH1 0x4 ADD PUSH2 0xCEF JUMP JUMPDEST PUSH1 0x44 CALLDATALOAD PUSH1 0x1 PUSH1 0x1 PUSH1 0x40 SHL SUB DUP2 GT PUSH2 0x1FF JUMPI PUSH2 0x698 SWAP1 CALLDATASIZE SWAP1 PUSH1 0x4 ADD PUSH2 0xCEF JUMP JUMPDEST PUSH2 0x104 CALLDATALOAD PUSH1 0x1 PUSH1 0x1 PUSH1 0x40 SHL SUB DUP2 GT PUSH2 0x1FF JUMPI CALLDATASIZE PUSH1 0x23 DUP3 ADD SLT ISZERO PUSH2 0x1FF JUMPI DUP1 PUSH1 0x4 ADD CALLDATALOAD PUSH2 0x6C3 DUP2 PUSH2 0xD45 JUMP JUMPDEST SWAP2 PUSH2 0x6D1 PUSH1 0x40 MLOAD SWAP4 DUP5 PUSH2 0xCCE JUMP JUMPDEST DUP2 DUP4 MSTORE PUSH1 0x24 PUSH1 0x20 DUP5 ADD SWAP3 PUSH1 0x5 SHL DUP3 ADD ADD SWAP1 CALLDATASIZE DUP3 GT PUSH2 0x1FF JUMPI PUSH1 0x24 ADD SWAP2 JUMPDEST DUP2 DUP4 LT PUSH2 0xC92 JUMPI POP POP POP PUSH2 0x124 CALLDATALOAD DUP1 ISZERO ISZERO DUP2 SUB PUSH2 0x1FF JUMPI PUSH2 0x144 CALLDATALOAD SWAP1 DUP2 ISZERO ISZERO DUP3 SUB PUSH2 0x1FF JUMPI PUSH2 0x164 CALLDATALOAD SWAP3 DUP4 ISZERO ISZERO DUP5 SUB PUSH2 0x1FF JUMPI PUSH2 0x184 CALLDATALOAD SWAP5 DUP6 ISZERO ISZERO DUP7 SUB PUSH2 0x1FF JUMPI PUSH1 0x40 MLOAD SWAP7 PUSH2 0x73C DUP9 PUSH2 0xCB2 JUMP JUMPDEST DUP9 DUP9 MSTORE PUSH1 0x20 DUP9 ADD MSTORE PUSH1 0x40 DUP8 ADD MSTORE PUSH1 0x64 CALLDATALOAD PUSH1 0x60 DUP8 ADD MSTORE PUSH1 0x84 CALLDATALOAD PUSH1 0x80 DUP8 ADD MSTORE PUSH1 0xA4 CALLDATALOAD PUSH1 0xA0 DUP8 ADD MSTORE PUSH1 0x1 PUSH1 0xC0 DUP8 ADD MSTORE PUSH1 0xC4 CALLDATALOAD PUSH1 0xE0 DUP8 ADD MSTORE PUSH1 0xE4 CALLDATALOAD PUSH2 0x100 DUP8 ADD MSTORE PUSH2 0x120 DUP7 ADD MSTORE ISZERO ISZERO PUSH2 0x140 DUP6 ADD MSTORE ISZERO ISZERO PUSH2 0x160 DUP5 ADD MSTORE ISZERO ISZERO PUSH2 0x180 DUP4 ADD MSTORE ISZERO ISZERO PUSH2 0x1A0 DUP3 ADD MSTORE CALLER PUSH1 0x0 MSTORE PUSH1 0x0 PUSH1 0x20 MSTORE PUSH1 0x40 PUSH1 0x0 KECCAK256 DUP1 SLOAD PUSH1 0x1 PUSH1 0x40 SHL DUP2 LT ISZERO PUSH2 0xA57 JUMPI PUSH2 0x7CA SWAP2 PUSH1 0x1 DUP3 ADD DUP2 SSTORE PUSH2 0xF0D JUMP JUMPDEST PUSH2 0xC7C JUMPI DUP2 MLOAD SWAP3 DUP4 MLOAD PUSH1 0x1 PUSH1 0x1 PUSH1 0x40 SHL SUB DUP2 GT PUSH2 0xA57 JUMPI PUSH2 0x7EB DUP4 SLOAD PUSH2 0xF3F JUMP JUMPDEST PUSH1 0x1F DUP2 GT PUSH2 0xC4A JUMPI JUMPDEST POP PUSH1 0x20 PUSH1 0x1F DUP3 GT PUSH1 0x1 EQ PUSH2 0xBE1 JUMPI DUP2 SWAP3 SWAP4 SWAP5 SWAP6 PUSH1 0x0 SWAP3 PUSH2 0xBD6 JUMPI JUMPDEST POP POP DUP2 PUSH1 0x1 SHL SWAP2 PUSH1 0x0 NOT SWAP1 PUSH1 0x3 SHL SHR NOT AND OR DUP3 SSTORE JUMPDEST PUSH1 0x20 DUP4 ADD MLOAD SWAP3 DUP4 MLOAD PUSH1 0x1 PUSH1 0x1 PUSH1 0x40 SHL SUB DUP2 GT PUSH2 0xA57 JUMPI PUSH2 0x847 PUSH1 0x1 DUP6 ADD SLOAD PUSH2 0xF3F JUMP JUMPDEST PUSH1 0x1F DUP2 GT PUSH2 0xBA1 JUMPI JUMPDEST POP PUSH1 0x20 PUSH1 0x1F DUP3 GT PUSH1 0x1 EQ PUSH2 0xB32 JUMPI DUP2 SWAP3 SWAP4 SWAP5 SWAP6 PUSH1 0x0 SWAP3 PUSH2 0xB27 JUMPI JUMPDEST POP POP DUP2 PUSH1 0x1 SHL SWAP2 PUSH1 0x0 NOT SWAP1 PUSH1 0x3 SHL SHR NOT AND OR PUSH1 0x1 DUP5 ADD SSTORE JUMPDEST PUSH1 0x40 DUP2 ADD MLOAD SWAP3 DUP4 MLOAD PUSH1 0x1 PUSH1 0x1 PUSH1 0x40 SHL SUB DUP2 GT PUSH2 0xA57 JUMPI PUSH2 0x8A6 PUSH1 0x2 DUP4 ADD SLOAD PUSH2 0xF3F JUMP JUMPDEST PUSH1 0x1F DUP2 GT PUSH2 0xAE7 JUMPI JUMPDEST POP PUSH1 0x20 PUSH1 0x1F DUP3 GT PUSH1 0x1 EQ PUSH2 0xA78 JUMPI DUP2 SWAP3 SWAP4 SWAP5 SWAP6 PUSH1 0x0 SWAP3 PUSH2 0xA6D JUMPI JUMPDEST POP POP DUP2 PUSH1 0x1 SHL SWAP2 PUSH1 0x0 NOT SWAP1 PUSH1 0x3 SHL SHR NOT AND OR PUSH1 0x2 DUP3 ADD SSTORE JUMPDEST PUSH1 0x60 DUP3 ADD MLOAD PUSH1 0x3 DUP3 ADD SSTORE PUSH1 0x80 DUP3 ADD MLOAD PUSH1 0x4 DUP3 ADD SSTORE PUSH1 0xA0 DUP3 ADD MLOAD PUSH1 0x5 DUP3 ADD SSTORE PUSH2 0x91F PUSH1 0xC0 DUP4 ADD MLOAD ISZERO ISZERO PUSH1 0x6 DUP4 ADD SWAP1 PUSH1 0xFF DUP1 NOT DUP4 SLOAD AND SWAP2 ISZERO ISZERO AND OR SWAP1 SSTORE JUMP JUMPDEST PUSH1 0xE0 DUP3 ADD MLOAD PUSH1 0x7 DUP3 ADD SSTORE PUSH2 0x100 DUP3 ADD MLOAD PUSH1 0x8 DUP3 ADD SSTORE PUSH1 0x9 DUP2 ADD PUSH2 0x120 DUP4 ADD MLOAD SWAP1 DUP2 MLOAD SWAP2 PUSH1 0x1 PUSH1 0x1 PUSH1 0x40 SHL SUB DUP4 GT PUSH2 0xA57 JUMPI PUSH1 0x1 PUSH1 0x40 SHL DUP4 GT PUSH2 0xA57 JUMPI PUSH1 0x20 SWAP1 DUP3 SLOAD DUP5 DUP5 SSTORE DUP1 DUP6 LT PUSH2 0xA3A JUMPI JUMPDEST POP ADD SWAP1 PUSH1 0x0 MSTORE PUSH1 0x20 PUSH1 0x0 KECCAK256 PUSH1 0x0 JUMPDEST DUP4 DUP2 LT PUSH2 0xA1D JUMPI DUP7 DUP7 PUSH1 0xA DUP8 ADD SWAP1 PUSH2 0x9A4 PUSH2 0x140 DUP3 ADD MLOAD ISZERO ISZERO DUP4 SWAP1 PUSH1 0xFF DUP1 NOT DUP4 SLOAD AND SWAP2 ISZERO ISZERO AND OR SWAP1 SSTORE JUMP JUMPDEST PUSH2 0x160 DUP2 ADD MLOAD ISZERO ISZERO SWAP1 DUP3 SLOAD PUSH2 0xFF00 PUSH4 0xFF000000 PUSH2 0x1A0 PUSH3 0xFF0000 PUSH2 0x180 DUP7 ADD MLOAD ISZERO ISZERO PUSH1 0x10 SHL AND SWAP5 ADD MLOAD ISZERO ISZERO PUSH1 0x18 SHL AND SWAP4 PUSH1 0x8 SHL AND SWAP1 PUSH4 0xFFFFFF00 NOT AND OR OR OR SWAP1 SSTORE PUSH32 0x25B930C9D71E8CD9EAD4BF0C25F5CD650C1B71533C4FC8E0F3D3BC3B8C9B6156 PUSH1 0x40 MLOAD PUSH1 0x20 DUP2 MSTORE DUP1 PUSH2 0x622 CALLER SWAP5 PUSH1 0x20 DUP4 ADD SWAP1 PUSH2 0xD72 JUMP JUMPDEST DUP3 MLOAD PUSH1 0x1 PUSH1 0x1 PUSH1 0xA0 SHL SUB AND DUP2 DUP4 ADD SSTORE PUSH1 0x20 SWAP1 SWAP3 ADD SWAP2 PUSH1 0x1 ADD PUSH2 0x979 JUMP JUMPDEST PUSH2 0xA51 SWAP1 DUP5 PUSH1 0x0 MSTORE DUP6 DUP5 PUSH1 0x0 KECCAK256 SWAP2 DUP3 ADD SWAP2 ADD PUSH2 0xF79 JUMP JUMPDEST DUP8 PUSH2 0x96B JUMP JUMPDEST PUSH4 0x4E487B71 PUSH1 0xE0 SHL PUSH1 0x0 MSTORE PUSH1 0x41 PUSH1 0x4 MSTORE PUSH1 0x24 PUSH1 0x0 REVERT JUMPDEST ADD MLOAD SWAP1 POP DUP6 DUP1 PUSH2 0x8CA JUMP JUMPDEST PUSH1 0x2 DUP4 ADD PUSH1 0x0 MSTORE PUSH1 0x20 PUSH1 0x0 KECCAK256 SWAP1 PUSH1 0x0 JUMPDEST PUSH1 0x1F NOT DUP5 AND DUP2 LT PUSH2 0xACF JUMPI POP PUSH1 0x1 SWAP4 SWAP5 SWAP6 SWAP7 DUP4 PUSH1 0x1F NOT DUP2 AND LT PUSH2 0xAB6 JUMPI JUMPDEST POP POP POP DUP2 SHL ADD PUSH1 0x2 DUP3 ADD SSTORE PUSH2 0x8E2 JUMP JUMPDEST ADD MLOAD PUSH1 0x0 NOT PUSH1 0xF8 DUP5 PUSH1 0x3 SHL AND SHR NOT AND SWAP1 SSTORE DUP6 DUP1 DUP1 PUSH2 0xAA6 JUMP JUMPDEST SWAP1 SWAP2 PUSH1 0x20 PUSH1 0x1 DUP2 SWAP3 DUP6 DUP12 ADD MLOAD DUP2 SSTORE ADD SWAP4 ADD SWAP2 ADD PUSH2 0xA88 JUMP JUMPDEST PUSH2 0xB17 SWAP1 PUSH1 0x2 DUP5 ADD PUSH1 0x0 MSTORE PUSH1 0x20 PUSH1 0x0 KECCAK256 PUSH1 0x1F DUP5 ADD PUSH1 0x5 SHR DUP2 ADD SWAP2 PUSH1 0x20 DUP6 LT PUSH2 0xB1D JUMPI JUMPDEST PUSH1 0x1F ADD PUSH1 0x5 SHR ADD SWAP1 PUSH2 0xF79 JUMP JUMPDEST DUP6 PUSH2 0x8AF JUMP JUMPDEST SWAP1 SWAP2 POP DUP2 SWAP1 PUSH2 0xB0A JUMP JUMPDEST ADD MLOAD SWAP1 POP DUP6 DUP1 PUSH2 0x86B JUMP JUMPDEST PUSH1 0x1 DUP6 ADD PUSH1 0x0 MSTORE PUSH1 0x20 PUSH1 0x0 KECCAK256 SWAP1 PUSH1 0x0 JUMPDEST PUSH1 0x1F NOT DUP5 AND DUP2 LT PUSH2 0xB89 JUMPI POP PUSH1 0x1 SWAP4 SWAP5 SWAP6 SWAP7 DUP4 PUSH1 0x1F NOT DUP2 AND LT PUSH2 0xB70 JUMPI JUMPDEST POP POP POP DUP2 SHL ADD PUSH1 0x1 DUP5 ADD SSTORE PUSH2 0x883 JUMP JUMPDEST ADD MLOAD PUSH1 0x0 NOT PUSH1 0xF8 DUP5 PUSH1 0x3 SHL AND SHR NOT AND SWAP1 SSTORE DUP6 DUP1 DUP1 PUSH2 0xB60 JUMP JUMPDEST SWAP1 SWAP2 PUSH1 0x20 PUSH1 0x1 DUP2 SWAP3 DUP6 DUP12 ADD MLOAD DUP2 SSTORE ADD SWAP4 ADD SWAP2 ADD PUSH2 0xB42 JUMP JUMPDEST PUSH2 0xBD0 SWAP1 PUSH1 0x1 DUP7 ADD PUSH1 0x0 MSTORE PUSH1 0x20 PUSH1 0x0 KECCAK256 PUSH1 0x1F DUP5 ADD PUSH1 0x5 SHR DUP2 ADD SWAP2 PUSH1 0x20 DUP6 LT PUSH2 0xB1D JUMPI PUSH1 0x1F ADD PUSH1 0x5 SHR ADD SWAP1 PUSH2 0xF79 JUMP JUMPDEST DUP6 PUSH2 0x850 JUMP JUMPDEST ADD MLOAD SWAP1 POP DUP6 DUP1 PUSH2 0x80F JUMP JUMPDEST DUP4 PUSH1 0x0 MSTORE PUSH1 0x20 PUSH1 0x0 KECCAK256 SWAP1 PUSH1 0x0 JUMPDEST PUSH1 0x1F NOT DUP5 AND DUP2 LT PUSH2 0xC32 JUMPI POP PUSH1 0x1 SWAP4 SWAP5 SWAP6 SWAP7 DUP4 PUSH1 0x1F NOT DUP2 AND LT PUSH2 0xC19 JUMPI JUMPDEST POP POP POP DUP2 SHL ADD DUP3 SSTORE PUSH2 0x824 JUMP JUMPDEST ADD MLOAD PUSH1 0x0 NOT PUSH1 0xF8 DUP5 PUSH1 0x3 SHL AND SHR NOT AND SWAP1 SSTORE DUP6 DUP1 DUP1 PUSH2 0xC0C JUMP JUMPDEST SWAP1 SWAP2 PUSH1 0x20 PUSH1 0x1 DUP2 SWAP3 DUP6 DUP12 ADD MLOAD DUP2 SSTORE ADD SWAP4 ADD SWAP2 ADD PUSH2 0xBEE JUMP JUMPDEST PUSH2 0xC76 SWAP1 DUP5 PUSH1 0x0 MSTORE PUSH1 0x20 PUSH1 0x0 KECCAK256 PUSH1 0x1F DUP5 ADD PUSH1 0x5 SHR DUP2 ADD SWAP2 PUSH1 0x20 DUP6 LT PUSH2 0xB1D JUMPI PUSH1 0x1F ADD PUSH1 0x5 SHR ADD SWAP1 PUSH2 0xF79 JUMP JUMPDEST DUP6 PUSH2 0x7F4 JUMP JUMPDEST PUSH4 0x4E487B71 PUSH1 0xE0 SHL PUSH1 0x0 MSTORE PUSH1 0x0 PUSH1 0x4 MSTORE PUSH1 0x24 PUSH1 0x0 REVERT JUMPDEST DUP3 CALLDATALOAD PUSH1 0x1 PUSH1 0x1 PUSH1 0xA0 SHL SUB DUP2 AND DUP2 SUB PUSH2 0x1FF JUMPI DUP2 MSTORE PUSH1 0x20 SWAP3 DUP4 ADD SWAP3 ADD PUSH2 0x6EE JUMP JUMPDEST PUSH2 0x1C0 DUP2 ADD SWAP1 DUP2 LT PUSH1 0x1 PUSH1 0x1 PUSH1 0x40 SHL SUB DUP3 GT OR PUSH2 0xA57 JUMPI PUSH1 0x40 MSTORE JUMP JUMPDEST SWAP1 PUSH1 0x1F DUP1 NOT SWAP2 ADD AND DUP2 ADD SWAP1 DUP2 LT PUSH1 0x1 PUSH1 0x1 PUSH1 0x40 SHL SUB DUP3 GT OR PUSH2 0xA57 JUMPI PUSH1 0x40 MSTORE JUMP JUMPDEST DUP2 PUSH1 0x1F DUP3 ADD SLT ISZERO PUSH2 0x1FF JUMPI DUP1 CALLDATALOAD SWAP1 PUSH1 0x1 PUSH1 0x1 PUSH1 0x40 SHL SUB DUP3 GT PUSH2 0xA57 JUMPI PUSH1 0x40 MLOAD SWAP3 PUSH2 0xD23 PUSH1 0x1F DUP5 ADD PUSH1 0x1F NOT AND PUSH1 0x20 ADD DUP6 PUSH2 0xCCE JUMP JUMPDEST DUP3 DUP5 MSTORE PUSH1 0x20 DUP4 DUP4 ADD ADD GT PUSH2 0x1FF JUMPI DUP2 PUSH1 0x0 SWAP3 PUSH1 0x20 DUP1 SWAP4 ADD DUP4 DUP7 ADD CALLDATACOPY DUP4 ADD ADD MSTORE SWAP1 JUMP JUMPDEST PUSH1 0x1 PUSH1 0x1 PUSH1 0x40 SHL SUB DUP2 GT PUSH2 0xA57 JUMPI PUSH1 0x5 SHL PUSH1 0x20 ADD SWAP1 JUMP JUMPDEST PUSH1 0x4 CALLDATALOAD SWAP1 PUSH1 0x1 PUSH1 0x1 PUSH1 0xA0 SHL SUB DUP3 AND DUP3 SUB PUSH2 0x1FF JUMPI JUMP JUMPDEST SWAP2 SWAP1 DUP3 MLOAD SWAP3 DUP4 DUP3 MSTORE PUSH1 0x0 JUMPDEST DUP5 DUP2 LT PUSH2 0xD9E JUMPI POP POP DUP3 PUSH1 0x0 PUSH1 0x20 DUP1 SWAP5 SWAP6 DUP5 ADD ADD MSTORE PUSH1 0x1F DUP1 NOT SWAP2 ADD AND ADD ADD SWAP1 JUMP JUMPDEST PUSH1 0x20 DUP2 DUP4 ADD DUP2 ADD MLOAD DUP5 DUP4 ADD DUP3 ADD MSTORE ADD PUSH2 0xD7D JUMP JUMPDEST PUSH1 0x20 DUP1 DUP3 ADD SWAP1 DUP1 DUP4 MSTORE DUP4 MLOAD DUP1 SWAP3 MSTORE PUSH1 0x40 SWAP3 DUP4 DUP2 ADD DUP3 DUP6 DUP6 PUSH1 0x5 SHL DUP5 ADD ADD SWAP7 ADD SWAP5 PUSH1 0x0 SWAP1 DUP2 SWAP4 JUMPDEST DUP7 DUP6 LT PUSH2 0xDEA JUMPI POP POP POP POP POP POP POP POP SWAP1 JUMP JUMPDEST SWAP1 SWAP2 SWAP3 SWAP4 SWAP5 SWAP6 SWAP7 SWAP8 PUSH1 0x3F NOT DUP3 DUP3 SUB ADD DUP6 MSTORE DUP7 DUP10 MLOAD PUSH2 0xE37 PUSH2 0xE27 PUSH2 0xE17 DUP4 MLOAD PUSH2 0x1C0 DUP1 DUP9 MSTORE DUP8 ADD SWAP1 PUSH2 0xD72 JUMP JUMPDEST DUP5 DUP5 ADD MLOAD DUP7 DUP3 SUB DUP7 DUP9 ADD MSTORE PUSH2 0xD72 JUMP JUMPDEST DUP7 DUP4 ADD MLOAD DUP6 DUP3 SUB DUP9 DUP8 ADD MSTORE PUSH2 0xD72 JUMP JUMPDEST SWAP1 PUSH1 0x60 DUP1 DUP3 ADD MLOAD SWAP1 DUP6 ADD MSTORE PUSH1 0x80 DUP1 DUP3 ADD MLOAD SWAP1 DUP6 ADD MSTORE PUSH1 0xA0 DUP1 DUP3 ADD MLOAD SWAP1 DUP6 ADD MSTORE PUSH1 0xC0 DUP1 DUP3 ADD MLOAD ISZERO ISZERO SWAP1 DUP6 ADD MSTORE PUSH1 0xE0 DUP1 DUP3 ADD MLOAD SWAP1 DUP6 ADD MSTORE PUSH2 0x100 DUP1 DUP3 ADD MLOAD SWAP1 DUP6 ADD MSTORE PUSH2 0x120 SWAP2 DUP3 DUP3 ADD MLOAD SWAP3 DUP6 DUP3 SUB SWAP1 DUP7 ADD MSTORE DUP4 DUP1 DUP5 MLOAD SWAP3 DUP4 DUP2 MSTORE ADD SWAP4 ADD SWAP1 DUP9 SWAP1 JUMPDEST DUP1 DUP3 LT PUSH2 0xEEA JUMPI POP POP POP PUSH2 0x140 DUP1 DUP3 ADD MLOAD ISZERO ISZERO SWAP1 DUP6 ADD MSTORE PUSH2 0x160 DUP1 DUP3 ADD MLOAD ISZERO ISZERO SWAP1 DUP6 ADD MSTORE PUSH2 0x180 DUP1 DUP3 ADD MLOAD ISZERO ISZERO SWAP1 DUP6 ADD MSTORE PUSH2 0x1A0 SWAP1 DUP2 ADD MLOAD ISZERO ISZERO SWAP4 ADD SWAP3 SWAP1 SWAP3 MSTORE SWAP1 SWAP9 DUP2 ADD SWAP8 SWAP7 SWAP6 PUSH1 0x1 ADD SWAP5 ADD SWAP3 SWAP2 SWAP1 PUSH2 0xDD8 JUMP JUMPDEST DUP3 MLOAD PUSH1 0x1 PUSH1 0x1 PUSH1 0xA0 SHL SUB AND DUP6 MSTORE DUP13 SWAP6 SWAP5 DUP6 ADD SWAP5 SWAP1 SWAP3 ADD SWAP2 PUSH1 0x1 SWAP2 SWAP1 SWAP2 ADD SWAP1 PUSH2 0xE96 JUMP JUMPDEST DUP1 SLOAD DUP3 LT ISZERO PUSH2 0xF29 JUMPI PUSH1 0x0 MSTORE PUSH1 0xB PUSH1 0x20 PUSH1 0x0 KECCAK256 SWAP2 MUL ADD SWAP1 PUSH1 0x0 SWAP1 JUMP JUMPDEST PUSH4 0x4E487B71 PUSH1 0xE0 SHL PUSH1 0x0 MSTORE PUSH1 0x32 PUSH1 0x4 MSTORE PUSH1 0x24 PUSH1 0x0 REVERT JUMPDEST SWAP1 PUSH1 0x1 DUP3 DUP2 SHR SWAP3 AND DUP1 ISZERO PUSH2 0xF6F JUMPI JUMPDEST PUSH1 0x20 DUP4 LT EQ PUSH2 0xF59 JUMPI JUMP JUMPDEST PUSH4 0x4E487B71 PUSH1 0xE0 SHL PUSH1 0x0 MSTORE PUSH1 0x22 PUSH1 0x4 MSTORE PUSH1 0x24 PUSH1 0x0 REVERT JUMPDEST SWAP2 PUSH1 0x7F AND SWAP2 PUSH2 0xF4E JUMP JUMPDEST DUP2 DUP2 LT PUSH2 0xF84 JUMPI POP POP JUMP JUMPDEST PUSH1 0x0 DUP2 SSTORE PUSH1 0x1 ADD PUSH2 0xF79 JUMP JUMPDEST SWAP1 PUSH1 0x0 SWAP3 SWAP2 DUP1 SLOAD SWAP2 PUSH2 0xFA1 DUP4 PUSH2 0xF3F JUMP JUMPDEST SWAP2 DUP3 DUP3 MSTORE PUSH1 0x1 SWAP4 DUP5 DUP2 AND SWAP1 DUP2 PUSH1 0x0 EQ PUSH2 0x1003 JUMPI POP PUSH1 0x1 EQ PUSH2 0xFC3 JUMPI JUMPDEST POP POP POP POP JUMP JUMPDEST SWAP1 SWAP2 SWAP4 SWAP5 POP PUSH1 0x0 MSTORE PUSH1 0x20 SWAP3 DUP4 PUSH1 0x0 KECCAK256 SWAP3 DUP5 PUSH1 0x0 SWAP5 JUMPDEST DUP4 DUP7 LT PUSH2 0xFEF JUMPI POP POP POP POP ADD ADD SWAP1 CODESIZE DUP1 DUP1 DUP1 PUSH2 0xFBD JUMP JUMPDEST DUP1 SLOAD DUP6 DUP8 ADD DUP4 ADD MSTORE SWAP5 ADD SWAP4 DUP6 SWAP1 DUP3 ADD PUSH2 0xFD8 JUMP JUMPDEST SWAP3 SWAP5 POP POP POP PUSH1 0x20 SWAP4 SWAP5 POP PUSH1 0xFF NOT AND DUP4 DUP4 ADD MSTORE ISZERO ISZERO PUSH1 0x5 SHL ADD ADD SWAP1 CODESIZE DUP1 DUP1 DUP1 PUSH2 0xFBD JUMP JUMPDEST PUSH1 0x0 NOT DUP2 EQ PUSH2 0x1035 JUMPI PUSH1 0x1 ADD SWAP1 JUMP JUMPDEST PUSH4 0x4E487B71 PUSH1 0xE0 SHL PUSH1 0x0 MSTORE PUSH1 0x11 PUSH1 0x4 MSTORE PUSH1 0x24 PUSH1 0x0 REVERT JUMPDEST DUP1 MLOAD DUP3 LT ISZERO PUSH2 0xF29 JUMPI PUSH1 0x20 SWAP2 PUSH1 0x5 SHL ADD ADD SWAP1 JUMP INVALID LOG2 PUSH5 0x6970667358 0x22 SLT KECCAK256 0x5C PUSH5 0xE708E3433E PUSH26 0x27050386EB6F4A8DE10933F7FC664D3222D6C818A33E030E6473 PUSH16 0x6C634300081300330000000000000000 "},"methodIdentifiers":{"addInsurancePlan(string,string,string,uint256,uint256,uint256,uint256,uint256,address[],bool,bool,bool,bool)":"4dc596c4","cancelInsurancePlan(string)":"78041a8b","getActiveInsurancePlans(address)":"7b7c1c0e","getInsurancePlans(address)":"ccc2e7b3"}}}}}