{"contracts/HealthcareSystem.sol":{"HealthcareSystem":{"abi":[{"inputs":[],"stateMutability":"nonpayable","type":"constructor"},{"anonymous":false,"inputs":[{"indexed":true,"internalType":"string","name":"patientAadhar","type":"string"},{"indexed":true,"internalType":"address","name":"provider","type":"address"},{"indexed":false,"internalType":"enum HealthcareSystem.AccessLevel","name":"level","type":"uint8"}],"name":"AccessGranted","type":"event"},{"anonymous":false,"inputs":[{"indexed":true,"internalType":"string","name":"patientAadhar","type":"string"},{"indexed":true,"internalType":"address","name":"accessor","type":"address"},{"indexed":false,"internalType":"string","name":"action","type":"string"}],"name":"AccessLogAdded","type":"event"},{"anonymous":false,"inputs":[{"indexed":true,"internalType":"string","name":"patientAadhar","type":"string"},{"indexed":true,"internalType":"address","name":"provider","type":"address"}],"name":"AccessRevoked","type":"event"},{"anonymous":false,"inputs":[{"indexed":true,"internalType":"uint256","name":"appointmentId","type":"uint256"},{"indexed":false,"internalType":"string","name":"patientAadhar","type":"string"},{"indexed":false,"internalType":"address","name":"doctor","type":"address"}],"name":"AppointmentScheduled","type":"event"},{"anonymous":false,"inputs":[{"indexed":true,"internalType":"uint256","name":"appointmentId","type":"uint256"},{"indexed":false,"internalType":"enum HealthcareSystem.AppointmentStatus","name":"status","type":"uint8"}],"name":"AppointmentStatusUpdated","type":"event"},{"anonymous":false,"inputs":[{"indexed":true,"internalType":"address","name":"doctor","type":"address"},{"indexed":false,"internalType":"string","name":"name","type":"string"},{"indexed":false,"internalType":"string","name":"specialization","type":"string"}],"name":"DoctorRegistered","type":"event"},{"anonymous":false,"inputs":[{"indexed":true,"internalType":"string","name":"patientAadhar","type":"string"}],"name":"EmergencyAccessActivated","type":"event"},{"anonymous":false,"inputs":[{"indexed":true,"internalType":"string","name":"patientAadhar","type":"string"}],"name":"EmergencyAccessDeactivated","type":"event"},{"anonymous":false,"inputs":[{"indexed":true,"internalType":"string","name":"aadharNumber","type":"string"},{"indexed":false,"internalType":"string","name":"alertType","type":"string"}],"name":"HealthAlertCreated","type":"event"},{"anonymous":false,"inputs":[{"indexed":true,"internalType":"string","name":"aadharNumber","type":"string"},{"indexed":false,"internalType":"uint256","name":"amount","type":"uint256"}],"name":"HealthCoinsAwarded","type":"event"},{"anonymous":false,"inputs":[{"indexed":true,"internalType":"string","name":"aadharNumber","type":"string"},{"indexed":false,"internalType":"uint256","name":"amount","type":"uint256"}],"name":"HealthCoinsRedeemed","type":"event"},{"anonymous":false,"inputs":[{"indexed":true,"internalType":"string","name":"aadharNumber","type":"string"},{"indexed":false,"internalType":"string","name":"metricType","type":"string"},{"indexed":false,"internalType":"uint256","name":"value","type":"uint256"}],"name":"HealthMetricAdded","type":"event"},{"anonymous":false,"inputs":[{"indexed":true,"internalType":"string","name":"aadharNumber","type":"string"},{"indexed":false,"internalType":"string","name":"medication","type":"string"},{"indexed":false,"internalType":"string","name":"effectiveness","type":"string"}],"name":"MedicationTrackingUpdated","type":"event"},{"anonymous":false,"inputs":[{"indexed":true,"internalType":"string","name":"aadharNumber","type":"string"}],"name":"PatientRegistered","type":"event"},{"anonymous":false,"inputs":[{"indexed":true,"internalType":"uint256","name":"prescriptionId","type":"uint256"},{"indexed":true,"internalType":"string","name":"aadharNumber","type":"string"},{"indexed":true,"internalType":"address","name":"hospital","type":"address"}],"name":"PrescriptionAdded","type":"event"},{"inputs":[{"internalType":"string","name":"_patientAadhar","type":"string"}],"name":"activateEmergencyAccess","outputs":[],"stateMutability":"nonpayable","type":"function"},{"inputs":[{"internalType":"string","name":"_patientAadhar","type":"string"},{"internalType":"address","name":"_contact","type":"address"}],"name":"addEmergencyContact","outputs":[],"stateMutability":"nonpayable","type":"function"},{"inputs":[{"internalType":"string","name":"_patientAadhar","type":"string"},{"internalType":"string","name":"_metricType","type":"string"},{"internalType":"uint256","name":"_value","type":"uint256"},{"internalType":"string","name":"_notes","type":"string"}],"name":"addHealthMetric","outputs":[],"stateMutability":"nonpayable","type":"function"},{"inputs":[{"internalType":"string","name":"_patientAadhar","type":"string"},{"internalType":"string","name":"_diagnosis","type":"string"},{"internalType":"string","name":"_medicines","type":"string"},{"internalType":"string","name":"_notes","type":"string"},{"internalType":"string","name":"_hospitalName","type":"string"}],"name":"addPrescription","outputs":[],"stateMutability":"nonpayable","type":"function"},{"inputs":[{"internalType":"uint256","name":"","type":"uint256"}],"name":"appointments","outputs":[{"internalType":"uint256","name":"id","type":"uint256"},{"internalType":"string","name":"patientAadhar","type":"string"},{"internalType":"uint256","name":"timestamp","type":"uint256"},{"internalType":"enum HealthcareSystem.AppointmentStatus","name":"status","type":"uint8"},{"internalType":"string","name":"contactEmail","type":"string"},{"internalType":"string","name":"contactPhone","type":"string"},{"internalType":"string","name":"notes","type":"string"},{"internalType":"string","name":"department","type":"string"}],"stateMutability":"view","type":"function"},{"inputs":[{"internalType":"string","name":"_patientAadhar","type":"string"}],"name":"deactivateEmergencyAccess","outputs":[],"stateMutability":"nonpayable","type":"function"},{"inputs":[{"internalType":"address","name":"","type":"address"},{"internalType":"uint256","name":"","type":"uint256"}],"name":"doctorAppointments","outputs":[{"internalType":"uint256","name":"","type":"uint256"}],"stateMutability":"view","type":"function"},{"inputs":[{"internalType":"address","name":"","type":"address"}],"name":"doctors","outputs":[{"internalType":"string","name":"name","type":"string"},{"internalType":"string","name":"specialization","type":"string"},{"internalType":"bool","name":"isRegistered","type":"bool"},{"internalType":"enum HealthcareSystem.Role","name":"role","type":"uint8"},{"internalType":"uint256","name":"registeredAt","type":"uint256"}],"stateMutability":"view","type":"function"},{"inputs":[{"internalType":"string","name":"_patientAadhar","type":"string"}],"name":"getAccessLogs","outputs":[{"components":[{"internalType":"address","name":"accessor","type":"address"},{"internalType":"string","name":"patientAadhar","type":"string"},{"internalType":"uint256","name":"timestamp","type":"uint256"},{"internalType":"string","name":"action","type":"string"},{"internalType":"bool","name":"isEmergencyAccess","type":"bool"}],"internalType":"struct HealthcareSystem.AccessLog[]","name":"","type":"tuple[]"}],"stateMutability":"view","type":"function"},{"inputs":[],"name":"getAllPrescriptions","outputs":[{"components":[{"internalType":"uint256","name":"id","type":"uint256"},{"internalType":"string","name":"patientAadhar","type":"string"},{"internalType":"string","name":"diagnosis","type":"string"},{"internalType":"string","name":"medicines","type":"string"},{"internalType":"string","name":"notes","type":"string"},{"internalType":"uint256","name":"timestamp","type":"uint256"},{"internalType":"address","name":"hospital","type":"address"},{"internalType":"string","name":"hospitalName","type":"string"}],"internalType":"struct HealthcareSystem.Prescription[]","name":"","type":"tuple[]"}],"stateMutability":"view","type":"function"},{"inputs":[{"internalType":"address","name":"_doctor","type":"address"}],"name":"getDoctorAppointments","outputs":[{"components":[{"internalType":"uint256","name":"id","type":"uint256"},{"internalType":"string","name":"patientAadhar","type":"string"},{"internalType":"uint256","name":"timestamp","type":"uint256"},{"internalType":"enum HealthcareSystem.AppointmentStatus","name":"status","type":"uint8"},{"internalType":"string","name":"contactEmail","type":"string"},{"internalType":"string","name":"contactPhone","type":"string"},{"internalType":"string","name":"notes","type":"string"},{"internalType":"string","name":"department","type":"string"}],"internalType":"struct HealthcareSystem.Appointment[]","name":"","type":"tuple[]"}],"stateMutability":"view","type":"function"},{"inputs":[{"internalType":"string","name":"_patientAadhar","type":"string"}],"name":"getHealthAlerts","outputs":[{"components":[{"internalType":"string","name":"alertType","type":"string"},{"internalType":"string","name":"description","type":"string"},{"internalType":"uint256","name":"timestamp","type":"uint256"},{"internalType":"bool","name":"resolved","type":"bool"}],"internalType":"struct HealthcareSystem.HealthAlert[]","name":"","type":"tuple[]"}],"stateMutability":"view","type":"function"},{"inputs":[{"internalType":"string","name":"_aadharNumber","type":"string"}],"name":"getHealthCoins","outputs":[{"internalType":"uint256","name":"","type":"uint256"}],"stateMutability":"view","type":"function"},{"inputs":[{"internalType":"string","name":"_patientAadhar","type":"string"},{"internalType":"string","name":"_metricType","type":"string"}],"name":"getHealthMetrics","outputs":[{"components":[{"internalType":"string","name":"metricType","type":"string"},{"internalType":"uint256","name":"value","type":"uint256"},{"internalType":"uint256","name":"timestamp","type":"uint256"},{"internalType":"string","name":"notes","type":"string"}],"internalType":"struct HealthcareSystem.HealthMetric[]","name":"","type":"tuple[]"}],"stateMutability":"view","type":"function"},{"inputs":[{"internalType":"string","name":"_patientAadhar","type":"string"}],"name":"getHealthMetrics","outputs":[{"components":[{"internalType":"string","name":"metricType","type":"string"},{"internalType":"uint256","name":"value","type":"uint256"},{"internalType":"uint256","name":"timestamp","type":"uint256"},{"internalType":"string","name":"notes","type":"string"}],"internalType":"struct HealthcareSystem.HealthMetric[]","name":"","type":"tuple[]"}],"stateMutability":"view","type":"function"},{"inputs":[{"internalType":"address","name":"_hospital","type":"address"}],"name":"getHospitalAppointments","outputs":[{"components":[{"internalType":"uint256","name":"id","type":"uint256"},{"internalType":"string","name":"patientAadhar","type":"string"},{"internalType":"uint256","name":"timestamp","type":"uint256"},{"internalType":"enum HealthcareSystem.AppointmentStatus","name":"status","type":"uint8"},{"internalType":"string","name":"contactEmail","type":"string"},{"internalType":"string","name":"contactPhone","type":"string"},{"internalType":"string","name":"notes","type":"string"},{"internalType":"string","name":"department","type":"string"}],"internalType":"struct HealthcareSystem.Appointment[]","name":"","type":"tuple[]"}],"stateMutability":"view","type":"function"},{"inputs":[{"internalType":"string","name":"_patientAadhar","type":"string"}],"name":"getMedicationTracking","outputs":[{"components":[{"internalType":"string","name":"medication","type":"string"},{"internalType":"uint256","name":"startDate","type":"uint256"},{"internalType":"uint256","name":"endDate","type":"uint256"},{"internalType":"string","name":"effectiveness","type":"string"},{"internalType":"string","name":"sideEffects","type":"string"},{"internalType":"bool","name":"active","type":"bool"}],"internalType":"struct HealthcareSystem.MedicationTracking[]","name":"","type":"tuple[]"}],"stateMutability":"view","type":"function"},{"inputs":[{"internalType":"string","name":"_patientAadhar","type":"string"}],"name":"getPatientAppointments","outputs":[{"components":[{"internalType":"uint256","name":"id","type":"uint256"},{"internalType":"string","name":"patientAadhar","type":"string"},{"internalType":"uint256","name":"timestamp","type":"uint256"},{"internalType":"enum HealthcareSystem.AppointmentStatus","name":"status","type":"uint8"},{"internalType":"string","name":"contactEmail","type":"string"},{"internalType":"string","name":"contactPhone","type":"string"},{"internalType":"string","name":"notes","type":"string"},{"internalType":"string","name":"department","type":"string"}],"internalType":"struct HealthcareSystem.Appointment[]","name":"","type":"tuple[]"}],"stateMutability":"view","type":"function"},{"inputs":[{"internalType":"string","name":"_patientAadhar","type":"string"}],"name":"getPrescriptions","outputs":[{"components":[{"internalType":"uint256","name":"id","type":"uint256"},{"internalType":"string","name":"patientAadhar","type":"string"},{"internalType":"string","name":"diagnosis","type":"string"},{"internalType":"string","name":"medicines","type":"string"},{"internalType":"string","name":"notes","type":"string"},{"internalType":"uint256","name":"timestamp","type":"uint256"},{"internalType":"address","name":"hospital","type":"address"},{"internalType":"string","name":"hospitalName","type":"string"}],"internalType":"struct HealthcareSystem.Prescription[]","name":"","type":"tuple[]"}],"stateMutability":"view","type":"function"},{"inputs":[{"internalType":"string","name":"_patientAadhar","type":"string"},{"internalType":"address","name":"_provider","type":"address"},{"internalType":"enum HealthcareSystem.AccessLevel","name":"_level","type":"uint8"}],"name":"grantAccess","outputs":[],"stateMutability":"nonpayable","type":"function"},{"inputs":[{"internalType":"string","name":"","type":"string"}],"name":"healthCoins","outputs":[{"internalType":"uint256","name":"","type":"uint256"}],"stateMutability":"view","type":"function"},{"inputs":[{"internalType":"address","name":"","type":"address"},{"internalType":"uint256","name":"","type":"uint256"}],"name":"hospitalAppointments","outputs":[{"internalType":"uint256","name":"","type":"uint256"}],"stateMutability":"view","type":"function"},{"inputs":[{"internalType":"string","name":"","type":"string"},{"internalType":"uint256","name":"","type":"uint256"}],"name":"patientAppointments","outputs":[{"internalType":"uint256","name":"","type":"uint256"}],"stateMutability":"view","type":"function"},{"inputs":[{"internalType":"string","name":"_aadharNumber","type":"string"},{"internalType":"uint256","name":"_amount","type":"uint256"}],"name":"redeemHealthCoins","outputs":[],"stateMutability":"nonpayable","type":"function"},{"inputs":[{"internalType":"address","name":"_doctorAddress","type":"address"},{"internalType":"string","name":"_name","type":"string"},{"internalType":"string","name":"_specialization","type":"string"}],"name":"registerDoctor","outputs":[],"stateMutability":"nonpayable","type":"function"},{"inputs":[{"internalType":"address","name":"_hospital","type":"address"}],"name":"registerHospital","outputs":[],"stateMutability":"nonpayable","type":"function"},{"inputs":[{"internalType":"string","name":"_aadharNumber","type":"string"}],"name":"registerPatient","outputs":[],"stateMutability":"nonpayable","type":"function"},{"inputs":[{"internalType":"address","name":"","type":"address"}],"name":"registeredHospitals","outputs":[{"internalType":"bool","name":"","type":"bool"}],"stateMutability":"view","type":"function"},{"inputs":[{"internalType":"string","name":"_patientAadhar","type":"string"},{"internalType":"uint256","name":"_alertIndex","type":"uint256"}],"name":"resolveHealthAlert","outputs":[],"stateMutability":"nonpayable","type":"function"},{"inputs":[{"internalType":"string","name":"_patientAadhar","type":"string"},{"internalType":"address","name":"_provider","type":"address"}],"name":"revokeAccess","outputs":[],"stateMutability":"nonpayable","type":"function"},{"inputs":[{"internalType":"address","name":"","type":"address"}],"name":"roles","outputs":[{"internalType":"enum HealthcareSystem.Role","name":"","type":"uint8"}],"stateMutability":"view","type":"function"},{"inputs":[{"internalType":"string","name":"_patientAadhar","type":"string"},{"internalType":"uint256","name":"_timestamp","type":"uint256"},{"internalType":"string","name":"_contactEmail","type":"string"},{"internalType":"string","name":"_contactPhone","type":"string"},{"internalType":"string","name":"_notes","type":"string"},{"internalType":"string","name":"_department","type":"string"}],"name":"scheduleAppointment","outputs":[],"stateMutability":"nonpayable","type":"function"},{"inputs":[{"internalType":"string","name":"_patientAadhar","type":"string"},{"internalType":"string","name":"_medication","type":"string"}],"name":"stopMedication","outputs":[],"stateMutability":"nonpayable","type":"function"},{"inputs":[{"internalType":"uint256","name":"_appointmentId","type":"uint256"},{"internalType":"enum HealthcareSystem.AppointmentStatus","name":"_status","type":"uint8"}],"name":"updateAppointmentStatus","outputs":[],"stateMutability":"nonpayable","type":"function"},{"inputs":[{"internalType":"string","name":"_patientAadhar","type":"string"},{"internalType":"string","name":"_medication","type":"string"},{"internalType":"string","name":"_effectiveness","type":"string"},{"internalType":"string","name":"_sideEffects","type":"string"}],"name":"updateMedicationTracking","outputs":[],"stateMutability":"nonpayable","type":"function"}],"evm":{"bytecode":{"linkReferences":{},"object":"6080806040523461004557336000526006602052604060002060ff1990600382825416179055600360205260016040600020918254161790556161e690816200004b8239f35b600080fdfe6080604052600436101561001257600080fd5b60003560e01c80630163e4f814614fa7578063068884d714614f5d578063068a423b1461498957806312dc90131461486f5780631453e51f1461482857806318892a1a1461474a57806326fc97871461470b57806327627bf314613b1e5780632d7b3e671461324757806330b84026146132115780633a2a3b1b1461312a5780633ff9b87b14612ff9578063402ab61414612e965780634bc19d3414612c0557806352be3b2114612a9457806353d08ef41461267957806357cd46f51461262157806373bd0b6814611494578063776dac471461141c5780637cc2e92b14611267578063869c9eaf1461103f578063882d763b14610e125780638adfcd6a14610daa578063931126e914610c6f5780639937464214610c2b5780639a5a34f714610be2578063a9583c2214610b2b578063c555542414610a40578063c5598c91146108ba578063c5b9985814610856578063d7222cdc146106ef578063dfe0b5fe146105df578063f121477d14610426578063f24af6e8146103195763fd189b3c1461019d57600080fd5b34610314576101ab3661540c565b906101b633826157c7565b80156102e3575b6101c6906159f9565b604051815161020260ff60046020948581818901966101e681838a6150d2565b810160058152030190200154166101fb615a3b565b3386615a64565b83604051838186516102158183886150d2565b81016002815203019020541061029e578161023b916040518093819287519283916150d2565b81016002815203019020805492848403938411610288577ff78100b79988ca94aaa795967f9f5d213a54d36607a35040061897d737897d459361027e92556156ba565b92604051908152a2005b634e487b7160e01b600052601160045260246000fd5b60405162461bcd60e51b815260048101839052601960248201527f496e73756666696369656e74206865616c746820636f696e73000000000000006044820152606490fd5b506101c660ff600460405160208186516103008183858b016150d2565b8101600581520301902001541690506101bd565b600080fd5b3461031457602080600319360112610314576004356001600160401b038111610314578161034e6103739236906004016153b6565b61036061035b33836158c8565b615724565b81604051938285809451938492016150d2565b8101600d81520301902080546103888161579c565b916103966040519384615388565b8183526000908152838120938084015b8383106103bf57604051806103bb87826154ea565b0390f35b6004826001926040516103d181615337565b6040516103e9816103e2818e61526a565b0382615388565b8152848a01548382015260028a0154604082015260036104138b6103e2604051809481930161526a565b60608201528152019601920191946103a6565b3461031457610434366154a4565b61043e33836157c7565b80156105ae575b61044e906159f9565b604051825192602091828201946104668183886150d2565b8101916104916005938481526004848760ff9687940301902001541661048a615a3b565b3384615a64565b33600052600684528160406000205416958387101561059857849060028098148015610572575b926104c56104d6946156da565b6040519384928392519283916150d2565b8101600f8152030190209260005b8454811015610570576103e261050a6104fd83886160d4565b506040519283809261526a565b828151910120865183880120148061055a575b61052f5761052a90615715565b6104e4565b610553955084819594935061054492506160d4565b5001805460ff191690556160d4565b5042910155005b50828461056783886160d4565b5001541661051d565b005b5090503360005260068552826040600020541690848210156105985785916003146104b8565b634e487b7160e01b600052602160045260246000fd5b5061044e60ff600460405160208187516105cb8183858c016150d2565b810160058152030190200154169050610445565b34610314576105ed36615463565b903033148015610671575b9061060561064a926156da565b6002604051602081845161061c81838589016150d2565b81016005815203019020019260018060a01b03169283600052602052604060002060ff1981541690556156ba565b7fa4056635223780a71518e8c10b6fc0fd195775c8375c4841c124a959ae5c30ad600080a3005b5033600052600660205260ff6040600020541690600582101561059857600161064a9214806106a3575b9091506105f8565b506106056040516103e26106db845192602081818801956106c58183896150d2565b810160058152030190206040519283809261526a565b60208151910120908351902014905061069b565b3461031457602080600319360112610314576004356001600160401b038111610314576107209036906004016153b6565b600090828101825b60405183516107388183866150d2565b81016005908181528288600394859303019020015483101561084c57828261077c928960405180928a5161076d81848d6150d2565b82019081520301902001615218565b9054911b1c6001600160a01b0316331461079e5761079990615715565b610728565b5090915060015b15610807576107c56107e0936004926040518093819287519283916150d2565b8101600581520301902001600160ff198254161790556156ba565b7f02bc0de3f6c76f020b84dd1d38decdcda01fe7e3d5cd178cd7a19864e4135f7d600080a2005b60405162461bcd60e51b815260048101849052601860248201527f4e6f7420616e20656d657267656e637920636f6e7461637400000000000000006044820152606490fd5b50505090916107a5565b346103145760203660031901126103145761086f615202565b33600052600660205260ff6040600020541660058110156105985760036108969114615994565b6001600160a01b03166000908152600360205260409020805460ff19166001179055005b3461031457602080600319360112610314576108d4615202565b6040518281018181106001600160401b03821117610a2a576109029161035b916040526000815233906158c8565b6001600160a01b03166000908152600b8252604090208054909161092582615de2565b9260005b83811061093e57604051806103bb878261557f565b8061094c610a259284615218565b9054600391821b1c600052600985526007610a0560406000206109aa60ff6040519561097787615300565b8354875260405161098f816103e2816001890161526a565b8b880152600284015460408801528301541660608601615d89565b6040516109be816103e2816004860161526a565b60808501526040516109d7816103e2816005860161526a565b60a08501526040516109f0816103e2816006860161526a565b60c08501526103e2604051809481930161526a565b60e0820152610a1482886157b3565b52610a1f81876157b3565b50615715565b610929565b634e487b7160e01b600052604160045260246000fd5b3461031457602080600319360112610314576004356001600160401b03811161031457610a719036906004016153b6565b336000526006825260ff60406000205416600581101561059857610ad09260016004921480610af7575b610aa4906156da565b60405190818451610ab881838589016150d2565b810160058152030190200160ff1981541690556156ba565b7f603d08020c4dc71d72674c8861e13340ff6bfeb2e5cdda1243dcf8c37ce6955d600080a2005b50610aa46040516103e2610b188651928581818a01956106c58183896150d2565b8381519101209085519020149050610a9b565b34610314576020366003190112610314576001600160a01b03610b4c615202565b166000526004602052610baf604060002060405190610b7682610b6f818461526a565b0383615388565b604051610b8a816103e2816001860161526a565b610bd9610bbd600360028501549401549260405196879660a0885260a08801906150f5565b9086820360208801526150f5565b9260ff81161515604086015260ff606086019160081c16615669565b60808301520390f35b34610314576020366003190112610314576004356001600160401b03811161031457610c18602061034e819336906004016153b6565b8101600281520301902054604051908152f35b34610314576020366003190112610314576001600160a01b03610c4c615202565b166000526006602052602060ff60406000205416610c6d6040518092615669565bf35b3461031457602080600319360112610314576004356001600160401b0381116103145781610360610ca49236906004016153b6565b810160008152030190208054610cb98161579c565b91610cc76040519384615388565b8183526000908152838120938084015b838310610cec57604051806103bb878261511a565b600882600192604051610cfe81615300565b89548152604051610d15816103e281898f0161526a565b81840152604051610d2d816103e28160028f0161526a565b60408201526003610d488b6103e2604051809481930161526a565b6060820152604051610d61816103e28160048f0161526a565b608082015260058a015460a0820152848060a01b0360068b01541660c08201526007610d978b6103e2604051809481930161526a565b60e0820152815201960192019194610cd7565b3461031457602080600319360112610314576001600160a01b03610dcc615202565b16600052600c8152604060002090815490610de682615de2565b9260005b838110610dff57604051806103bb878261557f565b8061094c610e0d9284615218565b610dea565b34610314576080366003190112610314576001600160401b0360043581811161031457610e439036906004016153b6565b60243582811161031457610e5b9036906004016153b6565b6044359260643590811161031457610e779036906004016153b6565b90610e8233846157c7565b801561100e575b610e92906159f9565b60405191835190610ed060ff60046020968781818b0197610eb481838b6150d2565b81016005815203019020015416610ec9615a3b565b3388615a64565b610edc85511515615676565b825115610fd357610f6c91610f5b859260405190610ef982615337565b86825289858301524260408301526060820152610f318160405186818c51610f2281838b6150d2565b8101600d815203019020615e83565b610f5660405185818b51610f4681838a6150d2565b8101600e8152030190208761543d565b615e83565b6040518093819288519283916150d2565b8101600281520301902091825492600a8401809411610288577fce65c4d5b1a9ee66172b83a86b9a8c4ebd3c4eabc956a43b9f136fb9f30e69cf94610fca94610fb592556156ba565b946040519384936040855260408501906150f5565b918301520390a2005b60405162461bcd60e51b8152600481018590526013602482015272496e76616c6964206d6574726963207479706560681b6044820152606490fd5b50610e9260ff6004604051602081885161102b8183858d016150d2565b810160058152030190200154169050610e89565b3461031457602080600319360112610314576001600160401b03600435818111610314576110719036906004016153b6565b9061107f600c835114615676565b604051825160ff858501916110958185856150d2565b830160058152838760019586930301902001541661122257846110c3916040518093819288519283916150d2565b81016005815203019020918351908111610a2a576110e18354615230565b601f81116111d9575b5084601f8211600114611170575090816004939261113e96600091611165575b50600019600383901b1c191690821b1782555b818101805460ff1916909117905501805461ff0019166101001790556156ba565b7fad3e1c33e6905fbc7821165aef0e1e95f461dee673e49d56d8899c384dbdcd16600080a2005b90508501518761110a565b9094601f19861684600052826000209260005b8281106111c457505095839260049594928261113e99106111ab575b5050811b01825561111d565b87015160001960f88460031b161c19169055878061119f565b87840151855593850193928101928101611183565b8360005285600020601f830160051c810191878410611218575b601f0160051c019083905b82811061120c5750506110ea565b600081550183906111fe565b90915081906111f3565b60405162461bcd60e51b815260048101869052601a60248201527f50617469656e7420616c726561647920726567697374657265640000000000006044820152606490fd5b3461031457602080600319360112610314576004356001600160401b038111610314578161034e61129c9236906004016153b6565b8101600f815203019020908154916112b38361579c565b926112c16040519485615388565b8084528284018092600052836000206000915b8383106113905750505050604051918083019381845251809452604083019360408160051b85010192916000955b82871061130f5785850386f35b909192938280600192603f1989820301855287519061137461136161133c845160c08086528501906150f5565b85850151868501526040850151604085015260608086015190858303908601526150f5565b60808085015190848303908501526150f5565b9160a08091015115159101529601920196019592919092611302565b6006866001926040999899516113a58161531c565b6040516113b6816103e2818a61526a565b81528486015483820152600286015460408201526040516113de816103e28160038b0161526a565b60608201526040516113f7816103e28160048b0161526a565b608082015260ff600587015416151560a08201528152019201920191909594956112d4565b3461031457602080600319360112610314576004356001600160401b038111610314578161034e6114519236906004016153b6565b8101600a8152030190209081549061146882615de2565b9260005b83811061148157604051806103bb878261557f565b8061094c61148f9284615218565b61146c565b346103145760a0366003190112610314576004356001600160401b038111610314576114c49036906004016153b6565b6024356001600160401b038111610314576114e39036906004016153b6565b6044356001600160401b038111610314576115029036906004016153b6565b906064356001600160401b038111610314576115229036906004016153b6565b6084356001600160401b038111610314576115419036906004016153b6565b9061154c33866157c7565b80156125ee575b61155c906159f9565b61157a60ff600460405160208181610eb48c838151938492016150d2565b8451156125b05782511561257757835115612539576001549360018501851161028857604051936115aa85615300565b6001860185528660208601526040850152606084015260808301524260a08301523360c083015260e082015260405160208185516115eb8183858a016150d2565b81016000815203019020805490600160401b821015610a2a57600182018082558210156120d957600052602060002082518260031b82015560208301518051906001600160401b038211610a2a57819061164d60018660031b86010154615230565b601f81116124e1575b50602090601f83116001146124655760009261245a575b50508160011b916000199060031b1c19161760018360031b830101555b60408301518051906001600160401b038211610a2a5781906116b460028660031b86010154615230565b601f8111612402575b50602090601f83116001146123865760009261237b575b50508160011b916000199060031b1c19161760028360031b830101555b60608301518051906001600160401b038211610a2a57819061171a600386811b86010154615230565b601f8111612324575b50602090601f83116001146122aa5760009261229f575b50508160011b916000199060031b1c191617600383811b830101555b60808301518051906001600160401b038211610a2a57819061178060048660031b86010154615230565b601f8111612247575b50602090601f83116001146121cb576000926121c0575b50508160011b916000199060031b1c19161760048360031b830101555b60a083015160058360031b8301015560068260031b82010160018060a01b0360c0850151166001600160601b0360a01b82541617905560e08301518051906001600160401b038211610a2a5761181b60078560031b85010154615230565b601f8111612174575b50602090601f83116001146120fa576007939291600091836120ef575b50508160011b916000199060031b1c1916179260031b0101555b60015490600160401b821015610a2a5760018201806001558210156120d957600160005280518260031b7fb10e2d527612073b26eecdfd717e6a320cf44b4afac2b0732d9fcbe2b7fa0cf6015560208101518051906001600160401b038211610a2a5781906118dd6000805160206161718339815191528660031b0154615230565b601f8111612076575b50602090601f8311600114611fe457600092611fd9575b50508160011b916000199060031b1c1916176000805160206161718339815191528360031b01555b60408101518051906001600160401b038211610a2a57819061195a6000805160206161518339815191528660031b0154615230565b601f8111611f76575b50602090601f8311600114611ee457600092611ed9575b50508160011b916000199060031b1c1916176000805160206161518339815191528360031b01555b60608101518051906001600160401b038211610a2a5781906119d76000805160206161918339815191528660031b0154615230565b601f8111611e76575b50602090601f8311600114611de457600092611dd9575b50508160011b916000199060031b1c1916176000805160206161918339815191528360031b01555b60808101518051906001600160401b038211610a2a57611a526000805160206161318339815191528560031b0154615230565b601f8111611d82575b50602090601f8311600114611cef5760e093929160009183611ce4575b50508160011b916000199060031b1c1916176000805160206161318339815191528460031b01555b60a08101517fb10e2d527612073b26eecdfd717e6a320cf44b4afac2b0732d9fcbe2b7fa0cfb8460031b01557fb10e2d527612073b26eecdfd717e6a320cf44b4afac2b0732d9fcbe2b7fa0cfc8360031b0160018060a01b0360c0830151166001600160601b0360a01b82541617905501518051906001600160401b038211610a2a57611b406000805160206161118339815191528460031b0154615230565b601f8111611c89575b50602090601f8311600114611bf957600080516020616111833981519152929160009183611bee575b50508160011b916000199060031b1c1916179160031b01555b6040516020818451611ba081838589016150d2565b81016002815203019020805490600a820180921161028857556001611bc533936156ba565b91017fcd719798f402a27a912a62d3b7e471f85fba10a63e2bbb6ede9a733a8616c2f1600080a4005b015190508680611b72565b906000805160206161118339815191528460031b0160005260206000209160005b601f1985168110611c71575091839160019360008051602061611183398151915295601f19811610611c58575b505050811b019160031b0155611b8b565b015160001960f88460031b161c19169055868080611c47565b91926020600181928685015181550194019201611c1a565b6000805160206161118339815191528460031b016000526020600020601f840160051c81019160208510611cda575b601f0160051c01905b818110611cce5750611b49565b60008155600101611cc1565b9091508190611cb8565b015190508780611a78565b906000805160206161318339815191528560031b0160005260206000209160005b601f1985168110611d6a575091839160019360e09695601f19811610611d51575b505050811b016000805160206161318339815191528460031b0155611aa0565b015160001960f88460031b161c19169055878080611d31565b91926020600181928685015181550194019201611d10565b6000805160206161318339815191528560031b016000526020600020601f840160051c810160208510611dd2575b601f830160051c82018110611dc6575050611a5b565b60008155600101611db0565b5080611db0565b0151905086806119f7565b92506000805160206161918339815191528560031b016000526020600020906000935b601f1984168510611e5b576001945083601f19811610611e42575b505050811b016000805160206161918339815191528360031b0155611a1f565b015160001960f88460031b161c19169055868080611e22565b81810151835560209485019460019093019290910190611e07565b9091506000805160206161918339815191528560031b016000526020600020601f840160051c810160208510611ed2575b90849392915b601f830160051c82018110611ec35750506119e0565b60008155859450600101611ead565b5080611ea7565b01519050868061197a565b92506000805160206161518339815191528560031b016000526020600020906000935b601f1984168510611f5b576001945083601f19811610611f42575b505050811b016000805160206161518339815191528360031b01556119a2565b015160001960f88460031b161c19169055868080611f22565b81810151835560209485019460019093019290910190611f07565b9091506000805160206161518339815191528560031b016000526020600020601f840160051c810160208510611fd2575b90849392915b601f830160051c82018110611fc3575050611963565b60008155859450600101611fad565b5080611fa7565b0151905086806118fd565b92506000805160206161718339815191528560031b016000526020600020906000935b601f198416851061205b576001945083601f19811610612042575b505050811b016000805160206161718339815191528360031b0155611925565b015160001960f88460031b161c19169055868080612022565b81810151835560209485019460019093019290910190612007565b9091506000805160206161718339815191528560031b016000526020600020601f840160051c8101602085106120d2575b90849392915b601f830160051c820181106120c35750506118e6565b600081558594506001016120ad565b50806120a7565b634e487b7160e01b600052603260045260246000fd5b015190508880611841565b9060078560031b85010160005260206000209160005b601f198516811061215c575091839160019360079695601f19811610612143575b505050811b019260031b01015561185b565b015160001960f88460031b161c19169055888080612131565b91926020600181928685015181550194019201612110565b60078560031b8501016000526020600020601f840160051c8101602085106121b9575b601f830160051c820181106121ad575050611824565b60008155600101612197565b5080612197565b0151905087806117a0565b925060048560031b8501016000526020600020906000935b601f198416851061222c576001945083601f19811610612213575b505050811b0160048360031b830101556117bd565b015160001960f88460031b161c191690558780806121fe565b818101518355602094850194600190930192909101906121e3565b90915060048560031b8501016000526020600020601f840160051c810160208510612298575b90849392915b601f830160051c82018110612289575050611789565b60008155859450600101612273565b508061226d565b01519050878061173a565b9250600385811b8501016000526020600020906000935b601f1984168510612309576001945083601f198116106122f0575b505050811b01600383811b83010155611756565b015160001960f88460031b161c191690558780806122dc565b818101518355602094850194600190930192909101906122c1565b909150600385811b8501016000526020600020601f840160051c810160208510612374575b90849392915b601f830160051c82018110612365575050611723565b6000815585945060010161234f565b5080612349565b0151905087806116d4565b925060028560031b8501016000526020600020906000935b601f19841685106123e7576001945083601f198116106123ce575b505050811b0160028360031b830101556116f1565b015160001960f88460031b161c191690558780806123b9565b8181015183556020948501946001909301929091019061239e565b90915060028560031b8501016000526020600020601f840160051c810160208510612453575b90849392915b601f830160051c820181106124445750506116bd565b6000815585945060010161242e565b5080612428565b01519050878061166d565b925060018560031b8501016000526020600020906000935b601f19841685106124c6576001945083601f198116106124ad575b505050811b0160018360031b8301015561168a565b015160001960f88460031b161c19169055878080612498565b8181015183556020948501946001909301929091019061247d565b90915060018560031b8501016000526020600020601f840160051c810160208510612532575b90849392915b601f830160051c82018110612523575050611656565b6000815585945060010161250d565b5080612507565b60405162461bcd60e51b8152602060048201526016602482015275496e76616c6964206d65646963696e6573206461746160501b6044820152606490fd5b60405162461bcd60e51b8152602060048201526011602482015270496e76616c696420646961676e6f73697360781b6044820152606490fd5b60405162461bcd60e51b815260206004820152601660248201527524b73b30b634b2103830ba34b2b73a1020b0b23430b960511b6044820152606490fd5b5061155c60ff60046040516020818161260d8c838151938492016150d2565b810160058152030190200154169050611553565b346103145760403660031901126103145761263a615202565b6001600160a01b03166000908152600b60205260409020805460243591908210156103145760209161266b91615218565b90546040519160031b1c8152f35b3461031457606036600319011261031457612692615202565b6024356001600160401b038111610314576126b19036906004016153b6565b906044356001600160401b038111610314576126d19036906004016153b6565b33600052600660205260ff6040600020541660058110156105985760036126f89114615994565b6001600160a01b03821660009081526004602052604090206002015460ff16612a4f576040519161272883615352565b838352816020840152600160408401526002606084015242608084015260018060a01b0381166000526004602052604060002083518051906001600160401b038211610a2a57819061277a8454615230565b601f81116129ff575b50602090601f831160011461299357600092612988575b50508160011b916000199060031b1c19161781555b60208401518051906001600160401b038211610a2a5781906127d46001850154615230565b601f8111612935575b50602090601f83116001146128c3576000926128b8575b50508160011b916000199060031b1c19161760018201555b6002810161282c60408601511515829060ff801983541691151516179055565b6060850151600581101561059857815461ff00191660089190911b61ff00161790556080909301516003938401556001600160a01b03166000818152602093909352604092839020805460ff19166001179055915191927fbc3a5b2aeb1bc52e3d56d3fd3423dd66cea5ecff8ae1f3bd0d75a0e608da7b85929182916128b39190836159d4565b0390a2005b0151905087806127f4565b9250600184016000526020600020906000935b601f198416851061291a576001945083601f19811610612901575b505050811b01600182015561280c565b015160001960f88460031b161c191690558780806128f1565b818101518355602094850194600190930192909101906128d6565b909150600184016000526020600020601f840160051c810160208510612981575b90849392915b601f830160051c820181106129725750506127dd565b6000815585945060010161295c565b5080612956565b01519050878061279a565b9250836000526020600020906000935b601f19841685106129e4576001945083601f198116106129cb575b505050811b0181556127af565b015160001960f88460031b161c191690558780806129be565b818101518355602094850194600190930192909101906129a3565b909150836000526020600020601f840160051c810160208510612a48575b90849392915b601f830160051c82018110612a39575050612783565b60008155859450600101612a23565b5080612a1d565b60405162461bcd60e51b815260206004820152601960248201527f446f63746f7220616c72656164792072656769737465726564000000000000006044820152606490fd5b3461031457602080600319360112610314576004356001600160401b038111610314578161034e612ac99236906004016153b6565b8101601081520301902090815491612ae08361579c565b92612aee6040519485615388565b8084528284018092600052836000206000915b838310612b9c5750505050604051918083019381845251809452604083019360408160051b85010192916000955b828710612b3c5785850386f35b909192938280600192603f19898203018552875190612b76612b66835160808085528401906150f5565b84840151838203868501526150f5565b916040810151604083015260608091015115159101529601920196019592919092612b2f565b600486600192604099989951612bb181615337565b604051612bc2816103e2818a61526a565b8152604051612bd7816103e281898b0161526a565b838201526002860154604082015260ff60038701541615156060820152815201920192019190959495612b01565b3461031457602080600319360112610314576004356001600160401b03811161031457612c369036906004016153b6565b612c4361035b33836158c8565b600754600091838101835b838110612e445750612c5f8461579c565b93612c6d6040519586615388565b808552612c7c601f199161579c565b018560005b828110612e0d5750505060009160005b848110612d3c57604080518881528751818a01819052600092600582901b83018101918a8c01918c9085015b828710612cca5785850386f35b909192938280600192603f19898203018552875190848060a01b038251168152612d20612d038484015160a080878601528401906150f5565b6040840151604084015260608085015190848303908501526150f5565b9160808091015115159101529601920196019592919092612cbd565b612d4581615761565b50604051612d5b816103e281600180960161526a565b8881519101208351852014612d7a575b50612d7590615715565b612c91565b8194612e069160ff6004612d90612d7596615761565b506103e2612dc060405195612da487615352565b83546001600160a01b031687526040519283918290860161526a565b8d85015260028101546040850152604051612de2816103e2816003860161526a565b606085015201541615156080820152612dfb828a6157b3565b52610a1f81896157b3565b9390612d6b565b604051612e1981615352565b6000815260608084830152600060408301528082015260006080820152828289010152018690612c81565b6001612e63612e5283615761565b506103e2604051809481930161526a565b8681519101208351832014612e81575b612e7c90615715565b612c4e565b93612e8e612e7c91615715565b949050612e73565b34610314576060366003190112610314576004356001600160401b03811161031457612ec69036906004016153b6565b6024356001600160a01b038116919082900361031457604435906004821015610314573033148015612f6b575b612f617f115f6ef52391618892f3a77f23446f2b996b12f28b601e7d85f2b8d372436c7192612f236020936156da565b600260405184818451612f3981838589016150d2565b8101600581520301902001866000528352604060002060ff1981541660ff87161790556156ba565b92604051908152a3005b5033600052600660205260ff6040600020541690600582101561059857612f6160209160017f115f6ef52391618892f3a77f23446f2b996b12f28b601e7d85f2b8d372436c71941480612fc5575b9093509150612ef39050565b50612f236040516103e2612fe68451928781818801956106c58183896150d2565b8581519101209083519020149050612fb9565b34610314576130073661540c565b9061301233826157c7565b80156130f9575b613022906159f9565b6040519161305e60ff60048451956020818188019861304281838c6150d2565b81016005815203019020015416613057615a3b565b3385615a64565b60405160208184516130718183896150d2565b81016010815203019020548110156130be576130a060206003946130af946040519384928392519283916150d2565b81016010815203019020615e67565b5001805460ff19166001179055005b60405162461bcd60e51b8152602060048201526013602482015272092dcecc2d8d2c840c2d8cae4e840d2dcc8caf606b1b6044820152606490fd5b5061302260ff600460405160208186516131168183858b016150d2565b810160058152030190200154169050613019565b346103145761317361313b366154a4565b61314b61035b93929333856158c8565b604051838180955161316381602098898096016150d2565b8101600e8152030190209061543d565b805461317e8161579c565b9161318c6040519384615388565b8183526000908152838120938084015b8383106131b157604051806103bb87826154ea565b6004826001926040516131c381615337565b6040516131d4816103e2818e61526a565b8152848a01548382015260028a0154604082015260036131fe8b6103e2604051809481930161526a565b606082015281520196019201919461319c565b34610314576020366003190112610314576004356001600160401b03811161031457610c186020610360819336906004016153b6565b34610314576080366003190112610314576004356001600160401b038111610314576132779036906004016153b6565b6024356001600160401b038111610314576132969036906004016153b6565b906044356001600160401b038111610314576132b69036906004016153b6565b916064356001600160401b038111610314576132d69036906004016153b6565b926132e133846157c7565b8015613aed575b6132f1906159f9565b6040519261332781516133088187602086016150d2565b850160058152600486602060ff9889940301902001541661048a615a3b565b33600052600660205283604060002054166005811015610598576002148015613aca575b613354906156da565b600093604051602081845161336c81838589016150d2565b8101600f81520301902090600060208601905b8354811015613abe576103e26133986104fd83876160d4565b60208151910120875183201480613aa7575b6133bc576133b790615715565b61337f565b928094959697506133d092508391506160d4565b5084516001600160401b038111610a2a576133ee6003830154615230565b601f8111613a60575b506020601f82116001146139ee57816134319493926003926000916139e3575b508160011b9160001990841b1c1916179101555b826160d4565b5085516001600160401b038111610a2a5761344f6004830154615230565b601f811161399c575b506020601f821160011461392e579080600492600091613923575b508160011b916000199060031b1c1916179101555b60015b156134cd575b50906134bd7f0a8ed6c1bf0f562bbb6cafc7f7c502b61497a02a3431ac098eca12dfcf3f3daf926156ba565b926128b3604051928392836159d4565b604051946134da8661531c565b848652426020870152600060408701528360608701526080860152600160a08601528054600160401b811015610a2a57613519916001820181556160d4565b61390d5784518051906001600160401b038211610a2a57819061353c8454615230565b601f81116138bd575b50602090601f83116001146138575760009261384c575b50508160011b916000199060031b1c19161781555b602085015160018201556040850151600282015560608501518051906001600160401b038211610a2a5781906135aa6003850154615230565b601f81116137f9575b50602090601f831160011461378c57600092613781575b50508160011b916000199060031b1c19161760038201555b60808501519485516001600160401b038111610a2a576136056004840154615230565b601f8111613736575b506020601f821160011461369a5760a061368693836134bd9796946005947f0a8ed6c1bf0f562bbb6cafc7f7c502b61497a02a3431ac098eca12dfcf3f3daf9b9c60009261368f575b50508160011b916000199060031b1c19161760048501555b0151151591019060ff801983541691151516179055565b90849350613491565b015190508c80613657565b601f198216976004850160005260206000209860005b81811061371e5750936001847f0a8ed6c1bf0f562bbb6cafc7f7c502b61497a02a3431ac098eca12dfcf3f3daf9a9b60059560a0956134bd9b9a986136869a10613705575b505050811b01600485015561366f565b015160001960f88460031b161c191690558c80806136f5565b838301518b556001909a0199602093840193016136b0565b600484016000526020600020601f830160051c81019160208410613777575b601f0160051c01905b81811061376b575061360e565b6000815560010161375e565b9091508190613755565b0151905087806135ca565b600385016000908152602081209350601f198516905b8181106137e157509084600195949392106137c8575b505050811b0160038201556135e2565b015160001960f88460031b161c191690558780806137b8565b929360206001819287860151815501950193016137a2565b909150600384016000526020600020601f840160051c810160208510613845575b90849392915b601f830160051c820181106138365750506135b3565b60008155859450600101613820565b508061381a565b01519050878061355c565b6000858152602081209350601f198516905b8181106138a5575090846001959493921061388c575b505050811b018155613571565b015160001960f88460031b161c1916905587808061387f565b92936020600181928786015181550195019301613869565b909150836000526020600020601f840160051c810160208510613906575b90849392915b601f830160051c820181106138f7575050613545565b600081558594506001016138e1565b50806138db565b634e487b7160e01b600052600060045260246000fd5b905088015189613473565b601f198216906004840160005260206000209160005b8a828210613984575050908360049493921061396b575b5050600190811b01910155613488565b89015160001960f88460031b161c19169055888061395b565b60018495602093958493015181550194019201613944565b600483016000526020600020601f830160051c8101602084106139dc575b601f830160051c820181106139d0575050613458565b600081556001016139ba565b50806139ba565b90508801518b613417565b6003830160005260206000209060005b601f1984168110613a4857509160039161343195949382601f19811610613a30575b5050600190811b0191015561342b565b89015160001983851b60f8161c191690558a80613a20565b9091602060018192858c0151815501930191016139fe565b600383016000526020600020601f830160051c810160208410613aa0575b601f830160051c82018110613a945750506133f7565b60008155600101613a7e565b5080613a7e565b50826005613ab583876160d4565b500154166133aa565b5050509091929361348b565b50336000526006602052836040600020541660058110156105985760031461334b565b506132f160ff60046040516020818851613b0a8183858d016150d2565b8101600581520301902001541690506132e8565b346103145760c0366003190112610314576004356001600160401b03811161031457613b4e9036906004016153b6565b6044356001600160401b03811161031457613b6d9036906004016153b6565b906064356001600160401b03811161031457613b8d9036906004016153b6565b916084356001600160401b03811161031457613bad9036906004016153b6565b9260a4356001600160401b03811161031457613bcd9036906004016153b6565b613bd733856157c7565b80156146d8575b613be7906159f9565b613c2160ff600460405160208181613c058b838151938492016150d2565b81016005815203019020015416613c1a615a3b565b3387615a64565b4260243511156146935760085494613c3886615715565b60085560405192613c4884615300565b8684526020840194868652602435604086015260006060860152608085015260a084015260c083015260e082015283600052600960205260406000209181518355518051906001600160401b038211610a2a578190613caa6001860154615230565b601f8111614640575b50602090601f83116001146145ce576000926145c3575b50508160011b916000199060031b1c19161760018301555b604081015160028301556060810151600381101561059857613d079060038401615d95565b60808101518051906001600160401b038211610a2a578190613d2c6004860154615230565b601f8111614570575b50602090601f83116001146144fe576000926144f3575b50508160011b916000199060031b1c19161760048301555b60a08101518051906001600160401b038211610a2a578190613d896005860154615230565b601f81116144a0575b50602090601f831160011461442e57600092614423575b50508160011b916000199060031b1c19161760058301555b60c08101518051906001600160401b038211610a2a57613de46006850154615230565b601f81116143dc575b50602090601f83116001146143695760e09392916000918361435e575b50508160011b916000199060031b1c19161760068401555b01518051906001600160401b038211610a2a57613e426007840154615230565b601f8111614317575b50602090601f83116001146142a757600792916000918361429c575b50508160011b916000199060031b1c1916179101555b613ea5826040516020818551613e968183858a016150d2565b8101600a815203019020615dad565b33600052600c602052613ebc826040600020615dad565b6040516020818351613ed181838588016150d2565b81016002815203019020805490603282018092116102885755604051613ef68161536d565b601481527314d8da19591d5b1948105c1c1bda5b9d1b595b9d60621b6020820152604051613f2381615352565b338152602081019083825242604082015282606082015260006080820152600754600160401b811015610a2a57806001613f609201600755615761565b92909261390d57815183546001600160a01b0319166001600160a01b0391909116178355518051906001600160401b038211610a2a578190613fa56001860154615230565b601f8111614249575b50602090601f83116001146141d7576000926141cc575b50508160011b916000199060031b1c19161760018301555b6040810151600283015560608101518051906001600160401b038211610a2a5761400a6003850154615230565b601f8111614185575b50602090601f83116001146140e85760806140d196948461408b957fc7e62119d394eed933b5eda9911107f252ddd2c36d9737ddab518ec9e60eab989a98956004956000926140dd575b50508160011b916000199060031b1c19161760038501550151151591019060ff801983541691151516179055565b614094826156ba565b6000805160206160f183398151915260405160208152806140ba339560208301906150f5565b0390a36040519182916040835260408301906150f5565b600060208301520390a2005b015190508c8061405d565b90601f198316916003860160005260206000209260005b81811061416d5750946001857fc7e62119d394eed933b5eda9911107f252ddd2c36d9737ddab518ec9e60eab989a989560049560809561408b996140d19d9b10614154575b505050811b01600385015561366f565b015160001960f88460031b161c191690558c8080614144565b929360206001819287860151815501950193016140ff565b600385016000526020600020601f840160051c8101602085106141c5575b601f830160051c820181106141b9575050614013565b600081556001016141a3565b50806141a3565b015190508780613fc5565b9250600185016000526020600020906000935b601f198416851061422e576001945083601f19811610614215575b505050811b016001830155613fdd565b015160001960f88460031b161c19169055878080614205565b818101518355602094850194600190930192909101906141ea565b909150600185016000526020600020601f840160051c810160208510614295575b90849392915b601f830160051c82018110614286575050613fae565b60008155859450600101614270565b508061426a565b015190508680613e67565b906007840160005260206000209160005b601f19851681106142ff5750918391600193600795601f198116106142e6575b505050811b01910155613e7d565b015160001960f88460031b161c191690558680806142d8565b919260206001819286850151815501940192016142b8565b600784016000526020600020601f840160051c810160208510614357575b601f830160051c8201811061434b575050613e4b565b60008155600101614335565b5080614335565b015190508780613e0a565b906006850160005260206000209160005b601f19851681106143c4575091839160019360e09695601f198116106143ab575b505050811b016006840155613e22565b015160001960f88460031b161c1916905587808061439b565b9192602060018192868501518155019401920161437a565b600685016000526020600020601f840160051c81016020851061441c575b601f830160051c82018110614410575050613ded565b600081556001016143fa565b50806143fa565b015190508680613da9565b9250600585016000526020600020906000935b601f1984168510614485576001945083601f1981161061446c575b505050811b016005830155613dc1565b015160001960f88460031b161c1916905586808061445c565b81810151835560209485019460019093019290910190614441565b909150600585016000526020600020601f840160051c8101602085106144ec575b90849392915b601f830160051c820181106144dd575050613d92565b600081558594506001016144c7565b50806144c1565b015190508680613d4c565b9250600485016000526020600020906000935b601f1984168510614555576001945083601f1981161061453c575b505050811b016004830155613d64565b015160001960f88460031b161c1916905586808061452c565b81810151835560209485019460019093019290910190614511565b909150600485016000526020600020601f840160051c8101602085106145bc575b90849392915b601f830160051c820181106145ad575050613d35565b60008155859450600101614597565b5080614591565b015190508680613cca565b9250600185016000526020600020906000935b601f1984168510614625576001945083601f1981161061460c575b505050811b016001830155613ce2565b015160001960f88460031b161c191690558680806145fc565b818101518355602094850194600190930192909101906145e1565b909150600185016000526020600020601f840160051c81016020851061468c575b90849392915b601f830160051c8201811061467d575050613cb3565b60008155859450600101614667565b5080614661565b60405162461bcd60e51b815260206004820152601860248201527f496e76616c6964206170706f696e746d656e742074696d6500000000000000006044820152606490fd5b50613be760ff6004604051602081816146f78b838151938492016150d2565b810160058152030190200154169050613bde565b34610314576020366003190112610314576001600160a01b0361472c615202565b166000526003602052602060ff604060002054166040519015158152f35b346103145761475836615463565b90336000526020906006825260ff60406000205416906005821015610598578261479191600160039414806147f4575b610360906156da565b810160058152030190200191825492600160401b841015610a2a57836147be916001600696018155615218565b9160018060a01b038091169282549060031b9184831b921b1916179055600052526040600020600460ff19825416179055600080f35b506103606040516103e26148158451928681818801956106c58183896150d2565b8481519101209083519020149050614788565b3461031457602061485061483b3661540c565b929081604051938285809451938492016150d2565b8101600a81520301902080548210156103145760209161266b91615218565b34610314576020366003190112610314576004356000526009602052604060002080546103bb600761497b604051946148b6866148af816001850161526a565b0387615388565b61496d600282015461495f60ff600385015416916040516148de816103e28160048a0161526a565b614952604051946148f6866148af8160058c0161526a565b614925604051986149158a61490e816006850161526a565b038b615388565b61490e604051809d81930161526a565b6149426040519d8e9d8e528d6101009081602082015201906150f5565b9360408d015260608c01906153a9565b89820360808b01526150f5565b9087820360a08901526150f5565b9085820360c08701526150f5565b9083820360e08501526150f5565b3461031457604036600319011261031457600435602435600381101561031457600854821015614f1f5781600052600960205260406000209060018201926149d18454615230565b15614eda5733600052600660205260ff604060002054166005811015610598576002148015614eb6575b15614e4b57614a0f82600360019501615d95565b7fbfa90a4f3468c2e94521fb7cf539f022e2c0b69cfd0a24d63a1d775342c1af046020604051614a3f81866153a9565ba214614db1575b614a596103e2916040519283809261526a565b60405190614a668261536d565b601982527f557064617465204170706f696e746d656e7420537461747573000000000000006020830152604051614a9c81615352565b338152602081019082825242604082015283606082015260006080820152600754600160401b811015610a2a57806001614ad99201600755615761565b92909261390d57815183546001600160a01b0319166001600160a01b0391909116178355518051906001600160401b038211610a2a578190614b1e6001860154615230565b601f8111614d5e575b50602090601f8311600114614cec57600092614ce1575b50508160011b916000199060031b1c19161760018301555b6040810151600283015560608101518051906001600160401b038211610a2a57614b836003850154615230565b601f8111614c96575b50602090601f8311600114614c1c57614be19383614be6979694600494608094600092614c115750508160011b916000199060031b1c19161760038501550151151591019060ff801983541691151516179055565b6156ba565b6000805160206160f18339815191526040516020815280614c0c339560208301906150f5565b0390a3005b015190508a8061405d565b90601f198316916003860160005260206000209260005b818110614c7e575084600494608094614be19894614be69b9a9860019510614c6557505050811b01600385015561366f565b015160001960f88460031b161c191690558a8080614144565b92936020600181928786015181550195019301614c33565b600385016000526020600020601f840160051c81019160208510614cd7575b601f0160051c01905b818110614ccb5750614b8c565b60008155600101614cbe565b9091508190614cb5565b015190508680614b3e565b9250600185016000526020600020906000935b601f1984168510614d43576001945083601f19811610614d2a575b505050811b016001830155614b56565b015160001960f88460031b161c19169055868080614d1a565b81810151835560209485019460019093019290910190614cff565b909150600185016000526020600020601f840160051c810160208510614daa575b90849392915b601f830160051c82018110614d9b575050614b27565b60008155859450600101614d85565b5080614d7f565b6040518154816000614dc283615230565b9260018116908115614e345750600114614df9575b6020925060028152030190208054916064830180931161028857919055614a46565b5050826000528160206000206000905b838210614e1c5750506020918101614dd7565b60209192508060019154848701520191018391614e09565b60ff19168352506020928015150282019050614dd7565b60405162461bcd60e51b815260206004820152603d60248201527f4f6e6c7920646f63746f7273206f7220686f73706974616c2061646d696e732060448201527f63616e20757064617465206170706f696e746d656e74207374617475730000006064820152608490fd5b5033600052600660205260ff604060002054166005811015610598576003146149fb565b60405162461bcd60e51b815260206004820152601a60248201527f4170706f696e746d656e7420646f6573206e6f742065786973740000000000006044820152606490fd5b60405162461bcd60e51b8152602060048201526016602482015275125b9d985b1a5908185c1c1bda5b9d1b595b9d08125160521b6044820152606490fd5b3461031457604036600319011261031457614f76615202565b6001600160a01b03166000908152600c60205260409020805460243591908210156103145760209161266b91615218565b346103145760003660031901126103145760018054614fc58161579c565b90614fd36040519283615388565b808252600083815260207fb10e2d527612073b26eecdfd717e6a320cf44b4afac2b0732d9fcbe2b7fa0cf68185015b84841061501757604051806103bb888261511a565b600883889260405161502881615300565b8554815260405161503f816103e281898b0161526a565b83820152604051615057816103e28160028b0161526a565b6040820152604051615070816103e28160038b0161526a565b6060820152604051615089816103e28160048b0161526a565b6080820152600586015460a082015260068601546001600160a01b031660c08201526040516150bf816103e28160078b0161526a565b60e0820152815201920193019290615002565b60005b8381106150e55750506000910152565b81810151838201526020016150d5565b9060209161510e815180928185528580860191016150d2565b601f01601f1916010190565b602080820190808352835180925260409283810182858560051b8401019601946000925b85841061514f575050505050505090565b9091929394959685806151f1600193603f198682030188528b51805182526151c36151b061519d61518d87850151610100808a8901528701906150f5565b8b8501518682038d8801526150f5565b60608085015190868303908701526150f5565b60808084015190858303908601526150f5565b9160a0808301519082015260c0878060a01b0381840151169082015260e080920151918184039101526150f5565b99019401940192959493919061513e565b600435906001600160a01b038216820361031457565b80548210156120d95760005260206000200190600090565b90600182811c92168015615260575b602083101461524a57565b634e487b7160e01b600052602260045260246000fd5b91607f169161523f565b906000929180549161527b83615230565b9182825260019384811690816000146152dd575060011461529d575b50505050565b90919394506000526020928360002092846000945b8386106152c9575050505001019038808080615297565b8054858701830152940193859082016152b2565b9294505050602093945060ff191683830152151560051b01019038808080615297565b61010081019081106001600160401b03821117610a2a57604052565b60c081019081106001600160401b03821117610a2a57604052565b608081019081106001600160401b03821117610a2a57604052565b60a081019081106001600160401b03821117610a2a57604052565b604081019081106001600160401b03821117610a2a57604052565b90601f801991011681019081106001600160401b03821117610a2a57604052565b9060038210156105985752565b81601f82011215610314578035906001600160401b038211610a2a57604051926153ea601f8401601f191660200185615388565b8284526020838301011161031457816000926020809301838601378301015290565b604060031982011261031457600435906001600160401b03821161031457615436916004016153b6565b9060243590565b6020906154579282604051948386809551938492016150d2565b82019081520301902090565b604060031982011261031457600435906001600160401b0382116103145761548d916004016153b6565b906024356001600160a01b03811681036103145790565b906040600319830112610314576001600160401b0360043581811161031457836154d0916004016153b6565b92602435918211610314576154e7916004016153b6565b90565b602080820190808352835180925260409283810182858560051b8401019601946000925b85841061551f575050505050505090565b90919293949596858061556e600193603f198682030188528b5161554b815160808085528401906150f5565b9184820151858201528882015189820152606080920151918184039101526150f5565b99019401940192959493919061550e565b602080820190808352835180925260409283810182858560051b8401019601946000925b8584106155b4575050505050505090565b909192939495968580615658600193603f198682030188528b518051825261564561563261561f6155f287850151610100808a8901528701906150f5565b8b8501518c87015261560c606080870151908801906153a9565b60808086015190878303908801526150f5565b60a08085015190868303908701526150f5565b60c08084015190858303908601526150f5565b9160e080920151918184039101526150f5565b9901940194019295949391906155a3565b9060058210156105985752565b1561567d57565b60405162461bcd60e51b815260206004820152601560248201527424b73b30b634b21020b0b23430b910373ab6b132b960591b6044820152606490fd5b6156d2906020604051928284809451938492016150d2565b810103902090565b156156e157565b60405162461bcd60e51b815260206004820152600c60248201526b155b985d5d1a1bdc9a5e995960a21b6044820152606490fd5b60001981146102885760010190565b1561572b57565b60405162461bcd60e51b815260206004820152600e60248201526d139bdd08185d5d1a1bdc9a5e995960921b6044820152606490fd5b6007548110156120d9576005906007600052027fa66cc928b5edb82af9bd49922954155ab7b0942694bea4ce44661d9a8736c6880190600090565b6001600160401b038111610a2a5760051b60200190565b80518210156120d95760209160051b010190565b60009160018060a01b03168083526020906006825260ff60408520541660058110156158b4576003811461585e5760028114615898576001811480615868575b61585e57600414848161583c575b506158205750505090565b836012615837949360409360ff975252209061543d565b541690565b905061584a57600084615815565b634e487b7160e01b84526021600452602484fd5b5050505050600190565b50818552601383526103e2615886604087206040519283809261526a565b83815191012084518486012014615807565b50615837929160119160ff95506000525260406000209061543d565b634e487b7160e01b85526021600452602485fd5b60009160018060a01b0316808352600660205260ff604084205416600581101561584a57600381146159585760028114615958576001811480615961575b615958576004148381615936575b5061591e57505090565b906040836158379360ff95526012602052209061543d565b905061594457600183615914565b634e487b7160e01b83526021600452602483fd5b50505050600190565b5081845260136020526103e2615980604086206040519283809261526a565b602081519101208351602085012014615906565b1561599b57565b60405162461bcd60e51b8152602060048201526011602482015270556e617574686f72697a656420726f6c6560781b6044820152606490fd5b90916159eb6154e7936040845260408401906150f5565b9160208184039101526150f5565b15615a0057565b60405162461bcd60e51b8152602060048201526013602482015272556e617574686f72697a65642061636365737360681b6044820152606490fd5b60405190615a488261536d565b600d82526c5265636f72642041636365737360981b6020830152565b90604051615a7181615352565b60018060a01b0380921694858252602082018481526040830190428252606084019287845215156080850152600754600160401b811015610a2a57806001615abc9201600755615761565b95909561390d578451166001600160601b0360a01b865416178555519081516001600160401b038111610a2a5780615af76001880154615230565b93601f94858111615d34575b50602090858311600114615cc257600092615cb7575b50508160011b916000199060031b1c19161760018601555b516002850155600384019151908151916001600160401b038311610a2a57615b598454615230565b828111615c72575b506020918311600114615bea576080615bc5956000805160206160f1833981519152989585614be196615bda9a96600496600092615bdf575b50508160011b916000199060031b1c19161790550151151591019060ff801983541691151516179055565b926040519182916020835260208301906150f5565b0390a3565b015190503880615b9a565b90601f198316918460005260206000209260005b818110615c5a5750956000805160206160f18339815191529895600186615bda9a96600496608096614be19a615bc59d10615c41575b505050811b01905561366f565b015160001960f88460031b161c19169055388080615c34565b92936020600181928786015181550195019301615bfe565b8460005260206000208380860160051c82019260208710615cae575b0160051c01905b818110615ca25750615b61565b60008155600101615c95565b92508192615c8e565b015190503880615b19565b9250600188016000526020600020906000935b601f1984168510615d19576001945083601f19811610615d00575b505050811b016001860155615b31565b015160001960f88460031b161c19169055388080615cf0565b81810151835560209485019460019093019290910190615cd5565b9091506000600189018152602081208680860160051c82019360208710615d80575b908695949392910160051c01915b828110615d72575050615b03565b818155859450600101615d64565b93508193615d56565b60038210156105985752565b9060038110156105985760ff80198354169116179055565b8054600160401b811015610a2a57615dca91600182018155615218565b819291549060031b91821b91600019901b1916179055565b90615dec8261579c565b604090615dfb82519182615388565b8381528093615e0c601f199161579c565b0191600091825b848110615e21575050505050565b6020908351615e2f81615300565b858152606083908082840152878784015287818401528060808401528060a08401528060c084015260e0830152828501015201615e13565b80548210156120d95760005260206000209060021b0190600090565b8054600160401b811015610a2a57615ea2906001928382018155615e67565b61390d5782518051916001600160401b0392838111610a2a57615ec58254615230565b92601f9384811161608c575b5060209084831160011461602057918060609492600394600092616015575b505060001982851b1c191690871b1781555b60208701518682015560408701516002820155019401518051928311610a2a57615f2c8554615230565b828111615fcd575b506020918311600114615f6d57928293918392600094615f62575b50501b916000199060031b1c1916179055565b015192503880615f4f565b90601f198316918560005283826000209360005b87828210615fb457505010615f9b575b505050811b019055565b015160001960f88460031b161c19169055388080615f91565b8486015187559095019460209485019487935001615f81565b8560005260206000208380860160051c8201926020871061600c575b0160051c019085905b828110616000575050615f34565b60008155018590615ff2565b92508192615fe9565b015190503880615ef0565b869291601f1983169185600052816000209260005b81811061607457509160039593918560609896941061605c575b505050811b018155615f02565b015160001983871b60f8161c1916905538808061604f565b8284015185558a969094019360209384019301616035565b6000848152602081208680860160051c820193602087106160cb575b0160051c019188905b8381106160c057505050615ed1565b8281550188906160b1565b935081936160a8565b80548210156120d957600052600660206000209102019060009056fe3080b8b7888bff2fd89ae826442395530945d5733b453cbc662b1ec33780dc2db10e2d527612073b26eecdfd717e6a320cf44b4afac2b0732d9fcbe2b7fa0cfdb10e2d527612073b26eecdfd717e6a320cf44b4afac2b0732d9fcbe2b7fa0cfab10e2d527612073b26eecdfd717e6a320cf44b4afac2b0732d9fcbe2b7fa0cf8b10e2d527612073b26eecdfd717e6a320cf44b4afac2b0732d9fcbe2b7fa0cf7b10e2d527612073b26eecdfd717e6a320cf44b4afac2b0732d9fcbe2b7fa0cf9a26469706673582212203d3a1890d89983c886fbb37861171555d5994abe37182cac302ec591f90f388364736f6c63430008130033","opcodes":"PUSH1 0x80 DUP1 PUSH1 0x40 MSTORE CALLVALUE PUSH2 0x45 JUMPI CALLER PUSH1 0x0 MSTORE PUSH1 0x6 PUSH1 0x20 MSTORE PUSH1 0x40 PUSH1 0x0 KECCAK256 PUSH1 0xFF NOT SWAP1 PUSH1 0x3 DUP3 DUP3 SLOAD AND OR SWAP1 SSTORE PUSH1 0x3 PUSH1 0x20 MSTORE PUSH1 0x1 PUSH1 0x40 PUSH1 0x0 KECCAK256 SWAP2 DUP3 SLOAD AND OR SWAP1 SSTORE PUSH2 0x61E6 SWAP1 DUP2 PUSH3 0x4B DUP3 CODECOPY RETURN JUMPDEST PUSH1 0x0 DUP1 REVERT INVALID PUSH1 0x80 PUSH1 0x40 MSTORE PUSH1 0x4 CALLDATASIZE LT ISZERO PUSH2 0x12 JUMPI PUSH1 0x0 DUP1 REVERT JUMPDEST PUSH1 0x0 CALLDATALOAD PUSH1 0xE0 SHR DUP1 PUSH4 0x163E4F8 EQ PUSH2 0x4FA7 JUMPI DUP1 PUSH4 0x68884D7 EQ PUSH2 0x4F5D JUMPI DUP1 PUSH4 0x68A423B EQ PUSH2 0x4989 JUMPI DUP1 PUSH4 0x12DC9013 EQ PUSH2 0x486F JUMPI DUP1 PUSH4 0x1453E51F EQ PUSH2 0x4828 JUMPI DUP1 PUSH4 0x18892A1A EQ PUSH2 0x474A JUMPI DUP1 PUSH4 0x26FC9787 EQ PUSH2 0x470B JUMPI DUP1 PUSH4 0x27627BF3 EQ PUSH2 0x3B1E JUMPI DUP1 PUSH4 0x2D7B3E67 EQ PUSH2 0x3247 JUMPI DUP1 PUSH4 0x30B84026 EQ PUSH2 0x3211 JUMPI DUP1 PUSH4 0x3A2A3B1B EQ PUSH2 0x312A JUMPI DUP1 PUSH4 0x3FF9B87B EQ PUSH2 0x2FF9 JUMPI DUP1 PUSH4 0x402AB614 EQ PUSH2 0x2E96 JUMPI DUP1 PUSH4 0x4BC19D34 EQ PUSH2 0x2C05 JUMPI DUP1 PUSH4 0x52BE3B21 EQ PUSH2 0x2A94 JUMPI DUP1 PUSH4 0x53D08EF4 EQ PUSH2 0x2679 JUMPI DUP1 PUSH4 0x57CD46F5 EQ PUSH2 0x2621 JUMPI DUP1 PUSH4 0x73BD0B68 EQ PUSH2 0x1494 JUMPI DUP1 PUSH4 0x776DAC47 EQ PUSH2 0x141C JUMPI DUP1 PUSH4 0x7CC2E92B EQ PUSH2 0x1267 JUMPI DUP1 PUSH4 0x869C9EAF EQ PUSH2 0x103F JUMPI DUP1 PUSH4 0x882D763B EQ PUSH2 0xE12 JUMPI DUP1 PUSH4 0x8ADFCD6A EQ PUSH2 0xDAA JUMPI DUP1 PUSH4 0x931126E9 EQ PUSH2 0xC6F JUMPI DUP1 PUSH4 0x99374642 EQ PUSH2 0xC2B JUMPI DUP1 PUSH4 0x9A5A34F7 EQ PUSH2 0xBE2 JUMPI DUP1 PUSH4 0xA9583C22 EQ PUSH2 0xB2B JUMPI DUP1 PUSH4 0xC5555424 EQ PUSH2 0xA40 JUMPI DUP1 PUSH4 0xC5598C91 EQ PUSH2 0x8BA JUMPI DUP1 PUSH4 0xC5B99858 EQ PUSH2 0x856 JUMPI DUP1 PUSH4 0xD7222CDC EQ PUSH2 0x6EF JUMPI DUP1 PUSH4 0xDFE0B5FE EQ PUSH2 0x5DF JUMPI DUP1 PUSH4 0xF121477D EQ PUSH2 0x426 JUMPI DUP1 PUSH4 0xF24AF6E8 EQ PUSH2 0x319 JUMPI PUSH4 0xFD189B3C EQ PUSH2 0x19D JUMPI PUSH1 0x0 DUP1 REVERT JUMPDEST CALLVALUE PUSH2 0x314 JUMPI PUSH2 0x1AB CALLDATASIZE PUSH2 0x540C JUMP JUMPDEST SWAP1 PUSH2 0x1B6 CALLER DUP3 PUSH2 0x57C7 JUMP JUMPDEST DUP1 ISZERO PUSH2 0x2E3 JUMPI JUMPDEST PUSH2 0x1C6 SWAP1 PUSH2 0x59F9 JUMP JUMPDEST PUSH1 0x40 MLOAD DUP2 MLOAD PUSH2 0x202 PUSH1 0xFF PUSH1 0x4 PUSH1 0x20 SWAP5 DUP6 DUP2 DUP2 DUP10 ADD SWAP7 PUSH2 0x1E6 DUP2 DUP4 DUP11 PUSH2 0x50D2 JUMP JUMPDEST DUP2 ADD PUSH1 0x5 DUP2 MSTORE SUB ADD SWAP1 KECCAK256 ADD SLOAD AND PUSH2 0x1FB PUSH2 0x5A3B JUMP JUMPDEST CALLER DUP7 PUSH2 0x5A64 JUMP JUMPDEST DUP4 PUSH1 0x40 MLOAD DUP4 DUP2 DUP7 MLOAD PUSH2 0x215 DUP2 DUP4 DUP9 PUSH2 0x50D2 JUMP JUMPDEST DUP2 ADD PUSH1 0x2 DUP2 MSTORE SUB ADD SWAP1 KECCAK256 SLOAD LT PUSH2 0x29E JUMPI DUP2 PUSH2 0x23B SWAP2 PUSH1 0x40 MLOAD DUP1 SWAP4 DUP2 SWAP3 DUP8 MLOAD SWAP3 DUP4 SWAP2 PUSH2 0x50D2 JUMP JUMPDEST DUP2 ADD PUSH1 0x2 DUP2 MSTORE SUB ADD SWAP1 KECCAK256 DUP1 SLOAD SWAP3 DUP5 DUP5 SUB SWAP4 DUP5 GT PUSH2 0x288 JUMPI PUSH32 0xF78100B79988CA94AAA795967F9F5D213A54D36607A35040061897D737897D45 SWAP4 PUSH2 0x27E SWAP3 SSTORE PUSH2 0x56BA JUMP JUMPDEST SWAP3 PUSH1 0x40 MLOAD SWAP1 DUP2 MSTORE LOG2 STOP JUMPDEST PUSH4 0x4E487B71 PUSH1 0xE0 SHL PUSH1 0x0 MSTORE PUSH1 0x11 PUSH1 0x4 MSTORE PUSH1 0x24 PUSH1 0x0 REVERT JUMPDEST PUSH1 0x40 MLOAD PUSH3 0x461BCD PUSH1 0xE5 SHL DUP2 MSTORE PUSH1 0x4 DUP2 ADD DUP4 SWAP1 MSTORE PUSH1 0x19 PUSH1 0x24 DUP3 ADD MSTORE PUSH32 0x496E73756666696369656E74206865616C746820636F696E7300000000000000 PUSH1 0x44 DUP3 ADD MSTORE PUSH1 0x64 SWAP1 REVERT JUMPDEST POP PUSH2 0x1C6 PUSH1 0xFF PUSH1 0x4 PUSH1 0x40 MLOAD PUSH1 0x20 DUP2 DUP7 MLOAD PUSH2 0x300 DUP2 DUP4 DUP6 DUP12 ADD PUSH2 0x50D2 JUMP JUMPDEST DUP2 ADD PUSH1 0x5 DUP2 MSTORE SUB ADD SWAP1 KECCAK256 ADD SLOAD AND SWAP1 POP PUSH2 0x1BD JUMP JUMPDEST PUSH1 0x0 DUP1 REVERT JUMPDEST CALLVALUE PUSH2 0x314 JUMPI PUSH1 0x20 DUP1 PUSH1 0x3 NOT CALLDATASIZE ADD SLT PUSH2 0x314 JUMPI PUSH1 0x4 CALLDATALOAD PUSH1 0x1 PUSH1 0x1 PUSH1 0x40 SHL SUB DUP2 GT PUSH2 0x314 JUMPI DUP2 PUSH2 0x34E PUSH2 0x373 SWAP3 CALLDATASIZE SWAP1 PUSH1 0x4 ADD PUSH2 0x53B6 JUMP JUMPDEST PUSH2 0x360 PUSH2 0x35B CALLER DUP4 PUSH2 0x58C8 JUMP JUMPDEST PUSH2 0x5724 JUMP JUMPDEST DUP2 PUSH1 0x40 MLOAD SWAP4 DUP3 DUP6 DUP1 SWAP5 MLOAD SWAP4 DUP5 SWAP3 ADD PUSH2 0x50D2 JUMP JUMPDEST DUP2 ADD PUSH1 0xD DUP2 MSTORE SUB ADD SWAP1 KECCAK256 DUP1 SLOAD PUSH2 0x388 DUP2 PUSH2 0x579C JUMP JUMPDEST SWAP2 PUSH2 0x396 PUSH1 0x40 MLOAD SWAP4 DUP5 PUSH2 0x5388 JUMP JUMPDEST DUP2 DUP4 MSTORE PUSH1 0x0 SWAP1 DUP2 MSTORE DUP4 DUP2 KECCAK256 SWAP4 DUP1 DUP5 ADD JUMPDEST DUP4 DUP4 LT PUSH2 0x3BF JUMPI PUSH1 0x40 MLOAD DUP1 PUSH2 0x3BB DUP8 DUP3 PUSH2 0x54EA JUMP JUMPDEST SUB SWAP1 RETURN JUMPDEST PUSH1 0x4 DUP3 PUSH1 0x1 SWAP3 PUSH1 0x40 MLOAD PUSH2 0x3D1 DUP2 PUSH2 0x5337 JUMP JUMPDEST PUSH1 0x40 MLOAD PUSH2 0x3E9 DUP2 PUSH2 0x3E2 DUP2 DUP15 PUSH2 0x526A JUMP JUMPDEST SUB DUP3 PUSH2 0x5388 JUMP JUMPDEST DUP2 MSTORE DUP5 DUP11 ADD SLOAD DUP4 DUP3 ADD MSTORE PUSH1 0x2 DUP11 ADD SLOAD PUSH1 0x40 DUP3 ADD MSTORE PUSH1 0x3 PUSH2 0x413 DUP12 PUSH2 0x3E2 PUSH1 0x40 MLOAD DUP1 SWAP5 DUP2 SWAP4 ADD PUSH2 0x526A JUMP JUMPDEST PUSH1 0x60 DUP3 ADD MSTORE DUP2 MSTORE ADD SWAP7 ADD SWAP3 ADD SWAP2 SWAP5 PUSH2 0x3A6 JUMP JUMPDEST CALLVALUE PUSH2 0x314 JUMPI PUSH2 0x434 CALLDATASIZE PUSH2 0x54A4 JUMP JUMPDEST PUSH2 0x43E CALLER DUP4 PUSH2 0x57C7 JUMP JUMPDEST DUP1 ISZERO PUSH2 0x5AE JUMPI JUMPDEST PUSH2 0x44E SWAP1 PUSH2 0x59F9 JUMP JUMPDEST PUSH1 0x40 MLOAD DUP3 MLOAD SWAP3 PUSH1 0x20 SWAP2 DUP3 DUP3 ADD SWAP5 PUSH2 0x466 DUP2 DUP4 DUP9 PUSH2 0x50D2 JUMP JUMPDEST DUP2 ADD SWAP2 PUSH2 0x491 PUSH1 0x5 SWAP4 DUP5 DUP2 MSTORE PUSH1 0x4 DUP5 DUP8 PUSH1 0xFF SWAP7 DUP8 SWAP5 SUB ADD SWAP1 KECCAK256 ADD SLOAD AND PUSH2 0x48A PUSH2 0x5A3B JUMP JUMPDEST CALLER DUP5 PUSH2 0x5A64 JUMP JUMPDEST CALLER PUSH1 0x0 MSTORE PUSH1 0x6 DUP5 MSTORE DUP2 PUSH1 0x40 PUSH1 0x0 KECCAK256 SLOAD AND SWAP6 DUP4 DUP8 LT ISZERO PUSH2 0x598 JUMPI DUP5 SWAP1 PUSH1 0x2 DUP1 SWAP9 EQ DUP1 ISZERO PUSH2 0x572 JUMPI JUMPDEST SWAP3 PUSH2 0x4C5 PUSH2 0x4D6 SWAP5 PUSH2 0x56DA JUMP JUMPDEST PUSH1 0x40 MLOAD SWAP4 DUP5 SWAP3 DUP4 SWAP3 MLOAD SWAP3 DUP4 SWAP2 PUSH2 0x50D2 JUMP JUMPDEST DUP2 ADD PUSH1 0xF DUP2 MSTORE SUB ADD SWAP1 KECCAK256 SWAP3 PUSH1 0x0 JUMPDEST DUP5 SLOAD DUP2 LT ISZERO PUSH2 0x570 JUMPI PUSH2 0x3E2 PUSH2 0x50A PUSH2 0x4FD DUP4 DUP9 PUSH2 0x60D4 JUMP JUMPDEST POP PUSH1 0x40 MLOAD SWAP3 DUP4 DUP1 SWAP3 PUSH2 0x526A JUMP JUMPDEST DUP3 DUP2 MLOAD SWAP2 ADD KECCAK256 DUP7 MLOAD DUP4 DUP9 ADD KECCAK256 EQ DUP1 PUSH2 0x55A JUMPI JUMPDEST PUSH2 0x52F JUMPI PUSH2 0x52A SWAP1 PUSH2 0x5715 JUMP JUMPDEST PUSH2 0x4E4 JUMP JUMPDEST PUSH2 0x553 SWAP6 POP DUP5 DUP2 SWAP6 SWAP5 SWAP4 POP PUSH2 0x544 SWAP3 POP PUSH2 0x60D4 JUMP JUMPDEST POP ADD DUP1 SLOAD PUSH1 0xFF NOT AND SWAP1 SSTORE PUSH2 0x60D4 JUMP JUMPDEST POP TIMESTAMP SWAP2 ADD SSTORE STOP JUMPDEST POP DUP3 DUP5 PUSH2 0x567 DUP4 DUP9 PUSH2 0x60D4 JUMP JUMPDEST POP ADD SLOAD AND PUSH2 0x51D JUMP JUMPDEST STOP JUMPDEST POP SWAP1 POP CALLER PUSH1 0x0 MSTORE PUSH1 0x6 DUP6 MSTORE DUP3 PUSH1 0x40 PUSH1 0x0 KECCAK256 SLOAD AND SWAP1 DUP5 DUP3 LT ISZERO PUSH2 0x598 JUMPI DUP6 SWAP2 PUSH1 0x3 EQ PUSH2 0x4B8 JUMP JUMPDEST PUSH4 0x4E487B71 PUSH1 0xE0 SHL PUSH1 0x0 MSTORE PUSH1 0x21 PUSH1 0x4 MSTORE PUSH1 0x24 PUSH1 0x0 REVERT JUMPDEST POP PUSH2 0x44E PUSH1 0xFF PUSH1 0x4 PUSH1 0x40 MLOAD PUSH1 0x20 DUP2 DUP8 MLOAD PUSH2 0x5CB DUP2 DUP4 DUP6 DUP13 ADD PUSH2 0x50D2 JUMP JUMPDEST DUP2 ADD PUSH1 0x5 DUP2 MSTORE SUB ADD SWAP1 KECCAK256 ADD SLOAD AND SWAP1 POP PUSH2 0x445 JUMP JUMPDEST CALLVALUE PUSH2 0x314 JUMPI PUSH2 0x5ED CALLDATASIZE PUSH2 0x5463 JUMP JUMPDEST SWAP1 ADDRESS CALLER EQ DUP1 ISZERO PUSH2 0x671 JUMPI JUMPDEST SWAP1 PUSH2 0x605 PUSH2 0x64A SWAP3 PUSH2 0x56DA JUMP JUMPDEST PUSH1 0x2 PUSH1 0x40 MLOAD PUSH1 0x20 DUP2 DUP5 MLOAD PUSH2 0x61C DUP2 DUP4 DUP6 DUP10 ADD PUSH2 0x50D2 JUMP JUMPDEST DUP2 ADD PUSH1 0x5 DUP2 MSTORE SUB ADD SWAP1 KECCAK256 ADD SWAP3 PUSH1 0x1 DUP1 PUSH1 0xA0 SHL SUB AND SWAP3 DUP4 PUSH1 0x0 MSTORE PUSH1 0x20 MSTORE PUSH1 0x40 PUSH1 0x0 KECCAK256 PUSH1 0xFF NOT DUP2 SLOAD AND SWAP1 SSTORE PUSH2 0x56BA JUMP JUMPDEST PUSH32 0xA4056635223780A71518E8C10B6FC0FD195775C8375C4841C124A959AE5C30AD PUSH1 0x0 DUP1 LOG3 STOP JUMPDEST POP CALLER PUSH1 0x0 MSTORE PUSH1 0x6 PUSH1 0x20 MSTORE PUSH1 0xFF PUSH1 0x40 PUSH1 0x0 KECCAK256 SLOAD AND SWAP1 PUSH1 0x5 DUP3 LT ISZERO PUSH2 0x598 JUMPI PUSH1 0x1 PUSH2 0x64A SWAP3 EQ DUP1 PUSH2 0x6A3 JUMPI JUMPDEST SWAP1 SWAP2 POP PUSH2 0x5F8 JUMP JUMPDEST POP PUSH2 0x605 PUSH1 0x40 MLOAD PUSH2 0x3E2 PUSH2 0x6DB DUP5 MLOAD SWAP3 PUSH1 0x20 DUP2 DUP2 DUP9 ADD SWAP6 PUSH2 0x6C5 DUP2 DUP4 DUP10 PUSH2 0x50D2 JUMP JUMPDEST DUP2 ADD PUSH1 0x5 DUP2 MSTORE SUB ADD SWAP1 KECCAK256 PUSH1 0x40 MLOAD SWAP3 DUP4 DUP1 SWAP3 PUSH2 0x526A JUMP JUMPDEST PUSH1 0x20 DUP2 MLOAD SWAP2 ADD KECCAK256 SWAP1 DUP4 MLOAD SWAP1 KECCAK256 EQ SWAP1 POP PUSH2 0x69B JUMP JUMPDEST CALLVALUE PUSH2 0x314 JUMPI PUSH1 0x20 DUP1 PUSH1 0x3 NOT CALLDATASIZE ADD SLT PUSH2 0x314 JUMPI PUSH1 0x4 CALLDATALOAD PUSH1 0x1 PUSH1 0x1 PUSH1 0x40 SHL SUB DUP2 GT PUSH2 0x314 JUMPI PUSH2 0x720 SWAP1 CALLDATASIZE SWAP1 PUSH1 0x4 ADD PUSH2 0x53B6 JUMP JUMPDEST PUSH1 0x0 SWAP1 DUP3 DUP2 ADD DUP3 JUMPDEST PUSH1 0x40 MLOAD DUP4 MLOAD PUSH2 0x738 DUP2 DUP4 DUP7 PUSH2 0x50D2 JUMP JUMPDEST DUP2 ADD PUSH1 0x5 SWAP1 DUP2 DUP2 MSTORE DUP3 DUP9 PUSH1 0x3 SWAP5 DUP6 SWAP4 SUB ADD SWAP1 KECCAK256 ADD SLOAD DUP4 LT ISZERO PUSH2 0x84C JUMPI DUP3 DUP3 PUSH2 0x77C SWAP3 DUP10 PUSH1 0x40 MLOAD DUP1 SWAP3 DUP11 MLOAD PUSH2 0x76D DUP2 DUP5 DUP14 PUSH2 0x50D2 JUMP JUMPDEST DUP3 ADD SWAP1 DUP2 MSTORE SUB ADD SWAP1 KECCAK256 ADD PUSH2 0x5218 JUMP JUMPDEST SWAP1 SLOAD SWAP2 SHL SHR PUSH1 0x1 PUSH1 0x1 PUSH1 0xA0 SHL SUB AND CALLER EQ PUSH2 0x79E JUMPI PUSH2 0x799 SWAP1 PUSH2 0x5715 JUMP JUMPDEST PUSH2 0x728 JUMP JUMPDEST POP SWAP1 SWAP2 POP PUSH1 0x1 JUMPDEST ISZERO PUSH2 0x807 JUMPI PUSH2 0x7C5 PUSH2 0x7E0 SWAP4 PUSH1 0x4 SWAP3 PUSH1 0x40 MLOAD DUP1 SWAP4 DUP2 SWAP3 DUP8 MLOAD SWAP3 DUP4 SWAP2 PUSH2 0x50D2 JUMP JUMPDEST DUP2 ADD PUSH1 0x5 DUP2 MSTORE SUB ADD SWAP1 KECCAK256 ADD PUSH1 0x1 PUSH1 0xFF NOT DUP3 SLOAD AND OR SWAP1 SSTORE PUSH2 0x56BA JUMP JUMPDEST PUSH32 0x2BC0DE3F6C76F020B84DD1D38DECDCDA01FE7E3D5CD178CD7A19864E4135F7D PUSH1 0x0 DUP1 LOG2 STOP JUMPDEST PUSH1 0x40 MLOAD PUSH3 0x461BCD PUSH1 0xE5 SHL DUP2 MSTORE PUSH1 0x4 DUP2 ADD DUP5 SWAP1 MSTORE PUSH1 0x18 PUSH1 0x24 DUP3 ADD MSTORE PUSH32 0x4E6F7420616E20656D657267656E637920636F6E746163740000000000000000 PUSH1 0x44 DUP3 ADD MSTORE PUSH1 0x64 SWAP1 REVERT JUMPDEST POP POP POP SWAP1 SWAP2 PUSH2 0x7A5 JUMP JUMPDEST CALLVALUE PUSH2 0x314 JUMPI PUSH1 0x20 CALLDATASIZE PUSH1 0x3 NOT ADD SLT PUSH2 0x314 JUMPI PUSH2 0x86F PUSH2 0x5202 JUMP JUMPDEST CALLER PUSH1 0x0 MSTORE PUSH1 0x6 PUSH1 0x20 MSTORE PUSH1 0xFF PUSH1 0x40 PUSH1 0x0 KECCAK256 SLOAD AND PUSH1 0x5 DUP2 LT ISZERO PUSH2 0x598 JUMPI PUSH1 0x3 PUSH2 0x896 SWAP2 EQ PUSH2 0x5994 JUMP JUMPDEST PUSH1 0x1 PUSH1 0x1 PUSH1 0xA0 SHL SUB AND PUSH1 0x0 SWAP1 DUP2 MSTORE PUSH1 0x3 PUSH1 0x20 MSTORE PUSH1 0x40 SWAP1 KECCAK256 DUP1 SLOAD PUSH1 0xFF NOT AND PUSH1 0x1 OR SWAP1 SSTORE STOP JUMPDEST CALLVALUE PUSH2 0x314 JUMPI PUSH1 0x20 DUP1 PUSH1 0x3 NOT CALLDATASIZE ADD SLT PUSH2 0x314 JUMPI PUSH2 0x8D4 PUSH2 0x5202 JUMP JUMPDEST PUSH1 0x40 MLOAD DUP3 DUP2 ADD DUP2 DUP2 LT PUSH1 0x1 PUSH1 0x1 PUSH1 0x40 SHL SUB DUP3 GT OR PUSH2 0xA2A JUMPI PUSH2 0x902 SWAP2 PUSH2 0x35B SWAP2 PUSH1 0x40 MSTORE PUSH1 0x0 DUP2 MSTORE CALLER SWAP1 PUSH2 0x58C8 JUMP JUMPDEST PUSH1 0x1 PUSH1 0x1 PUSH1 0xA0 SHL SUB AND PUSH1 0x0 SWAP1 DUP2 MSTORE PUSH1 0xB DUP3 MSTORE PUSH1 0x40 SWAP1 KECCAK256 DUP1 SLOAD SWAP1 SWAP2 PUSH2 0x925 DUP3 PUSH2 0x5DE2 JUMP JUMPDEST SWAP3 PUSH1 0x0 JUMPDEST DUP4 DUP2 LT PUSH2 0x93E JUMPI PUSH1 0x40 MLOAD DUP1 PUSH2 0x3BB DUP8 DUP3 PUSH2 0x557F JUMP JUMPDEST DUP1 PUSH2 0x94C PUSH2 0xA25 SWAP3 DUP5 PUSH2 0x5218 JUMP JUMPDEST SWAP1 SLOAD PUSH1 0x3 SWAP2 DUP3 SHL SHR PUSH1 0x0 MSTORE PUSH1 0x9 DUP6 MSTORE PUSH1 0x7 PUSH2 0xA05 PUSH1 0x40 PUSH1 0x0 KECCAK256 PUSH2 0x9AA PUSH1 0xFF PUSH1 0x40 MLOAD SWAP6 PUSH2 0x977 DUP8 PUSH2 0x5300 JUMP JUMPDEST DUP4 SLOAD DUP8 MSTORE PUSH1 0x40 MLOAD PUSH2 0x98F DUP2 PUSH2 0x3E2 DUP2 PUSH1 0x1 DUP10 ADD PUSH2 0x526A JUMP JUMPDEST DUP12 DUP9 ADD MSTORE PUSH1 0x2 DUP5 ADD SLOAD PUSH1 0x40 DUP9 ADD MSTORE DUP4 ADD SLOAD AND PUSH1 0x60 DUP7 ADD PUSH2 0x5D89 JUMP JUMPDEST PUSH1 0x40 MLOAD PUSH2 0x9BE DUP2 PUSH2 0x3E2 DUP2 PUSH1 0x4 DUP7 ADD PUSH2 0x526A JUMP JUMPDEST PUSH1 0x80 DUP6 ADD MSTORE PUSH1 0x40 MLOAD PUSH2 0x9D7 DUP2 PUSH2 0x3E2 DUP2 PUSH1 0x5 DUP7 ADD PUSH2 0x526A JUMP JUMPDEST PUSH1 0xA0 DUP6 ADD MSTORE PUSH1 0x40 MLOAD PUSH2 0x9F0 DUP2 PUSH2 0x3E2 DUP2 PUSH1 0x6 DUP7 ADD PUSH2 0x526A JUMP JUMPDEST PUSH1 0xC0 DUP6 ADD MSTORE PUSH2 0x3E2 PUSH1 0x40 MLOAD DUP1 SWAP5 DUP2 SWAP4 ADD PUSH2 0x526A JUMP JUMPDEST PUSH1 0xE0 DUP3 ADD MSTORE PUSH2 0xA14 DUP3 DUP9 PUSH2 0x57B3 JUMP JUMPDEST MSTORE PUSH2 0xA1F DUP2 DUP8 PUSH2 0x57B3 JUMP JUMPDEST POP PUSH2 0x5715 JUMP JUMPDEST PUSH2 0x929 JUMP JUMPDEST PUSH4 0x4E487B71 PUSH1 0xE0 SHL PUSH1 0x0 MSTORE PUSH1 0x41 PUSH1 0x4 MSTORE PUSH1 0x24 PUSH1 0x0 REVERT JUMPDEST CALLVALUE PUSH2 0x314 JUMPI PUSH1 0x20 DUP1 PUSH1 0x3 NOT CALLDATASIZE ADD SLT PUSH2 0x314 JUMPI PUSH1 0x4 CALLDATALOAD PUSH1 0x1 PUSH1 0x1 PUSH1 0x40 SHL SUB DUP2 GT PUSH2 0x314 JUMPI PUSH2 0xA71 SWAP1 CALLDATASIZE SWAP1 PUSH1 0x4 ADD PUSH2 0x53B6 JUMP JUMPDEST CALLER PUSH1 0x0 MSTORE PUSH1 0x6 DUP3 MSTORE PUSH1 0xFF PUSH1 0x40 PUSH1 0x0 KECCAK256 SLOAD AND PUSH1 0x5 DUP2 LT ISZERO PUSH2 0x598 JUMPI PUSH2 0xAD0 SWAP3 PUSH1 0x1 PUSH1 0x4 SWAP3 EQ DUP1 PUSH2 0xAF7 JUMPI JUMPDEST PUSH2 0xAA4 SWAP1 PUSH2 0x56DA JUMP JUMPDEST PUSH1 0x40 MLOAD SWAP1 DUP2 DUP5 MLOAD PUSH2 0xAB8 DUP2 DUP4 DUP6 DUP10 ADD PUSH2 0x50D2 JUMP JUMPDEST DUP2 ADD PUSH1 0x5 DUP2 MSTORE SUB ADD SWAP1 KECCAK256 ADD PUSH1 0xFF NOT DUP2 SLOAD AND SWAP1 SSTORE PUSH2 0x56BA JUMP JUMPDEST PUSH32 0x603D08020C4DC71D72674C8861E13340FF6BFEB2E5CDDA1243DCF8C37CE6955D PUSH1 0x0 DUP1 LOG2 STOP JUMPDEST POP PUSH2 0xAA4 PUSH1 0x40 MLOAD PUSH2 0x3E2 PUSH2 0xB18 DUP7 MLOAD SWAP3 DUP6 DUP2 DUP2 DUP11 ADD SWAP6 PUSH2 0x6C5 DUP2 DUP4 DUP10 PUSH2 0x50D2 JUMP JUMPDEST DUP4 DUP2 MLOAD SWAP2 ADD KECCAK256 SWAP1 DUP6 MLOAD SWAP1 KECCAK256 EQ SWAP1 POP PUSH2 0xA9B JUMP JUMPDEST CALLVALUE PUSH2 0x314 JUMPI PUSH1 0x20 CALLDATASIZE PUSH1 0x3 NOT ADD SLT PUSH2 0x314 JUMPI PUSH1 0x1 PUSH1 0x1 PUSH1 0xA0 SHL SUB PUSH2 0xB4C PUSH2 0x5202 JUMP JUMPDEST AND PUSH1 0x0 MSTORE PUSH1 0x4 PUSH1 0x20 MSTORE PUSH2 0xBAF PUSH1 0x40 PUSH1 0x0 KECCAK256 PUSH1 0x40 MLOAD SWAP1 PUSH2 0xB76 DUP3 PUSH2 0xB6F DUP2 DUP5 PUSH2 0x526A JUMP JUMPDEST SUB DUP4 PUSH2 0x5388 JUMP JUMPDEST PUSH1 0x40 MLOAD PUSH2 0xB8A DUP2 PUSH2 0x3E2 DUP2 PUSH1 0x1 DUP7 ADD PUSH2 0x526A JUMP JUMPDEST PUSH2 0xBD9 PUSH2 0xBBD PUSH1 0x3 PUSH1 0x2 DUP6 ADD SLOAD SWAP5 ADD SLOAD SWAP3 PUSH1 0x40 MLOAD SWAP7 DUP8 SWAP7 PUSH1 0xA0 DUP9 MSTORE PUSH1 0xA0 DUP9 ADD SWAP1 PUSH2 0x50F5 JUMP JUMPDEST SWAP1 DUP7 DUP3 SUB PUSH1 0x20 DUP9 ADD MSTORE PUSH2 0x50F5 JUMP JUMPDEST SWAP3 PUSH1 0xFF DUP2 AND ISZERO ISZERO PUSH1 0x40 DUP7 ADD MSTORE PUSH1 0xFF PUSH1 0x60 DUP7 ADD SWAP2 PUSH1 0x8 SHR AND PUSH2 0x5669 JUMP JUMPDEST PUSH1 0x80 DUP4 ADD MSTORE SUB SWAP1 RETURN JUMPDEST CALLVALUE PUSH2 0x314 JUMPI PUSH1 0x20 CALLDATASIZE PUSH1 0x3 NOT ADD SLT PUSH2 0x314 JUMPI PUSH1 0x4 CALLDATALOAD PUSH1 0x1 PUSH1 0x1 PUSH1 0x40 SHL SUB DUP2 GT PUSH2 0x314 JUMPI PUSH2 0xC18 PUSH1 0x20 PUSH2 0x34E DUP2 SWAP4 CALLDATASIZE SWAP1 PUSH1 0x4 ADD PUSH2 0x53B6 JUMP JUMPDEST DUP2 ADD PUSH1 0x2 DUP2 MSTORE SUB ADD SWAP1 KECCAK256 SLOAD PUSH1 0x40 MLOAD SWAP1 DUP2 MSTORE RETURN JUMPDEST CALLVALUE PUSH2 0x314 JUMPI PUSH1 0x20 CALLDATASIZE PUSH1 0x3 NOT ADD SLT PUSH2 0x314 JUMPI PUSH1 0x1 PUSH1 0x1 PUSH1 0xA0 SHL SUB PUSH2 0xC4C PUSH2 0x5202 JUMP JUMPDEST AND PUSH1 0x0 MSTORE PUSH1 0x6 PUSH1 0x20 MSTORE PUSH1 0x20 PUSH1 0xFF PUSH1 0x40 PUSH1 0x0 KECCAK256 SLOAD AND PUSH2 0xC6D PUSH1 0x40 MLOAD DUP1 SWAP3 PUSH2 0x5669 JUMP JUMPDEST RETURN JUMPDEST CALLVALUE PUSH2 0x314 JUMPI PUSH1 0x20 DUP1 PUSH1 0x3 NOT CALLDATASIZE ADD SLT PUSH2 0x314 JUMPI PUSH1 0x4 CALLDATALOAD PUSH1 0x1 PUSH1 0x1 PUSH1 0x40 SHL SUB DUP2 GT PUSH2 0x314 JUMPI DUP2 PUSH2 0x360 PUSH2 0xCA4 SWAP3 CALLDATASIZE SWAP1 PUSH1 0x4 ADD PUSH2 0x53B6 JUMP JUMPDEST DUP2 ADD PUSH1 0x0 DUP2 MSTORE SUB ADD SWAP1 KECCAK256 DUP1 SLOAD PUSH2 0xCB9 DUP2 PUSH2 0x579C JUMP JUMPDEST SWAP2 PUSH2 0xCC7 PUSH1 0x40 MLOAD SWAP4 DUP5 PUSH2 0x5388 JUMP JUMPDEST DUP2 DUP4 MSTORE PUSH1 0x0 SWAP1 DUP2 MSTORE DUP4 DUP2 KECCAK256 SWAP4 DUP1 DUP5 ADD JUMPDEST DUP4 DUP4 LT PUSH2 0xCEC JUMPI PUSH1 0x40 MLOAD DUP1 PUSH2 0x3BB DUP8 DUP3 PUSH2 0x511A JUMP JUMPDEST PUSH1 0x8 DUP3 PUSH1 0x1 SWAP3 PUSH1 0x40 MLOAD PUSH2 0xCFE DUP2 PUSH2 0x5300 JUMP JUMPDEST DUP10 SLOAD DUP2 MSTORE PUSH1 0x40 MLOAD PUSH2 0xD15 DUP2 PUSH2 0x3E2 DUP2 DUP10 DUP16 ADD PUSH2 0x526A JUMP JUMPDEST DUP2 DUP5 ADD MSTORE PUSH1 0x40 MLOAD PUSH2 0xD2D DUP2 PUSH2 0x3E2 DUP2 PUSH1 0x2 DUP16 ADD PUSH2 0x526A JUMP JUMPDEST PUSH1 0x40 DUP3 ADD MSTORE PUSH1 0x3 PUSH2 0xD48 DUP12 PUSH2 0x3E2 PUSH1 0x40 MLOAD DUP1 SWAP5 DUP2 SWAP4 ADD PUSH2 0x526A JUMP JUMPDEST PUSH1 0x60 DUP3 ADD MSTORE PUSH1 0x40 MLOAD PUSH2 0xD61 DUP2 PUSH2 0x3E2 DUP2 PUSH1 0x4 DUP16 ADD PUSH2 0x526A JUMP JUMPDEST PUSH1 0x80 DUP3 ADD MSTORE PUSH1 0x5 DUP11 ADD SLOAD PUSH1 0xA0 DUP3 ADD MSTORE DUP5 DUP1 PUSH1 0xA0 SHL SUB PUSH1 0x6 DUP12 ADD SLOAD AND PUSH1 0xC0 DUP3 ADD MSTORE PUSH1 0x7 PUSH2 0xD97 DUP12 PUSH2 0x3E2 PUSH1 0x40 MLOAD DUP1 SWAP5 DUP2 SWAP4 ADD PUSH2 0x526A JUMP JUMPDEST PUSH1 0xE0 DUP3 ADD MSTORE DUP2 MSTORE ADD SWAP7 ADD SWAP3 ADD SWAP2 SWAP5 PUSH2 0xCD7 JUMP JUMPDEST CALLVALUE PUSH2 0x314 JUMPI PUSH1 0x20 DUP1 PUSH1 0x3 NOT CALLDATASIZE ADD SLT PUSH2 0x314 JUMPI PUSH1 0x1 PUSH1 0x1 PUSH1 0xA0 SHL SUB PUSH2 0xDCC PUSH2 0x5202 JUMP JUMPDEST AND PUSH1 0x0 MSTORE PUSH1 0xC DUP2 MSTORE PUSH1 0x40 PUSH1 0x0 KECCAK256 SWAP1 DUP2 SLOAD SWAP1 PUSH2 0xDE6 DUP3 PUSH2 0x5DE2 JUMP JUMPDEST SWAP3 PUSH1 0x0 JUMPDEST DUP4 DUP2 LT PUSH2 0xDFF JUMPI PUSH1 0x40 MLOAD DUP1 PUSH2 0x3BB DUP8 DUP3 PUSH2 0x557F JUMP JUMPDEST DUP1 PUSH2 0x94C PUSH2 0xE0D SWAP3 DUP5 PUSH2 0x5218 JUMP JUMPDEST PUSH2 0xDEA JUMP JUMPDEST CALLVALUE PUSH2 0x314 JUMPI PUSH1 0x80 CALLDATASIZE PUSH1 0x3 NOT ADD SLT PUSH2 0x314 JUMPI PUSH1 0x1 PUSH1 0x1 PUSH1 0x40 SHL SUB PUSH1 0x4 CALLDATALOAD DUP2 DUP2 GT PUSH2 0x314 JUMPI PUSH2 0xE43 SWAP1 CALLDATASIZE SWAP1 PUSH1 0x4 ADD PUSH2 0x53B6 JUMP JUMPDEST PUSH1 0x24 CALLDATALOAD DUP3 DUP2 GT PUSH2 0x314 JUMPI PUSH2 0xE5B SWAP1 CALLDATASIZE SWAP1 PUSH1 0x4 ADD PUSH2 0x53B6 JUMP JUMPDEST PUSH1 0x44 CALLDATALOAD SWAP3 PUSH1 0x64 CALLDATALOAD SWAP1 DUP2 GT PUSH2 0x314 JUMPI PUSH2 0xE77 SWAP1 CALLDATASIZE SWAP1 PUSH1 0x4 ADD PUSH2 0x53B6 JUMP JUMPDEST SWAP1 PUSH2 0xE82 CALLER DUP5 PUSH2 0x57C7 JUMP JUMPDEST DUP1 ISZERO PUSH2 0x100E JUMPI JUMPDEST PUSH2 0xE92 SWAP1 PUSH2 0x59F9 JUMP JUMPDEST PUSH1 0x40 MLOAD SWAP2 DUP4 MLOAD SWAP1 PUSH2 0xED0 PUSH1 0xFF PUSH1 0x4 PUSH1 0x20 SWAP7 DUP8 DUP2 DUP2 DUP12 ADD SWAP8 PUSH2 0xEB4 DUP2 DUP4 DUP12 PUSH2 0x50D2 JUMP JUMPDEST DUP2 ADD PUSH1 0x5 DUP2 MSTORE SUB ADD SWAP1 KECCAK256 ADD SLOAD AND PUSH2 0xEC9 PUSH2 0x5A3B JUMP JUMPDEST CALLER DUP9 PUSH2 0x5A64 JUMP JUMPDEST PUSH2 0xEDC DUP6 MLOAD ISZERO ISZERO PUSH2 0x5676 JUMP JUMPDEST DUP3 MLOAD ISZERO PUSH2 0xFD3 JUMPI PUSH2 0xF6C SWAP2 PUSH2 0xF5B DUP6 SWAP3 PUSH1 0x40 MLOAD SWAP1 PUSH2 0xEF9 DUP3 PUSH2 0x5337 JUMP JUMPDEST DUP7 DUP3 MSTORE DUP10 DUP6 DUP4 ADD MSTORE TIMESTAMP PUSH1 0x40 DUP4 ADD MSTORE PUSH1 0x60 DUP3 ADD MSTORE PUSH2 0xF31 DUP2 PUSH1 0x40 MLOAD DUP7 DUP2 DUP13 MLOAD PUSH2 0xF22 DUP2 DUP4 DUP12 PUSH2 0x50D2 JUMP JUMPDEST DUP2 ADD PUSH1 0xD DUP2 MSTORE SUB ADD SWAP1 KECCAK256 PUSH2 0x5E83 JUMP JUMPDEST PUSH2 0xF56 PUSH1 0x40 MLOAD DUP6 DUP2 DUP12 MLOAD PUSH2 0xF46 DUP2 DUP4 DUP11 PUSH2 0x50D2 JUMP JUMPDEST DUP2 ADD PUSH1 0xE DUP2 MSTORE SUB ADD SWAP1 KECCAK256 DUP8 PUSH2 0x543D JUMP JUMPDEST PUSH2 0x5E83 JUMP JUMPDEST PUSH1 0x40 MLOAD DUP1 SWAP4 DUP2 SWAP3 DUP9 MLOAD SWAP3 DUP4 SWAP2 PUSH2 0x50D2 JUMP JUMPDEST DUP2 ADD PUSH1 0x2 DUP2 MSTORE SUB ADD SWAP1 KECCAK256 SWAP2 DUP3 SLOAD SWAP3 PUSH1 0xA DUP5 ADD DUP1 SWAP5 GT PUSH2 0x288 JUMPI PUSH32 0xCE65C4D5B1A9EE66172B83A86B9A8C4EBD3C4EABC956A43B9F136FB9F30E69CF SWAP5 PUSH2 0xFCA SWAP5 PUSH2 0xFB5 SWAP3 SSTORE PUSH2 0x56BA JUMP JUMPDEST SWAP5 PUSH1 0x40 MLOAD SWAP4 DUP5 SWAP4 PUSH1 0x40 DUP6 MSTORE PUSH1 0x40 DUP6 ADD SWAP1 PUSH2 0x50F5 JUMP JUMPDEST SWAP2 DUP4 ADD MSTORE SUB SWAP1 LOG2 STOP JUMPDEST PUSH1 0x40 MLOAD PUSH3 0x461BCD PUSH1 0xE5 SHL DUP2 MSTORE PUSH1 0x4 DUP2 ADD DUP6 SWAP1 MSTORE PUSH1 0x13 PUSH1 0x24 DUP3 ADD MSTORE PUSH19 0x496E76616C6964206D65747269632074797065 PUSH1 0x68 SHL PUSH1 0x44 DUP3 ADD MSTORE PUSH1 0x64 SWAP1 REVERT JUMPDEST POP PUSH2 0xE92 PUSH1 0xFF PUSH1 0x4 PUSH1 0x40 MLOAD PUSH1 0x20 DUP2 DUP9 MLOAD PUSH2 0x102B DUP2 DUP4 DUP6 DUP14 ADD PUSH2 0x50D2 JUMP JUMPDEST DUP2 ADD PUSH1 0x5 DUP2 MSTORE SUB ADD SWAP1 KECCAK256 ADD SLOAD AND SWAP1 POP PUSH2 0xE89 JUMP JUMPDEST CALLVALUE PUSH2 0x314 JUMPI PUSH1 0x20 DUP1 PUSH1 0x3 NOT CALLDATASIZE ADD SLT PUSH2 0x314 JUMPI PUSH1 0x1 PUSH1 0x1 PUSH1 0x40 SHL SUB PUSH1 0x4 CALLDATALOAD DUP2 DUP2 GT PUSH2 0x314 JUMPI PUSH2 0x1071 SWAP1 CALLDATASIZE SWAP1 PUSH1 0x4 ADD PUSH2 0x53B6 JUMP JUMPDEST SWAP1 PUSH2 0x107F PUSH1 0xC DUP4 MLOAD EQ PUSH2 0x5676 JUMP JUMPDEST PUSH1 0x40 MLOAD DUP3 MLOAD PUSH1 0xFF DUP6 DUP6 ADD SWAP2 PUSH2 0x1095 DUP2 DUP6 DUP6 PUSH2 0x50D2 JUMP JUMPDEST DUP4 ADD PUSH1 0x5 DUP2 MSTORE DUP4 DUP8 PUSH1 0x1 SWAP6 DUP7 SWAP4 SUB ADD SWAP1 KECCAK256 ADD SLOAD AND PUSH2 0x1222 JUMPI DUP5 PUSH2 0x10C3 SWAP2 PUSH1 0x40 MLOAD DUP1 SWAP4 DUP2 SWAP3 DUP9 MLOAD SWAP3 DUP4 SWAP2 PUSH2 0x50D2 JUMP JUMPDEST DUP2 ADD PUSH1 0x5 DUP2 MSTORE SUB ADD SWAP1 KECCAK256 SWAP2 DUP4 MLOAD SWAP1 DUP2 GT PUSH2 0xA2A JUMPI PUSH2 0x10E1 DUP4 SLOAD PUSH2 0x5230 JUMP JUMPDEST PUSH1 0x1F DUP2 GT PUSH2 0x11D9 JUMPI JUMPDEST POP DUP5 PUSH1 0x1F DUP3 GT PUSH1 0x1 EQ PUSH2 0x1170 JUMPI POP SWAP1 DUP2 PUSH1 0x4 SWAP4 SWAP3 PUSH2 0x113E SWAP7 PUSH1 0x0 SWAP2 PUSH2 0x1165 JUMPI JUMPDEST POP PUSH1 0x0 NOT PUSH1 0x3 DUP4 SWAP1 SHL SHR NOT AND SWAP1 DUP3 SHL OR DUP3 SSTORE JUMPDEST DUP2 DUP2 ADD DUP1 SLOAD PUSH1 0xFF NOT AND SWAP1 SWAP2 OR SWAP1 SSTORE ADD DUP1 SLOAD PUSH2 0xFF00 NOT AND PUSH2 0x100 OR SWAP1 SSTORE PUSH2 0x56BA JUMP JUMPDEST PUSH32 0xAD3E1C33E6905FBC7821165AEF0E1E95F461DEE673E49D56D8899C384DBDCD16 PUSH1 0x0 DUP1 LOG2 STOP JUMPDEST SWAP1 POP DUP6 ADD MLOAD DUP8 PUSH2 0x110A JUMP JUMPDEST SWAP1 SWAP5 PUSH1 0x1F NOT DUP7 AND DUP5 PUSH1 0x0 MSTORE DUP3 PUSH1 0x0 KECCAK256 SWAP3 PUSH1 0x0 JUMPDEST DUP3 DUP2 LT PUSH2 0x11C4 JUMPI POP POP SWAP6 DUP4 SWAP3 PUSH1 0x4 SWAP6 SWAP5 SWAP3 DUP3 PUSH2 0x113E SWAP10 LT PUSH2 0x11AB JUMPI JUMPDEST POP POP DUP2 SHL ADD DUP3 SSTORE PUSH2 0x111D JUMP JUMPDEST DUP8 ADD MLOAD PUSH1 0x0 NOT PUSH1 0xF8 DUP5 PUSH1 0x3 SHL AND SHR NOT AND SWAP1 SSTORE DUP8 DUP1 PUSH2 0x119F JUMP JUMPDEST DUP8 DUP5 ADD MLOAD DUP6 SSTORE SWAP4 DUP6 ADD SWAP4 SWAP3 DUP2 ADD SWAP3 DUP2 ADD PUSH2 0x1183 JUMP JUMPDEST DUP4 PUSH1 0x0 MSTORE DUP6 PUSH1 0x0 KECCAK256 PUSH1 0x1F DUP4 ADD PUSH1 0x5 SHR DUP2 ADD SWAP2 DUP8 DUP5 LT PUSH2 0x1218 JUMPI JUMPDEST PUSH1 0x1F ADD PUSH1 0x5 SHR ADD SWAP1 DUP4 SWAP1 JUMPDEST DUP3 DUP2 LT PUSH2 0x120C JUMPI POP POP PUSH2 0x10EA JUMP JUMPDEST PUSH1 0x0 DUP2 SSTORE ADD DUP4 SWAP1 PUSH2 0x11FE JUMP JUMPDEST SWAP1 SWAP2 POP DUP2 SWAP1 PUSH2 0x11F3 JUMP JUMPDEST PUSH1 0x40 MLOAD PUSH3 0x461BCD PUSH1 0xE5 SHL DUP2 MSTORE PUSH1 0x4 DUP2 ADD DUP7 SWAP1 MSTORE PUSH1 0x1A PUSH1 0x24 DUP3 ADD MSTORE PUSH32 0x50617469656E7420616C72656164792072656769737465726564000000000000 PUSH1 0x44 DUP3 ADD MSTORE PUSH1 0x64 SWAP1 REVERT JUMPDEST CALLVALUE PUSH2 0x314 JUMPI PUSH1 0x20 DUP1 PUSH1 0x3 NOT CALLDATASIZE ADD SLT PUSH2 0x314 JUMPI PUSH1 0x4 CALLDATALOAD PUSH1 0x1 PUSH1 0x1 PUSH1 0x40 SHL SUB DUP2 GT PUSH2 0x314 JUMPI DUP2 PUSH2 0x34E PUSH2 0x129C SWAP3 CALLDATASIZE SWAP1 PUSH1 0x4 ADD PUSH2 0x53B6 JUMP JUMPDEST DUP2 ADD PUSH1 0xF DUP2 MSTORE SUB ADD SWAP1 KECCAK256 SWAP1 DUP2 SLOAD SWAP2 PUSH2 0x12B3 DUP4 PUSH2 0x579C JUMP JUMPDEST SWAP3 PUSH2 0x12C1 PUSH1 0x40 MLOAD SWAP5 DUP6 PUSH2 0x5388 JUMP JUMPDEST DUP1 DUP5 MSTORE DUP3 DUP5 ADD DUP1 SWAP3 PUSH1 0x0 MSTORE DUP4 PUSH1 0x0 KECCAK256 PUSH1 0x0 SWAP2 JUMPDEST DUP4 DUP4 LT PUSH2 0x1390 JUMPI POP POP POP POP PUSH1 0x40 MLOAD SWAP2 DUP1 DUP4 ADD SWAP4 DUP2 DUP5 MSTORE MLOAD DUP1 SWAP5 MSTORE PUSH1 0x40 DUP4 ADD SWAP4 PUSH1 0x40 DUP2 PUSH1 0x5 SHL DUP6 ADD ADD SWAP3 SWAP2 PUSH1 0x0 SWAP6 JUMPDEST DUP3 DUP8 LT PUSH2 0x130F JUMPI DUP6 DUP6 SUB DUP7 RETURN JUMPDEST SWAP1 SWAP2 SWAP3 SWAP4 DUP3 DUP1 PUSH1 0x1 SWAP3 PUSH1 0x3F NOT DUP10 DUP3 SUB ADD DUP6 MSTORE DUP8 MLOAD SWAP1 PUSH2 0x1374 PUSH2 0x1361 PUSH2 0x133C DUP5 MLOAD PUSH1 0xC0 DUP1 DUP7 MSTORE DUP6 ADD SWAP1 PUSH2 0x50F5 JUMP JUMPDEST DUP6 DUP6 ADD MLOAD DUP7 DUP6 ADD MSTORE PUSH1 0x40 DUP6 ADD MLOAD PUSH1 0x40 DUP6 ADD MSTORE PUSH1 0x60 DUP1 DUP7 ADD MLOAD SWAP1 DUP6 DUP4 SUB SWAP1 DUP7 ADD MSTORE PUSH2 0x50F5 JUMP JUMPDEST PUSH1 0x80 DUP1 DUP6 ADD MLOAD SWAP1 DUP5 DUP4 SUB SWAP1 DUP6 ADD MSTORE PUSH2 0x50F5 JUMP JUMPDEST SWAP2 PUSH1 0xA0 DUP1 SWAP2 ADD MLOAD ISZERO ISZERO SWAP2 ADD MSTORE SWAP7 ADD SWAP3 ADD SWAP7 ADD SWAP6 SWAP3 SWAP2 SWAP1 SWAP3 PUSH2 0x1302 JUMP JUMPDEST PUSH1 0x6 DUP7 PUSH1 0x1 SWAP3 PUSH1 0x40 SWAP10 SWAP9 SWAP10 MLOAD PUSH2 0x13A5 DUP2 PUSH2 0x531C JUMP JUMPDEST PUSH1 0x40 MLOAD PUSH2 0x13B6 DUP2 PUSH2 0x3E2 DUP2 DUP11 PUSH2 0x526A JUMP JUMPDEST DUP2 MSTORE DUP5 DUP7 ADD SLOAD DUP4 DUP3 ADD MSTORE PUSH1 0x2 DUP7 ADD SLOAD PUSH1 0x40 DUP3 ADD MSTORE PUSH1 0x40 MLOAD PUSH2 0x13DE DUP2 PUSH2 0x3E2 DUP2 PUSH1 0x3 DUP12 ADD PUSH2 0x526A JUMP JUMPDEST PUSH1 0x60 DUP3 ADD MSTORE PUSH1 0x40 MLOAD PUSH2 0x13F7 DUP2 PUSH2 0x3E2 DUP2 PUSH1 0x4 DUP12 ADD PUSH2 0x526A JUMP JUMPDEST PUSH1 0x80 DUP3 ADD MSTORE PUSH1 0xFF PUSH1 0x5 DUP8 ADD SLOAD AND ISZERO ISZERO PUSH1 0xA0 DUP3 ADD MSTORE DUP2 MSTORE ADD SWAP3 ADD SWAP3 ADD SWAP2 SWAP1 SWAP6 SWAP5 SWAP6 PUSH2 0x12D4 JUMP JUMPDEST CALLVALUE PUSH2 0x314 JUMPI PUSH1 0x20 DUP1 PUSH1 0x3 NOT CALLDATASIZE ADD SLT PUSH2 0x314 JUMPI PUSH1 0x4 CALLDATALOAD PUSH1 0x1 PUSH1 0x1 PUSH1 0x40 SHL SUB DUP2 GT PUSH2 0x314 JUMPI DUP2 PUSH2 0x34E PUSH2 0x1451 SWAP3 CALLDATASIZE SWAP1 PUSH1 0x4 ADD PUSH2 0x53B6 JUMP JUMPDEST DUP2 ADD PUSH1 0xA DUP2 MSTORE SUB ADD SWAP1 KECCAK256 SWAP1 DUP2 SLOAD SWAP1 PUSH2 0x1468 DUP3 PUSH2 0x5DE2 JUMP JUMPDEST SWAP3 PUSH1 0x0 JUMPDEST DUP4 DUP2 LT PUSH2 0x1481 JUMPI PUSH1 0x40 MLOAD DUP1 PUSH2 0x3BB DUP8 DUP3 PUSH2 0x557F JUMP JUMPDEST DUP1 PUSH2 0x94C PUSH2 0x148F SWAP3 DUP5 PUSH2 0x5218 JUMP JUMPDEST PUSH2 0x146C JUMP JUMPDEST CALLVALUE PUSH2 0x314 JUMPI PUSH1 0xA0 CALLDATASIZE PUSH1 0x3 NOT ADD SLT PUSH2 0x314 JUMPI PUSH1 0x4 CALLDATALOAD PUSH1 0x1 PUSH1 0x1 PUSH1 0x40 SHL SUB DUP2 GT PUSH2 0x314 JUMPI PUSH2 0x14C4 SWAP1 CALLDATASIZE SWAP1 PUSH1 0x4 ADD PUSH2 0x53B6 JUMP JUMPDEST PUSH1 0x24 CALLDATALOAD PUSH1 0x1 PUSH1 0x1 PUSH1 0x40 SHL SUB DUP2 GT PUSH2 0x314 JUMPI PUSH2 0x14E3 SWAP1 CALLDATASIZE SWAP1 PUSH1 0x4 ADD PUSH2 0x53B6 JUMP JUMPDEST PUSH1 0x44 CALLDATALOAD PUSH1 0x1 PUSH1 0x1 PUSH1 0x40 SHL SUB DUP2 GT PUSH2 0x314 JUMPI PUSH2 0x1502 SWAP1 CALLDATASIZE SWAP1 PUSH1 0x4 ADD PUSH2 0x53B6 JUMP JUMPDEST SWAP1 PUSH1 0x64 CALLDATALOAD PUSH1 0x1 PUSH1 0x1 PUSH1 0x40 SHL SUB DUP2 GT PUSH2 0x314 JUMPI PUSH2 0x1522 SWAP1 CALLDATASIZE SWAP1 PUSH1 0x4 ADD PUSH2 0x53B6 JUMP JUMPDEST PUSH1 0x84 CALLDATALOAD PUSH1 0x1 PUSH1 0x1 PUSH1 0x40 SHL SUB DUP2 GT PUSH2 0x314 JUMPI PUSH2 0x1541 SWAP1 CALLDATASIZE SWAP1 PUSH1 0x4 ADD PUSH2 0x53B6 JUMP JUMPDEST SWAP1 PUSH2 0x154C CALLER DUP7 PUSH2 0x57C7 JUMP JUMPDEST DUP1 ISZERO PUSH2 0x25EE JUMPI JUMPDEST PUSH2 0x155C SWAP1 PUSH2 0x59F9 JUMP JUMPDEST PUSH2 0x157A PUSH1 0xFF PUSH1 0x4 PUSH1 0x40 MLOAD PUSH1 0x20 DUP2 DUP2 PUSH2 0xEB4 DUP13 DUP4 DUP2 MLOAD SWAP4 DUP5 SWAP3 ADD PUSH2 0x50D2 JUMP JUMPDEST DUP5 MLOAD ISZERO PUSH2 0x25B0 JUMPI DUP3 MLOAD ISZERO PUSH2 0x2577 JUMPI DUP4 MLOAD ISZERO PUSH2 0x2539 JUMPI PUSH1 0x1 SLOAD SWAP4 PUSH1 0x1 DUP6 ADD DUP6 GT PUSH2 0x288 JUMPI PUSH1 0x40 MLOAD SWAP4 PUSH2 0x15AA DUP6 PUSH2 0x5300 JUMP JUMPDEST PUSH1 0x1 DUP7 ADD DUP6 MSTORE DUP7 PUSH1 0x20 DUP7 ADD MSTORE PUSH1 0x40 DUP6 ADD MSTORE PUSH1 0x60 DUP5 ADD MSTORE PUSH1 0x80 DUP4 ADD MSTORE TIMESTAMP PUSH1 0xA0 DUP4 ADD MSTORE CALLER PUSH1 0xC0 DUP4 ADD MSTORE PUSH1 0xE0 DUP3 ADD MSTORE PUSH1 0x40 MLOAD PUSH1 0x20 DUP2 DUP6 MLOAD PUSH2 0x15EB DUP2 DUP4 DUP6 DUP11 ADD PUSH2 0x50D2 JUMP JUMPDEST DUP2 ADD PUSH1 0x0 DUP2 MSTORE SUB ADD SWAP1 KECCAK256 DUP1 SLOAD SWAP1 PUSH1 0x1 PUSH1 0x40 SHL DUP3 LT ISZERO PUSH2 0xA2A JUMPI PUSH1 0x1 DUP3 ADD DUP1 DUP3 SSTORE DUP3 LT ISZERO PUSH2 0x20D9 JUMPI PUSH1 0x0 MSTORE PUSH1 0x20 PUSH1 0x0 KECCAK256 DUP3 MLOAD DUP3 PUSH1 0x3 SHL DUP3 ADD SSTORE PUSH1 0x20 DUP4 ADD MLOAD DUP1 MLOAD SWAP1 PUSH1 0x1 PUSH1 0x1 PUSH1 0x40 SHL SUB DUP3 GT PUSH2 0xA2A JUMPI DUP2 SWAP1 PUSH2 0x164D PUSH1 0x1 DUP7 PUSH1 0x3 SHL DUP7 ADD ADD SLOAD PUSH2 0x5230 JUMP JUMPDEST PUSH1 0x1F DUP2 GT PUSH2 0x24E1 JUMPI JUMPDEST POP PUSH1 0x20 SWAP1 PUSH1 0x1F DUP4 GT PUSH1 0x1 EQ PUSH2 0x2465 JUMPI PUSH1 0x0 SWAP3 PUSH2 0x245A JUMPI JUMPDEST POP POP DUP2 PUSH1 0x1 SHL SWAP2 PUSH1 0x0 NOT SWAP1 PUSH1 0x3 SHL SHR NOT AND OR PUSH1 0x1 DUP4 PUSH1 0x3 SHL DUP4 ADD ADD SSTORE JUMPDEST PUSH1 0x40 DUP4 ADD MLOAD DUP1 MLOAD SWAP1 PUSH1 0x1 PUSH1 0x1 PUSH1 0x40 SHL SUB DUP3 GT PUSH2 0xA2A JUMPI DUP2 SWAP1 PUSH2 0x16B4 PUSH1 0x2 DUP7 PUSH1 0x3 SHL DUP7 ADD ADD SLOAD PUSH2 0x5230 JUMP JUMPDEST PUSH1 0x1F DUP2 GT PUSH2 0x2402 JUMPI JUMPDEST POP PUSH1 0x20 SWAP1 PUSH1 0x1F DUP4 GT PUSH1 0x1 EQ PUSH2 0x2386 JUMPI PUSH1 0x0 SWAP3 PUSH2 0x237B JUMPI JUMPDEST POP POP DUP2 PUSH1 0x1 SHL SWAP2 PUSH1 0x0 NOT SWAP1 PUSH1 0x3 SHL SHR NOT AND OR PUSH1 0x2 DUP4 PUSH1 0x3 SHL DUP4 ADD ADD SSTORE JUMPDEST PUSH1 0x60 DUP4 ADD MLOAD DUP1 MLOAD SWAP1 PUSH1 0x1 PUSH1 0x1 PUSH1 0x40 SHL SUB DUP3 GT PUSH2 0xA2A JUMPI DUP2 SWAP1 PUSH2 0x171A PUSH1 0x3 DUP7 DUP2 SHL DUP7 ADD ADD SLOAD PUSH2 0x5230 JUMP JUMPDEST PUSH1 0x1F DUP2 GT PUSH2 0x2324 JUMPI JUMPDEST POP PUSH1 0x20 SWAP1 PUSH1 0x1F DUP4 GT PUSH1 0x1 EQ PUSH2 0x22AA JUMPI PUSH1 0x0 SWAP3 PUSH2 0x229F JUMPI JUMPDEST POP POP DUP2 PUSH1 0x1 SHL SWAP2 PUSH1 0x0 NOT SWAP1 PUSH1 0x3 SHL SHR NOT AND OR PUSH1 0x3 DUP4 DUP2 SHL DUP4 ADD ADD SSTORE JUMPDEST PUSH1 0x80 DUP4 ADD MLOAD DUP1 MLOAD SWAP1 PUSH1 0x1 PUSH1 0x1 PUSH1 0x40 SHL SUB DUP3 GT PUSH2 0xA2A JUMPI DUP2 SWAP1 PUSH2 0x1780 PUSH1 0x4 DUP7 PUSH1 0x3 SHL DUP7 ADD ADD SLOAD PUSH2 0x5230 JUMP JUMPDEST PUSH1 0x1F DUP2 GT PUSH2 0x2247 JUMPI JUMPDEST POP PUSH1 0x20 SWAP1 PUSH1 0x1F DUP4 GT PUSH1 0x1 EQ PUSH2 0x21CB JUMPI PUSH1 0x0 SWAP3 PUSH2 0x21C0 JUMPI JUMPDEST POP POP DUP2 PUSH1 0x1 SHL SWAP2 PUSH1 0x0 NOT SWAP1 PUSH1 0x3 SHL SHR NOT AND OR PUSH1 0x4 DUP4 PUSH1 0x3 SHL DUP4 ADD ADD SSTORE JUMPDEST PUSH1 0xA0 DUP4 ADD MLOAD PUSH1 0x5 DUP4 PUSH1 0x3 SHL DUP4 ADD ADD SSTORE PUSH1 0x6 DUP3 PUSH1 0x3 SHL DUP3 ADD ADD PUSH1 0x1 DUP1 PUSH1 0xA0 SHL SUB PUSH1 0xC0 DUP6 ADD MLOAD AND PUSH1 0x1 PUSH1 0x1 PUSH1 0x60 SHL SUB PUSH1 0xA0 SHL DUP3 SLOAD AND OR SWAP1 SSTORE PUSH1 0xE0 DUP4 ADD MLOAD DUP1 MLOAD SWAP1 PUSH1 0x1 PUSH1 0x1 PUSH1 0x40 SHL SUB DUP3 GT PUSH2 0xA2A JUMPI PUSH2 0x181B PUSH1 0x7 DUP6 PUSH1 0x3 SHL DUP6 ADD ADD SLOAD PUSH2 0x5230 JUMP JUMPDEST PUSH1 0x1F DUP2 GT PUSH2 0x2174 JUMPI JUMPDEST POP PUSH1 0x20 SWAP1 PUSH1 0x1F DUP4 GT PUSH1 0x1 EQ PUSH2 0x20FA JUMPI PUSH1 0x7 SWAP4 SWAP3 SWAP2 PUSH1 0x0 SWAP2 DUP4 PUSH2 0x20EF JUMPI JUMPDEST POP POP DUP2 PUSH1 0x1 SHL SWAP2 PUSH1 0x0 NOT SWAP1 PUSH1 0x3 SHL SHR NOT AND OR SWAP3 PUSH1 0x3 SHL ADD ADD SSTORE JUMPDEST PUSH1 0x1 SLOAD SWAP1 PUSH1 0x1 PUSH1 0x40 SHL DUP3 LT ISZERO PUSH2 0xA2A JUMPI PUSH1 0x1 DUP3 ADD DUP1 PUSH1 0x1 SSTORE DUP3 LT ISZERO PUSH2 0x20D9 JUMPI PUSH1 0x1 PUSH1 0x0 MSTORE DUP1 MLOAD DUP3 PUSH1 0x3 SHL PUSH32 0xB10E2D527612073B26EECDFD717E6A320CF44B4AFAC2B0732D9FCBE2B7FA0CF6 ADD SSTORE PUSH1 0x20 DUP2 ADD MLOAD DUP1 MLOAD SWAP1 PUSH1 0x1 PUSH1 0x1 PUSH1 0x40 SHL SUB DUP3 GT PUSH2 0xA2A JUMPI DUP2 SWAP1 PUSH2 0x18DD PUSH1 0x0 DUP1 MLOAD PUSH1 0x20 PUSH2 0x6171 DUP4 CODECOPY DUP2 MLOAD SWAP2 MSTORE DUP7 PUSH1 0x3 SHL ADD SLOAD PUSH2 0x5230 JUMP JUMPDEST PUSH1 0x1F DUP2 GT PUSH2 0x2076 JUMPI JUMPDEST POP PUSH1 0x20 SWAP1 PUSH1 0x1F DUP4 GT PUSH1 0x1 EQ PUSH2 0x1FE4 JUMPI PUSH1 0x0 SWAP3 PUSH2 0x1FD9 JUMPI JUMPDEST POP POP DUP2 PUSH1 0x1 SHL SWAP2 PUSH1 0x0 NOT SWAP1 PUSH1 0x3 SHL SHR NOT AND OR PUSH1 0x0 DUP1 MLOAD PUSH1 0x20 PUSH2 0x6171 DUP4 CODECOPY DUP2 MLOAD SWAP2 MSTORE DUP4 PUSH1 0x3 SHL ADD SSTORE JUMPDEST PUSH1 0x40 DUP2 ADD MLOAD DUP1 MLOAD SWAP1 PUSH1 0x1 PUSH1 0x1 PUSH1 0x40 SHL SUB DUP3 GT PUSH2 0xA2A JUMPI DUP2 SWAP1 PUSH2 0x195A PUSH1 0x0 DUP1 MLOAD PUSH1 0x20 PUSH2 0x6151 DUP4 CODECOPY DUP2 MLOAD SWAP2 MSTORE DUP7 PUSH1 0x3 SHL ADD SLOAD PUSH2 0x5230 JUMP JUMPDEST PUSH1 0x1F DUP2 GT PUSH2 0x1F76 JUMPI JUMPDEST POP PUSH1 0x20 SWAP1 PUSH1 0x1F DUP4 GT PUSH1 0x1 EQ PUSH2 0x1EE4 JUMPI PUSH1 0x0 SWAP3 PUSH2 0x1ED9 JUMPI JUMPDEST POP POP DUP2 PUSH1 0x1 SHL SWAP2 PUSH1 0x0 NOT SWAP1 PUSH1 0x3 SHL SHR NOT AND OR PUSH1 0x0 DUP1 MLOAD PUSH1 0x20 PUSH2 0x6151 DUP4 CODECOPY DUP2 MLOAD SWAP2 MSTORE DUP4 PUSH1 0x3 SHL ADD SSTORE JUMPDEST PUSH1 0x60 DUP2 ADD MLOAD DUP1 MLOAD SWAP1 PUSH1 0x1 PUSH1 0x1 PUSH1 0x40 SHL SUB DUP3 GT PUSH2 0xA2A JUMPI DUP2 SWAP1 PUSH2 0x19D7 PUSH1 0x0 DUP1 MLOAD PUSH1 0x20 PUSH2 0x6191 DUP4 CODECOPY DUP2 MLOAD SWAP2 MSTORE DUP7 PUSH1 0x3 SHL ADD SLOAD PUSH2 0x5230 JUMP JUMPDEST PUSH1 0x1F DUP2 GT PUSH2 0x1E76 JUMPI JUMPDEST POP PUSH1 0x20 SWAP1 PUSH1 0x1F DUP4 GT PUSH1 0x1 EQ PUSH2 0x1DE4 JUMPI PUSH1 0x0 SWAP3 PUSH2 0x1DD9 JUMPI JUMPDEST POP POP DUP2 PUSH1 0x1 SHL SWAP2 PUSH1 0x0 NOT SWAP1 PUSH1 0x3 SHL SHR NOT AND OR PUSH1 0x0 DUP1 MLOAD PUSH1 0x20 PUSH2 0x6191 DUP4 CODECOPY DUP2 MLOAD SWAP2 MSTORE DUP4 PUSH1 0x3 SHL ADD SSTORE JUMPDEST PUSH1 0x80 DUP2 ADD MLOAD DUP1 MLOAD SWAP1 PUSH1 0x1 PUSH1 0x1 PUSH1 0x40 SHL SUB DUP3 GT PUSH2 0xA2A JUMPI PUSH2 0x1A52 PUSH1 0x0 DUP1 MLOAD PUSH1 0x20 PUSH2 0x6131 DUP4 CODECOPY DUP2 MLOAD SWAP2 MSTORE DUP6 PUSH1 0x3 SHL ADD SLOAD PUSH2 0x5230 JUMP JUMPDEST PUSH1 0x1F DUP2 GT PUSH2 0x1D82 JUMPI JUMPDEST POP PUSH1 0x20 SWAP1 PUSH1 0x1F DUP4 GT PUSH1 0x1 EQ PUSH2 0x1CEF JUMPI PUSH1 0xE0 SWAP4 SWAP3 SWAP2 PUSH1 0x0 SWAP2 DUP4 PUSH2 0x1CE4 JUMPI JUMPDEST POP POP DUP2 PUSH1 0x1 SHL SWAP2 PUSH1 0x0 NOT SWAP1 PUSH1 0x3 SHL SHR NOT AND OR PUSH1 0x0 DUP1 MLOAD PUSH1 0x20 PUSH2 0x6131 DUP4 CODECOPY DUP2 MLOAD SWAP2 MSTORE DUP5 PUSH1 0x3 SHL ADD SSTORE JUMPDEST PUSH1 0xA0 DUP2 ADD MLOAD PUSH32 0xB10E2D527612073B26EECDFD717E6A320CF44B4AFAC2B0732D9FCBE2B7FA0CFB DUP5 PUSH1 0x3 SHL ADD SSTORE PUSH32 0xB10E2D527612073B26EECDFD717E6A320CF44B4AFAC2B0732D9FCBE2B7FA0CFC DUP4 PUSH1 0x3 SHL ADD PUSH1 0x1 DUP1 PUSH1 0xA0 SHL SUB PUSH1 0xC0 DUP4 ADD MLOAD AND PUSH1 0x1 PUSH1 0x1 PUSH1 0x60 SHL SUB PUSH1 0xA0 SHL DUP3 SLOAD AND OR SWAP1 SSTORE ADD MLOAD DUP1 MLOAD SWAP1 PUSH1 0x1 PUSH1 0x1 PUSH1 0x40 SHL SUB DUP3 GT PUSH2 0xA2A JUMPI PUSH2 0x1B40 PUSH1 0x0 DUP1 MLOAD PUSH1 0x20 PUSH2 0x6111 DUP4 CODECOPY DUP2 MLOAD SWAP2 MSTORE DUP5 PUSH1 0x3 SHL ADD SLOAD PUSH2 0x5230 JUMP JUMPDEST PUSH1 0x1F DUP2 GT PUSH2 0x1C89 JUMPI JUMPDEST POP PUSH1 0x20 SWAP1 PUSH1 0x1F DUP4 GT PUSH1 0x1 EQ PUSH2 0x1BF9 JUMPI PUSH1 0x0 DUP1 MLOAD PUSH1 0x20 PUSH2 0x6111 DUP4 CODECOPY DUP2 MLOAD SWAP2 MSTORE SWAP3 SWAP2 PUSH1 0x0 SWAP2 DUP4 PUSH2 0x1BEE JUMPI JUMPDEST POP POP DUP2 PUSH1 0x1 SHL SWAP2 PUSH1 0x0 NOT SWAP1 PUSH1 0x3 SHL SHR NOT AND OR SWAP2 PUSH1 0x3 SHL ADD SSTORE JUMPDEST PUSH1 0x40 MLOAD PUSH1 0x20 DUP2 DUP5 MLOAD PUSH2 0x1BA0 DUP2 DUP4 DUP6 DUP10 ADD PUSH2 0x50D2 JUMP JUMPDEST DUP2 ADD PUSH1 0x2 DUP2 MSTORE SUB ADD SWAP1 KECCAK256 DUP1 SLOAD SWAP1 PUSH1 0xA DUP3 ADD DUP1 SWAP3 GT PUSH2 0x288 JUMPI SSTORE PUSH1 0x1 PUSH2 0x1BC5 CALLER SWAP4 PUSH2 0x56BA JUMP JUMPDEST SWAP2 ADD PUSH32 0xCD719798F402A27A912A62D3B7E471F85FBA10A63E2BBB6EDE9A733A8616C2F1 PUSH1 0x0 DUP1 LOG4 STOP JUMPDEST ADD MLOAD SWAP1 POP DUP7 DUP1 PUSH2 0x1B72 JUMP JUMPDEST SWAP1 PUSH1 0x0 DUP1 MLOAD PUSH1 0x20 PUSH2 0x6111 DUP4 CODECOPY DUP2 MLOAD SWAP2 MSTORE DUP5 PUSH1 0x3 SHL ADD PUSH1 0x0 MSTORE PUSH1 0x20 PUSH1 0x0 KECCAK256 SWAP2 PUSH1 0x0 JUMPDEST PUSH1 0x1F NOT DUP6 AND DUP2 LT PUSH2 0x1C71 JUMPI POP SWAP2 DUP4 SWAP2 PUSH1 0x1 SWAP4 PUSH1 0x0 DUP1 MLOAD PUSH1 0x20 PUSH2 0x6111 DUP4 CODECOPY DUP2 MLOAD SWAP2 MSTORE SWAP6 PUSH1 0x1F NOT DUP2 AND LT PUSH2 0x1C58 JUMPI JUMPDEST POP POP POP DUP2 SHL ADD SWAP2 PUSH1 0x3 SHL ADD SSTORE PUSH2 0x1B8B JUMP JUMPDEST ADD MLOAD PUSH1 0x0 NOT PUSH1 0xF8 DUP5 PUSH1 0x3 SHL AND SHR NOT AND SWAP1 SSTORE DUP7 DUP1 DUP1 PUSH2 0x1C47 JUMP JUMPDEST SWAP2 SWAP3 PUSH1 0x20 PUSH1 0x1 DUP2 SWAP3 DUP7 DUP6 ADD MLOAD DUP2 SSTORE ADD SWAP5 ADD SWAP3 ADD PUSH2 0x1C1A JUMP JUMPDEST PUSH1 0x0 DUP1 MLOAD PUSH1 0x20 PUSH2 0x6111 DUP4 CODECOPY DUP2 MLOAD SWAP2 MSTORE DUP5 PUSH1 0x3 SHL ADD PUSH1 0x0 MSTORE PUSH1 0x20 PUSH1 0x0 KECCAK256 PUSH1 0x1F DUP5 ADD PUSH1 0x5 SHR DUP2 ADD SWAP2 PUSH1 0x20 DUP6 LT PUSH2 0x1CDA JUMPI JUMPDEST PUSH1 0x1F ADD PUSH1 0x5 SHR ADD SWAP1 JUMPDEST DUP2 DUP2 LT PUSH2 0x1CCE JUMPI POP PUSH2 0x1B49 JUMP JUMPDEST PUSH1 0x0 DUP2 SSTORE PUSH1 0x1 ADD PUSH2 0x1CC1 JUMP JUMPDEST SWAP1 SWAP2 POP DUP2 SWAP1 PUSH2 0x1CB8 JUMP JUMPDEST ADD MLOAD SWAP1 POP DUP8 DUP1 PUSH2 0x1A78 JUMP JUMPDEST SWAP1 PUSH1 0x0 DUP1 MLOAD PUSH1 0x20 PUSH2 0x6131 DUP4 CODECOPY DUP2 MLOAD SWAP2 MSTORE DUP6 PUSH1 0x3 SHL ADD PUSH1 0x0 MSTORE PUSH1 0x20 PUSH1 0x0 KECCAK256 SWAP2 PUSH1 0x0 JUMPDEST PUSH1 0x1F NOT DUP6 AND DUP2 LT PUSH2 0x1D6A JUMPI POP SWAP2 DUP4 SWAP2 PUSH1 0x1 SWAP4 PUSH1 0xE0 SWAP7 SWAP6 PUSH1 0x1F NOT DUP2 AND LT PUSH2 0x1D51 JUMPI JUMPDEST POP POP POP DUP2 SHL ADD PUSH1 0x0 DUP1 MLOAD PUSH1 0x20 PUSH2 0x6131 DUP4 CODECOPY DUP2 MLOAD SWAP2 MSTORE DUP5 PUSH1 0x3 SHL ADD SSTORE PUSH2 0x1AA0 JUMP JUMPDEST ADD MLOAD PUSH1 0x0 NOT PUSH1 0xF8 DUP5 PUSH1 0x3 SHL AND SHR NOT AND SWAP1 SSTORE DUP8 DUP1 DUP1 PUSH2 0x1D31 JUMP JUMPDEST SWAP2 SWAP3 PUSH1 0x20 PUSH1 0x1 DUP2 SWAP3 DUP7 DUP6 ADD MLOAD DUP2 SSTORE ADD SWAP5 ADD SWAP3 ADD PUSH2 0x1D10 JUMP JUMPDEST PUSH1 0x0 DUP1 MLOAD PUSH1 0x20 PUSH2 0x6131 DUP4 CODECOPY DUP2 MLOAD SWAP2 MSTORE DUP6 PUSH1 0x3 SHL ADD PUSH1 0x0 MSTORE PUSH1 0x20 PUSH1 0x0 KECCAK256 PUSH1 0x1F DUP5 ADD PUSH1 0x5 SHR DUP2 ADD PUSH1 0x20 DUP6 LT PUSH2 0x1DD2 JUMPI JUMPDEST PUSH1 0x1F DUP4 ADD PUSH1 0x5 SHR DUP3 ADD DUP2 LT PUSH2 0x1DC6 JUMPI POP POP PUSH2 0x1A5B JUMP JUMPDEST PUSH1 0x0 DUP2 SSTORE PUSH1 0x1 ADD PUSH2 0x1DB0 JUMP JUMPDEST POP DUP1 PUSH2 0x1DB0 JUMP JUMPDEST ADD MLOAD SWAP1 POP DUP7 DUP1 PUSH2 0x19F7 JUMP JUMPDEST SWAP3 POP PUSH1 0x0 DUP1 MLOAD PUSH1 0x20 PUSH2 0x6191 DUP4 CODECOPY DUP2 MLOAD SWAP2 MSTORE DUP6 PUSH1 0x3 SHL ADD PUSH1 0x0 MSTORE PUSH1 0x20 PUSH1 0x0 KECCAK256 SWAP1 PUSH1 0x0 SWAP4 JUMPDEST PUSH1 0x1F NOT DUP5 AND DUP6 LT PUSH2 0x1E5B JUMPI PUSH1 0x1 SWAP5 POP DUP4 PUSH1 0x1F NOT DUP2 AND LT PUSH2 0x1E42 JUMPI JUMPDEST POP POP POP DUP2 SHL ADD PUSH1 0x0 DUP1 MLOAD PUSH1 0x20 PUSH2 0x6191 DUP4 CODECOPY DUP2 MLOAD SWAP2 MSTORE DUP4 PUSH1 0x3 SHL ADD SSTORE PUSH2 0x1A1F JUMP JUMPDEST ADD MLOAD PUSH1 0x0 NOT PUSH1 0xF8 DUP5 PUSH1 0x3 SHL AND SHR NOT AND SWAP1 SSTORE DUP7 DUP1 DUP1 PUSH2 0x1E22 JUMP JUMPDEST DUP2 DUP2 ADD MLOAD DUP4 SSTORE PUSH1 0x20 SWAP5 DUP6 ADD SWAP5 PUSH1 0x1 SWAP1 SWAP4 ADD SWAP3 SWAP1 SWAP2 ADD SWAP1 PUSH2 0x1E07 JUMP JUMPDEST SWAP1 SWAP2 POP PUSH1 0x0 DUP1 MLOAD PUSH1 0x20 PUSH2 0x6191 DUP4 CODECOPY DUP2 MLOAD SWAP2 MSTORE DUP6 PUSH1 0x3 SHL ADD PUSH1 0x0 MSTORE PUSH1 0x20 PUSH1 0x0 KECCAK256 PUSH1 0x1F DUP5 ADD PUSH1 0x5 SHR DUP2 ADD PUSH1 0x20 DUP6 LT PUSH2 0x1ED2 JUMPI JUMPDEST SWAP1 DUP5 SWAP4 SWAP3 SWAP2 JUMPDEST PUSH1 0x1F DUP4 ADD PUSH1 0x5 SHR DUP3 ADD DUP2 LT PUSH2 0x1EC3 JUMPI POP POP PUSH2 0x19E0 JUMP JUMPDEST PUSH1 0x0 DUP2 SSTORE DUP6 SWAP5 POP PUSH1 0x1 ADD PUSH2 0x1EAD JUMP JUMPDEST POP DUP1 PUSH2 0x1EA7 JUMP JUMPDEST ADD MLOAD SWAP1 POP DUP7 DUP1 PUSH2 0x197A JUMP JUMPDEST SWAP3 POP PUSH1 0x0 DUP1 MLOAD PUSH1 0x20 PUSH2 0x6151 DUP4 CODECOPY DUP2 MLOAD SWAP2 MSTORE DUP6 PUSH1 0x3 SHL ADD PUSH1 0x0 MSTORE PUSH1 0x20 PUSH1 0x0 KECCAK256 SWAP1 PUSH1 0x0 SWAP4 JUMPDEST PUSH1 0x1F NOT DUP5 AND DUP6 LT PUSH2 0x1F5B JUMPI PUSH1 0x1 SWAP5 POP DUP4 PUSH1 0x1F NOT DUP2 AND LT PUSH2 0x1F42 JUMPI JUMPDEST POP POP POP DUP2 SHL ADD PUSH1 0x0 DUP1 MLOAD PUSH1 0x20 PUSH2 0x6151 DUP4 CODECOPY DUP2 MLOAD SWAP2 MSTORE DUP4 PUSH1 0x3 SHL ADD SSTORE PUSH2 0x19A2 JUMP JUMPDEST ADD MLOAD PUSH1 0x0 NOT PUSH1 0xF8 DUP5 PUSH1 0x3 SHL AND SHR NOT AND SWAP1 SSTORE DUP7 DUP1 DUP1 PUSH2 0x1F22 JUMP JUMPDEST DUP2 DUP2 ADD MLOAD DUP4 SSTORE PUSH1 0x20 SWAP5 DUP6 ADD SWAP5 PUSH1 0x1 SWAP1 SWAP4 ADD SWAP3 SWAP1 SWAP2 ADD SWAP1 PUSH2 0x1F07 JUMP JUMPDEST SWAP1 SWAP2 POP PUSH1 0x0 DUP1 MLOAD PUSH1 0x20 PUSH2 0x6151 DUP4 CODECOPY DUP2 MLOAD SWAP2 MSTORE DUP6 PUSH1 0x3 SHL ADD PUSH1 0x0 MSTORE PUSH1 0x20 PUSH1 0x0 KECCAK256 PUSH1 0x1F DUP5 ADD PUSH1 0x5 SHR DUP2 ADD PUSH1 0x20 DUP6 LT PUSH2 0x1FD2 JUMPI JUMPDEST SWAP1 DUP5 SWAP4 SWAP3 SWAP2 JUMPDEST PUSH1 0x1F DUP4 ADD PUSH1 0x5 SHR DUP3 ADD DUP2 LT PUSH2 0x1FC3 JUMPI POP POP PUSH2 0x1963 JUMP JUMPDEST PUSH1 0x0 DUP2 SSTORE DUP6 SWAP5 POP PUSH1 0x1 ADD PUSH2 0x1FAD JUMP JUMPDEST POP DUP1 PUSH2 0x1FA7 JUMP JUMPDEST ADD MLOAD SWAP1 POP DUP7 DUP1 PUSH2 0x18FD JUMP JUMPDEST SWAP3 POP PUSH1 0x0 DUP1 MLOAD PUSH1 0x20 PUSH2 0x6171 DUP4 CODECOPY DUP2 MLOAD SWAP2 MSTORE DUP6 PUSH1 0x3 SHL ADD PUSH1 0x0 MSTORE PUSH1 0x20 PUSH1 0x0 KECCAK256 SWAP1 PUSH1 0x0 SWAP4 JUMPDEST PUSH1 0x1F NOT DUP5 AND DUP6 LT PUSH2 0x205B JUMPI PUSH1 0x1 SWAP5 POP DUP4 PUSH1 0x1F NOT DUP2 AND LT PUSH2 0x2042 JUMPI JUMPDEST POP POP POP DUP2 SHL ADD PUSH1 0x0 DUP1 MLOAD PUSH1 0x20 PUSH2 0x6171 DUP4 CODECOPY DUP2 MLOAD SWAP2 MSTORE DUP4 PUSH1 0x3 SHL ADD SSTORE PUSH2 0x1925 JUMP JUMPDEST ADD MLOAD PUSH1 0x0 NOT PUSH1 0xF8 DUP5 PUSH1 0x3 SHL AND SHR NOT AND SWAP1 SSTORE DUP7 DUP1 DUP1 PUSH2 0x2022 JUMP JUMPDEST DUP2 DUP2 ADD MLOAD DUP4 SSTORE PUSH1 0x20 SWAP5 DUP6 ADD SWAP5 PUSH1 0x1 SWAP1 SWAP4 ADD SWAP3 SWAP1 SWAP2 ADD SWAP1 PUSH2 0x2007 JUMP JUMPDEST SWAP1 SWAP2 POP PUSH1 0x0 DUP1 MLOAD PUSH1 0x20 PUSH2 0x6171 DUP4 CODECOPY DUP2 MLOAD SWAP2 MSTORE DUP6 PUSH1 0x3 SHL ADD PUSH1 0x0 MSTORE PUSH1 0x20 PUSH1 0x0 KECCAK256 PUSH1 0x1F DUP5 ADD PUSH1 0x5 SHR DUP2 ADD PUSH1 0x20 DUP6 LT PUSH2 0x20D2 JUMPI JUMPDEST SWAP1 DUP5 SWAP4 SWAP3 SWAP2 JUMPDEST PUSH1 0x1F DUP4 ADD PUSH1 0x5 SHR DUP3 ADD DUP2 LT PUSH2 0x20C3 JUMPI POP POP PUSH2 0x18E6 JUMP JUMPDEST PUSH1 0x0 DUP2 SSTORE DUP6 SWAP5 POP PUSH1 0x1 ADD PUSH2 0x20AD JUMP JUMPDEST POP DUP1 PUSH2 0x20A7 JUMP JUMPDEST PUSH4 0x4E487B71 PUSH1 0xE0 SHL PUSH1 0x0 MSTORE PUSH1 0x32 PUSH1 0x4 MSTORE PUSH1 0x24 PUSH1 0x0 REVERT JUMPDEST ADD MLOAD SWAP1 POP DUP9 DUP1 PUSH2 0x1841 JUMP JUMPDEST SWAP1 PUSH1 0x7 DUP6 PUSH1 0x3 SHL DUP6 ADD ADD PUSH1 0x0 MSTORE PUSH1 0x20 PUSH1 0x0 KECCAK256 SWAP2 PUSH1 0x0 JUMPDEST PUSH1 0x1F NOT DUP6 AND DUP2 LT PUSH2 0x215C JUMPI POP SWAP2 DUP4 SWAP2 PUSH1 0x1 SWAP4 PUSH1 0x7 SWAP7 SWAP6 PUSH1 0x1F NOT DUP2 AND LT PUSH2 0x2143 JUMPI JUMPDEST POP POP POP DUP2 SHL ADD SWAP3 PUSH1 0x3 SHL ADD ADD SSTORE PUSH2 0x185B JUMP JUMPDEST ADD MLOAD PUSH1 0x0 NOT PUSH1 0xF8 DUP5 PUSH1 0x3 SHL AND SHR NOT AND SWAP1 SSTORE DUP9 DUP1 DUP1 PUSH2 0x2131 JUMP JUMPDEST SWAP2 SWAP3 PUSH1 0x20 PUSH1 0x1 DUP2 SWAP3 DUP7 DUP6 ADD MLOAD DUP2 SSTORE ADD SWAP5 ADD SWAP3 ADD PUSH2 0x2110 JUMP JUMPDEST PUSH1 0x7 DUP6 PUSH1 0x3 SHL DUP6 ADD ADD PUSH1 0x0 MSTORE PUSH1 0x20 PUSH1 0x0 KECCAK256 PUSH1 0x1F DUP5 ADD PUSH1 0x5 SHR DUP2 ADD PUSH1 0x20 DUP6 LT PUSH2 0x21B9 JUMPI JUMPDEST PUSH1 0x1F DUP4 ADD PUSH1 0x5 SHR DUP3 ADD DUP2 LT PUSH2 0x21AD JUMPI POP POP PUSH2 0x1824 JUMP JUMPDEST PUSH1 0x0 DUP2 SSTORE PUSH1 0x1 ADD PUSH2 0x2197 JUMP JUMPDEST POP DUP1 PUSH2 0x2197 JUMP JUMPDEST ADD MLOAD SWAP1 POP DUP8 DUP1 PUSH2 0x17A0 JUMP JUMPDEST SWAP3 POP PUSH1 0x4 DUP6 PUSH1 0x3 SHL DUP6 ADD ADD PUSH1 0x0 MSTORE PUSH1 0x20 PUSH1 0x0 KECCAK256 SWAP1 PUSH1 0x0 SWAP4 JUMPDEST PUSH1 0x1F NOT DUP5 AND DUP6 LT PUSH2 0x222C JUMPI PUSH1 0x1 SWAP5 POP DUP4 PUSH1 0x1F NOT DUP2 AND LT PUSH2 0x2213 JUMPI JUMPDEST POP POP POP DUP2 SHL ADD PUSH1 0x4 DUP4 PUSH1 0x3 SHL DUP4 ADD ADD SSTORE PUSH2 0x17BD JUMP JUMPDEST ADD MLOAD PUSH1 0x0 NOT PUSH1 0xF8 DUP5 PUSH1 0x3 SHL AND SHR NOT AND SWAP1 SSTORE DUP8 DUP1 DUP1 PUSH2 0x21FE JUMP JUMPDEST DUP2 DUP2 ADD MLOAD DUP4 SSTORE PUSH1 0x20 SWAP5 DUP6 ADD SWAP5 PUSH1 0x1 SWAP1 SWAP4 ADD SWAP3 SWAP1 SWAP2 ADD SWAP1 PUSH2 0x21E3 JUMP JUMPDEST SWAP1 SWAP2 POP PUSH1 0x4 DUP6 PUSH1 0x3 SHL DUP6 ADD ADD PUSH1 0x0 MSTORE PUSH1 0x20 PUSH1 0x0 KECCAK256 PUSH1 0x1F DUP5 ADD PUSH1 0x5 SHR DUP2 ADD PUSH1 0x20 DUP6 LT PUSH2 0x2298 JUMPI JUMPDEST SWAP1 DUP5 SWAP4 SWAP3 SWAP2 JUMPDEST PUSH1 0x1F DUP4 ADD PUSH1 0x5 SHR DUP3 ADD DUP2 LT PUSH2 0x2289 JUMPI POP POP PUSH2 0x1789 JUMP JUMPDEST PUSH1 0x0 DUP2 SSTORE DUP6 SWAP5 POP PUSH1 0x1 ADD PUSH2 0x2273 JUMP JUMPDEST POP DUP1 PUSH2 0x226D JUMP JUMPDEST ADD MLOAD SWAP1 POP DUP8 DUP1 PUSH2 0x173A JUMP JUMPDEST SWAP3 POP PUSH1 0x3 DUP6 DUP2 SHL DUP6 ADD ADD PUSH1 0x0 MSTORE PUSH1 0x20 PUSH1 0x0 KECCAK256 SWAP1 PUSH1 0x0 SWAP4 JUMPDEST PUSH1 0x1F NOT DUP5 AND DUP6 LT PUSH2 0x2309 JUMPI PUSH1 0x1 SWAP5 POP DUP4 PUSH1 0x1F NOT DUP2 AND LT PUSH2 0x22F0 JUMPI JUMPDEST POP POP POP DUP2 SHL ADD PUSH1 0x3 DUP4 DUP2 SHL DUP4 ADD ADD SSTORE PUSH2 0x1756 JUMP JUMPDEST ADD MLOAD PUSH1 0x0 NOT PUSH1 0xF8 DUP5 PUSH1 0x3 SHL AND SHR NOT AND SWAP1 SSTORE DUP8 DUP1 DUP1 PUSH2 0x22DC JUMP JUMPDEST DUP2 DUP2 ADD MLOAD DUP4 SSTORE PUSH1 0x20 SWAP5 DUP6 ADD SWAP5 PUSH1 0x1 SWAP1 SWAP4 ADD SWAP3 SWAP1 SWAP2 ADD SWAP1 PUSH2 0x22C1 JUMP JUMPDEST SWAP1 SWAP2 POP PUSH1 0x3 DUP6 DUP2 SHL DUP6 ADD ADD PUSH1 0x0 MSTORE PUSH1 0x20 PUSH1 0x0 KECCAK256 PUSH1 0x1F DUP5 ADD PUSH1 0x5 SHR DUP2 ADD PUSH1 0x20 DUP6 LT PUSH2 0x2374 JUMPI JUMPDEST SWAP1 DUP5 SWAP4 SWAP3 SWAP2 JUMPDEST PUSH1 0x1F DUP4 ADD PUSH1 0x5 SHR DUP3 ADD DUP2 LT PUSH2 0x2365 JUMPI POP POP PUSH2 0x1723 JUMP JUMPDEST PUSH1 0x0 DUP2 SSTORE DUP6 SWAP5 POP PUSH1 0x1 ADD PUSH2 0x234F JUMP JUMPDEST POP DUP1 PUSH2 0x2349 JUMP JUMPDEST ADD MLOAD SWAP1 POP DUP8 DUP1 PUSH2 0x16D4 JUMP JUMPDEST SWAP3 POP PUSH1 0x2 DUP6 PUSH1 0x3 SHL DUP6 ADD ADD PUSH1 0x0 MSTORE PUSH1 0x20 PUSH1 0x0 KECCAK256 SWAP1 PUSH1 0x0 SWAP4 JUMPDEST PUSH1 0x1F NOT DUP5 AND DUP6 LT PUSH2 0x23E7 JUMPI PUSH1 0x1 SWAP5 POP DUP4 PUSH1 0x1F NOT DUP2 AND LT PUSH2 0x23CE JUMPI JUMPDEST POP POP POP DUP2 SHL ADD PUSH1 0x2 DUP4 PUSH1 0x3 SHL DUP4 ADD ADD SSTORE PUSH2 0x16F1 JUMP JUMPDEST ADD MLOAD PUSH1 0x0 NOT PUSH1 0xF8 DUP5 PUSH1 0x3 SHL AND SHR NOT AND SWAP1 SSTORE DUP8 DUP1 DUP1 PUSH2 0x23B9 JUMP JUMPDEST DUP2 DUP2 ADD MLOAD DUP4 SSTORE PUSH1 0x20 SWAP5 DUP6 ADD SWAP5 PUSH1 0x1 SWAP1 SWAP4 ADD SWAP3 SWAP1 SWAP2 ADD SWAP1 PUSH2 0x239E JUMP JUMPDEST SWAP1 SWAP2 POP PUSH1 0x2 DUP6 PUSH1 0x3 SHL DUP6 ADD ADD PUSH1 0x0 MSTORE PUSH1 0x20 PUSH1 0x0 KECCAK256 PUSH1 0x1F DUP5 ADD PUSH1 0x5 SHR DUP2 ADD PUSH1 0x20 DUP6 LT PUSH2 0x2453 JUMPI JUMPDEST SWAP1 DUP5 SWAP4 SWAP3 SWAP2 JUMPDEST PUSH1 0x1F DUP4 ADD PUSH1 0x5 SHR DUP3 ADD DUP2 LT PUSH2 0x2444 JUMPI POP POP PUSH2 0x16BD JUMP JUMPDEST PUSH1 0x0 DUP2 SSTORE DUP6 SWAP5 POP PUSH1 0x1 ADD PUSH2 0x242E JUMP JUMPDEST POP DUP1 PUSH2 0x2428 JUMP JUMPDEST ADD MLOAD SWAP1 POP DUP8 DUP1 PUSH2 0x166D JUMP JUMPDEST SWAP3 POP PUSH1 0x1 DUP6 PUSH1 0x3 SHL DUP6 ADD ADD PUSH1 0x0 MSTORE PUSH1 0x20 PUSH1 0x0 KECCAK256 SWAP1 PUSH1 0x0 SWAP4 JUMPDEST PUSH1 0x1F NOT DUP5 AND DUP6 LT PUSH2 0x24C6 JUMPI PUSH1 0x1 SWAP5 POP DUP4 PUSH1 0x1F NOT DUP2 AND LT PUSH2 0x24AD JUMPI JUMPDEST POP POP POP DUP2 SHL ADD PUSH1 0x1 DUP4 PUSH1 0x3 SHL DUP4 ADD ADD SSTORE PUSH2 0x168A JUMP JUMPDEST ADD MLOAD PUSH1 0x0 NOT PUSH1 0xF8 DUP5 PUSH1 0x3 SHL AND SHR NOT AND SWAP1 SSTORE DUP8 DUP1 DUP1 PUSH2 0x2498 JUMP JUMPDEST DUP2 DUP2 ADD MLOAD DUP4 SSTORE PUSH1 0x20 SWAP5 DUP6 ADD SWAP5 PUSH1 0x1 SWAP1 SWAP4 ADD SWAP3 SWAP1 SWAP2 ADD SWAP1 PUSH2 0x247D JUMP JUMPDEST SWAP1 SWAP2 POP PUSH1 0x1 DUP6 PUSH1 0x3 SHL DUP6 ADD ADD PUSH1 0x0 MSTORE PUSH1 0x20 PUSH1 0x0 KECCAK256 PUSH1 0x1F DUP5 ADD PUSH1 0x5 SHR DUP2 ADD PUSH1 0x20 DUP6 LT PUSH2 0x2532 JUMPI JUMPDEST SWAP1 DUP5 SWAP4 SWAP3 SWAP2 JUMPDEST PUSH1 0x1F DUP4 ADD PUSH1 0x5 SHR DUP3 ADD DUP2 LT PUSH2 0x2523 JUMPI POP POP PUSH2 0x1656 JUMP JUMPDEST PUSH1 0x0 DUP2 SSTORE DUP6 SWAP5 POP PUSH1 0x1 ADD PUSH2 0x250D JUMP JUMPDEST POP DUP1 PUSH2 0x2507 JUMP JUMPDEST PUSH1 0x40 MLOAD PUSH3 0x461BCD PUSH1 0xE5 SHL DUP2 MSTORE PUSH1 0x20 PUSH1 0x4 DUP3 ADD MSTORE PUSH1 0x16 PUSH1 0x24 DUP3 ADD MSTORE PUSH22 0x496E76616C6964206D65646963696E65732064617461 PUSH1 0x50 SHL PUSH1 0x44 DUP3 ADD MSTORE PUSH1 0x64 SWAP1 REVERT JUMPDEST PUSH1 0x40 MLOAD PUSH3 0x461BCD PUSH1 0xE5 SHL DUP2 MSTORE PUSH1 0x20 PUSH1 0x4 DUP3 ADD MSTORE PUSH1 0x11 PUSH1 0x24 DUP3 ADD MSTORE PUSH17 0x496E76616C696420646961676E6F736973 PUSH1 0x78 SHL PUSH1 0x44 DUP3 ADD MSTORE PUSH1 0x64 SWAP1 REVERT JUMPDEST PUSH1 0x40 MLOAD PUSH3 0x461BCD PUSH1 0xE5 SHL DUP2 MSTORE PUSH1 0x20 PUSH1 0x4 DUP3 ADD MSTORE PUSH1 0x16 PUSH1 0x24 DUP3 ADD MSTORE PUSH22 0x24B73B30B634B2103830BA34B2B73A1020B0B23430B9 PUSH1 0x51 SHL PUSH1 0x44 DUP3 ADD MSTORE PUSH1 0x64 SWAP1 REVERT JUMPDEST POP PUSH2 0x155C PUSH1 0xFF PUSH1 0x4 PUSH1 0x40 MLOAD PUSH1 0x20 DUP2 DUP2 PUSH2 0x260D DUP13 DUP4 DUP2 MLOAD SWAP4 DUP5 SWAP3 ADD PUSH2 0x50D2 JUMP JUMPDEST DUP2 ADD PUSH1 0x5 DUP2 MSTORE SUB ADD SWAP1 KECCAK256 ADD SLOAD AND SWAP1 POP PUSH2 0x1553 JUMP JUMPDEST CALLVALUE PUSH2 0x314 JUMPI PUSH1 0x40 CALLDATASIZE PUSH1 0x3 NOT ADD SLT PUSH2 0x314 JUMPI PUSH2 0x263A PUSH2 0x5202 JUMP JUMPDEST PUSH1 0x1 PUSH1 0x1 PUSH1 0xA0 SHL SUB AND PUSH1 0x0 SWAP1 DUP2 MSTORE PUSH1 0xB PUSH1 0x20 MSTORE PUSH1 0x40 SWAP1 KECCAK256 DUP1 SLOAD PUSH1 0x24 CALLDATALOAD SWAP2 SWAP1 DUP3 LT ISZERO PUSH2 0x314 JUMPI PUSH1 0x20 SWAP2 PUSH2 0x266B SWAP2 PUSH2 0x5218 JUMP JUMPDEST SWAP1 SLOAD PUSH1 0x40 MLOAD SWAP2 PUSH1 0x3 SHL SHR DUP2 MSTORE RETURN JUMPDEST CALLVALUE PUSH2 0x314 JUMPI PUSH1 0x60 CALLDATASIZE PUSH1 0x3 NOT ADD SLT PUSH2 0x314 JUMPI PUSH2 0x2692 PUSH2 0x5202 JUMP JUMPDEST PUSH1 0x24 CALLDATALOAD PUSH1 0x1 PUSH1 0x1 PUSH1 0x40 SHL SUB DUP2 GT PUSH2 0x314 JUMPI PUSH2 0x26B1 SWAP1 CALLDATASIZE SWAP1 PUSH1 0x4 ADD PUSH2 0x53B6 JUMP JUMPDEST SWAP1 PUSH1 0x44 CALLDATALOAD PUSH1 0x1 PUSH1 0x1 PUSH1 0x40 SHL SUB DUP2 GT PUSH2 0x314 JUMPI PUSH2 0x26D1 SWAP1 CALLDATASIZE SWAP1 PUSH1 0x4 ADD PUSH2 0x53B6 JUMP JUMPDEST CALLER PUSH1 0x0 MSTORE PUSH1 0x6 PUSH1 0x20 MSTORE PUSH1 0xFF PUSH1 0x40 PUSH1 0x0 KECCAK256 SLOAD AND PUSH1 0x5 DUP2 LT ISZERO PUSH2 0x598 JUMPI PUSH1 0x3 PUSH2 0x26F8 SWAP2 EQ PUSH2 0x5994 JUMP JUMPDEST PUSH1 0x1 PUSH1 0x1 PUSH1 0xA0 SHL SUB DUP3 AND PUSH1 0x0 SWAP1 DUP2 MSTORE PUSH1 0x4 PUSH1 0x20 MSTORE PUSH1 0x40 SWAP1 KECCAK256 PUSH1 0x2 ADD SLOAD PUSH1 0xFF AND PUSH2 0x2A4F JUMPI PUSH1 0x40 MLOAD SWAP2 PUSH2 0x2728 DUP4 PUSH2 0x5352 JUMP JUMPDEST DUP4 DUP4 MSTORE DUP2 PUSH1 0x20 DUP5 ADD MSTORE PUSH1 0x1 PUSH1 0x40 DUP5 ADD MSTORE PUSH1 0x2 PUSH1 0x60 DUP5 ADD MSTORE TIMESTAMP PUSH1 0x80 DUP5 ADD MSTORE PUSH1 0x1 DUP1 PUSH1 0xA0 SHL SUB DUP2 AND PUSH1 0x0 MSTORE PUSH1 0x4 PUSH1 0x20 MSTORE PUSH1 0x40 PUSH1 0x0 KECCAK256 DUP4 MLOAD DUP1 MLOAD SWAP1 PUSH1 0x1 PUSH1 0x1 PUSH1 0x40 SHL SUB DUP3 GT PUSH2 0xA2A JUMPI DUP2 SWAP1 PUSH2 0x277A DUP5 SLOAD PUSH2 0x5230 JUMP JUMPDEST PUSH1 0x1F DUP2 GT PUSH2 0x29FF JUMPI JUMPDEST POP PUSH1 0x20 SWAP1 PUSH1 0x1F DUP4 GT PUSH1 0x1 EQ PUSH2 0x2993 JUMPI PUSH1 0x0 SWAP3 PUSH2 0x2988 JUMPI JUMPDEST POP POP DUP2 PUSH1 0x1 SHL SWAP2 PUSH1 0x0 NOT SWAP1 PUSH1 0x3 SHL SHR NOT AND OR DUP2 SSTORE JUMPDEST PUSH1 0x20 DUP5 ADD MLOAD DUP1 MLOAD SWAP1 PUSH1 0x1 PUSH1 0x1 PUSH1 0x40 SHL SUB DUP3 GT PUSH2 0xA2A JUMPI DUP2 SWAP1 PUSH2 0x27D4 PUSH1 0x1 DUP6 ADD SLOAD PUSH2 0x5230 JUMP JUMPDEST PUSH1 0x1F DUP2 GT PUSH2 0x2935 JUMPI JUMPDEST POP PUSH1 0x20 SWAP1 PUSH1 0x1F DUP4 GT PUSH1 0x1 EQ PUSH2 0x28C3 JUMPI PUSH1 0x0 SWAP3 PUSH2 0x28B8 JUMPI JUMPDEST POP POP DUP2 PUSH1 0x1 SHL SWAP2 PUSH1 0x0 NOT SWAP1 PUSH1 0x3 SHL SHR NOT AND OR PUSH1 0x1 DUP3 ADD SSTORE JUMPDEST PUSH1 0x2 DUP2 ADD PUSH2 0x282C PUSH1 0x40 DUP7 ADD MLOAD ISZERO ISZERO DUP3 SWAP1 PUSH1 0xFF DUP1 NOT DUP4 SLOAD AND SWAP2 ISZERO ISZERO AND OR SWAP1 SSTORE JUMP JUMPDEST PUSH1 0x60 DUP6 ADD MLOAD PUSH1 0x5 DUP2 LT ISZERO PUSH2 0x598 JUMPI DUP2 SLOAD PUSH2 0xFF00 NOT AND PUSH1 0x8 SWAP2 SWAP1 SWAP2 SHL PUSH2 0xFF00 AND OR SWAP1 SSTORE PUSH1 0x80 SWAP1 SWAP4 ADD MLOAD PUSH1 0x3 SWAP4 DUP5 ADD SSTORE PUSH1 0x1 PUSH1 0x1 PUSH1 0xA0 SHL SUB AND PUSH1 0x0 DUP2 DUP2 MSTORE PUSH1 0x20 SWAP4 SWAP1 SWAP4 MSTORE PUSH1 0x40 SWAP3 DUP4 SWAP1 KECCAK256 DUP1 SLOAD PUSH1 0xFF NOT AND PUSH1 0x1 OR SWAP1 SSTORE SWAP2 MLOAD SWAP2 SWAP3 PUSH32 0xBC3A5B2AEB1BC52E3D56D3FD3423DD66CEA5ECFF8AE1F3BD0D75A0E608DA7B85 SWAP3 SWAP2 DUP3 SWAP2 PUSH2 0x28B3 SWAP2 SWAP1 DUP4 PUSH2 0x59D4 JUMP JUMPDEST SUB SWAP1 LOG2 STOP JUMPDEST ADD MLOAD SWAP1 POP DUP8 DUP1 PUSH2 0x27F4 JUMP JUMPDEST SWAP3 POP PUSH1 0x1 DUP5 ADD PUSH1 0x0 MSTORE PUSH1 0x20 PUSH1 0x0 KECCAK256 SWAP1 PUSH1 0x0 SWAP4 JUMPDEST PUSH1 0x1F NOT DUP5 AND DUP6 LT PUSH2 0x291A JUMPI PUSH1 0x1 SWAP5 POP DUP4 PUSH1 0x1F NOT DUP2 AND LT PUSH2 0x2901 JUMPI JUMPDEST POP POP POP DUP2 SHL ADD PUSH1 0x1 DUP3 ADD SSTORE PUSH2 0x280C JUMP JUMPDEST ADD MLOAD PUSH1 0x0 NOT PUSH1 0xF8 DUP5 PUSH1 0x3 SHL AND SHR NOT AND SWAP1 SSTORE DUP8 DUP1 DUP1 PUSH2 0x28F1 JUMP JUMPDEST DUP2 DUP2 ADD MLOAD DUP4 SSTORE PUSH1 0x20 SWAP5 DUP6 ADD SWAP5 PUSH1 0x1 SWAP1 SWAP4 ADD SWAP3 SWAP1 SWAP2 ADD SWAP1 PUSH2 0x28D6 JUMP JUMPDEST SWAP1 SWAP2 POP PUSH1 0x1 DUP5 ADD PUSH1 0x0 MSTORE PUSH1 0x20 PUSH1 0x0 KECCAK256 PUSH1 0x1F DUP5 ADD PUSH1 0x5 SHR DUP2 ADD PUSH1 0x20 DUP6 LT PUSH2 0x2981 JUMPI JUMPDEST SWAP1 DUP5 SWAP4 SWAP3 SWAP2 JUMPDEST PUSH1 0x1F DUP4 ADD PUSH1 0x5 SHR DUP3 ADD DUP2 LT PUSH2 0x2972 JUMPI POP POP PUSH2 0x27DD JUMP JUMPDEST PUSH1 0x0 DUP2 SSTORE DUP6 SWAP5 POP PUSH1 0x1 ADD PUSH2 0x295C JUMP JUMPDEST POP DUP1 PUSH2 0x2956 JUMP JUMPDEST ADD MLOAD SWAP1 POP DUP8 DUP1 PUSH2 0x279A JUMP JUMPDEST SWAP3 POP DUP4 PUSH1 0x0 MSTORE PUSH1 0x20 PUSH1 0x0 KECCAK256 SWAP1 PUSH1 0x0 SWAP4 JUMPDEST PUSH1 0x1F NOT DUP5 AND DUP6 LT PUSH2 0x29E4 JUMPI PUSH1 0x1 SWAP5 POP DUP4 PUSH1 0x1F NOT DUP2 AND LT PUSH2 0x29CB JUMPI JUMPDEST POP POP POP DUP2 SHL ADD DUP2 SSTORE PUSH2 0x27AF JUMP JUMPDEST ADD MLOAD PUSH1 0x0 NOT PUSH1 0xF8 DUP5 PUSH1 0x3 SHL AND SHR NOT AND SWAP1 SSTORE DUP8 DUP1 DUP1 PUSH2 0x29BE JUMP JUMPDEST DUP2 DUP2 ADD MLOAD DUP4 SSTORE PUSH1 0x20 SWAP5 DUP6 ADD SWAP5 PUSH1 0x1 SWAP1 SWAP4 ADD SWAP3 SWAP1 SWAP2 ADD SWAP1 PUSH2 0x29A3 JUMP JUMPDEST SWAP1 SWAP2 POP DUP4 PUSH1 0x0 MSTORE PUSH1 0x20 PUSH1 0x0 KECCAK256 PUSH1 0x1F DUP5 ADD PUSH1 0x5 SHR DUP2 ADD PUSH1 0x20 DUP6 LT PUSH2 0x2A48 JUMPI JUMPDEST SWAP1 DUP5 SWAP4 SWAP3 SWAP2 JUMPDEST PUSH1 0x1F DUP4 ADD PUSH1 0x5 SHR DUP3 ADD DUP2 LT PUSH2 0x2A39 JUMPI POP POP PUSH2 0x2783 JUMP JUMPDEST PUSH1 0x0 DUP2 SSTORE DUP6 SWAP5 POP PUSH1 0x1 ADD PUSH2 0x2A23 JUMP JUMPDEST POP DUP1 PUSH2 0x2A1D JUMP JUMPDEST PUSH1 0x40 MLOAD PUSH3 0x461BCD PUSH1 0xE5 SHL DUP2 MSTORE PUSH1 0x20 PUSH1 0x4 DUP3 ADD MSTORE PUSH1 0x19 PUSH1 0x24 DUP3 ADD MSTORE PUSH32 0x446F63746F7220616C7265616479207265676973746572656400000000000000 PUSH1 0x44 DUP3 ADD MSTORE PUSH1 0x64 SWAP1 REVERT JUMPDEST CALLVALUE PUSH2 0x314 JUMPI PUSH1 0x20 DUP1 PUSH1 0x3 NOT CALLDATASIZE ADD SLT PUSH2 0x314 JUMPI PUSH1 0x4 CALLDATALOAD PUSH1 0x1 PUSH1 0x1 PUSH1 0x40 SHL SUB DUP2 GT PUSH2 0x314 JUMPI DUP2 PUSH2 0x34E PUSH2 0x2AC9 SWAP3 CALLDATASIZE SWAP1 PUSH1 0x4 ADD PUSH2 0x53B6 JUMP JUMPDEST DUP2 ADD PUSH1 0x10 DUP2 MSTORE SUB ADD SWAP1 KECCAK256 SWAP1 DUP2 SLOAD SWAP2 PUSH2 0x2AE0 DUP4 PUSH2 0x579C JUMP JUMPDEST SWAP3 PUSH2 0x2AEE PUSH1 0x40 MLOAD SWAP5 DUP6 PUSH2 0x5388 JUMP JUMPDEST DUP1 DUP5 MSTORE DUP3 DUP5 ADD DUP1 SWAP3 PUSH1 0x0 MSTORE DUP4 PUSH1 0x0 KECCAK256 PUSH1 0x0 SWAP2 JUMPDEST DUP4 DUP4 LT PUSH2 0x2B9C JUMPI POP POP POP POP PUSH1 0x40 MLOAD SWAP2 DUP1 DUP4 ADD SWAP4 DUP2 DUP5 MSTORE MLOAD DUP1 SWAP5 MSTORE PUSH1 0x40 DUP4 ADD SWAP4 PUSH1 0x40 DUP2 PUSH1 0x5 SHL DUP6 ADD ADD SWAP3 SWAP2 PUSH1 0x0 SWAP6 JUMPDEST DUP3 DUP8 LT PUSH2 0x2B3C JUMPI DUP6 DUP6 SUB DUP7 RETURN JUMPDEST SWAP1 SWAP2 SWAP3 SWAP4 DUP3 DUP1 PUSH1 0x1 SWAP3 PUSH1 0x3F NOT DUP10 DUP3 SUB ADD DUP6 MSTORE DUP8 MLOAD SWAP1 PUSH2 0x2B76 PUSH2 0x2B66 DUP4 MLOAD PUSH1 0x80 DUP1 DUP6 MSTORE DUP5 ADD SWAP1 PUSH2 0x50F5 JUMP JUMPDEST DUP5 DUP5 ADD MLOAD DUP4 DUP3 SUB DUP7 DUP6 ADD MSTORE PUSH2 0x50F5 JUMP JUMPDEST SWAP2 PUSH1 0x40 DUP2 ADD MLOAD PUSH1 0x40 DUP4 ADD MSTORE PUSH1 0x60 DUP1 SWAP2 ADD MLOAD ISZERO ISZERO SWAP2 ADD MSTORE SWAP7 ADD SWAP3 ADD SWAP7 ADD SWAP6 SWAP3 SWAP2 SWAP1 SWAP3 PUSH2 0x2B2F JUMP JUMPDEST PUSH1 0x4 DUP7 PUSH1 0x1 SWAP3 PUSH1 0x40 SWAP10 SWAP9 SWAP10 MLOAD PUSH2 0x2BB1 DUP2 PUSH2 0x5337 JUMP JUMPDEST PUSH1 0x40 MLOAD PUSH2 0x2BC2 DUP2 PUSH2 0x3E2 DUP2 DUP11 PUSH2 0x526A JUMP JUMPDEST DUP2 MSTORE PUSH1 0x40 MLOAD PUSH2 0x2BD7 DUP2 PUSH2 0x3E2 DUP2 DUP10 DUP12 ADD PUSH2 0x526A JUMP JUMPDEST DUP4 DUP3 ADD MSTORE PUSH1 0x2 DUP7 ADD SLOAD PUSH1 0x40 DUP3 ADD MSTORE PUSH1 0xFF PUSH1 0x3 DUP8 ADD SLOAD AND ISZERO ISZERO PUSH1 0x60 DUP3 ADD MSTORE DUP2 MSTORE ADD SWAP3 ADD SWAP3 ADD SWAP2 SWAP1 SWAP6 SWAP5 SWAP6 PUSH2 0x2B01 JUMP JUMPDEST CALLVALUE PUSH2 0x314 JUMPI PUSH1 0x20 DUP1 PUSH1 0x3 NOT CALLDATASIZE ADD SLT PUSH2 0x314 JUMPI PUSH1 0x4 CALLDATALOAD PUSH1 0x1 PUSH1 0x1 PUSH1 0x40 SHL SUB DUP2 GT PUSH2 0x314 JUMPI PUSH2 0x2C36 SWAP1 CALLDATASIZE SWAP1 PUSH1 0x4 ADD PUSH2 0x53B6 JUMP JUMPDEST PUSH2 0x2C43 PUSH2 0x35B CALLER DUP4 PUSH2 0x58C8 JUMP JUMPDEST PUSH1 0x7 SLOAD PUSH1 0x0 SWAP2 DUP4 DUP2 ADD DUP4 JUMPDEST DUP4 DUP2 LT PUSH2 0x2E44 JUMPI POP PUSH2 0x2C5F DUP5 PUSH2 0x579C JUMP JUMPDEST SWAP4 PUSH2 0x2C6D PUSH1 0x40 MLOAD SWAP6 DUP7 PUSH2 0x5388 JUMP JUMPDEST DUP1 DUP6 MSTORE PUSH2 0x2C7C PUSH1 0x1F NOT SWAP2 PUSH2 0x579C JUMP JUMPDEST ADD DUP6 PUSH1 0x0 JUMPDEST DUP3 DUP2 LT PUSH2 0x2E0D JUMPI POP POP POP PUSH1 0x0 SWAP2 PUSH1 0x0 JUMPDEST DUP5 DUP2 LT PUSH2 0x2D3C JUMPI PUSH1 0x40 DUP1 MLOAD DUP9 DUP2 MSTORE DUP8 MLOAD DUP2 DUP11 ADD DUP2 SWAP1 MSTORE PUSH1 0x0 SWAP3 PUSH1 0x5 DUP3 SWAP1 SHL DUP4 ADD DUP2 ADD SWAP2 DUP11 DUP13 ADD SWAP2 DUP13 SWAP1 DUP6 ADD JUMPDEST DUP3 DUP8 LT PUSH2 0x2CCA JUMPI DUP6 DUP6 SUB DUP7 RETURN JUMPDEST SWAP1 SWAP2 SWAP3 SWAP4 DUP3 DUP1 PUSH1 0x1 SWAP3 PUSH1 0x3F NOT DUP10 DUP3 SUB ADD DUP6 MSTORE DUP8 MLOAD SWAP1 DUP5 DUP1 PUSH1 0xA0 SHL SUB DUP3 MLOAD AND DUP2 MSTORE PUSH2 0x2D20 PUSH2 0x2D03 DUP5 DUP5 ADD MLOAD PUSH1 0xA0 DUP1 DUP8 DUP7 ADD MSTORE DUP5 ADD SWAP1 PUSH2 0x50F5 JUMP JUMPDEST PUSH1 0x40 DUP5 ADD MLOAD PUSH1 0x40 DUP5 ADD MSTORE PUSH1 0x60 DUP1 DUP6 ADD MLOAD SWAP1 DUP5 DUP4 SUB SWAP1 DUP6 ADD MSTORE PUSH2 0x50F5 JUMP JUMPDEST SWAP2 PUSH1 0x80 DUP1 SWAP2 ADD MLOAD ISZERO ISZERO SWAP2 ADD MSTORE SWAP7 ADD SWAP3 ADD SWAP7 ADD SWAP6 SWAP3 SWAP2 SWAP1 SWAP3 PUSH2 0x2CBD JUMP JUMPDEST PUSH2 0x2D45 DUP2 PUSH2 0x5761 JUMP JUMPDEST POP PUSH1 0x40 MLOAD PUSH2 0x2D5B DUP2 PUSH2 0x3E2 DUP2 PUSH1 0x1 DUP1 SWAP7 ADD PUSH2 0x526A JUMP JUMPDEST DUP9 DUP2 MLOAD SWAP2 ADD KECCAK256 DUP4 MLOAD DUP6 KECCAK256 EQ PUSH2 0x2D7A JUMPI JUMPDEST POP PUSH2 0x2D75 SWAP1 PUSH2 0x5715 JUMP JUMPDEST PUSH2 0x2C91 JUMP JUMPDEST DUP2 SWAP5 PUSH2 0x2E06 SWAP2 PUSH1 0xFF PUSH1 0x4 PUSH2 0x2D90 PUSH2 0x2D75 SWAP7 PUSH2 0x5761 JUMP JUMPDEST POP PUSH2 0x3E2 PUSH2 0x2DC0 PUSH1 0x40 MLOAD SWAP6 PUSH2 0x2DA4 DUP8 PUSH2 0x5352 JUMP JUMPDEST DUP4 SLOAD PUSH1 0x1 PUSH1 0x1 PUSH1 0xA0 SHL SUB AND DUP8 MSTORE PUSH1 0x40 MLOAD SWAP3 DUP4 SWAP2 DUP3 SWAP1 DUP7 ADD PUSH2 0x526A JUMP JUMPDEST DUP14 DUP6 ADD MSTORE PUSH1 0x2 DUP2 ADD SLOAD PUSH1 0x40 DUP6 ADD MSTORE PUSH1 0x40 MLOAD PUSH2 0x2DE2 DUP2 PUSH2 0x3E2 DUP2 PUSH1 0x3 DUP7 ADD PUSH2 0x526A JUMP JUMPDEST PUSH1 0x60 DUP6 ADD MSTORE ADD SLOAD AND ISZERO ISZERO PUSH1 0x80 DUP3 ADD MSTORE PUSH2 0x2DFB DUP3 DUP11 PUSH2 0x57B3 JUMP JUMPDEST MSTORE PUSH2 0xA1F DUP2 DUP10 PUSH2 0x57B3 JUMP JUMPDEST SWAP4 SWAP1 PUSH2 0x2D6B JUMP JUMPDEST PUSH1 0x40 MLOAD PUSH2 0x2E19 DUP2 PUSH2 0x5352 JUMP JUMPDEST PUSH1 0x0 DUP2 MSTORE PUSH1 0x60 DUP1 DUP5 DUP4 ADD MSTORE PUSH1 0x0 PUSH1 0x40 DUP4 ADD MSTORE DUP1 DUP3 ADD MSTORE PUSH1 0x0 PUSH1 0x80 DUP3 ADD MSTORE DUP3 DUP3 DUP10 ADD ADD MSTORE ADD DUP7 SWAP1 PUSH2 0x2C81 JUMP JUMPDEST PUSH1 0x1 PUSH2 0x2E63 PUSH2 0x2E52 DUP4 PUSH2 0x5761 JUMP JUMPDEST POP PUSH2 0x3E2 PUSH1 0x40 MLOAD DUP1 SWAP5 DUP2 SWAP4 ADD PUSH2 0x526A JUMP JUMPDEST DUP7 DUP2 MLOAD SWAP2 ADD KECCAK256 DUP4 MLOAD DUP4 KECCAK256 EQ PUSH2 0x2E81 JUMPI JUMPDEST PUSH2 0x2E7C SWAP1 PUSH2 0x5715 JUMP JUMPDEST PUSH2 0x2C4E JUMP JUMPDEST SWAP4 PUSH2 0x2E8E PUSH2 0x2E7C SWAP2 PUSH2 0x5715 JUMP JUMPDEST SWAP5 SWAP1 POP PUSH2 0x2E73 JUMP JUMPDEST CALLVALUE PUSH2 0x314 JUMPI PUSH1 0x60 CALLDATASIZE PUSH1 0x3 NOT ADD SLT PUSH2 0x314 JUMPI PUSH1 0x4 CALLDATALOAD PUSH1 0x1 PUSH1 0x1 PUSH1 0x40 SHL SUB DUP2 GT PUSH2 0x314 JUMPI PUSH2 0x2EC6 SWAP1 CALLDATASIZE SWAP1 PUSH1 0x4 ADD PUSH2 0x53B6 JUMP JUMPDEST PUSH1 0x24 CALLDATALOAD PUSH1 0x1 PUSH1 0x1 PUSH1 0xA0 SHL SUB DUP2 AND SWAP2 SWAP1 DUP3 SWAP1 SUB PUSH2 0x314 JUMPI PUSH1 0x44 CALLDATALOAD SWAP1 PUSH1 0x4 DUP3 LT ISZERO PUSH2 0x314 JUMPI ADDRESS CALLER EQ DUP1 ISZERO PUSH2 0x2F6B JUMPI JUMPDEST PUSH2 0x2F61 PUSH32 0x115F6EF52391618892F3A77F23446F2B996B12F28B601E7D85F2B8D372436C71 SWAP3 PUSH2 0x2F23 PUSH1 0x20 SWAP4 PUSH2 0x56DA JUMP JUMPDEST PUSH1 0x2 PUSH1 0x40 MLOAD DUP5 DUP2 DUP5 MLOAD PUSH2 0x2F39 DUP2 DUP4 DUP6 DUP10 ADD PUSH2 0x50D2 JUMP JUMPDEST DUP2 ADD PUSH1 0x5 DUP2 MSTORE SUB ADD SWAP1 KECCAK256 ADD DUP7 PUSH1 0x0 MSTORE DUP4 MSTORE PUSH1 0x40 PUSH1 0x0 KECCAK256 PUSH1 0xFF NOT DUP2 SLOAD AND PUSH1 0xFF DUP8 AND OR SWAP1 SSTORE PUSH2 0x56BA JUMP JUMPDEST SWAP3 PUSH1 0x40 MLOAD SWAP1 DUP2 MSTORE LOG3 STOP JUMPDEST POP CALLER PUSH1 0x0 MSTORE PUSH1 0x6 PUSH1 0x20 MSTORE PUSH1 0xFF PUSH1 0x40 PUSH1 0x0 KECCAK256 SLOAD AND SWAP1 PUSH1 0x5 DUP3 LT ISZERO PUSH2 0x598 JUMPI PUSH2 0x2F61 PUSH1 0x20 SWAP2 PUSH1 0x1 PUSH32 0x115F6EF52391618892F3A77F23446F2B996B12F28B601E7D85F2B8D372436C71 SWAP5 EQ DUP1 PUSH2 0x2FC5 JUMPI JUMPDEST SWAP1 SWAP4 POP SWAP2 POP PUSH2 0x2EF3 SWAP1 POP JUMP JUMPDEST POP PUSH2 0x2F23 PUSH1 0x40 MLOAD PUSH2 0x3E2 PUSH2 0x2FE6 DUP5 MLOAD SWAP3 DUP8 DUP2 DUP2 DUP9 ADD SWAP6 PUSH2 0x6C5 DUP2 DUP4 DUP10 PUSH2 0x50D2 JUMP JUMPDEST DUP6 DUP2 MLOAD SWAP2 ADD KECCAK256 SWAP1 DUP4 MLOAD SWAP1 KECCAK256 EQ SWAP1 POP PUSH2 0x2FB9 JUMP JUMPDEST CALLVALUE PUSH2 0x314 JUMPI PUSH2 0x3007 CALLDATASIZE PUSH2 0x540C JUMP JUMPDEST SWAP1 PUSH2 0x3012 CALLER DUP3 PUSH2 0x57C7 JUMP JUMPDEST DUP1 ISZERO PUSH2 0x30F9 JUMPI JUMPDEST PUSH2 0x3022 SWAP1 PUSH2 0x59F9 JUMP JUMPDEST PUSH1 0x40 MLOAD SWAP2 PUSH2 0x305E PUSH1 0xFF PUSH1 0x4 DUP5 MLOAD SWAP6 PUSH1 0x20 DUP2 DUP2 DUP9 ADD SWAP9 PUSH2 0x3042 DUP2 DUP4 DUP13 PUSH2 0x50D2 JUMP JUMPDEST DUP2 ADD PUSH1 0x5 DUP2 MSTORE SUB ADD SWAP1 KECCAK256 ADD SLOAD AND PUSH2 0x3057 PUSH2 0x5A3B JUMP JUMPDEST CALLER DUP6 PUSH2 0x5A64 JUMP JUMPDEST PUSH1 0x40 MLOAD PUSH1 0x20 DUP2 DUP5 MLOAD PUSH2 0x3071 DUP2 DUP4 DUP10 PUSH2 0x50D2 JUMP JUMPDEST DUP2 ADD PUSH1 0x10 DUP2 MSTORE SUB ADD SWAP1 KECCAK256 SLOAD DUP2 LT ISZERO PUSH2 0x30BE JUMPI PUSH2 0x30A0 PUSH1 0x20 PUSH1 0x3 SWAP5 PUSH2 0x30AF SWAP5 PUSH1 0x40 MLOAD SWAP4 DUP5 SWAP3 DUP4 SWAP3 MLOAD SWAP3 DUP4 SWAP2 PUSH2 0x50D2 JUMP JUMPDEST DUP2 ADD PUSH1 0x10 DUP2 MSTORE SUB ADD SWAP1 KECCAK256 PUSH2 0x5E67 JUMP JUMPDEST POP ADD DUP1 SLOAD PUSH1 0xFF NOT AND PUSH1 0x1 OR SWAP1 SSTORE STOP JUMPDEST PUSH1 0x40 MLOAD PUSH3 0x461BCD PUSH1 0xE5 SHL DUP2 MSTORE PUSH1 0x20 PUSH1 0x4 DUP3 ADD MSTORE PUSH1 0x13 PUSH1 0x24 DUP3 ADD MSTORE PUSH19 0x92DCECC2D8D2C840C2D8CAE4E840D2DCC8CAF PUSH1 0x6B SHL PUSH1 0x44 DUP3 ADD MSTORE PUSH1 0x64 SWAP1 REVERT JUMPDEST POP PUSH2 0x3022 PUSH1 0xFF PUSH1 0x4 PUSH1 0x40 MLOAD PUSH1 0x20 DUP2 DUP7 MLOAD PUSH2 0x3116 DUP2 DUP4 DUP6 DUP12 ADD PUSH2 0x50D2 JUMP JUMPDEST DUP2 ADD PUSH1 0x5 DUP2 MSTORE SUB ADD SWAP1 KECCAK256 ADD SLOAD AND SWAP1 POP PUSH2 0x3019 JUMP JUMPDEST CALLVALUE PUSH2 0x314 JUMPI PUSH2 0x3173 PUSH2 0x313B CALLDATASIZE PUSH2 0x54A4 JUMP JUMPDEST PUSH2 0x314B PUSH2 0x35B SWAP4 SWAP3 SWAP4 CALLER DUP6 PUSH2 0x58C8 JUMP JUMPDEST PUSH1 0x40 MLOAD DUP4 DUP2 DUP1 SWAP6 MLOAD PUSH2 0x3163 DUP2 PUSH1 0x20 SWAP9 DUP10 DUP1 SWAP7 ADD PUSH2 0x50D2 JUMP JUMPDEST DUP2 ADD PUSH1 0xE DUP2 MSTORE SUB ADD SWAP1 KECCAK256 SWAP1 PUSH2 0x543D JUMP JUMPDEST DUP1 SLOAD PUSH2 0x317E DUP2 PUSH2 0x579C JUMP JUMPDEST SWAP2 PUSH2 0x318C PUSH1 0x40 MLOAD SWAP4 DUP5 PUSH2 0x5388 JUMP JUMPDEST DUP2 DUP4 MSTORE PUSH1 0x0 SWAP1 DUP2 MSTORE DUP4 DUP2 KECCAK256 SWAP4 DUP1 DUP5 ADD JUMPDEST DUP4 DUP4 LT PUSH2 0x31B1 JUMPI PUSH1 0x40 MLOAD DUP1 PUSH2 0x3BB DUP8 DUP3 PUSH2 0x54EA JUMP JUMPDEST PUSH1 0x4 DUP3 PUSH1 0x1 SWAP3 PUSH1 0x40 MLOAD PUSH2 0x31C3 DUP2 PUSH2 0x5337 JUMP JUMPDEST PUSH1 0x40 MLOAD PUSH2 0x31D4 DUP2 PUSH2 0x3E2 DUP2 DUP15 PUSH2 0x526A JUMP JUMPDEST DUP2 MSTORE DUP5 DUP11 ADD SLOAD DUP4 DUP3 ADD MSTORE PUSH1 0x2 DUP11 ADD SLOAD PUSH1 0x40 DUP3 ADD MSTORE PUSH1 0x3 PUSH2 0x31FE DUP12 PUSH2 0x3E2 PUSH1 0x40 MLOAD DUP1 SWAP5 DUP2 SWAP4 ADD PUSH2 0x526A JUMP JUMPDEST PUSH1 0x60 DUP3 ADD MSTORE DUP2 MSTORE ADD SWAP7 ADD SWAP3 ADD SWAP2 SWAP5 PUSH2 0x319C JUMP JUMPDEST CALLVALUE PUSH2 0x314 JUMPI PUSH1 0x20 CALLDATASIZE PUSH1 0x3 NOT ADD SLT PUSH2 0x314 JUMPI PUSH1 0x4 CALLDATALOAD PUSH1 0x1 PUSH1 0x1 PUSH1 0x40 SHL SUB DUP2 GT PUSH2 0x314 JUMPI PUSH2 0xC18 PUSH1 0x20 PUSH2 0x360 DUP2 SWAP4 CALLDATASIZE SWAP1 PUSH1 0x4 ADD PUSH2 0x53B6 JUMP JUMPDEST CALLVALUE PUSH2 0x314 JUMPI PUSH1 0x80 CALLDATASIZE PUSH1 0x3 NOT ADD SLT PUSH2 0x314 JUMPI PUSH1 0x4 CALLDATALOAD PUSH1 0x1 PUSH1 0x1 PUSH1 0x40 SHL SUB DUP2 GT PUSH2 0x314 JUMPI PUSH2 0x3277 SWAP1 CALLDATASIZE SWAP1 PUSH1 0x4 ADD PUSH2 0x53B6 JUMP JUMPDEST PUSH1 0x24 CALLDATALOAD PUSH1 0x1 PUSH1 0x1 PUSH1 0x40 SHL SUB DUP2 GT PUSH2 0x314 JUMPI PUSH2 0x3296 SWAP1 CALLDATASIZE SWAP1 PUSH1 0x4 ADD PUSH2 0x53B6 JUMP JUMPDEST SWAP1 PUSH1 0x44 CALLDATALOAD PUSH1 0x1 PUSH1 0x1 PUSH1 0x40 SHL SUB DUP2 GT PUSH2 0x314 JUMPI PUSH2 0x32B6 SWAP1 CALLDATASIZE SWAP1 PUSH1 0x4 ADD PUSH2 0x53B6 JUMP JUMPDEST SWAP2 PUSH1 0x64 CALLDATALOAD PUSH1 0x1 PUSH1 0x1 PUSH1 0x40 SHL SUB DUP2 GT PUSH2 0x314 JUMPI PUSH2 0x32D6 SWAP1 CALLDATASIZE SWAP1 PUSH1 0x4 ADD PUSH2 0x53B6 JUMP JUMPDEST SWAP3 PUSH2 0x32E1 CALLER DUP5 PUSH2 0x57C7 JUMP JUMPDEST DUP1 ISZERO PUSH2 0x3AED JUMPI JUMPDEST PUSH2 0x32F1 SWAP1 PUSH2 0x59F9 JUMP JUMPDEST PUSH1 0x40 MLOAD SWAP3 PUSH2 0x3327 DUP2 MLOAD PUSH2 0x3308 DUP2 DUP8 PUSH1 0x20 DUP7 ADD PUSH2 0x50D2 JUMP JUMPDEST DUP6 ADD PUSH1 0x5 DUP2 MSTORE PUSH1 0x4 DUP7 PUSH1 0x20 PUSH1 0xFF SWAP9 DUP10 SWAP5 SUB ADD SWAP1 KECCAK256 ADD SLOAD AND PUSH2 0x48A PUSH2 0x5A3B JUMP JUMPDEST CALLER PUSH1 0x0 MSTORE PUSH1 0x6 PUSH1 0x20 MSTORE DUP4 PUSH1 0x40 PUSH1 0x0 KECCAK256 SLOAD AND PUSH1 0x5 DUP2 LT ISZERO PUSH2 0x598 JUMPI PUSH1 0x2 EQ DUP1 ISZERO PUSH2 0x3ACA JUMPI JUMPDEST PUSH2 0x3354 SWAP1 PUSH2 0x56DA JUMP JUMPDEST PUSH1 0x0 SWAP4 PUSH1 0x40 MLOAD PUSH1 0x20 DUP2 DUP5 MLOAD PUSH2 0x336C DUP2 DUP4 DUP6 DUP10 ADD PUSH2 0x50D2 JUMP JUMPDEST DUP2 ADD PUSH1 0xF DUP2 MSTORE SUB ADD SWAP1 KECCAK256 SWAP1 PUSH1 0x0 PUSH1 0x20 DUP7 ADD SWAP1 JUMPDEST DUP4 SLOAD DUP2 LT ISZERO PUSH2 0x3ABE JUMPI PUSH2 0x3E2 PUSH2 0x3398 PUSH2 0x4FD DUP4 DUP8 PUSH2 0x60D4 JUMP JUMPDEST PUSH1 0x20 DUP2 MLOAD SWAP2 ADD KECCAK256 DUP8 MLOAD DUP4 KECCAK256 EQ DUP1 PUSH2 0x3AA7 JUMPI JUMPDEST PUSH2 0x33BC JUMPI PUSH2 0x33B7 SWAP1 PUSH2 0x5715 JUMP JUMPDEST PUSH2 0x337F JUMP JUMPDEST SWAP3 DUP1 SWAP5 SWAP6 SWAP7 SWAP8 POP PUSH2 0x33D0 SWAP3 POP DUP4 SWAP2 POP PUSH2 0x60D4 JUMP JUMPDEST POP DUP5 MLOAD PUSH1 0x1 PUSH1 0x1 PUSH1 0x40 SHL SUB DUP2 GT PUSH2 0xA2A JUMPI PUSH2 0x33EE PUSH1 0x3 DUP4 ADD SLOAD PUSH2 0x5230 JUMP JUMPDEST PUSH1 0x1F DUP2 GT PUSH2 0x3A60 JUMPI JUMPDEST POP PUSH1 0x20 PUSH1 0x1F DUP3 GT PUSH1 0x1 EQ PUSH2 0x39EE JUMPI DUP2 PUSH2 0x3431 SWAP5 SWAP4 SWAP3 PUSH1 0x3 SWAP3 PUSH1 0x0 SWAP2 PUSH2 0x39E3 JUMPI JUMPDEST POP DUP2 PUSH1 0x1 SHL SWAP2 PUSH1 0x0 NOT SWAP1 DUP5 SHL SHR NOT AND OR SWAP2 ADD SSTORE JUMPDEST DUP3 PUSH2 0x60D4 JUMP JUMPDEST POP DUP6 MLOAD PUSH1 0x1 PUSH1 0x1 PUSH1 0x40 SHL SUB DUP2 GT PUSH2 0xA2A JUMPI PUSH2 0x344F PUSH1 0x4 DUP4 ADD SLOAD PUSH2 0x5230 JUMP JUMPDEST PUSH1 0x1F DUP2 GT PUSH2 0x399C JUMPI JUMPDEST POP PUSH1 0x20 PUSH1 0x1F DUP3 GT PUSH1 0x1 EQ PUSH2 0x392E JUMPI SWAP1 DUP1 PUSH1 0x4 SWAP3 PUSH1 0x0 SWAP2 PUSH2 0x3923 JUMPI JUMPDEST POP DUP2 PUSH1 0x1 SHL SWAP2 PUSH1 0x0 NOT SWAP1 PUSH1 0x3 SHL SHR NOT AND OR SWAP2 ADD SSTORE JUMPDEST PUSH1 0x1 JUMPDEST ISZERO PUSH2 0x34CD JUMPI JUMPDEST POP SWAP1 PUSH2 0x34BD PUSH32 0xA8ED6C1BF0F562BBB6CAFC7F7C502B61497A02A3431AC098ECA12DFCF3F3DAF SWAP3 PUSH2 0x56BA JUMP JUMPDEST SWAP3 PUSH2 0x28B3 PUSH1 0x40 MLOAD SWAP3 DUP4 SWAP3 DUP4 PUSH2 0x59D4 JUMP JUMPDEST PUSH1 0x40 MLOAD SWAP5 PUSH2 0x34DA DUP7 PUSH2 0x531C JUMP JUMPDEST DUP5 DUP7 MSTORE TIMESTAMP PUSH1 0x20 DUP8 ADD MSTORE PUSH1 0x0 PUSH1 0x40 DUP8 ADD MSTORE DUP4 PUSH1 0x60 DUP8 ADD MSTORE PUSH1 0x80 DUP7 ADD MSTORE PUSH1 0x1 PUSH1 0xA0 DUP7 ADD MSTORE DUP1 SLOAD PUSH1 0x1 PUSH1 0x40 SHL DUP2 LT ISZERO PUSH2 0xA2A JUMPI PUSH2 0x3519 SWAP2 PUSH1 0x1 DUP3 ADD DUP2 SSTORE PUSH2 0x60D4 JUMP JUMPDEST PUSH2 0x390D JUMPI DUP5 MLOAD DUP1 MLOAD SWAP1 PUSH1 0x1 PUSH1 0x1 PUSH1 0x40 SHL SUB DUP3 GT PUSH2 0xA2A JUMPI DUP2 SWAP1 PUSH2 0x353C DUP5 SLOAD PUSH2 0x5230 JUMP JUMPDEST PUSH1 0x1F DUP2 GT PUSH2 0x38BD JUMPI JUMPDEST POP PUSH1 0x20 SWAP1 PUSH1 0x1F DUP4 GT PUSH1 0x1 EQ PUSH2 0x3857 JUMPI PUSH1 0x0 SWAP3 PUSH2 0x384C JUMPI JUMPDEST POP POP DUP2 PUSH1 0x1 SHL SWAP2 PUSH1 0x0 NOT SWAP1 PUSH1 0x3 SHL SHR NOT AND OR DUP2 SSTORE JUMPDEST PUSH1 0x20 DUP6 ADD MLOAD PUSH1 0x1 DUP3 ADD SSTORE PUSH1 0x40 DUP6 ADD MLOAD PUSH1 0x2 DUP3 ADD SSTORE PUSH1 0x60 DUP6 ADD MLOAD DUP1 MLOAD SWAP1 PUSH1 0x1 PUSH1 0x1 PUSH1 0x40 SHL SUB DUP3 GT PUSH2 0xA2A JUMPI DUP2 SWAP1 PUSH2 0x35AA PUSH1 0x3 DUP6 ADD SLOAD PUSH2 0x5230 JUMP JUMPDEST PUSH1 0x1F DUP2 GT PUSH2 0x37F9 JUMPI JUMPDEST POP PUSH1 0x20 SWAP1 PUSH1 0x1F DUP4 GT PUSH1 0x1 EQ PUSH2 0x378C JUMPI PUSH1 0x0 SWAP3 PUSH2 0x3781 JUMPI JUMPDEST POP POP DUP2 PUSH1 0x1 SHL SWAP2 PUSH1 0x0 NOT SWAP1 PUSH1 0x3 SHL SHR NOT AND OR PUSH1 0x3 DUP3 ADD SSTORE JUMPDEST PUSH1 0x80 DUP6 ADD MLOAD SWAP5 DUP6 MLOAD PUSH1 0x1 PUSH1 0x1 PUSH1 0x40 SHL SUB DUP2 GT PUSH2 0xA2A JUMPI PUSH2 0x3605 PUSH1 0x4 DUP5 ADD SLOAD PUSH2 0x5230 JUMP JUMPDEST PUSH1 0x1F DUP2 GT PUSH2 0x3736 JUMPI JUMPDEST POP PUSH1 0x20 PUSH1 0x1F DUP3 GT PUSH1 0x1 EQ PUSH2 0x369A JUMPI PUSH1 0xA0 PUSH2 0x3686 SWAP4 DUP4 PUSH2 0x34BD SWAP8 SWAP7 SWAP5 PUSH1 0x5 SWAP5 PUSH32 0xA8ED6C1BF0F562BBB6CAFC7F7C502B61497A02A3431AC098ECA12DFCF3F3DAF SWAP12 SWAP13 PUSH1 0x0 SWAP3 PUSH2 0x368F JUMPI JUMPDEST POP POP DUP2 PUSH1 0x1 SHL SWAP2 PUSH1 0x0 NOT SWAP1 PUSH1 0x3 SHL SHR NOT AND OR PUSH1 0x4 DUP6 ADD SSTORE JUMPDEST ADD MLOAD ISZERO ISZERO SWAP2 ADD SWAP1 PUSH1 0xFF DUP1 NOT DUP4 SLOAD AND SWAP2 ISZERO ISZERO AND OR SWAP1 SSTORE JUMP JUMPDEST SWAP1 DUP5 SWAP4 POP PUSH2 0x3491 JUMP JUMPDEST ADD MLOAD SWAP1 POP DUP13 DUP1 PUSH2 0x3657 JUMP JUMPDEST PUSH1 0x1F NOT DUP3 AND SWAP8 PUSH1 0x4 DUP6 ADD PUSH1 0x0 MSTORE PUSH1 0x20 PUSH1 0x0 KECCAK256 SWAP9 PUSH1 0x0 JUMPDEST DUP2 DUP2 LT PUSH2 0x371E JUMPI POP SWAP4 PUSH1 0x1 DUP5 PUSH32 0xA8ED6C1BF0F562BBB6CAFC7F7C502B61497A02A3431AC098ECA12DFCF3F3DAF SWAP11 SWAP12 PUSH1 0x5 SWAP6 PUSH1 0xA0 SWAP6 PUSH2 0x34BD SWAP12 SWAP11 SWAP9 PUSH2 0x3686 SWAP11 LT PUSH2 0x3705 JUMPI JUMPDEST POP POP POP DUP2 SHL ADD PUSH1 0x4 DUP6 ADD SSTORE PUSH2 0x366F JUMP JUMPDEST ADD MLOAD PUSH1 0x0 NOT PUSH1 0xF8 DUP5 PUSH1 0x3 SHL AND SHR NOT AND SWAP1 SSTORE DUP13 DUP1 DUP1 PUSH2 0x36F5 JUMP JUMPDEST DUP4 DUP4 ADD MLOAD DUP12 SSTORE PUSH1 0x1 SWAP1 SWAP11 ADD SWAP10 PUSH1 0x20 SWAP4 DUP5 ADD SWAP4 ADD PUSH2 0x36B0 JUMP JUMPDEST PUSH1 0x4 DUP5 ADD PUSH1 0x0 MSTORE PUSH1 0x20 PUSH1 0x0 KECCAK256 PUSH1 0x1F DUP4 ADD PUSH1 0x5 SHR DUP2 ADD SWAP2 PUSH1 0x20 DUP5 LT PUSH2 0x3777 JUMPI JUMPDEST PUSH1 0x1F ADD PUSH1 0x5 SHR ADD SWAP1 JUMPDEST DUP2 DUP2 LT PUSH2 0x376B JUMPI POP PUSH2 0x360E JUMP JUMPDEST PUSH1 0x0 DUP2 SSTORE PUSH1 0x1 ADD PUSH2 0x375E JUMP JUMPDEST SWAP1 SWAP2 POP DUP2 SWAP1 PUSH2 0x3755 JUMP JUMPDEST ADD MLOAD SWAP1 POP DUP8 DUP1 PUSH2 0x35CA JUMP JUMPDEST PUSH1 0x3 DUP6 ADD PUSH1 0x0 SWAP1 DUP2 MSTORE PUSH1 0x20 DUP2 KECCAK256 SWAP4 POP PUSH1 0x1F NOT DUP6 AND SWAP1 JUMPDEST DUP2 DUP2 LT PUSH2 0x37E1 JUMPI POP SWAP1 DUP5 PUSH1 0x1 SWAP6 SWAP5 SWAP4 SWAP3 LT PUSH2 0x37C8 JUMPI JUMPDEST POP POP POP DUP2 SHL ADD PUSH1 0x3 DUP3 ADD SSTORE PUSH2 0x35E2 JUMP JUMPDEST ADD MLOAD PUSH1 0x0 NOT PUSH1 0xF8 DUP5 PUSH1 0x3 SHL AND SHR NOT AND SWAP1 SSTORE DUP8 DUP1 DUP1 PUSH2 0x37B8 JUMP JUMPDEST SWAP3 SWAP4 PUSH1 0x20 PUSH1 0x1 DUP2 SWAP3 DUP8 DUP7 ADD MLOAD DUP2 SSTORE ADD SWAP6 ADD SWAP4 ADD PUSH2 0x37A2 JUMP JUMPDEST SWAP1 SWAP2 POP PUSH1 0x3 DUP5 ADD PUSH1 0x0 MSTORE PUSH1 0x20 PUSH1 0x0 KECCAK256 PUSH1 0x1F DUP5 ADD PUSH1 0x5 SHR DUP2 ADD PUSH1 0x20 DUP6 LT PUSH2 0x3845 JUMPI JUMPDEST SWAP1 DUP5 SWAP4 SWAP3 SWAP2 JUMPDEST PUSH1 0x1F DUP4 ADD PUSH1 0x5 SHR DUP3 ADD DUP2 LT PUSH2 0x3836 JUMPI POP POP PUSH2 0x35B3 JUMP JUMPDEST PUSH1 0x0 DUP2 SSTORE DUP6 SWAP5 POP PUSH1 0x1 ADD PUSH2 0x3820 JUMP JUMPDEST POP DUP1 PUSH2 0x381A JUMP JUMPDEST ADD MLOAD SWAP1 POP DUP8 DUP1 PUSH2 0x355C JUMP JUMPDEST PUSH1 0x0 DUP6 DUP2 MSTORE PUSH1 0x20 DUP2 KECCAK256 SWAP4 POP PUSH1 0x1F NOT DUP6 AND SWAP1 JUMPDEST DUP2 DUP2 LT PUSH2 0x38A5 JUMPI POP SWAP1 DUP5 PUSH1 0x1 SWAP6 SWAP5 SWAP4 SWAP3 LT PUSH2 0x388C JUMPI JUMPDEST POP POP POP DUP2 SHL ADD DUP2 SSTORE PUSH2 0x3571 JUMP JUMPDEST ADD MLOAD PUSH1 0x0 NOT PUSH1 0xF8 DUP5 PUSH1 0x3 SHL AND SHR NOT AND SWAP1 SSTORE DUP8 DUP1 DUP1 PUSH2 0x387F JUMP JUMPDEST SWAP3 SWAP4 PUSH1 0x20 PUSH1 0x1 DUP2 SWAP3 DUP8 DUP7 ADD MLOAD DUP2 SSTORE ADD SWAP6 ADD SWAP4 ADD PUSH2 0x3869 JUMP JUMPDEST SWAP1 SWAP2 POP DUP4 PUSH1 0x0 MSTORE PUSH1 0x20 PUSH1 0x0 KECCAK256 PUSH1 0x1F DUP5 ADD PUSH1 0x5 SHR DUP2 ADD PUSH1 0x20 DUP6 LT PUSH2 0x3906 JUMPI JUMPDEST SWAP1 DUP5 SWAP4 SWAP3 SWAP2 JUMPDEST PUSH1 0x1F DUP4 ADD PUSH1 0x5 SHR DUP3 ADD DUP2 LT PUSH2 0x38F7 JUMPI POP POP PUSH2 0x3545 JUMP JUMPDEST PUSH1 0x0 DUP2 SSTORE DUP6 SWAP5 POP PUSH1 0x1 ADD PUSH2 0x38E1 JUMP JUMPDEST POP DUP1 PUSH2 0x38DB JUMP JUMPDEST PUSH4 0x4E487B71 PUSH1 0xE0 SHL PUSH1 0x0 MSTORE PUSH1 0x0 PUSH1 0x4 MSTORE PUSH1 0x24 PUSH1 0x0 REVERT JUMPDEST SWAP1 POP DUP9 ADD MLOAD DUP10 PUSH2 0x3473 JUMP JUMPDEST PUSH1 0x1F NOT DUP3 AND SWAP1 PUSH1 0x4 DUP5 ADD PUSH1 0x0 MSTORE PUSH1 0x20 PUSH1 0x0 KECCAK256 SWAP2 PUSH1 0x0 JUMPDEST DUP11 DUP3 DUP3 LT PUSH2 0x3984 JUMPI POP POP SWAP1 DUP4 PUSH1 0x4 SWAP5 SWAP4 SWAP3 LT PUSH2 0x396B JUMPI JUMPDEST POP POP PUSH1 0x1 SWAP1 DUP2 SHL ADD SWAP2 ADD SSTORE PUSH2 0x3488 JUMP JUMPDEST DUP10 ADD MLOAD PUSH1 0x0 NOT PUSH1 0xF8 DUP5 PUSH1 0x3 SHL AND SHR NOT AND SWAP1 SSTORE DUP9 DUP1 PUSH2 0x395B JUMP JUMPDEST PUSH1 0x1 DUP5 SWAP6 PUSH1 0x20 SWAP4 SWAP6 DUP5 SWAP4 ADD MLOAD DUP2 SSTORE ADD SWAP5 ADD SWAP3 ADD PUSH2 0x3944 JUMP JUMPDEST PUSH1 0x4 DUP4 ADD PUSH1 0x0 MSTORE PUSH1 0x20 PUSH1 0x0 KECCAK256 PUSH1 0x1F DUP4 ADD PUSH1 0x5 SHR DUP2 ADD PUSH1 0x20 DUP5 LT PUSH2 0x39DC JUMPI JUMPDEST PUSH1 0x1F DUP4 ADD PUSH1 0x5 SHR DUP3 ADD DUP2 LT PUSH2 0x39D0 JUMPI POP POP PUSH2 0x3458 JUMP JUMPDEST PUSH1 0x0 DUP2 SSTORE PUSH1 0x1 ADD PUSH2 0x39BA JUMP JUMPDEST POP DUP1 PUSH2 0x39BA JUMP JUMPDEST SWAP1 POP DUP9 ADD MLOAD DUP12 PUSH2 0x3417 JUMP JUMPDEST PUSH1 0x3 DUP4 ADD PUSH1 0x0 MSTORE PUSH1 0x20 PUSH1 0x0 KECCAK256 SWAP1 PUSH1 0x0 JUMPDEST PUSH1 0x1F NOT DUP5 AND DUP2 LT PUSH2 0x3A48 JUMPI POP SWAP2 PUSH1 0x3 SWAP2 PUSH2 0x3431 SWAP6 SWAP5 SWAP4 DUP3 PUSH1 0x1F NOT DUP2 AND LT PUSH2 0x3A30 JUMPI JUMPDEST POP POP PUSH1 0x1 SWAP1 DUP2 SHL ADD SWAP2 ADD SSTORE PUSH2 0x342B JUMP JUMPDEST DUP10 ADD MLOAD PUSH1 0x0 NOT DUP4 DUP6 SHL PUSH1 0xF8 AND SHR NOT AND SWAP1 SSTORE DUP11 DUP1 PUSH2 0x3A20 JUMP JUMPDEST SWAP1 SWAP2 PUSH1 0x20 PUSH1 0x1 DUP2 SWAP3 DUP6 DUP13 ADD MLOAD DUP2 SSTORE ADD SWAP4 ADD SWAP2 ADD PUSH2 0x39FE JUMP JUMPDEST PUSH1 0x3 DUP4 ADD PUSH1 0x0 MSTORE PUSH1 0x20 PUSH1 0x0 KECCAK256 PUSH1 0x1F DUP4 ADD PUSH1 0x5 SHR DUP2 ADD PUSH1 0x20 DUP5 LT PUSH2 0x3AA0 JUMPI JUMPDEST PUSH1 0x1F DUP4 ADD PUSH1 0x5 SHR DUP3 ADD DUP2 LT PUSH2 0x3A94 JUMPI POP POP PUSH2 0x33F7 JUMP JUMPDEST PUSH1 0x0 DUP2 SSTORE PUSH1 0x1 ADD PUSH2 0x3A7E JUMP JUMPDEST POP DUP1 PUSH2 0x3A7E JUMP JUMPDEST POP DUP3 PUSH1 0x5 PUSH2 0x3AB5 DUP4 DUP8 PUSH2 0x60D4 JUMP JUMPDEST POP ADD SLOAD AND PUSH2 0x33AA JUMP JUMPDEST POP POP POP SWAP1 SWAP2 SWAP3 SWAP4 PUSH2 0x348B JUMP JUMPDEST POP CALLER PUSH1 0x0 MSTORE PUSH1 0x6 PUSH1 0x20 MSTORE DUP4 PUSH1 0x40 PUSH1 0x0 KECCAK256 SLOAD AND PUSH1 0x5 DUP2 LT ISZERO PUSH2 0x598 JUMPI PUSH1 0x3 EQ PUSH2 0x334B JUMP JUMPDEST POP PUSH2 0x32F1 PUSH1 0xFF PUSH1 0x4 PUSH1 0x40 MLOAD PUSH1 0x20 DUP2 DUP9 MLOAD PUSH2 0x3B0A DUP2 DUP4 DUP6 DUP14 ADD PUSH2 0x50D2 JUMP JUMPDEST DUP2 ADD PUSH1 0x5 DUP2 MSTORE SUB ADD SWAP1 KECCAK256 ADD SLOAD AND SWAP1 POP PUSH2 0x32E8 JUMP JUMPDEST CALLVALUE PUSH2 0x314 JUMPI PUSH1 0xC0 CALLDATASIZE PUSH1 0x3 NOT ADD SLT PUSH2 0x314 JUMPI PUSH1 0x4 CALLDATALOAD PUSH1 0x1 PUSH1 0x1 PUSH1 0x40 SHL SUB DUP2 GT PUSH2 0x314 JUMPI PUSH2 0x3B4E SWAP1 CALLDATASIZE SWAP1 PUSH1 0x4 ADD PUSH2 0x53B6 JUMP JUMPDEST PUSH1 0x44 CALLDATALOAD PUSH1 0x1 PUSH1 0x1 PUSH1 0x40 SHL SUB DUP2 GT PUSH2 0x314 JUMPI PUSH2 0x3B6D SWAP1 CALLDATASIZE SWAP1 PUSH1 0x4 ADD PUSH2 0x53B6 JUMP JUMPDEST SWAP1 PUSH1 0x64 CALLDATALOAD PUSH1 0x1 PUSH1 0x1 PUSH1 0x40 SHL SUB DUP2 GT PUSH2 0x314 JUMPI PUSH2 0x3B8D SWAP1 CALLDATASIZE SWAP1 PUSH1 0x4 ADD PUSH2 0x53B6 JUMP JUMPDEST SWAP2 PUSH1 0x84 CALLDATALOAD PUSH1 0x1 PUSH1 0x1 PUSH1 0x40 SHL SUB DUP2 GT PUSH2 0x314 JUMPI PUSH2 0x3BAD SWAP1 CALLDATASIZE SWAP1 PUSH1 0x4 ADD PUSH2 0x53B6 JUMP JUMPDEST SWAP3 PUSH1 0xA4 CALLDATALOAD PUSH1 0x1 PUSH1 0x1 PUSH1 0x40 SHL SUB DUP2 GT PUSH2 0x314 JUMPI PUSH2 0x3BCD SWAP1 CALLDATASIZE SWAP1 PUSH1 0x4 ADD PUSH2 0x53B6 JUMP JUMPDEST PUSH2 0x3BD7 CALLER DUP6 PUSH2 0x57C7 JUMP JUMPDEST DUP1 ISZERO PUSH2 0x46D8 JUMPI JUMPDEST PUSH2 0x3BE7 SWAP1 PUSH2 0x59F9 JUMP JUMPDEST PUSH2 0x3C21 PUSH1 0xFF PUSH1 0x4 PUSH1 0x40 MLOAD PUSH1 0x20 DUP2 DUP2 PUSH2 0x3C05 DUP12 DUP4 DUP2 MLOAD SWAP4 DUP5 SWAP3 ADD PUSH2 0x50D2 JUMP JUMPDEST DUP2 ADD PUSH1 0x5 DUP2 MSTORE SUB ADD SWAP1 KECCAK256 ADD SLOAD AND PUSH2 0x3C1A PUSH2 0x5A3B JUMP JUMPDEST CALLER DUP8 PUSH2 0x5A64 JUMP JUMPDEST TIMESTAMP PUSH1 0x24 CALLDATALOAD GT ISZERO PUSH2 0x4693 JUMPI PUSH1 0x8 SLOAD SWAP5 PUSH2 0x3C38 DUP7 PUSH2 0x5715 JUMP JUMPDEST PUSH1 0x8 SSTORE PUSH1 0x40 MLOAD SWAP3 PUSH2 0x3C48 DUP5 PUSH2 0x5300 JUMP JUMPDEST DUP7 DUP5 MSTORE PUSH1 0x20 DUP5 ADD SWAP5 DUP7 DUP7 MSTORE PUSH1 0x24 CALLDATALOAD PUSH1 0x40 DUP7 ADD MSTORE PUSH1 0x0 PUSH1 0x60 DUP7 ADD MSTORE PUSH1 0x80 DUP6 ADD MSTORE PUSH1 0xA0 DUP5 ADD MSTORE PUSH1 0xC0 DUP4 ADD MSTORE PUSH1 0xE0 DUP3 ADD MSTORE DUP4 PUSH1 0x0 MSTORE PUSH1 0x9 PUSH1 0x20 MSTORE PUSH1 0x40 PUSH1 0x0 KECCAK256 SWAP2 DUP2 MLOAD DUP4 SSTORE MLOAD DUP1 MLOAD SWAP1 PUSH1 0x1 PUSH1 0x1 PUSH1 0x40 SHL SUB DUP3 GT PUSH2 0xA2A JUMPI DUP2 SWAP1 PUSH2 0x3CAA PUSH1 0x1 DUP7 ADD SLOAD PUSH2 0x5230 JUMP JUMPDEST PUSH1 0x1F DUP2 GT PUSH2 0x4640 JUMPI JUMPDEST POP PUSH1 0x20 SWAP1 PUSH1 0x1F DUP4 GT PUSH1 0x1 EQ PUSH2 0x45CE JUMPI PUSH1 0x0 SWAP3 PUSH2 0x45C3 JUMPI JUMPDEST POP POP DUP2 PUSH1 0x1 SHL SWAP2 PUSH1 0x0 NOT SWAP1 PUSH1 0x3 SHL SHR NOT AND OR PUSH1 0x1 DUP4 ADD SSTORE JUMPDEST PUSH1 0x40 DUP2 ADD MLOAD PUSH1 0x2 DUP4 ADD SSTORE PUSH1 0x60 DUP2 ADD MLOAD PUSH1 0x3 DUP2 LT ISZERO PUSH2 0x598 JUMPI PUSH2 0x3D07 SWAP1 PUSH1 0x3 DUP5 ADD PUSH2 0x5D95 JUMP JUMPDEST PUSH1 0x80 DUP2 ADD MLOAD DUP1 MLOAD SWAP1 PUSH1 0x1 PUSH1 0x1 PUSH1 0x40 SHL SUB DUP3 GT PUSH2 0xA2A JUMPI DUP2 SWAP1 PUSH2 0x3D2C PUSH1 0x4 DUP7 ADD SLOAD PUSH2 0x5230 JUMP JUMPDEST PUSH1 0x1F DUP2 GT PUSH2 0x4570 JUMPI JUMPDEST POP PUSH1 0x20 SWAP1 PUSH1 0x1F DUP4 GT PUSH1 0x1 EQ PUSH2 0x44FE JUMPI PUSH1 0x0 SWAP3 PUSH2 0x44F3 JUMPI JUMPDEST POP POP DUP2 PUSH1 0x1 SHL SWAP2 PUSH1 0x0 NOT SWAP1 PUSH1 0x3 SHL SHR NOT AND OR PUSH1 0x4 DUP4 ADD SSTORE JUMPDEST PUSH1 0xA0 DUP2 ADD MLOAD DUP1 MLOAD SWAP1 PUSH1 0x1 PUSH1 0x1 PUSH1 0x40 SHL SUB DUP3 GT PUSH2 0xA2A JUMPI DUP2 SWAP1 PUSH2 0x3D89 PUSH1 0x5 DUP7 ADD SLOAD PUSH2 0x5230 JUMP JUMPDEST PUSH1 0x1F DUP2 GT PUSH2 0x44A0 JUMPI JUMPDEST POP PUSH1 0x20 SWAP1 PUSH1 0x1F DUP4 GT PUSH1 0x1 EQ PUSH2 0x442E JUMPI PUSH1 0x0 SWAP3 PUSH2 0x4423 JUMPI JUMPDEST POP POP DUP2 PUSH1 0x1 SHL SWAP2 PUSH1 0x0 NOT SWAP1 PUSH1 0x3 SHL SHR NOT AND OR PUSH1 0x5 DUP4 ADD SSTORE JUMPDEST PUSH1 0xC0 DUP2 ADD MLOAD DUP1 MLOAD SWAP1 PUSH1 0x1 PUSH1 0x1 PUSH1 0x40 SHL SUB DUP3 GT PUSH2 0xA2A JUMPI PUSH2 0x3DE4 PUSH1 0x6 DUP6 ADD SLOAD PUSH2 0x5230 JUMP JUMPDEST PUSH1 0x1F DUP2 GT PUSH2 0x43DC JUMPI JUMPDEST POP PUSH1 0x20 SWAP1 PUSH1 0x1F DUP4 GT PUSH1 0x1 EQ PUSH2 0x4369 JUMPI PUSH1 0xE0 SWAP4 SWAP3 SWAP2 PUSH1 0x0 SWAP2 DUP4 PUSH2 0x435E JUMPI JUMPDEST POP POP DUP2 PUSH1 0x1 SHL SWAP2 PUSH1 0x0 NOT SWAP1 PUSH1 0x3 SHL SHR NOT AND OR PUSH1 0x6 DUP5 ADD SSTORE JUMPDEST ADD MLOAD DUP1 MLOAD SWAP1 PUSH1 0x1 PUSH1 0x1 PUSH1 0x40 SHL SUB DUP3 GT PUSH2 0xA2A JUMPI PUSH2 0x3E42 PUSH1 0x7 DUP5 ADD SLOAD PUSH2 0x5230 JUMP JUMPDEST PUSH1 0x1F DUP2 GT PUSH2 0x4317 JUMPI JUMPDEST POP PUSH1 0x20 SWAP1 PUSH1 0x1F DUP4 GT PUSH1 0x1 EQ PUSH2 0x42A7 JUMPI PUSH1 0x7 SWAP3 SWAP2 PUSH1 0x0 SWAP2 DUP4 PUSH2 0x429C JUMPI JUMPDEST POP POP DUP2 PUSH1 0x1 SHL SWAP2 PUSH1 0x0 NOT SWAP1 PUSH1 0x3 SHL SHR NOT AND OR SWAP2 ADD SSTORE JUMPDEST PUSH2 0x3EA5 DUP3 PUSH1 0x40 MLOAD PUSH1 0x20 DUP2 DUP6 MLOAD PUSH2 0x3E96 DUP2 DUP4 DUP6 DUP11 ADD PUSH2 0x50D2 JUMP JUMPDEST DUP2 ADD PUSH1 0xA DUP2 MSTORE SUB ADD SWAP1 KECCAK256 PUSH2 0x5DAD JUMP JUMPDEST CALLER PUSH1 0x0 MSTORE PUSH1 0xC PUSH1 0x20 MSTORE PUSH2 0x3EBC DUP3 PUSH1 0x40 PUSH1 0x0 KECCAK256 PUSH2 0x5DAD JUMP JUMPDEST PUSH1 0x40 MLOAD PUSH1 0x20 DUP2 DUP4 MLOAD PUSH2 0x3ED1 DUP2 DUP4 DUP6 DUP9 ADD PUSH2 0x50D2 JUMP JUMPDEST DUP2 ADD PUSH1 0x2 DUP2 MSTORE SUB ADD SWAP1 KECCAK256 DUP1 SLOAD SWAP1 PUSH1 0x32 DUP3 ADD DUP1 SWAP3 GT PUSH2 0x288 JUMPI SSTORE PUSH1 0x40 MLOAD PUSH2 0x3EF6 DUP2 PUSH2 0x536D JUMP JUMPDEST PUSH1 0x14 DUP2 MSTORE PUSH20 0x14D8DA19591D5B1948105C1C1BDA5B9D1B595B9D PUSH1 0x62 SHL PUSH1 0x20 DUP3 ADD MSTORE PUSH1 0x40 MLOAD PUSH2 0x3F23 DUP2 PUSH2 0x5352 JUMP JUMPDEST CALLER DUP2 MSTORE PUSH1 0x20 DUP2 ADD SWAP1 DUP4 DUP3 MSTORE TIMESTAMP PUSH1 0x40 DUP3 ADD MSTORE DUP3 PUSH1 0x60 DUP3 ADD MSTORE PUSH1 0x0 PUSH1 0x80 DUP3 ADD MSTORE PUSH1 0x7 SLOAD PUSH1 0x1 PUSH1 0x40 SHL DUP2 LT ISZERO PUSH2 0xA2A JUMPI DUP1 PUSH1 0x1 PUSH2 0x3F60 SWAP3 ADD PUSH1 0x7 SSTORE PUSH2 0x5761 JUMP JUMPDEST SWAP3 SWAP1 SWAP3 PUSH2 0x390D JUMPI DUP2 MLOAD DUP4 SLOAD PUSH1 0x1 PUSH1 0x1 PUSH1 0xA0 SHL SUB NOT AND PUSH1 0x1 PUSH1 0x1 PUSH1 0xA0 SHL SUB SWAP2 SWAP1 SWAP2 AND OR DUP4 SSTORE MLOAD DUP1 MLOAD SWAP1 PUSH1 0x1 PUSH1 0x1 PUSH1 0x40 SHL SUB DUP3 GT PUSH2 0xA2A JUMPI DUP2 SWAP1 PUSH2 0x3FA5 PUSH1 0x1 DUP7 ADD SLOAD PUSH2 0x5230 JUMP JUMPDEST PUSH1 0x1F DUP2 GT PUSH2 0x4249 JUMPI JUMPDEST POP PUSH1 0x20 SWAP1 PUSH1 0x1F DUP4 GT PUSH1 0x1 EQ PUSH2 0x41D7 JUMPI PUSH1 0x0 SWAP3 PUSH2 0x41CC JUMPI JUMPDEST POP POP DUP2 PUSH1 0x1 SHL SWAP2 PUSH1 0x0 NOT SWAP1 PUSH1 0x3 SHL SHR NOT AND OR PUSH1 0x1 DUP4 ADD SSTORE JUMPDEST PUSH1 0x40 DUP2 ADD MLOAD PUSH1 0x2 DUP4 ADD SSTORE PUSH1 0x60 DUP2 ADD MLOAD DUP1 MLOAD SWAP1 PUSH1 0x1 PUSH1 0x1 PUSH1 0x40 SHL SUB DUP3 GT PUSH2 0xA2A JUMPI PUSH2 0x400A PUSH1 0x3 DUP6 ADD SLOAD PUSH2 0x5230 JUMP JUMPDEST PUSH1 0x1F DUP2 GT PUSH2 0x4185 JUMPI JUMPDEST POP PUSH1 0x20 SWAP1 PUSH1 0x1F DUP4 GT PUSH1 0x1 EQ PUSH2 0x40E8 JUMPI PUSH1 0x80 PUSH2 0x40D1 SWAP7 SWAP5 DUP5 PUSH2 0x408B SWAP6 PUSH32 0xC7E62119D394EED933B5EDA9911107F252DDD2C36D9737DDAB518EC9E60EAB98 SWAP11 SWAP9 SWAP6 PUSH1 0x4 SWAP6 PUSH1 0x0 SWAP3 PUSH2 0x40DD JUMPI JUMPDEST POP POP DUP2 PUSH1 0x1 SHL SWAP2 PUSH1 0x0 NOT SWAP1 PUSH1 0x3 SHL SHR NOT AND OR PUSH1 0x3 DUP6 ADD SSTORE ADD MLOAD ISZERO ISZERO SWAP2 ADD SWAP1 PUSH1 0xFF DUP1 NOT DUP4 SLOAD AND SWAP2 ISZERO ISZERO AND OR SWAP1 SSTORE JUMP JUMPDEST PUSH2 0x4094 DUP3 PUSH2 0x56BA JUMP JUMPDEST PUSH1 0x0 DUP1 MLOAD PUSH1 0x20 PUSH2 0x60F1 DUP4 CODECOPY DUP2 MLOAD SWAP2 MSTORE PUSH1 0x40 MLOAD PUSH1 0x20 DUP2 MSTORE DUP1 PUSH2 0x40BA CALLER SWAP6 PUSH1 0x20 DUP4 ADD SWAP1 PUSH2 0x50F5 JUMP JUMPDEST SUB SWAP1 LOG3 PUSH1 0x40 MLOAD SWAP2 DUP3 SWAP2 PUSH1 0x40 DUP4 MSTORE PUSH1 0x40 DUP4 ADD SWAP1 PUSH2 0x50F5 JUMP JUMPDEST PUSH1 0x0 PUSH1 0x20 DUP4 ADD MSTORE SUB SWAP1 LOG2 STOP JUMPDEST ADD MLOAD SWAP1 POP DUP13 DUP1 PUSH2 0x405D JUMP JUMPDEST SWAP1 PUSH1 0x1F NOT DUP4 AND SWAP2 PUSH1 0x3 DUP7 ADD PUSH1 0x0 MSTORE PUSH1 0x20 PUSH1 0x0 KECCAK256 SWAP3 PUSH1 0x0 JUMPDEST DUP2 DUP2 LT PUSH2 0x416D JUMPI POP SWAP5 PUSH1 0x1 DUP6 PUSH32 0xC7E62119D394EED933B5EDA9911107F252DDD2C36D9737DDAB518EC9E60EAB98 SWAP11 SWAP9 SWAP6 PUSH1 0x4 SWAP6 PUSH1 0x80 SWAP6 PUSH2 0x408B SWAP10 PUSH2 0x40D1 SWAP14 SWAP12 LT PUSH2 0x4154 JUMPI JUMPDEST POP POP POP DUP2 SHL ADD PUSH1 0x3 DUP6 ADD SSTORE PUSH2 0x366F JUMP JUMPDEST ADD MLOAD PUSH1 0x0 NOT PUSH1 0xF8 DUP5 PUSH1 0x3 SHL AND SHR NOT AND SWAP1 SSTORE DUP13 DUP1 DUP1 PUSH2 0x4144 JUMP JUMPDEST SWAP3 SWAP4 PUSH1 0x20 PUSH1 0x1 DUP2 SWAP3 DUP8 DUP7 ADD MLOAD DUP2 SSTORE ADD SWAP6 ADD SWAP4 ADD PUSH2 0x40FF JUMP JUMPDEST PUSH1 0x3 DUP6 ADD PUSH1 0x0 MSTORE PUSH1 0x20 PUSH1 0x0 KECCAK256 PUSH1 0x1F DUP5 ADD PUSH1 0x5 SHR DUP2 ADD PUSH1 0x20 DUP6 LT PUSH2 0x41C5 JUMPI JUMPDEST PUSH1 0x1F DUP4 ADD PUSH1 0x5 SHR DUP3 ADD DUP2 LT PUSH2 0x41B9 JUMPI POP POP PUSH2 0x4013 JUMP JUMPDEST PUSH1 0x0 DUP2 SSTORE PUSH1 0x1 ADD PUSH2 0x41A3 JUMP JUMPDEST POP DUP1 PUSH2 0x41A3 JUMP JUMPDEST ADD MLOAD SWAP1 POP DUP8 DUP1 PUSH2 0x3FC5 JUMP JUMPDEST SWAP3 POP PUSH1 0x1 DUP6 ADD PUSH1 0x0 MSTORE PUSH1 0x20 PUSH1 0x0 KECCAK256 SWAP1 PUSH1 0x0 SWAP4 JUMPDEST PUSH1 0x1F NOT DUP5 AND DUP6 LT PUSH2 0x422E JUMPI PUSH1 0x1 SWAP5 POP DUP4 PUSH1 0x1F NOT DUP2 AND LT PUSH2 0x4215 JUMPI JUMPDEST POP POP POP DUP2 SHL ADD PUSH1 0x1 DUP4 ADD SSTORE PUSH2 0x3FDD JUMP JUMPDEST ADD MLOAD PUSH1 0x0 NOT PUSH1 0xF8 DUP5 PUSH1 0x3 SHL AND SHR NOT AND SWAP1 SSTORE DUP8 DUP1 DUP1 PUSH2 0x4205 JUMP JUMPDEST DUP2 DUP2 ADD MLOAD DUP4 SSTORE PUSH1 0x20 SWAP5 DUP6 ADD SWAP5 PUSH1 0x1 SWAP1 SWAP4 ADD SWAP3 SWAP1 SWAP2 ADD SWAP1 PUSH2 0x41EA JUMP JUMPDEST SWAP1 SWAP2 POP PUSH1 0x1 DUP6 ADD PUSH1 0x0 MSTORE PUSH1 0x20 PUSH1 0x0 KECCAK256 PUSH1 0x1F DUP5 ADD PUSH1 0x5 SHR DUP2 ADD PUSH1 0x20 DUP6 LT PUSH2 0x4295 JUMPI JUMPDEST SWAP1 DUP5 SWAP4 SWAP3 SWAP2 JUMPDEST PUSH1 0x1F DUP4 ADD PUSH1 0x5 SHR DUP3 ADD DUP2 LT PUSH2 0x4286 JUMPI POP POP PUSH2 0x3FAE JUMP JUMPDEST PUSH1 0x0 DUP2 SSTORE DUP6 SWAP5 POP PUSH1 0x1 ADD PUSH2 0x4270 JUMP JUMPDEST POP DUP1 PUSH2 0x426A JUMP JUMPDEST ADD MLOAD SWAP1 POP DUP7 DUP1 PUSH2 0x3E67 JUMP JUMPDEST SWAP1 PUSH1 0x7 DUP5 ADD PUSH1 0x0 MSTORE PUSH1 0x20 PUSH1 0x0 KECCAK256 SWAP2 PUSH1 0x0 JUMPDEST PUSH1 0x1F NOT DUP6 AND DUP2 LT PUSH2 0x42FF JUMPI POP SWAP2 DUP4 SWAP2 PUSH1 0x1 SWAP4 PUSH1 0x7 SWAP6 PUSH1 0x1F NOT DUP2 AND LT PUSH2 0x42E6 JUMPI JUMPDEST POP POP POP DUP2 SHL ADD SWAP2 ADD SSTORE PUSH2 0x3E7D JUMP JUMPDEST ADD MLOAD PUSH1 0x0 NOT PUSH1 0xF8 DUP5 PUSH1 0x3 SHL AND SHR NOT AND SWAP1 SSTORE DUP7 DUP1 DUP1 PUSH2 0x42D8 JUMP JUMPDEST SWAP2 SWAP3 PUSH1 0x20 PUSH1 0x1 DUP2 SWAP3 DUP7 DUP6 ADD MLOAD DUP2 SSTORE ADD SWAP5 ADD SWAP3 ADD PUSH2 0x42B8 JUMP JUMPDEST PUSH1 0x7 DUP5 ADD PUSH1 0x0 MSTORE PUSH1 0x20 PUSH1 0x0 KECCAK256 PUSH1 0x1F DUP5 ADD PUSH1 0x5 SHR DUP2 ADD PUSH1 0x20 DUP6 LT PUSH2 0x4357 JUMPI JUMPDEST PUSH1 0x1F DUP4 ADD PUSH1 0x5 SHR DUP3 ADD DUP2 LT PUSH2 0x434B JUMPI POP POP PUSH2 0x3E4B JUMP JUMPDEST PUSH1 0x0 DUP2 SSTORE PUSH1 0x1 ADD PUSH2 0x4335 JUMP JUMPDEST POP DUP1 PUSH2 0x4335 JUMP JUMPDEST ADD MLOAD SWAP1 POP DUP8 DUP1 PUSH2 0x3E0A JUMP JUMPDEST SWAP1 PUSH1 0x6 DUP6 ADD PUSH1 0x0 MSTORE PUSH1 0x20 PUSH1 0x0 KECCAK256 SWAP2 PUSH1 0x0 JUMPDEST PUSH1 0x1F NOT DUP6 AND DUP2 LT PUSH2 0x43C4 JUMPI POP SWAP2 DUP4 SWAP2 PUSH1 0x1 SWAP4 PUSH1 0xE0 SWAP7 SWAP6 PUSH1 0x1F NOT DUP2 AND LT PUSH2 0x43AB JUMPI JUMPDEST POP POP POP DUP2 SHL ADD PUSH1 0x6 DUP5 ADD SSTORE PUSH2 0x3E22 JUMP JUMPDEST ADD MLOAD PUSH1 0x0 NOT PUSH1 0xF8 DUP5 PUSH1 0x3 SHL AND SHR NOT AND SWAP1 SSTORE DUP8 DUP1 DUP1 PUSH2 0x439B JUMP JUMPDEST SWAP2 SWAP3 PUSH1 0x20 PUSH1 0x1 DUP2 SWAP3 DUP7 DUP6 ADD MLOAD DUP2 SSTORE ADD SWAP5 ADD SWAP3 ADD PUSH2 0x437A JUMP JUMPDEST PUSH1 0x6 DUP6 ADD PUSH1 0x0 MSTORE PUSH1 0x20 PUSH1 0x0 KECCAK256 PUSH1 0x1F DUP5 ADD PUSH1 0x5 SHR DUP2 ADD PUSH1 0x20 DUP6 LT PUSH2 0x441C JUMPI JUMPDEST PUSH1 0x1F DUP4 ADD PUSH1 0x5 SHR DUP3 ADD DUP2 LT PUSH2 0x4410 JUMPI POP POP PUSH2 0x3DED JUMP JUMPDEST PUSH1 0x0 DUP2 SSTORE PUSH1 0x1 ADD PUSH2 0x43FA JUMP JUMPDEST POP DUP1 PUSH2 0x43FA JUMP JUMPDEST ADD MLOAD SWAP1 POP DUP7 DUP1 PUSH2 0x3DA9 JUMP JUMPDEST SWAP3 POP PUSH1 0x5 DUP6 ADD PUSH1 0x0 MSTORE PUSH1 0x20 PUSH1 0x0 KECCAK256 SWAP1 PUSH1 0x0 SWAP4 JUMPDEST PUSH1 0x1F NOT DUP5 AND DUP6 LT PUSH2 0x4485 JUMPI PUSH1 0x1 SWAP5 POP DUP4 PUSH1 0x1F NOT DUP2 AND LT PUSH2 0x446C JUMPI JUMPDEST POP POP POP DUP2 SHL ADD PUSH1 0x5 DUP4 ADD SSTORE PUSH2 0x3DC1 JUMP JUMPDEST ADD MLOAD PUSH1 0x0 NOT PUSH1 0xF8 DUP5 PUSH1 0x3 SHL AND SHR NOT AND SWAP1 SSTORE DUP7 DUP1 DUP1 PUSH2 0x445C JUMP JUMPDEST DUP2 DUP2 ADD MLOAD DUP4 SSTORE PUSH1 0x20 SWAP5 DUP6 ADD SWAP5 PUSH1 0x1 SWAP1 SWAP4 ADD SWAP3 SWAP1 SWAP2 ADD SWAP1 PUSH2 0x4441 JUMP JUMPDEST SWAP1 SWAP2 POP PUSH1 0x5 DUP6 ADD PUSH1 0x0 MSTORE PUSH1 0x20 PUSH1 0x0 KECCAK256 PUSH1 0x1F DUP5 ADD PUSH1 0x5 SHR DUP2 ADD PUSH1 0x20 DUP6 LT PUSH2 0x44EC JUMPI JUMPDEST SWAP1 DUP5 SWAP4 SWAP3 SWAP2 JUMPDEST PUSH1 0x1F DUP4 ADD PUSH1 0x5 SHR DUP3 ADD DUP2 LT PUSH2 0x44DD JUMPI POP POP PUSH2 0x3D92 JUMP JUMPDEST PUSH1 0x0 DUP2 SSTORE DUP6 SWAP5 POP PUSH1 0x1 ADD PUSH2 0x44C7 JUMP JUMPDEST POP DUP1 PUSH2 0x44C1 JUMP JUMPDEST ADD MLOAD SWAP1 POP DUP7 DUP1 PUSH2 0x3D4C JUMP JUMPDEST SWAP3 POP PUSH1 0x4 DUP6 ADD PUSH1 0x0 MSTORE PUSH1 0x20 PUSH1 0x0 KECCAK256 SWAP1 PUSH1 0x0 SWAP4 JUMPDEST PUSH1 0x1F NOT DUP5 AND DUP6 LT PUSH2 0x4555 JUMPI PUSH1 0x1 SWAP5 POP DUP4 PUSH1 0x1F NOT DUP2 AND LT PUSH2 0x453C JUMPI JUMPDEST POP POP POP DUP2 SHL ADD PUSH1 0x4 DUP4 ADD SSTORE PUSH2 0x3D64 JUMP JUMPDEST ADD MLOAD PUSH1 0x0 NOT PUSH1 0xF8 DUP5 PUSH1 0x3 SHL AND SHR NOT AND SWAP1 SSTORE DUP7 DUP1 DUP1 PUSH2 0x452C JUMP JUMPDEST DUP2 DUP2 ADD MLOAD DUP4 SSTORE PUSH1 0x20 SWAP5 DUP6 ADD SWAP5 PUSH1 0x1 SWAP1 SWAP4 ADD SWAP3 SWAP1 SWAP2 ADD SWAP1 PUSH2 0x4511 JUMP JUMPDEST SWAP1 SWAP2 POP PUSH1 0x4 DUP6 ADD PUSH1 0x0 MSTORE PUSH1 0x20 PUSH1 0x0 KECCAK256 PUSH1 0x1F DUP5 ADD PUSH1 0x5 SHR DUP2 ADD PUSH1 0x20 DUP6 LT PUSH2 0x45BC JUMPI JUMPDEST SWAP1 DUP5 SWAP4 SWAP3 SWAP2 JUMPDEST PUSH1 0x1F DUP4 ADD PUSH1 0x5 SHR DUP3 ADD DUP2 LT PUSH2 0x45AD JUMPI POP POP PUSH2 0x3D35 JUMP JUMPDEST PUSH1 0x0 DUP2 SSTORE DUP6 SWAP5 POP PUSH1 0x1 ADD PUSH2 0x4597 JUMP JUMPDEST POP DUP1 PUSH2 0x4591 JUMP JUMPDEST ADD MLOAD SWAP1 POP DUP7 DUP1 PUSH2 0x3CCA JUMP JUMPDEST SWAP3 POP PUSH1 0x1 DUP6 ADD PUSH1 0x0 MSTORE PUSH1 0x20 PUSH1 0x0 KECCAK256 SWAP1 PUSH1 0x0 SWAP4 JUMPDEST PUSH1 0x1F NOT DUP5 AND DUP6 LT PUSH2 0x4625 JUMPI PUSH1 0x1 SWAP5 POP DUP4 PUSH1 0x1F NOT DUP2 AND LT PUSH2 0x460C JUMPI JUMPDEST POP POP POP DUP2 SHL ADD PUSH1 0x1 DUP4 ADD SSTORE PUSH2 0x3CE2 JUMP JUMPDEST ADD MLOAD PUSH1 0x0 NOT PUSH1 0xF8 DUP5 PUSH1 0x3 SHL AND SHR NOT AND SWAP1 SSTORE DUP7 DUP1 DUP1 PUSH2 0x45FC JUMP JUMPDEST DUP2 DUP2 ADD MLOAD DUP4 SSTORE PUSH1 0x20 SWAP5 DUP6 ADD SWAP5 PUSH1 0x1 SWAP1 SWAP4 ADD SWAP3 SWAP1 SWAP2 ADD SWAP1 PUSH2 0x45E1 JUMP JUMPDEST SWAP1 SWAP2 POP PUSH1 0x1 DUP6 ADD PUSH1 0x0 MSTORE PUSH1 0x20 PUSH1 0x0 KECCAK256 PUSH1 0x1F DUP5 ADD PUSH1 0x5 SHR DUP2 ADD PUSH1 0x20 DUP6 LT PUSH2 0x468C JUMPI JUMPDEST SWAP1 DUP5 SWAP4 SWAP3 SWAP2 JUMPDEST PUSH1 0x1F DUP4 ADD PUSH1 0x5 SHR DUP3 ADD DUP2 LT PUSH2 0x467D JUMPI POP POP PUSH2 0x3CB3 JUMP JUMPDEST PUSH1 0x0 DUP2 SSTORE DUP6 SWAP5 POP PUSH1 0x1 ADD PUSH2 0x4667 JUMP JUMPDEST POP DUP1 PUSH2 0x4661 JUMP JUMPDEST PUSH1 0x40 MLOAD PUSH3 0x461BCD PUSH1 0xE5 SHL DUP2 MSTORE PUSH1 0x20 PUSH1 0x4 DUP3 ADD MSTORE PUSH1 0x18 PUSH1 0x24 DUP3 ADD MSTORE PUSH32 0x496E76616C6964206170706F696E746D656E742074696D650000000000000000 PUSH1 0x44 DUP3 ADD MSTORE PUSH1 0x64 SWAP1 REVERT JUMPDEST POP PUSH2 0x3BE7 PUSH1 0xFF PUSH1 0x4 PUSH1 0x40 MLOAD PUSH1 0x20 DUP2 DUP2 PUSH2 0x46F7 DUP12 DUP4 DUP2 MLOAD SWAP4 DUP5 SWAP3 ADD PUSH2 0x50D2 JUMP JUMPDEST DUP2 ADD PUSH1 0x5 DUP2 MSTORE SUB ADD SWAP1 KECCAK256 ADD SLOAD AND SWAP1 POP PUSH2 0x3BDE JUMP JUMPDEST CALLVALUE PUSH2 0x314 JUMPI PUSH1 0x20 CALLDATASIZE PUSH1 0x3 NOT ADD SLT PUSH2 0x314 JUMPI PUSH1 0x1 PUSH1 0x1 PUSH1 0xA0 SHL SUB PUSH2 0x472C PUSH2 0x5202 JUMP JUMPDEST AND PUSH1 0x0 MSTORE PUSH1 0x3 PUSH1 0x20 MSTORE PUSH1 0x20 PUSH1 0xFF PUSH1 0x40 PUSH1 0x0 KECCAK256 SLOAD AND PUSH1 0x40 MLOAD SWAP1 ISZERO ISZERO DUP2 MSTORE RETURN JUMPDEST CALLVALUE PUSH2 0x314 JUMPI PUSH2 0x4758 CALLDATASIZE PUSH2 0x5463 JUMP JUMPDEST SWAP1 CALLER PUSH1 0x0 MSTORE PUSH1 0x20 SWAP1 PUSH1 0x6 DUP3 MSTORE PUSH1 0xFF PUSH1 0x40 PUSH1 0x0 KECCAK256 SLOAD AND SWAP1 PUSH1 0x5 DUP3 LT ISZERO PUSH2 0x598 JUMPI DUP3 PUSH2 0x4791 SWAP2 PUSH1 0x1 PUSH1 0x3 SWAP5 EQ DUP1 PUSH2 0x47F4 JUMPI JUMPDEST PUSH2 0x360 SWAP1 PUSH2 0x56DA JUMP JUMPDEST DUP2 ADD PUSH1 0x5 DUP2 MSTORE SUB ADD SWAP1 KECCAK256 ADD SWAP2 DUP3 SLOAD SWAP3 PUSH1 0x1 PUSH1 0x40 SHL DUP5 LT ISZERO PUSH2 0xA2A JUMPI DUP4 PUSH2 0x47BE SWAP2 PUSH1 0x1 PUSH1 0x6 SWAP7 ADD DUP2 SSTORE PUSH2 0x5218 JUMP JUMPDEST SWAP2 PUSH1 0x1 DUP1 PUSH1 0xA0 SHL SUB DUP1 SWAP2 AND SWAP3 DUP3 SLOAD SWAP1 PUSH1 0x3 SHL SWAP2 DUP5 DUP4 SHL SWAP3 SHL NOT AND OR SWAP1 SSTORE PUSH1 0x0 MSTORE MSTORE PUSH1 0x40 PUSH1 0x0 KECCAK256 PUSH1 0x4 PUSH1 0xFF NOT DUP3 SLOAD AND OR SWAP1 SSTORE PUSH1 0x0 DUP1 RETURN JUMPDEST POP PUSH2 0x360 PUSH1 0x40 MLOAD PUSH2 0x3E2 PUSH2 0x4815 DUP5 MLOAD SWAP3 DUP7 DUP2 DUP2 DUP9 ADD SWAP6 PUSH2 0x6C5 DUP2 DUP4 DUP10 PUSH2 0x50D2 JUMP JUMPDEST DUP5 DUP2 MLOAD SWAP2 ADD KECCAK256 SWAP1 DUP4 MLOAD SWAP1 KECCAK256 EQ SWAP1 POP PUSH2 0x4788 JUMP JUMPDEST CALLVALUE PUSH2 0x314 JUMPI PUSH1 0x20 PUSH2 0x4850 PUSH2 0x483B CALLDATASIZE PUSH2 0x540C JUMP JUMPDEST SWAP3 SWAP1 DUP2 PUSH1 0x40 MLOAD SWAP4 DUP3 DUP6 DUP1 SWAP5 MLOAD SWAP4 DUP5 SWAP3 ADD PUSH2 0x50D2 JUMP JUMPDEST DUP2 ADD PUSH1 0xA DUP2 MSTORE SUB ADD SWAP1 KECCAK256 DUP1 SLOAD DUP3 LT ISZERO PUSH2 0x314 JUMPI PUSH1 0x20 SWAP2 PUSH2 0x266B SWAP2 PUSH2 0x5218 JUMP JUMPDEST CALLVALUE PUSH2 0x314 JUMPI PUSH1 0x20 CALLDATASIZE PUSH1 0x3 NOT ADD SLT PUSH2 0x314 JUMPI PUSH1 0x4 CALLDATALOAD PUSH1 0x0 MSTORE PUSH1 0x9 PUSH1 0x20 MSTORE PUSH1 0x40 PUSH1 0x0 KECCAK256 DUP1 SLOAD PUSH2 0x3BB PUSH1 0x7 PUSH2 0x497B PUSH1 0x40 MLOAD SWAP5 PUSH2 0x48B6 DUP7 PUSH2 0x48AF DUP2 PUSH1 0x1 DUP6 ADD PUSH2 0x526A JUMP JUMPDEST SUB DUP8 PUSH2 0x5388 JUMP JUMPDEST PUSH2 0x496D PUSH1 0x2 DUP3 ADD SLOAD PUSH2 0x495F PUSH1 0xFF PUSH1 0x3 DUP6 ADD SLOAD AND SWAP2 PUSH1 0x40 MLOAD PUSH2 0x48DE DUP2 PUSH2 0x3E2 DUP2 PUSH1 0x4 DUP11 ADD PUSH2 0x526A JUMP JUMPDEST PUSH2 0x4952 PUSH1 0x40 MLOAD SWAP5 PUSH2 0x48F6 DUP7 PUSH2 0x48AF DUP2 PUSH1 0x5 DUP13 ADD PUSH2 0x526A JUMP JUMPDEST PUSH2 0x4925 PUSH1 0x40 MLOAD SWAP9 PUSH2 0x4915 DUP11 PUSH2 0x490E DUP2 PUSH1 0x6 DUP6 ADD PUSH2 0x526A JUMP JUMPDEST SUB DUP12 PUSH2 0x5388 JUMP JUMPDEST PUSH2 0x490E PUSH1 0x40 MLOAD DUP1 SWAP14 DUP2 SWAP4 ADD PUSH2 0x526A JUMP JUMPDEST PUSH2 0x4942 PUSH1 0x40 MLOAD SWAP14 DUP15 SWAP14 DUP15 MSTORE DUP14 PUSH2 0x100 SWAP1 DUP2 PUSH1 0x20 DUP3 ADD MSTORE ADD SWAP1 PUSH2 0x50F5 JUMP JUMPDEST SWAP4 PUSH1 0x40 DUP14 ADD MSTORE PUSH1 0x60 DUP13 ADD SWAP1 PUSH2 0x53A9 JUMP JUMPDEST DUP10 DUP3 SUB PUSH1 0x80 DUP12 ADD MSTORE PUSH2 0x50F5 JUMP JUMPDEST SWAP1 DUP8 DUP3 SUB PUSH1 0xA0 DUP10 ADD MSTORE PUSH2 0x50F5 JUMP JUMPDEST SWAP1 DUP6 DUP3 SUB PUSH1 0xC0 DUP8 ADD MSTORE PUSH2 0x50F5 JUMP JUMPDEST SWAP1 DUP4 DUP3 SUB PUSH1 0xE0 DUP6 ADD MSTORE PUSH2 0x50F5 JUMP JUMPDEST CALLVALUE PUSH2 0x314 JUMPI PUSH1 0x40 CALLDATASIZE PUSH1 0x3 NOT ADD SLT PUSH2 0x314 JUMPI PUSH1 0x4 CALLDATALOAD PUSH1 0x24 CALLDATALOAD PUSH1 0x3 DUP2 LT ISZERO PUSH2 0x314 JUMPI PUSH1 0x8 SLOAD DUP3 LT ISZERO PUSH2 0x4F1F JUMPI DUP2 PUSH1 0x0 MSTORE PUSH1 0x9 PUSH1 0x20 MSTORE PUSH1 0x40 PUSH1 0x0 KECCAK256 SWAP1 PUSH1 0x1 DUP3 ADD SWAP3 PUSH2 0x49D1 DUP5 SLOAD PUSH2 0x5230 JUMP JUMPDEST ISZERO PUSH2 0x4EDA JUMPI CALLER PUSH1 0x0 MSTORE PUSH1 0x6 PUSH1 0x20 MSTORE PUSH1 0xFF PUSH1 0x40 PUSH1 0x0 KECCAK256 SLOAD AND PUSH1 0x5 DUP2 LT ISZERO PUSH2 0x598 JUMPI PUSH1 0x2 EQ DUP1 ISZERO PUSH2 0x4EB6 JUMPI JUMPDEST ISZERO PUSH2 0x4E4B JUMPI PUSH2 0x4A0F DUP3 PUSH1 0x3 PUSH1 0x1 SWAP6 ADD PUSH2 0x5D95 JUMP JUMPDEST PUSH32 0xBFA90A4F3468C2E94521FB7CF539F022E2C0B69CFD0A24D63A1D775342C1AF04 PUSH1 0x20 PUSH1 0x40 MLOAD PUSH2 0x4A3F DUP2 DUP7 PUSH2 0x53A9 JUMP JUMPDEST LOG2 EQ PUSH2 0x4DB1 JUMPI JUMPDEST PUSH2 0x4A59 PUSH2 0x3E2 SWAP2 PUSH1 0x40 MLOAD SWAP3 DUP4 DUP1 SWAP3 PUSH2 0x526A JUMP JUMPDEST PUSH1 0x40 MLOAD SWAP1 PUSH2 0x4A66 DUP3 PUSH2 0x536D JUMP JUMPDEST PUSH1 0x19 DUP3 MSTORE PUSH32 0x557064617465204170706F696E746D656E742053746174757300000000000000 PUSH1 0x20 DUP4 ADD MSTORE PUSH1 0x40 MLOAD PUSH2 0x4A9C DUP2 PUSH2 0x5352 JUMP JUMPDEST CALLER DUP2 MSTORE PUSH1 0x20 DUP2 ADD SWAP1 DUP3 DUP3 MSTORE TIMESTAMP PUSH1 0x40 DUP3 ADD MSTORE DUP4 PUSH1 0x60 DUP3 ADD MSTORE PUSH1 0x0 PUSH1 0x80 DUP3 ADD MSTORE PUSH1 0x7 SLOAD PUSH1 0x1 PUSH1 0x40 SHL DUP2 LT ISZERO PUSH2 0xA2A JUMPI DUP1 PUSH1 0x1 PUSH2 0x4AD9 SWAP3 ADD PUSH1 0x7 SSTORE PUSH2 0x5761 JUMP JUMPDEST SWAP3 SWAP1 SWAP3 PUSH2 0x390D JUMPI DUP2 MLOAD DUP4 SLOAD PUSH1 0x1 PUSH1 0x1 PUSH1 0xA0 SHL SUB NOT AND PUSH1 0x1 PUSH1 0x1 PUSH1 0xA0 SHL SUB SWAP2 SWAP1 SWAP2 AND OR DUP4 SSTORE MLOAD DUP1 MLOAD SWAP1 PUSH1 0x1 PUSH1 0x1 PUSH1 0x40 SHL SUB DUP3 GT PUSH2 0xA2A JUMPI DUP2 SWAP1 PUSH2 0x4B1E PUSH1 0x1 DUP7 ADD SLOAD PUSH2 0x5230 JUMP JUMPDEST PUSH1 0x1F DUP2 GT PUSH2 0x4D5E JUMPI JUMPDEST POP PUSH1 0x20 SWAP1 PUSH1 0x1F DUP4 GT PUSH1 0x1 EQ PUSH2 0x4CEC JUMPI PUSH1 0x0 SWAP3 PUSH2 0x4CE1 JUMPI JUMPDEST POP POP DUP2 PUSH1 0x1 SHL SWAP2 PUSH1 0x0 NOT SWAP1 PUSH1 0x3 SHL SHR NOT AND OR PUSH1 0x1 DUP4 ADD SSTORE JUMPDEST PUSH1 0x40 DUP2 ADD MLOAD PUSH1 0x2 DUP4 ADD SSTORE PUSH1 0x60 DUP2 ADD MLOAD DUP1 MLOAD SWAP1 PUSH1 0x1 PUSH1 0x1 PUSH1 0x40 SHL SUB DUP3 GT PUSH2 0xA2A JUMPI PUSH2 0x4B83 PUSH1 0x3 DUP6 ADD SLOAD PUSH2 0x5230 JUMP JUMPDEST PUSH1 0x1F DUP2 GT PUSH2 0x4C96 JUMPI JUMPDEST POP PUSH1 0x20 SWAP1 PUSH1 0x1F DUP4 GT PUSH1 0x1 EQ PUSH2 0x4C1C JUMPI PUSH2 0x4BE1 SWAP4 DUP4 PUSH2 0x4BE6 SWAP8 SWAP7 SWAP5 PUSH1 0x4 SWAP5 PUSH1 0x80 SWAP5 PUSH1 0x0 SWAP3 PUSH2 0x4C11 JUMPI POP POP DUP2 PUSH1 0x1 SHL SWAP2 PUSH1 0x0 NOT SWAP1 PUSH1 0x3 SHL SHR NOT AND OR PUSH1 0x3 DUP6 ADD SSTORE ADD MLOAD ISZERO ISZERO SWAP2 ADD SWAP1 PUSH1 0xFF DUP1 NOT DUP4 SLOAD AND SWAP2 ISZERO ISZERO AND OR SWAP1 SSTORE JUMP JUMPDEST PUSH2 0x56BA JUMP JUMPDEST PUSH1 0x0 DUP1 MLOAD PUSH1 0x20 PUSH2 0x60F1 DUP4 CODECOPY DUP2 MLOAD SWAP2 MSTORE PUSH1 0x40 MLOAD PUSH1 0x20 DUP2 MSTORE DUP1 PUSH2 0x4C0C CALLER SWAP6 PUSH1 0x20 DUP4 ADD SWAP1 PUSH2 0x50F5 JUMP JUMPDEST SUB SWAP1 LOG3 STOP JUMPDEST ADD MLOAD SWAP1 POP DUP11 DUP1 PUSH2 0x405D JUMP JUMPDEST SWAP1 PUSH1 0x1F NOT DUP4 AND SWAP2 PUSH1 0x3 DUP7 ADD PUSH1 0x0 MSTORE PUSH1 0x20 PUSH1 0x0 KECCAK256 SWAP3 PUSH1 0x0 JUMPDEST DUP2 DUP2 LT PUSH2 0x4C7E JUMPI POP DUP5 PUSH1 0x4 SWAP5 PUSH1 0x80 SWAP5 PUSH2 0x4BE1 SWAP9 SWAP5 PUSH2 0x4BE6 SWAP12 SWAP11 SWAP9 PUSH1 0x1 SWAP6 LT PUSH2 0x4C65 JUMPI POP POP POP DUP2 SHL ADD PUSH1 0x3 DUP6 ADD SSTORE PUSH2 0x366F JUMP JUMPDEST ADD MLOAD PUSH1 0x0 NOT PUSH1 0xF8 DUP5 PUSH1 0x3 SHL AND SHR NOT AND SWAP1 SSTORE DUP11 DUP1 DUP1 PUSH2 0x4144 JUMP JUMPDEST SWAP3 SWAP4 PUSH1 0x20 PUSH1 0x1 DUP2 SWAP3 DUP8 DUP7 ADD MLOAD DUP2 SSTORE ADD SWAP6 ADD SWAP4 ADD PUSH2 0x4C33 JUMP JUMPDEST PUSH1 0x3 DUP6 ADD PUSH1 0x0 MSTORE PUSH1 0x20 PUSH1 0x0 KECCAK256 PUSH1 0x1F DUP5 ADD PUSH1 0x5 SHR DUP2 ADD SWAP2 PUSH1 0x20 DUP6 LT PUSH2 0x4CD7 JUMPI JUMPDEST PUSH1 0x1F ADD PUSH1 0x5 SHR ADD SWAP1 JUMPDEST DUP2 DUP2 LT PUSH2 0x4CCB JUMPI POP PUSH2 0x4B8C JUMP JUMPDEST PUSH1 0x0 DUP2 SSTORE PUSH1 0x1 ADD PUSH2 0x4CBE JUMP JUMPDEST SWAP1 SWAP2 POP DUP2 SWAP1 PUSH2 0x4CB5 JUMP JUMPDEST ADD MLOAD SWAP1 POP DUP7 DUP1 PUSH2 0x4B3E JUMP JUMPDEST SWAP3 POP PUSH1 0x1 DUP6 ADD PUSH1 0x0 MSTORE PUSH1 0x20 PUSH1 0x0 KECCAK256 SWAP1 PUSH1 0x0 SWAP4 JUMPDEST PUSH1 0x1F NOT DUP5 AND DUP6 LT PUSH2 0x4D43 JUMPI PUSH1 0x1 SWAP5 POP DUP4 PUSH1 0x1F NOT DUP2 AND LT PUSH2 0x4D2A JUMPI JUMPDEST POP POP POP DUP2 SHL ADD PUSH1 0x1 DUP4 ADD SSTORE PUSH2 0x4B56 JUMP JUMPDEST ADD MLOAD PUSH1 0x0 NOT PUSH1 0xF8 DUP5 PUSH1 0x3 SHL AND SHR NOT AND SWAP1 SSTORE DUP7 DUP1 DUP1 PUSH2 0x4D1A JUMP JUMPDEST DUP2 DUP2 ADD MLOAD DUP4 SSTORE PUSH1 0x20 SWAP5 DUP6 ADD SWAP5 PUSH1 0x1 SWAP1 SWAP4 ADD SWAP3 SWAP1 SWAP2 ADD SWAP1 PUSH2 0x4CFF JUMP JUMPDEST SWAP1 SWAP2 POP PUSH1 0x1 DUP6 ADD PUSH1 0x0 MSTORE PUSH1 0x20 PUSH1 0x0 KECCAK256 PUSH1 0x1F DUP5 ADD PUSH1 0x5 SHR DUP2 ADD PUSH1 0x20 DUP6 LT PUSH2 0x4DAA JUMPI JUMPDEST SWAP1 DUP5 SWAP4 SWAP3 SWAP2 JUMPDEST PUSH1 0x1F DUP4 ADD PUSH1 0x5 SHR DUP3 ADD DUP2 LT PUSH2 0x4D9B JUMPI POP POP PUSH2 0x4B27 JUMP JUMPDEST PUSH1 0x0 DUP2 SSTORE DUP6 SWAP5 POP PUSH1 0x1 ADD PUSH2 0x4D85 JUMP JUMPDEST POP DUP1 PUSH2 0x4D7F JUMP JUMPDEST PUSH1 0x40 MLOAD DUP2 SLOAD DUP2 PUSH1 0x0 PUSH2 0x4DC2 DUP4 PUSH2 0x5230 JUMP JUMPDEST SWAP3 PUSH1 0x1 DUP2 AND SWAP1 DUP2 ISZERO PUSH2 0x4E34 JUMPI POP PUSH1 0x1 EQ PUSH2 0x4DF9 JUMPI JUMPDEST PUSH1 0x20 SWAP3 POP PUSH1 0x2 DUP2 MSTORE SUB ADD SWAP1 KECCAK256 DUP1 SLOAD SWAP2 PUSH1 0x64 DUP4 ADD DUP1 SWAP4 GT PUSH2 0x288 JUMPI SWAP2 SWAP1 SSTORE PUSH2 0x4A46 JUMP JUMPDEST POP POP DUP3 PUSH1 0x0 MSTORE DUP2 PUSH1 0x20 PUSH1 0x0 KECCAK256 PUSH1 0x0 SWAP1 JUMPDEST DUP4 DUP3 LT PUSH2 0x4E1C JUMPI POP POP PUSH1 0x20 SWAP2 DUP2 ADD PUSH2 0x4DD7 JUMP JUMPDEST PUSH1 0x20 SWAP2 SWAP3 POP DUP1 PUSH1 0x1 SWAP2 SLOAD DUP5 DUP8 ADD MSTORE ADD SWAP2 ADD DUP4 SWAP2 PUSH2 0x4E09 JUMP JUMPDEST PUSH1 0xFF NOT AND DUP4 MSTORE POP PUSH1 0x20 SWAP3 DUP1 ISZERO ISZERO MUL DUP3 ADD SWAP1 POP PUSH2 0x4DD7 JUMP JUMPDEST PUSH1 0x40 MLOAD PUSH3 0x461BCD PUSH1 0xE5 SHL DUP2 MSTORE PUSH1 0x20 PUSH1 0x4 DUP3 ADD MSTORE PUSH1 0x3D PUSH1 0x24 DUP3 ADD MSTORE PUSH32 0x4F6E6C7920646F63746F7273206F7220686F73706974616C2061646D696E7320 PUSH1 0x44 DUP3 ADD MSTORE PUSH32 0x63616E20757064617465206170706F696E746D656E7420737461747573000000 PUSH1 0x64 DUP3 ADD MSTORE PUSH1 0x84 SWAP1 REVERT JUMPDEST POP CALLER PUSH1 0x0 MSTORE PUSH1 0x6 PUSH1 0x20 MSTORE PUSH1 0xFF PUSH1 0x40 PUSH1 0x0 KECCAK256 SLOAD AND PUSH1 0x5 DUP2 LT ISZERO PUSH2 0x598 JUMPI PUSH1 0x3 EQ PUSH2 0x49FB JUMP JUMPDEST PUSH1 0x40 MLOAD PUSH3 0x461BCD PUSH1 0xE5 SHL DUP2 MSTORE PUSH1 0x20 PUSH1 0x4 DUP3 ADD MSTORE PUSH1 0x1A PUSH1 0x24 DUP3 ADD MSTORE PUSH32 0x4170706F696E746D656E7420646F6573206E6F74206578697374000000000000 PUSH1 0x44 DUP3 ADD MSTORE PUSH1 0x64 SWAP1 REVERT JUMPDEST PUSH1 0x40 MLOAD PUSH3 0x461BCD PUSH1 0xE5 SHL DUP2 MSTORE PUSH1 0x20 PUSH1 0x4 DUP3 ADD MSTORE PUSH1 0x16 PUSH1 0x24 DUP3 ADD MSTORE PUSH22 0x125B9D985B1A5908185C1C1BDA5B9D1B595B9D081251 PUSH1 0x52 SHL PUSH1 0x44 DUP3 ADD MSTORE PUSH1 0x64 SWAP1 REVERT JUMPDEST CALLVALUE PUSH2 0x314 JUMPI PUSH1 0x40 CALLDATASIZE PUSH1 0x3 NOT ADD SLT PUSH2 0x314 JUMPI PUSH2 0x4F76 PUSH2 0x5202 JUMP JUMPDEST PUSH1 0x1 PUSH1 0x1 PUSH1 0xA0 SHL SUB AND PUSH1 0x0 SWAP1 DUP2 MSTORE PUSH1 0xC PUSH1 0x20 MSTORE PUSH1 0x40 SWAP1 KECCAK256 DUP1 SLOAD PUSH1 0x24 CALLDATALOAD SWAP2 SWAP1 DUP3 LT ISZERO PUSH2 0x314 JUMPI PUSH1 0x20 SWAP2 PUSH2 0x266B SWAP2 PUSH2 0x5218 JUMP JUMPDEST CALLVALUE PUSH2 0x314 JUMPI PUSH1 0x0 CALLDATASIZE PUSH1 0x3 NOT ADD SLT PUSH2 0x314 JUMPI PUSH1 0x1 DUP1 SLOAD PUSH2 0x4FC5 DUP2 PUSH2 0x579C JUMP JUMPDEST SWAP1 PUSH2 0x4FD3 PUSH1 0x40 MLOAD SWAP3 DUP4 PUSH2 0x5388 JUMP JUMPDEST DUP1 DUP3 MSTORE PUSH1 0x0 DUP4 DUP2 MSTORE PUSH1 0x20 PUSH32 0xB10E2D527612073B26EECDFD717E6A320CF44B4AFAC2B0732D9FCBE2B7FA0CF6 DUP2 DUP6 ADD JUMPDEST DUP5 DUP5 LT PUSH2 0x5017 JUMPI PUSH1 0x40 MLOAD DUP1 PUSH2 0x3BB DUP9 DUP3 PUSH2 0x511A JUMP JUMPDEST PUSH1 0x8 DUP4 DUP9 SWAP3 PUSH1 0x40 MLOAD PUSH2 0x5028 DUP2 PUSH2 0x5300 JUMP JUMPDEST DUP6 SLOAD DUP2 MSTORE PUSH1 0x40 MLOAD PUSH2 0x503F DUP2 PUSH2 0x3E2 DUP2 DUP10 DUP12 ADD PUSH2 0x526A JUMP JUMPDEST DUP4 DUP3 ADD MSTORE PUSH1 0x40 MLOAD PUSH2 0x5057 DUP2 PUSH2 0x3E2 DUP2 PUSH1 0x2 DUP12 ADD PUSH2 0x526A JUMP JUMPDEST PUSH1 0x40 DUP3 ADD MSTORE PUSH1 0x40 MLOAD PUSH2 0x5070 DUP2 PUSH2 0x3E2 DUP2 PUSH1 0x3 DUP12 ADD PUSH2 0x526A JUMP JUMPDEST PUSH1 0x60 DUP3 ADD MSTORE PUSH1 0x40 MLOAD PUSH2 0x5089 DUP2 PUSH2 0x3E2 DUP2 PUSH1 0x4 DUP12 ADD PUSH2 0x526A JUMP JUMPDEST PUSH1 0x80 DUP3 ADD MSTORE PUSH1 0x5 DUP7 ADD SLOAD PUSH1 0xA0 DUP3 ADD MSTORE PUSH1 0x6 DUP7 ADD SLOAD PUSH1 0x1 PUSH1 0x1 PUSH1 0xA0 SHL SUB AND PUSH1 0xC0 DUP3 ADD MSTORE PUSH1 0x40 MLOAD PUSH2 0x50BF DUP2 PUSH2 0x3E2 DUP2 PUSH1 0x7 DUP12 ADD PUSH2 0x526A JUMP JUMPDEST PUSH1 0xE0 DUP3 ADD MSTORE DUP2 MSTORE ADD SWAP3 ADD SWAP4 ADD SWAP3 SWAP1 PUSH2 0x5002 JUMP JUMPDEST PUSH1 0x0 JUMPDEST DUP4 DUP2 LT PUSH2 0x50E5 JUMPI POP POP PUSH1 0x0 SWAP2 ADD MSTORE JUMP JUMPDEST DUP2 DUP2 ADD MLOAD DUP4 DUP3 ADD MSTORE PUSH1 0x20 ADD PUSH2 0x50D5 JUMP JUMPDEST SWAP1 PUSH1 0x20 SWAP2 PUSH2 0x510E DUP2 MLOAD DUP1 SWAP3 DUP2 DUP6 MSTORE DUP6 DUP1 DUP7 ADD SWAP2 ADD PUSH2 0x50D2 JUMP JUMPDEST PUSH1 0x1F ADD PUSH1 0x1F NOT AND ADD ADD SWAP1 JUMP JUMPDEST PUSH1 0x20 DUP1 DUP3 ADD SWAP1 DUP1 DUP4 MSTORE DUP4 MLOAD DUP1 SWAP3 MSTORE PUSH1 0x40 SWAP3 DUP4 DUP2 ADD DUP3 DUP6 DUP6 PUSH1 0x5 SHL DUP5 ADD ADD SWAP7 ADD SWAP5 PUSH1 0x0 SWAP3 JUMPDEST DUP6 DUP5 LT PUSH2 0x514F JUMPI POP POP POP POP POP POP POP SWAP1 JUMP JUMPDEST SWAP1 SWAP2 SWAP3 SWAP4 SWAP5 SWAP6 SWAP7 DUP6 DUP1 PUSH2 0x51F1 PUSH1 0x1 SWAP4 PUSH1 0x3F NOT DUP7 DUP3 SUB ADD DUP9 MSTORE DUP12 MLOAD DUP1 MLOAD DUP3 MSTORE PUSH2 0x51C3 PUSH2 0x51B0 PUSH2 0x519D PUSH2 0x518D DUP8 DUP6 ADD MLOAD PUSH2 0x100 DUP1 DUP11 DUP10 ADD MSTORE DUP8 ADD SWAP1 PUSH2 0x50F5 JUMP JUMPDEST DUP12 DUP6 ADD MLOAD DUP7 DUP3 SUB DUP14 DUP9 ADD MSTORE PUSH2 0x50F5 JUMP JUMPDEST PUSH1 0x60 DUP1 DUP6 ADD MLOAD SWAP1 DUP7 DUP4 SUB SWAP1 DUP8 ADD MSTORE PUSH2 0x50F5 JUMP JUMPDEST PUSH1 0x80 DUP1 DUP5 ADD MLOAD SWAP1 DUP6 DUP4 SUB SWAP1 DUP7 ADD MSTORE PUSH2 0x50F5 JUMP JUMPDEST SWAP2 PUSH1 0xA0 DUP1 DUP4 ADD MLOAD SWAP1 DUP3 ADD MSTORE PUSH1 0xC0 DUP8 DUP1 PUSH1 0xA0 SHL SUB DUP2 DUP5 ADD MLOAD AND SWAP1 DUP3 ADD MSTORE PUSH1 0xE0 DUP1 SWAP3 ADD MLOAD SWAP2 DUP2 DUP5 SUB SWAP2 ADD MSTORE PUSH2 0x50F5 JUMP JUMPDEST SWAP10 ADD SWAP5 ADD SWAP5 ADD SWAP3 SWAP6 SWAP5 SWAP4 SWAP2 SWAP1 PUSH2 0x513E JUMP JUMPDEST PUSH1 0x4 CALLDATALOAD SWAP1 PUSH1 0x1 PUSH1 0x1 PUSH1 0xA0 SHL SUB DUP3 AND DUP3 SUB PUSH2 0x314 JUMPI JUMP JUMPDEST DUP1 SLOAD DUP3 LT ISZERO PUSH2 0x20D9 JUMPI PUSH1 0x0 MSTORE PUSH1 0x20 PUSH1 0x0 KECCAK256 ADD SWAP1 PUSH1 0x0 SWAP1 JUMP JUMPDEST SWAP1 PUSH1 0x1 DUP3 DUP2 SHR SWAP3 AND DUP1 ISZERO PUSH2 0x5260 JUMPI JUMPDEST PUSH1 0x20 DUP4 LT EQ PUSH2 0x524A JUMPI JUMP JUMPDEST PUSH4 0x4E487B71 PUSH1 0xE0 SHL PUSH1 0x0 MSTORE PUSH1 0x22 PUSH1 0x4 MSTORE PUSH1 0x24 PUSH1 0x0 REVERT JUMPDEST SWAP2 PUSH1 0x7F AND SWAP2 PUSH2 0x523F JUMP JUMPDEST SWAP1 PUSH1 0x0 SWAP3 SWAP2 DUP1 SLOAD SWAP2 PUSH2 0x527B DUP4 PUSH2 0x5230 JUMP JUMPDEST SWAP2 DUP3 DUP3 MSTORE PUSH1 0x1 SWAP4 DUP5 DUP2 AND SWAP1 DUP2 PUSH1 0x0 EQ PUSH2 0x52DD JUMPI POP PUSH1 0x1 EQ PUSH2 0x529D JUMPI JUMPDEST POP POP POP POP JUMP JUMPDEST SWAP1 SWAP2 SWAP4 SWAP5 POP PUSH1 0x0 MSTORE PUSH1 0x20 SWAP3 DUP4 PUSH1 0x0 KECCAK256 SWAP3 DUP5 PUSH1 0x0 SWAP5 JUMPDEST DUP4 DUP7 LT PUSH2 0x52C9 JUMPI POP POP POP POP ADD ADD SWAP1 CODESIZE DUP1 DUP1 DUP1 PUSH2 0x5297 JUMP JUMPDEST DUP1 SLOAD DUP6 DUP8 ADD DUP4 ADD MSTORE SWAP5 ADD SWAP4 DUP6 SWAP1 DUP3 ADD PUSH2 0x52B2 JUMP JUMPDEST SWAP3 SWAP5 POP POP POP PUSH1 0x20 SWAP4 SWAP5 POP PUSH1 0xFF NOT AND DUP4 DUP4 ADD MSTORE ISZERO ISZERO PUSH1 0x5 SHL ADD ADD SWAP1 CODESIZE DUP1 DUP1 DUP1 PUSH2 0x5297 JUMP JUMPDEST PUSH2 0x100 DUP2 ADD SWAP1 DUP2 LT PUSH1 0x1 PUSH1 0x1 PUSH1 0x40 SHL SUB DUP3 GT OR PUSH2 0xA2A JUMPI PUSH1 0x40 MSTORE JUMP JUMPDEST PUSH1 0xC0 DUP2 ADD SWAP1 DUP2 LT PUSH1 0x1 PUSH1 0x1 PUSH1 0x40 SHL SUB DUP3 GT OR PUSH2 0xA2A JUMPI PUSH1 0x40 MSTORE JUMP JUMPDEST PUSH1 0x80 DUP2 ADD SWAP1 DUP2 LT PUSH1 0x1 PUSH1 0x1 PUSH1 0x40 SHL SUB DUP3 GT OR PUSH2 0xA2A JUMPI PUSH1 0x40 MSTORE JUMP JUMPDEST PUSH1 0xA0 DUP2 ADD SWAP1 DUP2 LT PUSH1 0x1 PUSH1 0x1 PUSH1 0x40 SHL SUB DUP3 GT OR PUSH2 0xA2A JUMPI PUSH1 0x40 MSTORE JUMP JUMPDEST PUSH1 0x40 DUP2 ADD SWAP1 DUP2 LT PUSH1 0x1 PUSH1 0x1 PUSH1 0x40 SHL SUB DUP3 GT OR PUSH2 0xA2A JUMPI PUSH1 0x40 MSTORE JUMP JUMPDEST SWAP1 PUSH1 0x1F DUP1 NOT SWAP2 ADD AND DUP2 ADD SWAP1 DUP2 LT PUSH1 0x1 PUSH1 0x1 PUSH1 0x40 SHL SUB DUP3 GT OR PUSH2 0xA2A JUMPI PUSH1 0x40 MSTORE JUMP JUMPDEST SWAP1 PUSH1 0x3 DUP3 LT ISZERO PUSH2 0x598 JUMPI MSTORE JUMP JUMPDEST DUP2 PUSH1 0x1F DUP3 ADD SLT ISZERO PUSH2 0x314 JUMPI DUP1 CALLDATALOAD SWAP1 PUSH1 0x1 PUSH1 0x1 PUSH1 0x40 SHL SUB DUP3 GT PUSH2 0xA2A JUMPI PUSH1 0x40 MLOAD SWAP3 PUSH2 0x53EA PUSH1 0x1F DUP5 ADD PUSH1 0x1F NOT AND PUSH1 0x20 ADD DUP6 PUSH2 0x5388 JUMP JUMPDEST DUP3 DUP5 MSTORE PUSH1 0x20 DUP4 DUP4 ADD ADD GT PUSH2 0x314 JUMPI DUP2 PUSH1 0x0 SWAP3 PUSH1 0x20 DUP1 SWAP4 ADD DUP4 DUP7 ADD CALLDATACOPY DUP4 ADD ADD MSTORE SWAP1 JUMP JUMPDEST PUSH1 0x40 PUSH1 0x3 NOT DUP3 ADD SLT PUSH2 0x314 JUMPI PUSH1 0x4 CALLDATALOAD SWAP1 PUSH1 0x1 PUSH1 0x1 PUSH1 0x40 SHL SUB DUP3 GT PUSH2 0x314 JUMPI PUSH2 0x5436 SWAP2 PUSH1 0x4 ADD PUSH2 0x53B6 JUMP JUMPDEST SWAP1 PUSH1 0x24 CALLDATALOAD SWAP1 JUMP JUMPDEST PUSH1 0x20 SWAP1 PUSH2 0x5457 SWAP3 DUP3 PUSH1 0x40 MLOAD SWAP5 DUP4 DUP7 DUP1 SWAP6 MLOAD SWAP4 DUP5 SWAP3 ADD PUSH2 0x50D2 JUMP JUMPDEST DUP3 ADD SWAP1 DUP2 MSTORE SUB ADD SWAP1 KECCAK256 SWAP1 JUMP JUMPDEST PUSH1 0x40 PUSH1 0x3 NOT DUP3 ADD SLT PUSH2 0x314 JUMPI PUSH1 0x4 CALLDATALOAD SWAP1 PUSH1 0x1 PUSH1 0x1 PUSH1 0x40 SHL SUB DUP3 GT PUSH2 0x314 JUMPI PUSH2 0x548D SWAP2 PUSH1 0x4 ADD PUSH2 0x53B6 JUMP JUMPDEST SWAP1 PUSH1 0x24 CALLDATALOAD PUSH1 0x1 PUSH1 0x1 PUSH1 0xA0 SHL SUB DUP2 AND DUP2 SUB PUSH2 0x314 JUMPI SWAP1 JUMP JUMPDEST SWAP1 PUSH1 0x40 PUSH1 0x3 NOT DUP4 ADD SLT PUSH2 0x314 JUMPI PUSH1 0x1 PUSH1 0x1 PUSH1 0x40 SHL SUB PUSH1 0x4 CALLDATALOAD DUP2 DUP2 GT PUSH2 0x314 JUMPI DUP4 PUSH2 0x54D0 SWAP2 PUSH1 0x4 ADD PUSH2 0x53B6 JUMP JUMPDEST SWAP3 PUSH1 0x24 CALLDATALOAD SWAP2 DUP3 GT PUSH2 0x314 JUMPI PUSH2 0x54E7 SWAP2 PUSH1 0x4 ADD PUSH2 0x53B6 JUMP JUMPDEST SWAP1 JUMP JUMPDEST PUSH1 0x20 DUP1 DUP3 ADD SWAP1 DUP1 DUP4 MSTORE DUP4 MLOAD DUP1 SWAP3 MSTORE PUSH1 0x40 SWAP3 DUP4 DUP2 ADD DUP3 DUP6 DUP6 PUSH1 0x5 SHL DUP5 ADD ADD SWAP7 ADD SWAP5 PUSH1 0x0 SWAP3 JUMPDEST DUP6 DUP5 LT PUSH2 0x551F JUMPI POP POP POP POP POP POP POP SWAP1 JUMP JUMPDEST SWAP1 SWAP2 SWAP3 SWAP4 SWAP5 SWAP6 SWAP7 DUP6 DUP1 PUSH2 0x556E PUSH1 0x1 SWAP4 PUSH1 0x3F NOT DUP7 DUP3 SUB ADD DUP9 MSTORE DUP12 MLOAD PUSH2 0x554B DUP2 MLOAD PUSH1 0x80 DUP1 DUP6 MSTORE DUP5 ADD SWAP1 PUSH2 0x50F5 JUMP JUMPDEST SWAP2 DUP5 DUP3 ADD MLOAD DUP6 DUP3 ADD MSTORE DUP9 DUP3 ADD MLOAD DUP10 DUP3 ADD MSTORE PUSH1 0x60 DUP1 SWAP3 ADD MLOAD SWAP2 DUP2 DUP5 SUB SWAP2 ADD MSTORE PUSH2 0x50F5 JUMP JUMPDEST SWAP10 ADD SWAP5 ADD SWAP5 ADD SWAP3 SWAP6 SWAP5 SWAP4 SWAP2 SWAP1 PUSH2 0x550E JUMP JUMPDEST PUSH1 0x20 DUP1 DUP3 ADD SWAP1 DUP1 DUP4 MSTORE DUP4 MLOAD DUP1 SWAP3 MSTORE PUSH1 0x40 SWAP3 DUP4 DUP2 ADD DUP3 DUP6 DUP6 PUSH1 0x5 SHL DUP5 ADD ADD SWAP7 ADD SWAP5 PUSH1 0x0 SWAP3 JUMPDEST DUP6 DUP5 LT PUSH2 0x55B4 JUMPI POP POP POP POP POP POP POP SWAP1 JUMP JUMPDEST SWAP1 SWAP2 SWAP3 SWAP4 SWAP5 SWAP6 SWAP7 DUP6 DUP1 PUSH2 0x5658 PUSH1 0x1 SWAP4 PUSH1 0x3F NOT DUP7 DUP3 SUB ADD DUP9 MSTORE DUP12 MLOAD DUP1 MLOAD DUP3 MSTORE PUSH2 0x5645 PUSH2 0x5632 PUSH2 0x561F PUSH2 0x55F2 DUP8 DUP6 ADD MLOAD PUSH2 0x100 DUP1 DUP11 DUP10 ADD MSTORE DUP8 ADD SWAP1 PUSH2 0x50F5 JUMP JUMPDEST DUP12 DUP6 ADD MLOAD DUP13 DUP8 ADD MSTORE PUSH2 0x560C PUSH1 0x60 DUP1 DUP8 ADD MLOAD SWAP1 DUP9 ADD SWAP1 PUSH2 0x53A9 JUMP JUMPDEST PUSH1 0x80 DUP1 DUP7 ADD MLOAD SWAP1 DUP8 DUP4 SUB SWAP1 DUP9 ADD MSTORE PUSH2 0x50F5 JUMP JUMPDEST PUSH1 0xA0 DUP1 DUP6 ADD MLOAD SWAP1 DUP7 DUP4 SUB SWAP1 DUP8 ADD MSTORE PUSH2 0x50F5 JUMP JUMPDEST PUSH1 0xC0 DUP1 DUP5 ADD MLOAD SWAP1 DUP6 DUP4 SUB SWAP1 DUP7 ADD MSTORE PUSH2 0x50F5 JUMP JUMPDEST SWAP2 PUSH1 0xE0 DUP1 SWAP3 ADD MLOAD SWAP2 DUP2 DUP5 SUB SWAP2 ADD MSTORE PUSH2 0x50F5 JUMP JUMPDEST SWAP10 ADD SWAP5 ADD SWAP5 ADD SWAP3 SWAP6 SWAP5 SWAP4 SWAP2 SWAP1 PUSH2 0x55A3 JUMP JUMPDEST SWAP1 PUSH1 0x5 DUP3 LT ISZERO PUSH2 0x598 JUMPI MSTORE JUMP JUMPDEST ISZERO PUSH2 0x567D JUMPI JUMP JUMPDEST PUSH1 0x40 MLOAD PUSH3 0x461BCD PUSH1 0xE5 SHL DUP2 MSTORE PUSH1 0x20 PUSH1 0x4 DUP3 ADD MSTORE PUSH1 0x15 PUSH1 0x24 DUP3 ADD MSTORE PUSH21 0x24B73B30B634B21020B0B23430B910373AB6B132B9 PUSH1 0x59 SHL PUSH1 0x44 DUP3 ADD MSTORE PUSH1 0x64 SWAP1 REVERT JUMPDEST PUSH2 0x56D2 SWAP1 PUSH1 0x20 PUSH1 0x40 MLOAD SWAP3 DUP3 DUP5 DUP1 SWAP5 MLOAD SWAP4 DUP5 SWAP3 ADD PUSH2 0x50D2 JUMP JUMPDEST DUP2 ADD SUB SWAP1 KECCAK256 SWAP1 JUMP JUMPDEST ISZERO PUSH2 0x56E1 JUMPI JUMP JUMPDEST PUSH1 0x40 MLOAD PUSH3 0x461BCD PUSH1 0xE5 SHL DUP2 MSTORE PUSH1 0x20 PUSH1 0x4 DUP3 ADD MSTORE PUSH1 0xC PUSH1 0x24 DUP3 ADD MSTORE PUSH12 0x155B985D5D1A1BDC9A5E9959 PUSH1 0xA2 SHL PUSH1 0x44 DUP3 ADD MSTORE PUSH1 0x64 SWAP1 REVERT JUMPDEST PUSH1 0x0 NOT DUP2 EQ PUSH2 0x288 JUMPI PUSH1 0x1 ADD SWAP1 JUMP JUMPDEST ISZERO PUSH2 0x572B JUMPI JUMP JUMPDEST PUSH1 0x40 MLOAD PUSH3 0x461BCD PUSH1 0xE5 SHL DUP2 MSTORE PUSH1 0x20 PUSH1 0x4 DUP3 ADD MSTORE PUSH1 0xE PUSH1 0x24 DUP3 ADD MSTORE PUSH14 0x139BDD08185D5D1A1BDC9A5E9959 PUSH1 0x92 SHL PUSH1 0x44 DUP3 ADD MSTORE PUSH1 0x64 SWAP1 REVERT JUMPDEST PUSH1 0x7 SLOAD DUP2 LT ISZERO PUSH2 0x20D9 JUMPI PUSH1 0x5 SWAP1 PUSH1 0x7 PUSH1 0x0 MSTORE MUL PUSH32 0xA66CC928B5EDB82AF9BD49922954155AB7B0942694BEA4CE44661D9A8736C688 ADD SWAP1 PUSH1 0x0 SWAP1 JUMP JUMPDEST PUSH1 0x1 PUSH1 0x1 PUSH1 0x40 SHL SUB DUP2 GT PUSH2 0xA2A JUMPI PUSH1 0x5 SHL PUSH1 0x20 ADD SWAP1 JUMP JUMPDEST DUP1 MLOAD DUP3 LT ISZERO PUSH2 0x20D9 JUMPI PUSH1 0x20 SWAP2 PUSH1 0x5 SHL ADD ADD SWAP1 JUMP JUMPDEST PUSH1 0x0 SWAP2 PUSH1 0x1 DUP1 PUSH1 0xA0 SHL SUB AND DUP1 DUP4 MSTORE PUSH1 0x20 SWAP1 PUSH1 0x6 DUP3 MSTORE PUSH1 0xFF PUSH1 0x40 DUP6 KECCAK256 SLOAD AND PUSH1 0x5 DUP2 LT ISZERO PUSH2 0x58B4 JUMPI PUSH1 0x3 DUP2 EQ PUSH2 0x585E JUMPI PUSH1 0x2 DUP2 EQ PUSH2 0x5898 JUMPI PUSH1 0x1 DUP2 EQ DUP1 PUSH2 0x5868 JUMPI JUMPDEST PUSH2 0x585E JUMPI PUSH1 0x4 EQ DUP5 DUP2 PUSH2 0x583C JUMPI JUMPDEST POP PUSH2 0x5820 JUMPI POP POP POP SWAP1 JUMP JUMPDEST DUP4 PUSH1 0x12 PUSH2 0x5837 SWAP5 SWAP4 PUSH1 0x40 SWAP4 PUSH1 0xFF SWAP8 MSTORE MSTORE KECCAK256 SWAP1 PUSH2 0x543D JUMP JUMPDEST SLOAD AND SWAP1 JUMP JUMPDEST SWAP1 POP PUSH2 0x584A JUMPI PUSH1 0x0 DUP5 PUSH2 0x5815 JUMP JUMPDEST PUSH4 0x4E487B71 PUSH1 0xE0 SHL DUP5 MSTORE PUSH1 0x21 PUSH1 0x4 MSTORE PUSH1 0x24 DUP5 REVERT JUMPDEST POP POP POP POP POP PUSH1 0x1 SWAP1 JUMP JUMPDEST POP DUP2 DUP6 MSTORE PUSH1 0x13 DUP4 MSTORE PUSH2 0x3E2 PUSH2 0x5886 PUSH1 0x40 DUP8 KECCAK256 PUSH1 0x40 MLOAD SWAP3 DUP4 DUP1 SWAP3 PUSH2 0x526A JUMP JUMPDEST DUP4 DUP2 MLOAD SWAP2 ADD KECCAK256 DUP5 MLOAD DUP5 DUP7 ADD KECCAK256 EQ PUSH2 0x5807 JUMP JUMPDEST POP PUSH2 0x5837 SWAP3 SWAP2 PUSH1 0x11 SWAP2 PUSH1 0xFF SWAP6 POP PUSH1 0x0 MSTORE MSTORE PUSH1 0x40 PUSH1 0x0 KECCAK256 SWAP1 PUSH2 0x543D JUMP JUMPDEST PUSH4 0x4E487B71 PUSH1 0xE0 SHL DUP6 MSTORE PUSH1 0x21 PUSH1 0x4 MSTORE PUSH1 0x24 DUP6 REVERT JUMPDEST PUSH1 0x0 SWAP2 PUSH1 0x1 DUP1 PUSH1 0xA0 SHL SUB AND DUP1 DUP4 MSTORE PUSH1 0x6 PUSH1 0x20 MSTORE PUSH1 0xFF PUSH1 0x40 DUP5 KECCAK256 SLOAD AND PUSH1 0x5 DUP2 LT ISZERO PUSH2 0x584A JUMPI PUSH1 0x3 DUP2 EQ PUSH2 0x5958 JUMPI PUSH1 0x2 DUP2 EQ PUSH2 0x5958 JUMPI PUSH1 0x1 DUP2 EQ DUP1 PUSH2 0x5961 JUMPI JUMPDEST PUSH2 0x5958 JUMPI PUSH1 0x4 EQ DUP4 DUP2 PUSH2 0x5936 JUMPI JUMPDEST POP PUSH2 0x591E JUMPI POP POP SWAP1 JUMP JUMPDEST SWAP1 PUSH1 0x40 DUP4 PUSH2 0x5837 SWAP4 PUSH1 0xFF SWAP6 MSTORE PUSH1 0x12 PUSH1 0x20 MSTORE KECCAK256 SWAP1 PUSH2 0x543D JUMP JUMPDEST SWAP1 POP PUSH2 0x5944 JUMPI PUSH1 0x1 DUP4 PUSH2 0x5914 JUMP JUMPDEST PUSH4 0x4E487B71 PUSH1 0xE0 SHL DUP4 MSTORE PUSH1 0x21 PUSH1 0x4 MSTORE PUSH1 0x24 DUP4 REVERT JUMPDEST POP POP POP POP PUSH1 0x1 SWAP1 JUMP JUMPDEST POP DUP2 DUP5 MSTORE PUSH1 0x13 PUSH1 0x20 MSTORE PUSH2 0x3E2 PUSH2 0x5980 PUSH1 0x40 DUP7 KECCAK256 PUSH1 0x40 MLOAD SWAP3 DUP4 DUP1 SWAP3 PUSH2 0x526A JUMP JUMPDEST PUSH1 0x20 DUP2 MLOAD SWAP2 ADD KECCAK256 DUP4 MLOAD PUSH1 0x20 DUP6 ADD KECCAK256 EQ PUSH2 0x5906 JUMP JUMPDEST ISZERO PUSH2 0x599B JUMPI JUMP JUMPDEST PUSH1 0x40 MLOAD PUSH3 0x461BCD PUSH1 0xE5 SHL DUP2 MSTORE PUSH1 0x20 PUSH1 0x4 DUP3 ADD MSTORE PUSH1 0x11 PUSH1 0x24 DUP3 ADD MSTORE PUSH17 0x556E617574686F72697A656420726F6C65 PUSH1 0x78 SHL PUSH1 0x44 DUP3 ADD MSTORE PUSH1 0x64 SWAP1 REVERT JUMPDEST SWAP1 SWAP2 PUSH2 0x59EB PUSH2 0x54E7 SWAP4 PUSH1 0x40 DUP5 MSTORE PUSH1 0x40 DUP5 ADD SWAP1 PUSH2 0x50F5 JUMP JUMPDEST SWAP2 PUSH1 0x20 DUP2 DUP5 SUB SWAP2 ADD MSTORE PUSH2 0x50F5 JUMP JUMPDEST ISZERO PUSH2 0x5A00 JUMPI JUMP JUMPDEST PUSH1 0x40 MLOAD PUSH3 0x461BCD PUSH1 0xE5 SHL DUP2 MSTORE PUSH1 0x20 PUSH1 0x4 DUP3 ADD MSTORE PUSH1 0x13 PUSH1 0x24 DUP3 ADD MSTORE PUSH19 0x556E617574686F72697A656420616363657373 PUSH1 0x68 SHL PUSH1 0x44 DUP3 ADD MSTORE PUSH1 0x64 SWAP1 REVERT JUMPDEST PUSH1 0x40 MLOAD SWAP1 PUSH2 0x5A48 DUP3 PUSH2 0x536D JUMP JUMPDEST PUSH1 0xD DUP3 MSTORE PUSH13 0x5265636F726420416363657373 PUSH1 0x98 SHL PUSH1 0x20 DUP4 ADD MSTORE JUMP JUMPDEST SWAP1 PUSH1 0x40 MLOAD PUSH2 0x5A71 DUP2 PUSH2 0x5352 JUMP JUMPDEST PUSH1 0x1 DUP1 PUSH1 0xA0 SHL SUB DUP1 SWAP3 AND SWAP5 DUP6 DUP3 MSTORE PUSH1 0x20 DUP3 ADD DUP5 DUP2 MSTORE PUSH1 0x40 DUP4 ADD SWAP1 TIMESTAMP DUP3 MSTORE PUSH1 0x60 DUP5 ADD SWAP3 DUP8 DUP5 MSTORE ISZERO ISZERO PUSH1 0x80 DUP6 ADD MSTORE PUSH1 0x7 SLOAD PUSH1 0x1 PUSH1 0x40 SHL DUP2 LT ISZERO PUSH2 0xA2A JUMPI DUP1 PUSH1 0x1 PUSH2 0x5ABC SWAP3 ADD PUSH1 0x7 SSTORE PUSH2 0x5761 JUMP JUMPDEST SWAP6 SWAP1 SWAP6 PUSH2 0x390D JUMPI DUP5 MLOAD AND PUSH1 0x1 PUSH1 0x1 PUSH1 0x60 SHL SUB PUSH1 0xA0 SHL DUP7 SLOAD AND OR DUP6 SSTORE MLOAD SWAP1 DUP2 MLOAD PUSH1 0x1 PUSH1 0x1 PUSH1 0x40 SHL SUB DUP2 GT PUSH2 0xA2A JUMPI DUP1 PUSH2 0x5AF7 PUSH1 0x1 DUP9 ADD SLOAD PUSH2 0x5230 JUMP JUMPDEST SWAP4 PUSH1 0x1F SWAP5 DUP6 DUP2 GT PUSH2 0x5D34 JUMPI JUMPDEST POP PUSH1 0x20 SWAP1 DUP6 DUP4 GT PUSH1 0x1 EQ PUSH2 0x5CC2 JUMPI PUSH1 0x0 SWAP3 PUSH2 0x5CB7 JUMPI JUMPDEST POP POP DUP2 PUSH1 0x1 SHL SWAP2 PUSH1 0x0 NOT SWAP1 PUSH1 0x3 SHL SHR NOT AND OR PUSH1 0x1 DUP7 ADD SSTORE JUMPDEST MLOAD PUSH1 0x2 DUP6 ADD SSTORE PUSH1 0x3 DUP5 ADD SWAP2 MLOAD SWAP1 DUP2 MLOAD SWAP2 PUSH1 0x1 PUSH1 0x1 PUSH1 0x40 SHL SUB DUP4 GT PUSH2 0xA2A JUMPI PUSH2 0x5B59 DUP5 SLOAD PUSH2 0x5230 JUMP JUMPDEST DUP3 DUP2 GT PUSH2 0x5C72 JUMPI JUMPDEST POP PUSH1 0x20 SWAP2 DUP4 GT PUSH1 0x1 EQ PUSH2 0x5BEA JUMPI PUSH1 0x80 PUSH2 0x5BC5 SWAP6 PUSH1 0x0 DUP1 MLOAD PUSH1 0x20 PUSH2 0x60F1 DUP4 CODECOPY DUP2 MLOAD SWAP2 MSTORE SWAP9 SWAP6 DUP6 PUSH2 0x4BE1 SWAP7 PUSH2 0x5BDA SWAP11 SWAP7 PUSH1 0x4 SWAP7 PUSH1 0x0 SWAP3 PUSH2 0x5BDF JUMPI JUMPDEST POP POP DUP2 PUSH1 0x1 SHL SWAP2 PUSH1 0x0 NOT SWAP1 PUSH1 0x3 SHL SHR NOT AND OR SWAP1 SSTORE ADD MLOAD ISZERO ISZERO SWAP2 ADD SWAP1 PUSH1 0xFF DUP1 NOT DUP4 SLOAD AND SWAP2 ISZERO ISZERO AND OR SWAP1 SSTORE JUMP JUMPDEST SWAP3 PUSH1 0x40 MLOAD SWAP2 DUP3 SWAP2 PUSH1 0x20 DUP4 MSTORE PUSH1 0x20 DUP4 ADD SWAP1 PUSH2 0x50F5 JUMP JUMPDEST SUB SWAP1 LOG3 JUMP JUMPDEST ADD MLOAD SWAP1 POP CODESIZE DUP1 PUSH2 0x5B9A JUMP JUMPDEST SWAP1 PUSH1 0x1F NOT DUP4 AND SWAP2 DUP5 PUSH1 0x0 MSTORE PUSH1 0x20 PUSH1 0x0 KECCAK256 SWAP3 PUSH1 0x0 JUMPDEST DUP2 DUP2 LT PUSH2 0x5C5A JUMPI POP SWAP6 PUSH1 0x0 DUP1 MLOAD PUSH1 0x20 PUSH2 0x60F1 DUP4 CODECOPY DUP2 MLOAD SWAP2 MSTORE SWAP9 SWAP6 PUSH1 0x1 DUP7 PUSH2 0x5BDA SWAP11 SWAP7 PUSH1 0x4 SWAP7 PUSH1 0x80 SWAP7 PUSH2 0x4BE1 SWAP11 PUSH2 0x5BC5 SWAP14 LT PUSH2 0x5C41 JUMPI JUMPDEST POP POP POP DUP2 SHL ADD SWAP1 SSTORE PUSH2 0x366F JUMP JUMPDEST ADD MLOAD PUSH1 0x0 NOT PUSH1 0xF8 DUP5 PUSH1 0x3 SHL AND SHR NOT AND SWAP1 SSTORE CODESIZE DUP1 DUP1 PUSH2 0x5C34 JUMP JUMPDEST SWAP3 SWAP4 PUSH1 0x20 PUSH1 0x1 DUP2 SWAP3 DUP8 DUP7 ADD MLOAD DUP2 SSTORE ADD SWAP6 ADD SWAP4 ADD PUSH2 0x5BFE JUMP JUMPDEST DUP5 PUSH1 0x0 MSTORE PUSH1 0x20 PUSH1 0x0 KECCAK256 DUP4 DUP1 DUP7 ADD PUSH1 0x5 SHR DUP3 ADD SWAP3 PUSH1 0x20 DUP8 LT PUSH2 0x5CAE JUMPI JUMPDEST ADD PUSH1 0x5 SHR ADD SWAP1 JUMPDEST DUP2 DUP2 LT PUSH2 0x5CA2 JUMPI POP PUSH2 0x5B61 JUMP JUMPDEST PUSH1 0x0 DUP2 SSTORE PUSH1 0x1 ADD PUSH2 0x5C95 JUMP JUMPDEST SWAP3 POP DUP2 SWAP3 PUSH2 0x5C8E JUMP JUMPDEST ADD MLOAD SWAP1 POP CODESIZE DUP1 PUSH2 0x5B19 JUMP JUMPDEST SWAP3 POP PUSH1 0x1 DUP9 ADD PUSH1 0x0 MSTORE PUSH1 0x20 PUSH1 0x0 KECCAK256 SWAP1 PUSH1 0x0 SWAP4 JUMPDEST PUSH1 0x1F NOT DUP5 AND DUP6 LT PUSH2 0x5D19 JUMPI PUSH1 0x1 SWAP5 POP DUP4 PUSH1 0x1F NOT DUP2 AND LT PUSH2 0x5D00 JUMPI JUMPDEST POP POP POP DUP2 SHL ADD PUSH1 0x1 DUP7 ADD SSTORE PUSH2 0x5B31 JUMP JUMPDEST ADD MLOAD PUSH1 0x0 NOT PUSH1 0xF8 DUP5 PUSH1 0x3 SHL AND SHR NOT AND SWAP1 SSTORE CODESIZE DUP1 DUP1 PUSH2 0x5CF0 JUMP JUMPDEST DUP2 DUP2 ADD MLOAD DUP4 SSTORE PUSH1 0x20 SWAP5 DUP6 ADD SWAP5 PUSH1 0x1 SWAP1 SWAP4 ADD SWAP3 SWAP1 SWAP2 ADD SWAP1 PUSH2 0x5CD5 JUMP JUMPDEST SWAP1 SWAP2 POP PUSH1 0x0 PUSH1 0x1 DUP10 ADD DUP2 MSTORE PUSH1 0x20 DUP2 KECCAK256 DUP7 DUP1 DUP7 ADD PUSH1 0x5 SHR DUP3 ADD SWAP4 PUSH1 0x20 DUP8 LT PUSH2 0x5D80 JUMPI JUMPDEST SWAP1 DUP7 SWAP6 SWAP5 SWAP4 SWAP3 SWAP2 ADD PUSH1 0x5 SHR ADD SWAP2 JUMPDEST DUP3 DUP2 LT PUSH2 0x5D72 JUMPI POP POP PUSH2 0x5B03 JUMP JUMPDEST DUP2 DUP2 SSTORE DUP6 SWAP5 POP PUSH1 0x1 ADD PUSH2 0x5D64 JUMP JUMPDEST SWAP4 POP DUP2 SWAP4 PUSH2 0x5D56 JUMP JUMPDEST PUSH1 0x3 DUP3 LT ISZERO PUSH2 0x598 JUMPI MSTORE JUMP JUMPDEST SWAP1 PUSH1 0x3 DUP2 LT ISZERO PUSH2 0x598 JUMPI PUSH1 0xFF DUP1 NOT DUP4 SLOAD AND SWAP2 AND OR SWAP1 SSTORE JUMP JUMPDEST DUP1 SLOAD PUSH1 0x1 PUSH1 0x40 SHL DUP2 LT ISZERO PUSH2 0xA2A JUMPI PUSH2 0x5DCA SWAP2 PUSH1 0x1 DUP3 ADD DUP2 SSTORE PUSH2 0x5218 JUMP JUMPDEST DUP2 SWAP3 SWAP2 SLOAD SWAP1 PUSH1 0x3 SHL SWAP2 DUP3 SHL SWAP2 PUSH1 0x0 NOT SWAP1 SHL NOT AND OR SWAP1 SSTORE JUMP JUMPDEST SWAP1 PUSH2 0x5DEC DUP3 PUSH2 0x579C JUMP JUMPDEST PUSH1 0x40 SWAP1 PUSH2 0x5DFB DUP3 MLOAD SWAP2 DUP3 PUSH2 0x5388 JUMP JUMPDEST DUP4 DUP2 MSTORE DUP1 SWAP4 PUSH2 0x5E0C PUSH1 0x1F NOT SWAP2 PUSH2 0x579C JUMP JUMPDEST ADD SWAP2 PUSH1 0x0 SWAP2 DUP3 JUMPDEST DUP5 DUP2 LT PUSH2 0x5E21 JUMPI POP POP POP POP POP JUMP JUMPDEST PUSH1 0x20 SWAP1 DUP4 MLOAD PUSH2 0x5E2F DUP2 PUSH2 0x5300 JUMP JUMPDEST DUP6 DUP2 MSTORE PUSH1 0x60 DUP4 SWAP1 DUP1 DUP3 DUP5 ADD MSTORE DUP8 DUP8 DUP5 ADD MSTORE DUP8 DUP2 DUP5 ADD MSTORE DUP1 PUSH1 0x80 DUP5 ADD MSTORE DUP1 PUSH1 0xA0 DUP5 ADD MSTORE DUP1 PUSH1 0xC0 DUP5 ADD MSTORE PUSH1 0xE0 DUP4 ADD MSTORE DUP3 DUP6 ADD ADD MSTORE ADD PUSH2 0x5E13 JUMP JUMPDEST DUP1 SLOAD DUP3 LT ISZERO PUSH2 0x20D9 JUMPI PUSH1 0x0 MSTORE PUSH1 0x20 PUSH1 0x0 KECCAK256 SWAP1 PUSH1 0x2 SHL ADD SWAP1 PUSH1 0x0 SWAP1 JUMP JUMPDEST DUP1 SLOAD PUSH1 0x1 PUSH1 0x40 SHL DUP2 LT ISZERO PUSH2 0xA2A JUMPI PUSH2 0x5EA2 SWAP1 PUSH1 0x1 SWAP3 DUP4 DUP3 ADD DUP2 SSTORE PUSH2 0x5E67 JUMP JUMPDEST PUSH2 0x390D JUMPI DUP3 MLOAD DUP1 MLOAD SWAP2 PUSH1 0x1 PUSH1 0x1 PUSH1 0x40 SHL SUB SWAP3 DUP4 DUP2 GT PUSH2 0xA2A JUMPI PUSH2 0x5EC5 DUP3 SLOAD PUSH2 0x5230 JUMP JUMPDEST SWAP3 PUSH1 0x1F SWAP4 DUP5 DUP2 GT PUSH2 0x608C JUMPI JUMPDEST POP PUSH1 0x20 SWAP1 DUP5 DUP4 GT PUSH1 0x1 EQ PUSH2 0x6020 JUMPI SWAP2 DUP1 PUSH1 0x60 SWAP5 SWAP3 PUSH1 0x3 SWAP5 PUSH1 0x0 SWAP3 PUSH2 0x6015 JUMPI JUMPDEST POP POP PUSH1 0x0 NOT DUP3 DUP6 SHL SHR NOT AND SWAP1 DUP8 SHL OR DUP2 SSTORE JUMPDEST PUSH1 0x20 DUP8 ADD MLOAD DUP7 DUP3 ADD SSTORE PUSH1 0x40 DUP8 ADD MLOAD PUSH1 0x2 DUP3 ADD SSTORE ADD SWAP5 ADD MLOAD DUP1 MLOAD SWAP3 DUP4 GT PUSH2 0xA2A JUMPI PUSH2 0x5F2C DUP6 SLOAD PUSH2 0x5230 JUMP JUMPDEST DUP3 DUP2 GT PUSH2 0x5FCD JUMPI JUMPDEST POP PUSH1 0x20 SWAP2 DUP4 GT PUSH1 0x1 EQ PUSH2 0x5F6D JUMPI SWAP3 DUP3 SWAP4 SWAP2 DUP4 SWAP3 PUSH1 0x0 SWAP5 PUSH2 0x5F62 JUMPI JUMPDEST POP POP SHL SWAP2 PUSH1 0x0 NOT SWAP1 PUSH1 0x3 SHL SHR NOT AND OR SWAP1 SSTORE JUMP JUMPDEST ADD MLOAD SWAP3 POP CODESIZE DUP1 PUSH2 0x5F4F JUMP JUMPDEST SWAP1 PUSH1 0x1F NOT DUP4 AND SWAP2 DUP6 PUSH1 0x0 MSTORE DUP4 DUP3 PUSH1 0x0 KECCAK256 SWAP4 PUSH1 0x0 JUMPDEST DUP8 DUP3 DUP3 LT PUSH2 0x5FB4 JUMPI POP POP LT PUSH2 0x5F9B JUMPI JUMPDEST POP POP POP DUP2 SHL ADD SWAP1 SSTORE JUMP JUMPDEST ADD MLOAD PUSH1 0x0 NOT PUSH1 0xF8 DUP5 PUSH1 0x3 SHL AND SHR NOT AND SWAP1 SSTORE CODESIZE DUP1 DUP1 PUSH2 0x5F91 JUMP JUMPDEST DUP5 DUP7 ADD MLOAD DUP8 SSTORE SWAP1 SWAP6 ADD SWAP5 PUSH1 0x20 SWAP5 DUP6 ADD SWAP5 DUP8 SWAP4 POP ADD PUSH2 0x5F81 JUMP JUMPDEST DUP6 PUSH1 0x0 MSTORE PUSH1 0x20 PUSH1 0x0 KECCAK256 DUP4 DUP1 DUP7 ADD PUSH1 0x5 SHR DUP3 ADD SWAP3 PUSH1 0x20 DUP8 LT PUSH2 0x600C JUMPI JUMPDEST ADD PUSH1 0x5 SHR ADD SWAP1 DUP6 SWAP1 JUMPDEST DUP3 DUP2 LT PUSH2 0x6000 JUMPI POP POP PUSH2 0x5F34 JUMP JUMPDEST PUSH1 0x0 DUP2 SSTORE ADD DUP6 SWAP1 PUSH2 0x5FF2 JUMP JUMPDEST SWAP3 POP DUP2 SWAP3 PUSH2 0x5FE9 JUMP JUMPDEST ADD MLOAD SWAP1 POP CODESIZE DUP1 PUSH2 0x5EF0 JUMP JUMPDEST DUP7 SWAP3 SWAP2 PUSH1 0x1F NOT DUP4 AND SWAP2 DUP6 PUSH1 0x0 MSTORE DUP2 PUSH1 0x0 KECCAK256 SWAP3 PUSH1 0x0 JUMPDEST DUP2 DUP2 LT PUSH2 0x6074 JUMPI POP SWAP2 PUSH1 0x3 SWAP6 SWAP4 SWAP2 DUP6 PUSH1 0x60 SWAP9 SWAP7 SWAP5 LT PUSH2 0x605C JUMPI JUMPDEST POP POP POP DUP2 SHL ADD DUP2 SSTORE PUSH2 0x5F02 JUMP JUMPDEST ADD MLOAD PUSH1 0x0 NOT DUP4 DUP8 SHL PUSH1 0xF8 AND SHR NOT AND SWAP1 SSTORE CODESIZE DUP1 DUP1 PUSH2 0x604F JUMP JUMPDEST DUP3 DUP5 ADD MLOAD DUP6 SSTORE DUP11 SWAP7 SWAP1 SWAP5 ADD SWAP4 PUSH1 0x20 SWAP4 DUP5 ADD SWAP4 ADD PUSH2 0x6035 JUMP JUMPDEST PUSH1 0x0 DUP5 DUP2 MSTORE PUSH1 0x20 DUP2 KECCAK256 DUP7 DUP1 DUP7 ADD PUSH1 0x5 SHR DUP3 ADD SWAP4 PUSH1 0x20 DUP8 LT PUSH2 0x60CB JUMPI JUMPDEST ADD PUSH1 0x5 SHR ADD SWAP2 DUP9 SWAP1 JUMPDEST DUP4 DUP2 LT PUSH2 0x60C0 JUMPI POP POP POP PUSH2 0x5ED1 JUMP JUMPDEST DUP3 DUP2 SSTORE ADD DUP9 SWAP1 PUSH2 0x60B1 JUMP JUMPDEST SWAP4 POP DUP2 SWAP4 PUSH2 0x60A8 JUMP JUMPDEST DUP1 SLOAD DUP3 LT ISZERO PUSH2 0x20D9 JUMPI PUSH1 0x0 MSTORE PUSH1 0x6 PUSH1 0x20 PUSH1 0x0 KECCAK256 SWAP2 MUL ADD SWAP1 PUSH1 0x0 SWAP1 JUMP INVALID ADDRESS DUP1 0xB8 0xB7 DUP9 DUP12 SELFDESTRUCT 0x2F 0xD8 SWAP11 0xE8 0x26 PREVRANDAO 0x23 SWAP6 MSTORE8 MULMOD GASLIMIT 0xD5 PUSH20 0x3B453CBC662B1EC33780DC2DB10E2D527612073B 0x26 0xEE 0xCD REVERT PUSH18 0x7E6A320CF44B4AFAC2B0732D9FCBE2B7FA0C REVERT 0xB1 0xE 0x2D MSTORE PUSH23 0x12073B26EECDFD717E6A320CF44B4AFAC2B0732D9FCBE2 0xB7 STATICCALL 0xC STATICCALL 0xB1 0xE 0x2D MSTORE PUSH23 0x12073B26EECDFD717E6A320CF44B4AFAC2B0732D9FCBE2 0xB7 STATICCALL 0xC 0xF8 0xB1 0xE 0x2D MSTORE PUSH23 0x12073B26EECDFD717E6A320CF44B4AFAC2B0732D9FCBE2 0xB7 STATICCALL 0xC 0xF7 0xB1 0xE 0x2D MSTORE PUSH23 0x12073B26EECDFD717E6A320CF44B4AFAC2B0732D9FCBE2 0xB7 STATICCALL 0xC 0xF9 LOG2 PUSH5 0x6970667358 0x22 SLT KECCAK256 RETURNDATASIZE GASPRICE XOR SWAP1 0xD8 SWAP10 DUP4 0xC8 DUP7 0xFB 0xB3 PUSH25 0x61171555D5994ABE37182CAC302EC591F90F388364736F6C63 NUMBER STOP ADDMOD SGT STOP CALLER "},"methodIdentifiers":{"activateEmergencyAccess(string)":"d7222cdc","addEmergencyContact(string,address)":"18892a1a","addHealthMetric(string,string,uint256,string)":"882d763b","addPrescription(string,string,string,string,string)":"73bd0b68","appointments(uint256)":"12dc9013","deactivateEmergencyAccess(string)":"c5555424","doctorAppointments(address,uint256)":"57cd46f5","doctors(address)":"a9583c22","getAccessLogs(string)":"4bc19d34","getAllPrescriptions()":"0163e4f8","getDoctorAppointments(address)":"c5598c91","getHealthAlerts(string)":"52be3b21","getHealthCoins(string)":"9a5a34f7","getHealthMetrics(string)":"f24af6e8","getHealthMetrics(string,string)":"3a2a3b1b","getHospitalAppointments(address)":"8adfcd6a","getMedicationTracking(string)":"7cc2e92b","getPatientAppointments(string)":"776dac47","getPrescriptions(string)":"931126e9","grantAccess(string,address,uint8)":"402ab614","healthCoins(string)":"30b84026","hospitalAppointments(address,uint256)":"068884d7","patientAppointments(string,uint256)":"1453e51f","redeemHealthCoins(string,uint256)":"fd189b3c","registerDoctor(address,string,string)":"53d08ef4","registerHospital(address)":"c5b99858","registerPatient(string)":"869c9eaf","registeredHospitals(address)":"26fc9787","resolveHealthAlert(string,uint256)":"3ff9b87b","revokeAccess(string,address)":"dfe0b5fe","roles(address)":"99374642","scheduleAppointment(string,uint256,string,string,string,string)":"27627bf3","stopMedication(string,string)":"f121477d","updateAppointmentStatus(uint256,uint8)":"068a423b","updateMedicationTracking(string,string,string,string)":"2d7b3e67"}}}}}