{"contracts/HealthcareSystem.sol":{"HealthcareSystem":{"abi":[{"inputs":[],"stateMutability":"nonpayable","type":"constructor"},{"anonymous":false,"inputs":[{"indexed":true,"internalType":"string","name":"patientAadhar","type":"string"},{"indexed":true,"internalType":"address","name":"provider","type":"address"},{"indexed":false,"internalType":"enum HealthcareSystem.AccessLevel","name":"level","type":"uint8"}],"name":"AccessGranted","type":"event"},{"anonymous":false,"inputs":[{"indexed":true,"internalType":"string","name":"patientAadhar","type":"string"},{"indexed":true,"internalType":"address","name":"accessor","type":"address"},{"indexed":false,"internalType":"string","name":"action","type":"string"}],"name":"AccessLogAdded","type":"event"},{"anonymous":false,"inputs":[{"indexed":true,"internalType":"string","name":"patientAadhar","type":"string"},{"indexed":true,"internalType":"address","name":"provider","type":"address"}],"name":"AccessRevoked","type":"event"},{"anonymous":false,"inputs":[{"indexed":true,"internalType":"uint256","name":"appointmentId","type":"uint256"},{"indexed":false,"internalType":"string","name":"patientAadhar","type":"string"},{"indexed":false,"internalType":"address","name":"doctor","type":"address"}],"name":"AppointmentScheduled","type":"event"},{"anonymous":false,"inputs":[{"indexed":true,"internalType":"uint256","name":"appointmentId","type":"uint256"},{"indexed":false,"internalType":"enum HealthcareSystem.AppointmentStatus","name":"status","type":"uint8"}],"name":"AppointmentStatusUpdated","type":"event"},{"anonymous":false,"inputs":[{"indexed":true,"internalType":"address","name":"doctor","type":"address"},{"indexed":false,"internalType":"string","name":"name","type":"string"},{"indexed":false,"internalType":"string","name":"specialization","type":"string"}],"name":"DoctorRegistered","type":"event"},{"anonymous":false,"inputs":[{"indexed":true,"internalType":"string","name":"patientAadhar","type":"string"}],"name":"EmergencyAccessActivated","type":"event"},{"anonymous":false,"inputs":[{"indexed":true,"internalType":"string","name":"patientAadhar","type":"string"}],"name":"EmergencyAccessDeactivated","type":"event"},{"anonymous":false,"inputs":[{"indexed":true,"internalType":"string","name":"aadharNumber","type":"string"},{"indexed":false,"internalType":"string","name":"alertType","type":"string"}],"name":"HealthAlertCreated","type":"event"},{"anonymous":false,"inputs":[{"indexed":true,"internalType":"string","name":"aadharNumber","type":"string"},{"indexed":false,"internalType":"uint256","name":"amount","type":"uint256"}],"name":"HealthCoinsAwarded","type":"event"},{"anonymous":false,"inputs":[{"indexed":true,"internalType":"string","name":"aadharNumber","type":"string"},{"indexed":false,"internalType":"uint256","name":"amount","type":"uint256"}],"name":"HealthCoinsRedeemed","type":"event"},{"anonymous":false,"inputs":[{"indexed":true,"internalType":"string","name":"aadharNumber","type":"string"},{"indexed":false,"internalType":"string","name":"metricType","type":"string"},{"indexed":false,"internalType":"uint256","name":"value","type":"uint256"}],"name":"HealthMetricAdded","type":"event"},{"anonymous":false,"inputs":[{"indexed":true,"internalType":"string","name":"aadharNumber","type":"string"},{"indexed":false,"internalType":"string","name":"medication","type":"string"},{"indexed":false,"internalType":"string","name":"effectiveness","type":"string"}],"name":"MedicationTrackingUpdated","type":"event"},{"anonymous":false,"inputs":[{"indexed":true,"internalType":"string","name":"aadharNumber","type":"string"}],"name":"PatientRegistered","type":"event"},{"anonymous":false,"inputs":[{"indexed":true,"internalType":"uint256","name":"prescriptionId","type":"uint256"},{"indexed":true,"internalType":"string","name":"aadharNumber","type":"string"},{"indexed":true,"internalType":"address","name":"hospital","type":"address"}],"name":"PrescriptionAdded","type":"event"},{"inputs":[{"internalType":"string","name":"_patientAadhar","type":"string"}],"name":"activateEmergencyAccess","outputs":[],"stateMutability":"nonpayable","type":"function"},{"inputs":[{"internalType":"string","name":"_patientAadhar","type":"string"},{"internalType":"address","name":"_contact","type":"address"}],"name":"addEmergencyContact","outputs":[],"stateMutability":"nonpayable","type":"function"},{"inputs":[{"internalType":"string","name":"_patientAadhar","type":"string"},{"internalType":"string","name":"_metricType","type":"string"},{"internalType":"uint256","name":"_value","type":"uint256"},{"internalType":"string","name":"_notes","type":"string"}],"name":"addHealthMetric","outputs":[],"stateMutability":"nonpayable","type":"function"},{"inputs":[{"internalType":"string","name":"_patientAadhar","type":"string"},{"internalType":"string","name":"_diagnosis","type":"string"},{"internalType":"string","name":"_medicines","type":"string"},{"internalType":"string","name":"_notes","type":"string"},{"internalType":"string","name":"_hospitalName","type":"string"}],"name":"addPrescription","outputs":[],"stateMutability":"nonpayable","type":"function"},{"inputs":[{"internalType":"uint256","name":"","type":"uint256"}],"name":"appointments","outputs":[{"internalType":"uint256","name":"id","type":"uint256"},{"internalType":"string","name":"patientAadhar","type":"string"},{"internalType":"uint256","name":"timestamp","type":"uint256"},{"internalType":"enum HealthcareSystem.AppointmentStatus","name":"status","type":"uint8"},{"internalType":"string","name":"contactEmail","type":"string"},{"internalType":"string","name":"contactPhone","type":"string"},{"internalType":"string","name":"notes","type":"string"},{"internalType":"string","name":"department","type":"string"}],"stateMutability":"view","type":"function"},{"inputs":[{"internalType":"string","name":"_patientAadhar","type":"string"}],"name":"deactivateEmergencyAccess","outputs":[],"stateMutability":"nonpayable","type":"function"},{"inputs":[{"internalType":"address","name":"","type":"address"},{"internalType":"uint256","name":"","type":"uint256"}],"name":"doctorAppointments","outputs":[{"internalType":"uint256","name":"","type":"uint256"}],"stateMutability":"view","type":"function"},{"inputs":[{"internalType":"address","name":"","type":"address"}],"name":"doctors","outputs":[{"internalType":"string","name":"name","type":"string"},{"internalType":"string","name":"specialization","type":"string"},{"internalType":"bool","name":"isRegistered","type":"bool"},{"internalType":"enum HealthcareSystem.Role","name":"role","type":"uint8"},{"internalType":"uint256","name":"registeredAt","type":"uint256"}],"stateMutability":"view","type":"function"},{"inputs":[{"internalType":"string","name":"_patientAadhar","type":"string"}],"name":"getAccessLogs","outputs":[{"components":[{"internalType":"address","name":"accessor","type":"address"},{"internalType":"string","name":"patientAadhar","type":"string"},{"internalType":"uint256","name":"timestamp","type":"uint256"},{"internalType":"string","name":"action","type":"string"},{"internalType":"bool","name":"isEmergencyAccess","type":"bool"}],"internalType":"struct HealthcareSystem.AccessLog[]","name":"","type":"tuple[]"}],"stateMutability":"view","type":"function"},{"inputs":[],"name":"getAllPrescriptions","outputs":[{"components":[{"internalType":"uint256","name":"id","type":"uint256"},{"internalType":"string","name":"patientAadhar","type":"string"},{"internalType":"string","name":"diagnosis","type":"string"},{"internalType":"string","name":"medicines","type":"string"},{"internalType":"string","name":"notes","type":"string"},{"internalType":"uint256","name":"timestamp","type":"uint256"},{"internalType":"address","name":"hospital","type":"address"},{"internalType":"string","name":"hospitalName","type":"string"}],"internalType":"struct HealthcareSystem.Prescription[]","name":"","type":"tuple[]"}],"stateMutability":"view","type":"function"},{"inputs":[{"internalType":"address","name":"_doctor","type":"address"}],"name":"getDoctorAppointments","outputs":[{"components":[{"internalType":"uint256","name":"id","type":"uint256"},{"internalType":"string","name":"patientAadhar","type":"string"},{"internalType":"uint256","name":"timestamp","type":"uint256"},{"internalType":"enum HealthcareSystem.AppointmentStatus","name":"status","type":"uint8"},{"internalType":"string","name":"contactEmail","type":"string"},{"internalType":"string","name":"contactPhone","type":"string"},{"internalType":"string","name":"notes","type":"string"},{"internalType":"string","name":"department","type":"string"}],"internalType":"struct HealthcareSystem.Appointment[]","name":"","type":"tuple[]"}],"stateMutability":"view","type":"function"},{"inputs":[{"internalType":"string","name":"_patientAadhar","type":"string"}],"name":"getHealthAlerts","outputs":[{"components":[{"internalType":"string","name":"alertType","type":"string"},{"internalType":"string","name":"description","type":"string"},{"internalType":"uint256","name":"timestamp","type":"uint256"},{"internalType":"bool","name":"resolved","type":"bool"}],"internalType":"struct HealthcareSystem.HealthAlert[]","name":"","type":"tuple[]"}],"stateMutability":"view","type":"function"},{"inputs":[{"internalType":"string","name":"_aadharNumber","type":"string"}],"name":"getHealthCoins","outputs":[{"internalType":"uint256","name":"","type":"uint256"}],"stateMutability":"view","type":"function"},{"inputs":[{"internalType":"string","name":"_patientAadhar","type":"string"},{"internalType":"string","name":"_metricType","type":"string"}],"name":"getHealthMetrics","outputs":[{"components":[{"internalType":"string","name":"metricType","type":"string"},{"internalType":"uint256","name":"value","type":"uint256"},{"internalType":"uint256","name":"timestamp","type":"uint256"},{"internalType":"string","name":"notes","type":"string"}],"internalType":"struct HealthcareSystem.HealthMetric[]","name":"","type":"tuple[]"}],"stateMutability":"view","type":"function"},{"inputs":[{"internalType":"string","name":"_patientAadhar","type":"string"}],"name":"getHealthMetrics","outputs":[{"components":[{"internalType":"string","name":"metricType","type":"string"},{"internalType":"uint256","name":"value","type":"uint256"},{"internalType":"uint256","name":"timestamp","type":"uint256"},{"internalType":"string","name":"notes","type":"string"}],"internalType":"struct HealthcareSystem.HealthMetric[]","name":"","type":"tuple[]"}],"stateMutability":"view","type":"function"},{"inputs":[{"internalType":"address","name":"_hospital","type":"address"}],"name":"getHospitalAppointments","outputs":[{"components":[{"internalType":"uint256","name":"id","type":"uint256"},{"internalType":"string","name":"patientAadhar","type":"string"},{"internalType":"uint256","name":"timestamp","type":"uint256"},{"internalType":"enum HealthcareSystem.AppointmentStatus","name":"status","type":"uint8"},{"internalType":"string","name":"contactEmail","type":"string"},{"internalType":"string","name":"contactPhone","type":"string"},{"internalType":"string","name":"notes","type":"string"},{"internalType":"string","name":"department","type":"string"}],"internalType":"struct HealthcareSystem.Appointment[]","name":"","type":"tuple[]"}],"stateMutability":"view","type":"function"},{"inputs":[{"internalType":"string","name":"_patientAadhar","type":"string"}],"name":"getMedicationTracking","outputs":[{"components":[{"internalType":"string","name":"medication","type":"string"},{"internalType":"uint256","name":"startDate","type":"uint256"},{"internalType":"uint256","name":"endDate","type":"uint256"},{"internalType":"string","name":"effectiveness","type":"string"},{"internalType":"string","name":"sideEffects","type":"string"},{"internalType":"bool","name":"active","type":"bool"}],"internalType":"struct HealthcareSystem.MedicationTracking[]","name":"","type":"tuple[]"}],"stateMutability":"view","type":"function"},{"inputs":[{"internalType":"string","name":"_patientAadhar","type":"string"}],"name":"getPatientAppointments","outputs":[{"components":[{"internalType":"uint256","name":"id","type":"uint256"},{"internalType":"string","name":"patientAadhar","type":"string"},{"internalType":"uint256","name":"timestamp","type":"uint256"},{"internalType":"enum HealthcareSystem.AppointmentStatus","name":"status","type":"uint8"},{"internalType":"string","name":"contactEmail","type":"string"},{"internalType":"string","name":"contactPhone","type":"string"},{"internalType":"string","name":"notes","type":"string"},{"internalType":"string","name":"department","type":"string"}],"internalType":"struct HealthcareSystem.Appointment[]","name":"","type":"tuple[]"}],"stateMutability":"view","type":"function"},{"inputs":[{"internalType":"string","name":"_patientAadhar","type":"string"}],"name":"getPrescriptions","outputs":[{"components":[{"internalType":"uint256","name":"id","type":"uint256"},{"internalType":"string","name":"patientAadhar","type":"string"},{"internalType":"string","name":"diagnosis","type":"string"},{"internalType":"string","name":"medicines","type":"string"},{"internalType":"string","name":"notes","type":"string"},{"internalType":"uint256","name":"timestamp","type":"uint256"},{"internalType":"address","name":"hospital","type":"address"},{"internalType":"string","name":"hospitalName","type":"string"}],"internalType":"struct HealthcareSystem.Prescription[]","name":"","type":"tuple[]"}],"stateMutability":"view","type":"function"},{"inputs":[{"internalType":"string","name":"_patientAadhar","type":"string"},{"internalType":"address","name":"_provider","type":"address"},{"internalType":"enum HealthcareSystem.AccessLevel","name":"_level","type":"uint8"}],"name":"grantAccess","outputs":[],"stateMutability":"nonpayable","type":"function"},{"inputs":[{"internalType":"string","name":"","type":"string"}],"name":"healthCoins","outputs":[{"internalType":"uint256","name":"","type":"uint256"}],"stateMutability":"view","type":"function"},{"inputs":[{"internalType":"address","name":"","type":"address"},{"internalType":"uint256","name":"","type":"uint256"}],"name":"hospitalAppointments","outputs":[{"internalType":"uint256","name":"","type":"uint256"}],"stateMutability":"view","type":"function"},{"inputs":[{"internalType":"string","name":"","type":"string"},{"internalType":"uint256","name":"","type":"uint256"}],"name":"patientAppointments","outputs":[{"internalType":"uint256","name":"","type":"uint256"}],"stateMutability":"view","type":"function"},{"inputs":[{"internalType":"string","name":"_aadharNumber","type":"string"},{"internalType":"uint256","name":"_amount","type":"uint256"}],"name":"redeemHealthCoins","outputs":[],"stateMutability":"nonpayable","type":"function"},{"inputs":[{"internalType":"address","name":"_doctorAddress","type":"address"},{"internalType":"string","name":"_name","type":"string"},{"internalType":"string","name":"_specialization","type":"string"}],"name":"registerDoctor","outputs":[],"stateMutability":"nonpayable","type":"function"},{"inputs":[{"internalType":"address","name":"_hospital","type":"address"}],"name":"registerHospital","outputs":[],"stateMutability":"nonpayable","type":"function"},{"inputs":[{"internalType":"string","name":"_aadharNumber","type":"string"}],"name":"registerPatient","outputs":[],"stateMutability":"nonpayable","type":"function"},{"inputs":[{"internalType":"address","name":"","type":"address"}],"name":"registeredHospitals","outputs":[{"internalType":"bool","name":"","type":"bool"}],"stateMutability":"view","type":"function"},{"inputs":[{"internalType":"string","name":"_patientAadhar","type":"string"},{"internalType":"uint256","name":"_alertIndex","type":"uint256"}],"name":"resolveHealthAlert","outputs":[],"stateMutability":"nonpayable","type":"function"},{"inputs":[{"internalType":"string","name":"_patientAadhar","type":"string"},{"internalType":"address","name":"_provider","type":"address"}],"name":"revokeAccess","outputs":[],"stateMutability":"nonpayable","type":"function"},{"inputs":[{"internalType":"address","name":"","type":"address"}],"name":"roles","outputs":[{"internalType":"enum HealthcareSystem.Role","name":"","type":"uint8"}],"stateMutability":"view","type":"function"},{"inputs":[{"internalType":"string","name":"_patientAadhar","type":"string"},{"internalType":"uint256","name":"_timestamp","type":"uint256"},{"internalType":"string","name":"_contactEmail","type":"string"},{"internalType":"string","name":"_contactPhone","type":"string"},{"internalType":"string","name":"_notes","type":"string"},{"internalType":"string","name":"_department","type":"string"}],"name":"scheduleAppointment","outputs":[],"stateMutability":"nonpayable","type":"function"},{"inputs":[{"internalType":"string","name":"_patientAadhar","type":"string"},{"internalType":"string","name":"_medication","type":"string"}],"name":"stopMedication","outputs":[],"stateMutability":"nonpayable","type":"function"},{"inputs":[{"internalType":"uint256","name":"_appointmentId","type":"uint256"},{"internalType":"enum HealthcareSystem.AppointmentStatus","name":"_status","type":"uint8"}],"name":"updateAppointmentStatus","outputs":[],"stateMutability":"nonpayable","type":"function"},{"inputs":[{"internalType":"string","name":"_patientAadhar","type":"string"},{"internalType":"string","name":"_medication","type":"string"},{"internalType":"string","name":"_effectiveness","type":"string"},{"internalType":"string","name":"_sideEffects","type":"string"}],"name":"updateMedicationTracking","outputs":[],"stateMutability":"nonpayable","type":"function"}],"evm":{"bytecode":{"linkReferences":{},"object":"608060405234801561001057600080fd5b50336000908152600660209081526040808320805460ff199081166003908117909255925290912080549091166001179055615afe80620000526000396000f3fe608060405234801561001057600080fd5b50600436106102115760003560e01c806373bd0b6811610125578063a9583c22116100ad578063d7222cdc1161007c578063d7222cdc14610526578063dfe0b5fe14610539578063f121477d1461054c578063f24af6e81461055f578063fd189b3c1461057257600080fd5b8063a9583c22146104c9578063c5555424146104ed578063c5598c9114610500578063c5b998581461051357600080fd5b8063882d763b116100f4578063882d763b1461044d5780638adfcd6a14610460578063931126e91461047357806399374642146104865780639a5a34f7146104b657600080fd5b806373bd0b68146103e7578063776dac47146103fa5780637cc2e92b1461041a578063869c9eaf1461043a57600080fd5b80632d7b3e67116101a8578063402ab61411610177578063402ab6141461036e5780634bc19d341461038157806352be3b21146103a157806353d08ef4146103c157806357cd46f5146103d457600080fd5b80632d7b3e67146102fd57806330b84026146103105780633a2a3b1b1461033b5780633ff9b87b1461035b57600080fd5b80631453e51f116101e45780631453e51f1461029157806318892a1a146102a457806326fc9787146102b757806327627bf3146102ea57600080fd5b80630163e4f814610216578063068884d714610234578063068a423b1461025557806312dc90131461026a575b600080fd5b61021e610585565b60405161022b9190614b95565b60405180910390f35b610247610242366004614cbb565b6108ea565b60405190815260200161022b565b610268610263366004614ce5565b61091b565b005b61027d610278366004614d19565b610c22565b60405161022b989796959493929190614d5c565b61024761029f366004614e8a565b610f13565b6102686102b2366004614ece565b610f3e565b6102da6102c5366004614f1b565b60036020526000908152604090205460ff1681565b604051901515815260200161022b565b6102686102f8366004614f36565b61102e565b61026861030b36600461500f565b61134d565b61024761031e3660046150bb565b805160208183018101805160028252928201919093012091525481565b61034e6103493660046150f7565b611684565b60405161022b919061515a565b610268610369366004614e8a565b61187f565b61026861037c3660046151e8565b6119ce565b61039461038f3660046150bb565b611b11565b60405161022b919061524d565b6103b46103af3660046150bb565b611e5b565b60405161022b91906152f3565b6102686103cf366004615382565b612043565b6102476103e2366004614cbb565b612233565b6102686103f53660046153f5565b61224f565b61040d6104083660046150bb565b612666565b60405161022b91906154c6565b61042d6104283660046150bb565b612aac565b60405161022b91906155ba565b6102686104483660046150bb565b612d22565b61026861045b366004615670565b612e72565b61040d61046e366004614f1b565b613142565b61021e6104813660046150bb565b61354b565b6104a9610494366004614f1b565b60066020526000908152604090205460ff1681565b60405161022b91906156f8565b6102476104c43660046150bb565b6138c3565b6104dc6104d7366004614f1b565b613913565b60405161022b959493929190615706565b6102686104fb3660046150bb565b613a58565b61040d61050e366004614f1b565b613b50565b610268610521366004614f1b565b613f91565b6102686105343660046150bb565b61401e565b610268610547366004614ece565b614180565b61026861055a3660046150f7565b614290565b61034e61056d3660046150bb565b6144bb565b610268610580366004614e8a565b61468d565b60606001805480602002602001604051908101604052809291908181526020016000905b828210156108e1578382906000526020600020906008020160405180610100016040529081600082015481526020016001820180546105e790615753565b80601f016020809104026020016040519081016040528092919081815260200182805461061390615753565b80156106605780601f1061063557610100808354040283529160200191610660565b820191906000526020600020905b81548152906001019060200180831161064357829003601f168201915b5050505050815260200160028201805461067990615753565b80601f01602080910402602001604051908101604052809291908181526020018280546106a590615753565b80156106f25780601f106106c7576101008083540402835291602001916106f2565b820191906000526020600020905b8154815290600101906020018083116106d557829003601f168201915b5050505050815260200160038201805461070b90615753565b80601f016020809104026020016040519081016040528092919081815260200182805461073790615753565b80156107845780601f1061075957610100808354040283529160200191610784565b820191906000526020600020905b81548152906001019060200180831161076757829003601f168201915b5050505050815260200160048201805461079d90615753565b80601f01602080910402602001604051908101604052809291908181526020018280546107c990615753565b80156108165780601f106107eb57610100808354040283529160200191610816565b820191906000526020600020905b8154815290600101906020018083116107f957829003601f168201915b50505091835250506005820154602082015260068201546001600160a01b0316604082015260078201805460609092019161085090615753565b80601f016020809104026020016040519081016040528092919081815260200182805461087c90615753565b80156108c95780601f1061089e576101008083540402835291602001916108c9565b820191906000526020600020905b8154815290600101906020018083116108ac57829003601f168201915b505050505081525050815260200190600101906105a9565b50505050905090565b600c602052816000526040600020818154811061090657600080fd5b90600052602060002001600091509150505481565b600854821061096a5760405162461bcd60e51b8152602060048201526016602482015275125b9d985b1a5908185c1c1bda5b9d1b595b9d08125160521b60448201526064015b60405180910390fd5b600082815260096020526040812060018101805491929161098a90615753565b9050116109d95760405162461bcd60e51b815260206004820152601a60248201527f4170706f696e746d656e7420646f6573206e6f742065786973740000000000006044820152606401610961565b60023360009081526006602052604090205460ff1660048111156109ff576109ff614d32565b1480610a2e575060033360009081526006602052604090205460ff166004811115610a2c57610a2c614d32565b145b610aa05760405162461bcd60e51b815260206004820152603d60248201527f4f6e6c7920646f63746f7273206f7220686f73706974616c2061646d696e732060448201527f63616e20757064617465206170706f696e746d656e74207374617475730000006064820152608401610961565b60038101805483919060ff19166001836002811115610ac157610ac1614d32565b0217905550827fbfa90a4f3468c2e94521fb7cf539f022e2c0b69cfd0a24d63a1d775342c1af0483604051610af6919061578d565b60405180910390a26001826002811115610b1257610b12614d32565b03610b4f576064600282600101604051610b2c919061580e565b90815260200160405180910390206000828254610b499190615830565b90915550505b610c1d816001018054610b6190615753565b80601f0160208091040260200160405190810160405280929190818152602001828054610b8d90615753565b8015610bda5780601f10610baf57610100808354040283529160200191610bda565b820191906000526020600020905b815481529060010190602001808311610bbd57829003601f168201915b5050505050336040518060400160405280601981526020017f557064617465204170706f696e746d656e7420537461747573000000000000008152506000614805565b505050565b60096020526000908152604090208054600182018054919291610c4490615753565b80601f0160208091040260200160405190810160405280929190818152602001828054610c7090615753565b8015610cbd5780601f10610c9257610100808354040283529160200191610cbd565b820191906000526020600020905b815481529060010190602001808311610ca057829003601f168201915b50505050600283015460038401546004850180549495929460ff909216935090610ce690615753565b80601f0160208091040260200160405190810160405280929190818152602001828054610d1290615753565b8015610d5f5780601f10610d3457610100808354040283529160200191610d5f565b820191906000526020600020905b815481529060010190602001808311610d4257829003601f168201915b505050505090806005018054610d7490615753565b80601f0160208091040260200160405190810160405280929190818152602001828054610da090615753565b8015610ded5780601f10610dc257610100808354040283529160200191610ded565b820191906000526020600020905b815481529060010190602001808311610dd057829003601f168201915b505050505090806006018054610e0290615753565b80601f0160208091040260200160405190810160405280929190818152602001828054610e2e90615753565b8015610e7b5780601f10610e5057610100808354040283529160200191610e7b565b820191906000526020600020905b815481529060010190602001808311610e5e57829003601f168201915b505050505090806007018054610e9090615753565b80601f0160208091040260200160405190810160405280929190818152602001828054610ebc90615753565b8015610f095780601f10610ede57610100808354040283529160200191610f09565b820191906000526020600020905b815481529060010190602001808311610eec57829003601f168201915b5050505050905088565b8151602081840181018051600a82529282019185019190912091905280548290811061090657600080fd5b60013360009081526006602052604090205460ff166004811115610f6457610f64614d32565b148015610fa657508180519060200120600583604051610f849190615843565b908152604051908190036020018120610f9c9161580e565b6040518091039020145b610fc25760405162461bcd60e51b81526004016109619061585f565b600582604051610fd29190615843565b9081526040805160209281900383019020600301805460018101825560009182528382200180546001600160a01b0319166001600160a01b03959095169485179055928352600690915290208054600460ff1990911617905550565b85600261103c823383614957565b8061106957506005826040516110529190615843565b9081526040519081900360200190206004015460ff165b6110855760405162461bcd60e51b815260040161096190615885565b6110db82336040518060400160405280600d81526020016c5265636f72642041636365737360981b8152506005866040516110c09190615843565b9081526040519081900360200190206004015460ff16614805565b42871161112a5760405162461bcd60e51b815260206004820152601860248201527f496e76616c6964206170706f696e746d656e742074696d6500000000000000006044820152606401610961565b600880546000918261113b836158b2565b9190505590506040518061010001604052808281526020018a81526020018981526020016000600281111561117257611172614d32565b815260208082018a905260408083018a905260608301899052608090920187905260008481526009825291909120825181559082015160018201906111b79082615911565b506040820151816002015560608201518160030160006101000a81548160ff021916908360028111156111ec576111ec614d32565b0217905550608082015160048201906112059082615911565b5060a0820151600582019061121a9082615911565b5060c0820151600682019061122f9082615911565b5060e082015160078201906112449082615911565b50905050600a896040516112589190615843565b9081526040805191829003602090810183208054600181810183556000928352838320909101869055338252600c835292812080549384018155815220018290556032906002906112aa908c90615843565b908152602001604051809103902060008282546112c79190615830565b9250508190555061130789336040518060400160405280601481526020017314d8da19591d5b1948105c1c1bda5b9d1b595b9d60621b8152506000614805565b807fc7e62119d394eed933b5eda9911107f252ddd2c36d9737ddab518ec9e60eab988a600060405161133a9291906159d0565b60405180910390a2505050505050505050565b83600261135b823383614957565b8061138857506005826040516113719190615843565b9081526040519081900360200190206004015460ff165b6113a45760405162461bcd60e51b815260040161096190615885565b6113df82336040518060400160405280600d81526020016c5265636f72642041636365737360981b8152506005866040516110c09190615843565b60023360009081526006602052604090205460ff16600481111561140557611405614d32565b1480611434575060033360009081526006602052604090205460ff16600481111561143257611432614d32565b145b6114505760405162461bcd60e51b81526004016109619061585f565b600080600f886040516114639190615843565b9081526020016040518091039020905060005b8154811015611573578780519060200120828281548110611499576114996159fa565b90600052602060002090600602016000016040516114b7919061580e565b60405180910390201480156114f157508181815481106114d9576114d96159fa565b600091825260209091206005600690920201015460ff165b156115615786828281548110611509576115096159fa565b906000526020600020906006020160030190816115269190615911565b508582828154811061153a5761153a6159fa565b906000526020600020906006020160040190816115579190615911565b5060019250611573565b8061156b816158b2565b915050611476565b508161162b576040805160c0810182528881524260208083019190915260009282018390526060820189905260808201889052600160a0830181905284549081018555848452922081519192600602019081906115d09082615911565b506020820151600182015560408201516002820155606082015160038201906115f99082615911565b506080820151600482019061160e9082615911565b5060a091909101516005909101805460ff19169115159190911790555b876040516116399190615843565b60405180910390207f0a8ed6c1bf0f562bbb6cafc7f7c502b61497a02a3431ac098eca12dfcf3f3daf8888604051611672929190615a10565b60405180910390a25050505050505050565b606061169283336001614957565b6116ae5760405162461bcd60e51b815260040161096190615a3e565b600e836040516116be9190615843565b9081526020016040518091039020826040516116da9190615843565b9081526020016040518091039020805480602002602001604051908101604052809291908181526020016000905b82821015611872578382906000526020600020906004020160405180608001604052908160008201805461173b90615753565b80601f016020809104026020016040519081016040528092919081815260200182805461176790615753565b80156117b45780601f10611789576101008083540402835291602001916117b4565b820191906000526020600020905b81548152906001019060200180831161179757829003601f168201915b5050505050815260200160018201548152602001600282015481526020016003820180546117e190615753565b80601f016020809104026020016040519081016040528092919081815260200182805461180d90615753565b801561185a5780601f1061182f5761010080835404028352916020019161185a565b820191906000526020600020905b81548152906001019060200180831161183d57829003601f168201915b50505050508152505081526020019060010190611708565b5050505090505b92915050565b81600261188d823383614957565b806118ba57506005826040516118a39190615843565b9081526040519081900360200190206004015460ff165b6118d65760405162461bcd60e51b815260040161096190615885565b61191182336040518060400160405280600d81526020016c5265636f72642041636365737360981b8152506005866040516110c09190615843565b6010846040516119219190615843565b9081526040519081900360200190205483106119755760405162461bcd60e51b8152602060048201526013602482015272092dcecc2d8d2c840c2d8cae4e840d2dcc8caf606b1b6044820152606401610961565b60016010856040516119879190615843565b908152602001604051809103902084815481106119a6576119a66159fa565b60009182526020909120600490910201600301805460ff191691151591909117905550505050565b33301480611a3f575060013360009081526006602052604090205460ff1660048111156119fd576119fd614d32565b148015611a3f57508280519060200120600584604051611a1d9190615843565b908152604051908190036020018120611a359161580e565b6040518091039020145b611a5b5760405162461bcd60e51b81526004016109619061585f565b80600584604051611a6c9190615843565b90815260408051602092819003830190206001600160a01b038616600090815260029091019092529020805460ff19166001836003811115611ab057611ab0614d32565b0217905550816001600160a01b031683604051611acd9190615843565b60405180910390207f115f6ef52391618892f3a77f23446f2b996b12f28b601e7d85f2b8d372436c7183604051611b049190615a66565b60405180910390a3505050565b6060611b1f82336001614957565b611b3b5760405162461bcd60e51b815260040161096190615a3e565b6000805b600754811015611baf57838051906020012060078281548110611b6457611b646159fa565b9060005260206000209060050201600101604051611b82919061580e565b604051809103902003611b9d5781611b99816158b2565b9250505b80611ba7816158b2565b915050611b3f565b506000816001600160401b03811115611bca57611bca614de8565b604051908082528060200260200182016040528015611c3857816020015b611c256040518060a0016040528060006001600160a01b031681526020016060815260200160008152602001606081526020016000151581525090565b815260200190600190039081611be85790505b5090506000805b600754811015611e5157858051906020012060078281548110611c6457611c646159fa565b9060005260206000209060050201600101604051611c82919061580e565b604051809103902003611e3f5760078181548110611ca257611ca26159fa565b60009182526020918290206040805160a0810190915260059092020180546001600160a01b031682526001810180549293919291840191611ce290615753565b80601f0160208091040260200160405190810160405280929190818152602001828054611d0e90615753565b8015611d5b5780601f10611d3057610100808354040283529160200191611d5b565b820191906000526020600020905b815481529060010190602001808311611d3e57829003601f168201915b5050505050815260200160028201548152602001600382018054611d7e90615753565b80601f0160208091040260200160405190810160405280929190818152602001828054611daa90615753565b8015611df75780601f10611dcc57610100808354040283529160200191611df7565b820191906000526020600020905b815481529060010190602001808311611dda57829003601f168201915b50505091835250506004919091015460ff1615156020909101528351849084908110611e2557611e256159fa565b60200260200101819052508180611e3b906158b2565b9250505b80611e49816158b2565b915050611c3f565b5090949350505050565b6060611e6982336001614957565b611e855760405162461bcd60e51b815260040161096190615a3e565b601082604051611e959190615843565b9081526020016040518091039020805480602002602001604051908101604052809291908181526020016000905b828210156120385783829060005260206000209060040201604051806080016040529081600082018054611ef690615753565b80601f0160208091040260200160405190810160405280929190818152602001828054611f2290615753565b8015611f6f5780601f10611f4457610100808354040283529160200191611f6f565b820191906000526020600020905b815481529060010190602001808311611f5257829003601f168201915b50505050508152602001600182018054611f8890615753565b80601f0160208091040260200160405190810160405280929190818152602001828054611fb490615753565b80156120015780601f10611fd657610100808354040283529160200191612001565b820191906000526020600020905b815481529060010190602001808311611fe457829003601f168201915b5050509183525050600282015460208083019190915260039092015460ff1615156040909101529082526001929092019101611ec3565b505050509050919050565b6003803360009081526006602052604090205460ff16600481111561206a5761206a614d32565b146120ab5760405162461bcd60e51b8152602060048201526011602482015270556e617574686f72697a656420726f6c6560781b6044820152606401610961565b6001600160a01b03841660009081526004602052604090206002015460ff16156121175760405162461bcd60e51b815260206004820152601960248201527f446f63746f7220616c72656164792072656769737465726564000000000000006044820152606401610961565b6040805160a0810182528481526020808201859052600182840152600260608301524260808301526001600160a01b0387166000908152600490915291909120815181906121659082615911565b506020820151600182019061217a9082615911565b50604082015160028201805491151560ff1983168117825560608501519261ff001990911661ffff19909116176101008360048111156121bc576121bc614d32565b0217905550608091909101516003918201556001600160a01b0385166000818152602092909252604091829020805460ff1916600117905590517fbc3a5b2aeb1bc52e3d56d3fd3423dd66cea5ecff8ae1f3bd0d75a0e608da7b85906122259086908690615a10565b60405180910390a250505050565b600b602052816000526040600020818154811061090657600080fd5b84600261225d823383614957565b8061228a57506005826040516122739190615843565b9081526040519081900360200190206004015460ff165b6122a65760405162461bcd60e51b815260040161096190615885565b6122e182336040518060400160405280600d81526020016c5265636f72642041636365737360981b8152506005866040516110c09190615843565b600087511161232b5760405162461bcd60e51b815260206004820152601660248201527524b73b30b634b2103830ba34b2b73a1020b0b23430b960511b6044820152606401610961565b60008651116123705760405162461bcd60e51b8152602060048201526011602482015270496e76616c696420646961676e6f73697360781b6044820152606401610961565b60008551116123ba5760405162461bcd60e51b8152602060048201526016602482015275496e76616c6964206d65646963696e6573206461746160501b6044820152606401610961565b600180546000916123cb9190615830565b905060006040518061010001604052808381526020018a8152602001898152602001888152602001878152602001428152602001336001600160a01b031681526020018681525090506000896040516124249190615843565b908152604051602091819003820190208054600180820183556000928352918390208451600890920201908155918301518392918201906124659082615911565b506040820151600282019061247a9082615911565b506060820151600382019061248f9082615911565b50608082015160048201906124a49082615911565b5060a0820151600582015560c08201516006820180546001600160a01b0319166001600160a01b0390921691909117905560e082015160078201906124e99082615911565b5050600180548082018255600091909152825160089091027fb10e2d527612073b26eecdfd717e6a320cf44b4afac2b0732d9fcbe2b7fa0cf6810191825560208401518493507fb10e2d527612073b26eecdfd717e6a320cf44b4afac2b0732d9fcbe2b7fa0cf79091019061255e9082615911565b50604082015160028201906125739082615911565b50606082015160038201906125889082615911565b506080820151600482019061259d9082615911565b5060a0820151600582015560c08201516006820180546001600160a01b0319166001600160a01b0390921691909117905560e082015160078201906125e29082615911565b505050600a60028a6040516125f79190615843565b908152602001604051809103902060008282546126149190615830565b90915550506040513390612629908b90615843565b6040519081900381209084907fcd719798f402a27a912a62d3b7e471f85fba10a63e2bbb6ede9a733a8616c2f190600090a4505050505050505050565b606061267482336001614957565b6126905760405162461bcd60e51b815260040161096190615a3e565b6000600a836040516126a29190615843565b90815260200160405180910390209050600081805490506001600160401b038111156126d0576126d0614de8565b60405190808252806020026020018201604052801561270957816020015b6126f6614aef565b8152602001906001900390816126ee5790505b50905060005b8254811015612aa4576009600084838154811061272e5761272e6159fa565b90600052602060002001548152602001908152602001600020604051806101000160405290816000820154815260200160018201805461276d90615753565b80601f016020809104026020016040519081016040528092919081815260200182805461279990615753565b80156127e65780601f106127bb576101008083540402835291602001916127e6565b820191906000526020600020905b8154815290600101906020018083116127c957829003601f168201915b50505091835250506002828101546020830152600383015460409092019160ff169081111561281757612817614d32565b600281111561282857612828614d32565b815260200160048201805461283c90615753565b80601f016020809104026020016040519081016040528092919081815260200182805461286890615753565b80156128b55780601f1061288a576101008083540402835291602001916128b5565b820191906000526020600020905b81548152906001019060200180831161289857829003601f168201915b505050505081526020016005820180546128ce90615753565b80601f01602080910402602001604051908101604052809291908181526020018280546128fa90615753565b80156129475780601f1061291c57610100808354040283529160200191612947565b820191906000526020600020905b81548152906001019060200180831161292a57829003601f168201915b5050505050815260200160068201805461296090615753565b80601f016020809104026020016040519081016040528092919081815260200182805461298c90615753565b80156129d95780601f106129ae576101008083540402835291602001916129d9565b820191906000526020600020905b8154815290600101906020018083116129bc57829003601f168201915b505050505081526020016007820180546129f290615753565b80601f0160208091040260200160405190810160405280929190818152602001828054612a1e90615753565b8015612a6b5780601f10612a4057610100808354040283529160200191612a6b565b820191906000526020600020905b815481529060010190602001808311612a4e57829003601f168201915b505050505081525050828281518110612a8657612a866159fa565b60200260200101819052508080612a9c906158b2565b91505061270f565b509392505050565b6060612aba82336001614957565b612ad65760405162461bcd60e51b815260040161096190615a3e565b600f82604051612ae69190615843565b9081526020016040518091039020805480602002602001604051908101604052809291908181526020016000905b8282101561203857838290600052602060002090600602016040518060c0016040529081600082018054612b4790615753565b80601f0160208091040260200160405190810160405280929190818152602001828054612b7390615753565b8015612bc05780601f10612b9557610100808354040283529160200191612bc0565b820191906000526020600020905b815481529060010190602001808311612ba357829003601f168201915b505050505081526020016001820154815260200160028201548152602001600382018054612bed90615753565b80601f0160208091040260200160405190810160405280929190818152602001828054612c1990615753565b8015612c665780601f10612c3b57610100808354040283529160200191612c66565b820191906000526020600020905b815481529060010190602001808311612c4957829003601f168201915b50505050508152602001600482018054612c7f90615753565b80601f0160208091040260200160405190810160405280929190818152602001828054612cab90615753565b8015612cf85780601f10612ccd57610100808354040283529160200191612cf8565b820191906000526020600020905b815481529060010190602001808311612cdb57829003601f168201915b50505091835250506005919091015460ff1615156020918201529082526001929092019101612b14565b8051600c14612d6b5760405162461bcd60e51b815260206004820152601560248201527424b73b30b634b21020b0b23430b910373ab6b132b960591b6044820152606401610961565b600581604051612d7b9190615843565b9081526040519081900360200190206001015460ff1615612dde5760405162461bcd60e51b815260206004820152601a60248201527f50617469656e7420616c726561647920726567697374657265640000000000006044820152606401610961565b6000600582604051612df09190615843565b908152604051908190036020019020905080612e0c8382615911565b506001818101805460ff19168217905560048201805461ff00191661010083021790555081604051612e3e9190615843565b604051908190038120907fad3e1c33e6905fbc7821165aef0e1e95f461dee673e49d56d8899c384dbdcd1690600090a25050565b836002612e80823383614957565b80612ead5750600582604051612e969190615843565b9081526040519081900360200190206004015460ff165b612ec95760405162461bcd60e51b815260040161096190615885565b612f0482336040518060400160405280600d81526020016c5265636f72642041636365737360981b8152506005866040516110c09190615843565b6000865111612f4d5760405162461bcd60e51b815260206004820152601560248201527424b73b30b634b21020b0b23430b910373ab6b132b960591b6044820152606401610961565b6000855111612f945760405162461bcd60e51b8152602060048201526013602482015272496e76616c6964206d6574726963207479706560681b6044820152606401610961565b60408051608081018252868152602081018690524281830152606081018590529051600d90612fc4908990615843565b908152604051602091819003820190208054600181018255600091825291902082518392600402909101908190612ffb9082615911565b506020820151600182015560408201516002820155606082015160038201906130249082615911565b505050600e876040516130379190615843565b9081526020016040518091039020866040516130539190615843565b90815260405160209181900382019020805460018101825560009182529190208251839260040290910190819061308a9082615911565b506020820151600182015560408201516002820155606082015160038201906130b39082615911565b505050600a6002886040516130c89190615843565b908152602001604051809103902060008282546130e59190615830565b90915550506040516130f8908890615843565b60405180910390207fce65c4d5b1a9ee66172b83a86b9a8c4ebd3c4eabc956a43b9f136fb9f30e69cf8787604051613131929190615a80565b60405180910390a250505050505050565b6001600160a01b0381166000908152600c602052604081208054606092906001600160401b0381111561317757613177614de8565b6040519080825280602002602001820160405280156131b057816020015b61319d614aef565b8152602001906001900390816131955790505b50905060005b8254811015612aa457600960008483815481106131d5576131d56159fa565b90600052602060002001548152602001908152602001600020604051806101000160405290816000820154815260200160018201805461321490615753565b80601f016020809104026020016040519081016040528092919081815260200182805461324090615753565b801561328d5780601f106132625761010080835404028352916020019161328d565b820191906000526020600020905b81548152906001019060200180831161327057829003601f168201915b50505091835250506002828101546020830152600383015460409092019160ff16908111156132be576132be614d32565b60028111156132cf576132cf614d32565b81526020016004820180546132e390615753565b80601f016020809104026020016040519081016040528092919081815260200182805461330f90615753565b801561335c5780601f106133315761010080835404028352916020019161335c565b820191906000526020600020905b81548152906001019060200180831161333f57829003601f168201915b5050505050815260200160058201805461337590615753565b80601f01602080910402602001604051908101604052809291908181526020018280546133a190615753565b80156133ee5780601f106133c3576101008083540402835291602001916133ee565b820191906000526020600020905b8154815290600101906020018083116133d157829003601f168201915b5050505050815260200160068201805461340790615753565b80601f016020809104026020016040519081016040528092919081815260200182805461343390615753565b80156134805780601f1061345557610100808354040283529160200191613480565b820191906000526020600020905b81548152906001019060200180831161346357829003601f168201915b5050505050815260200160078201805461349990615753565b80601f01602080910402602001604051908101604052809291908181526020018280546134c590615753565b80156135125780601f106134e757610100808354040283529160200191613512565b820191906000526020600020905b8154815290600101906020018083116134f557829003601f168201915b50505050508152505082828151811061352d5761352d6159fa565b60200260200101819052508080613543906158b2565b9150506131b6565b606060008260405161355d9190615843565b9081526020016040518091039020805480602002602001604051908101604052809291908181526020016000905b82821015612038578382906000526020600020906008020160405180610100016040529081600082015481526020016001820180546135c990615753565b80601f01602080910402602001604051908101604052809291908181526020018280546135f590615753565b80156136425780601f1061361757610100808354040283529160200191613642565b820191906000526020600020905b81548152906001019060200180831161362557829003601f168201915b5050505050815260200160028201805461365b90615753565b80601f016020809104026020016040519081016040528092919081815260200182805461368790615753565b80156136d45780601f106136a9576101008083540402835291602001916136d4565b820191906000526020600020905b8154815290600101906020018083116136b757829003601f168201915b505050505081526020016003820180546136ed90615753565b80601f016020809104026020016040519081016040528092919081815260200182805461371990615753565b80156137665780601f1061373b57610100808354040283529160200191613766565b820191906000526020600020905b81548152906001019060200180831161374957829003601f168201915b5050505050815260200160048201805461377f90615753565b80601f01602080910402602001604051908101604052809291908181526020018280546137ab90615753565b80156137f85780601f106137cd576101008083540402835291602001916137f8565b820191906000526020600020905b8154815290600101906020018083116137db57829003601f168201915b50505091835250506005820154602082015260068201546001600160a01b0316604082015260078201805460609092019161383290615753565b80601f016020809104026020016040519081016040528092919081815260200182805461385e90615753565b80156138ab5780601f10613880576101008083540402835291602001916138ab565b820191906000526020600020905b81548152906001019060200180831161388e57829003601f168201915b5050505050815250508152602001906001019061358b565b60006138d182336001614957565b6138ed5760405162461bcd60e51b815260040161096190615a3e565b6002826040516138fd9190615843565b9081526020016040518091039020549050919050565b60046020526000908152604090208054819061392e90615753565b80601f016020809104026020016040519081016040528092919081815260200182805461395a90615753565b80156139a75780601f1061397c576101008083540402835291602001916139a7565b820191906000526020600020905b81548152906001019060200180831161398a57829003601f168201915b5050505050908060010180546139bc90615753565b80601f01602080910402602001604051908101604052809291908181526020018280546139e890615753565b8015613a355780601f10613a0a57610100808354040283529160200191613a35565b820191906000526020600020905b815481529060010190602001808311613a1857829003601f168201915b505050506002830154600390930154919260ff8082169361010090920416915085565b60013360009081526006602052604090205460ff166004811115613a7e57613a7e614d32565b148015613ac057508080519060200120600582604051613a9e9190615843565b908152604051908190036020018120613ab69161580e565b6040518091039020145b613adc5760405162461bcd60e51b81526004016109619061585f565b6000600582604051613aee9190615843565b908152604051908190036020018120600401805492151560ff1990931692909217909155613b1d908290615843565b604051908190038120907f603d08020c4dc71d72674c8861e13340ff6bfeb2e5cdda1243dcf8c37ce6955d90600090a250565b6060613b6d60405180602001604052806000815250336001614957565b613b895760405162461bcd60e51b815260040161096190615a3e565b6001600160a01b0382166000908152600b6020526040812080549091906001600160401b03811115613bbd57613bbd614de8565b604051908082528060200260200182016040528015613bf657816020015b613be3614aef565b815260200190600190039081613bdb5790505b50905060005b8254811015612aa45760096000848381548110613c1b57613c1b6159fa565b906000526020600020015481526020019081526020016000206040518061010001604052908160008201548152602001600182018054613c5a90615753565b80601f0160208091040260200160405190810160405280929190818152602001828054613c8690615753565b8015613cd35780601f10613ca857610100808354040283529160200191613cd3565b820191906000526020600020905b815481529060010190602001808311613cb657829003601f168201915b50505091835250506002828101546020830152600383015460409092019160ff1690811115613d0457613d04614d32565b6002811115613d1557613d15614d32565b8152602001600482018054613d2990615753565b80601f0160208091040260200160405190810160405280929190818152602001828054613d5590615753565b8015613da25780601f10613d7757610100808354040283529160200191613da2565b820191906000526020600020905b815481529060010190602001808311613d8557829003601f168201915b50505050508152602001600582018054613dbb90615753565b80601f0160208091040260200160405190810160405280929190818152602001828054613de790615753565b8015613e345780601f10613e0957610100808354040283529160200191613e34565b820191906000526020600020905b815481529060010190602001808311613e1757829003601f168201915b50505050508152602001600682018054613e4d90615753565b80601f0160208091040260200160405190810160405280929190818152602001828054613e7990615753565b8015613ec65780601f10613e9b57610100808354040283529160200191613ec6565b820191906000526020600020905b815481529060010190602001808311613ea957829003601f168201915b50505050508152602001600782018054613edf90615753565b80601f0160208091040260200160405190810160405280929190818152602001828054613f0b90615753565b8015613f585780601f10613f2d57610100808354040283529160200191613f58565b820191906000526020600020905b815481529060010190602001808311613f3b57829003601f168201915b505050505081525050828281518110613f7357613f736159fa565b60200260200101819052508080613f89906158b2565b915050613bfc565b6003803360009081526006602052604090205460ff166004811115613fb857613fb8614d32565b14613ff95760405162461bcd60e51b8152602060048201526011602482015270556e617574686f72697a656420726f6c6560781b6044820152606401610961565b506001600160a01b03166000908152600360205260409020805460ff19166001179055565b6000805b6005836040516140329190615843565b908152604051908190036020019020600301548110156140bd57336001600160a01b03166005846040516140669190615843565b90815260200160405180910390206003018281548110614088576140886159fa565b6000918252602090912001546001600160a01b0316036140ab57600191506140bd565b806140b5816158b2565b915050614022565b508061410b5760405162461bcd60e51b815260206004820152601860248201527f4e6f7420616e20656d657267656e637920636f6e7461637400000000000000006044820152606401610961565b600160058360405161411d9190615843565b908152604051908190036020018120600401805492151560ff199093169290921790915561414c908390615843565b604051908190038120907f02bc0de3f6c76f020b84dd1d38decdcda01fe7e3d5cd178cd7a19864e4135f7d90600090a25050565b333014806141f1575060013360009081526006602052604090205460ff1660048111156141af576141af614d32565b1480156141f1575081805190602001206005836040516141cf9190615843565b9081526040519081900360200181206141e79161580e565b6040518091039020145b61420d5760405162461bcd60e51b81526004016109619061585f565b60058260405161421d9190615843565b90815260408051602092819003830181206001600160a01b0385166000818152600290920190945291909120805460ff1916905561425c908490615843565b604051908190038120907fa4056635223780a71518e8c10b6fc0fd195775c8375c4841c124a959ae5c30ad90600090a35050565b81600261429e823383614957565b806142cb57506005826040516142b49190615843565b9081526040519081900360200190206004015460ff165b6142e75760405162461bcd60e51b815260040161096190615885565b61432282336040518060400160405280600d81526020016c5265636f72642041636365737360981b8152506005866040516110c09190615843565b60023360009081526006602052604090205460ff16600481111561434857614348614d32565b1480614377575060033360009081526006602052604090205460ff16600481111561437557614375614d32565b145b6143935760405162461bcd60e51b81526004016109619061585f565b6000600f856040516143a59190615843565b9081526020016040518091039020905060005b81548110156144b35784805190602001208282815481106143db576143db6159fa565b90600052602060002090600602016000016040516143f9919061580e565b6040518091039020148015614433575081818154811061441b5761441b6159fa565b600091825260209091206005600690920201015460ff165b156144a157600082828154811061444c5761444c6159fa565b906000526020600020906006020160050160006101000a81548160ff02191690831515021790555042828281548110614487576144876159fa565b9060005260206000209060060201600201819055506144b3565b806144ab816158b2565b9150506143b8565b505050505050565b60606144c982336001614957565b6144e55760405162461bcd60e51b815260040161096190615a3e565b600d826040516144f59190615843565b9081526020016040518091039020805480602002602001604051908101604052809291908181526020016000905b82821015612038578382906000526020600020906004020160405180608001604052908160008201805461455690615753565b80601f016020809104026020016040519081016040528092919081815260200182805461458290615753565b80156145cf5780601f106145a4576101008083540402835291602001916145cf565b820191906000526020600020905b8154815290600101906020018083116145b257829003601f168201915b5050505050815260200160018201548152602001600282015481526020016003820180546145fc90615753565b80601f016020809104026020016040519081016040528092919081815260200182805461462890615753565b80156146755780601f1061464a57610100808354040283529160200191614675565b820191906000526020600020905b81548152906001019060200180831161465857829003601f168201915b50505050508152505081526020019060010190614523565b81600261469b823383614957565b806146c857506005826040516146b19190615843565b9081526040519081900360200190206004015460ff165b6146e45760405162461bcd60e51b815260040161096190615885565b61471f82336040518060400160405280600d81526020016c5265636f72642041636365737360981b8152506005866040516110c09190615843565b826002856040516147309190615843565b908152602001604051809103902054101561478d5760405162461bcd60e51b815260206004820152601960248201527f496e73756666696369656e74206865616c746820636f696e73000000000000006044820152606401610961565b8260028560405161479e9190615843565b908152602001604051809103902060008282546147bb9190615aa2565b90915550506040516147ce908590615843565b604051908190038120848252907ff78100b79988ca94aaa795967f9f5d213a54d36607a35040061897d737897d4590602001612225565b6040805160a0810182526001600160a01b0385811682526020820187815242938301939093526060820185905283151560808301526007805460018101825560009190915282517fa66cc928b5edb82af9bd49922954155ab7b0942694bea4ce44661d9a8736c688600590920291820180546001600160a01b031916919093161782559251919283927fa66cc928b5edb82af9bd49922954155ab7b0942694bea4ce44661d9a8736c689909101906148bd9082615911565b5060408201516002820155606082015160038201906148dc9082615911565b50608091909101516004909101805460ff19169115159190911790556040516001600160a01b03851690614911908790615843565b60405180910390207f3080b8b7888bff2fd89ae826442395530945d5733b453cbc662b1ec33780dc2d856040516149489190615ab5565b60405180910390a35050505050565b6001600160a01b03821660009081526006602052604081205460ff16600381600481111561498757614987614d32565b03614996576001915050614ae8565b60028160048111156149aa576149aa614d32565b03614a155760018360038111156149c3576149c3614d32565b036149d2576001915050614ae8565b6001600160a01b0384166000908152601160205260409081902090516149f9908790615843565b9081526040519081900360200190205460ff169150614ae89050565b6001816004811115614a2957614a29614d32565b148015614a755750848051906020012060136000866001600160a01b03166001600160a01b03168152602001908152602001600020604051614a6b919061580e565b6040518091039020145b15614a84576001915050614ae8565b6004816004811115614a9857614a98614d32565b148015614ab657506001836003811115614ab457614ab4614d32565b145b15614ae2576001600160a01b0384166000908152601260205260409081902090516149f9908790615843565b60009150505b9392505050565b60405180610100016040528060008152602001606081526020016000815260200160006002811115614b2357614b23614d32565b8152602001606081526020016060815260200160608152602001606081525090565b60005b83811015614b60578181015183820152602001614b48565b50506000910152565b60008151808452614b81816020860160208601614b45565b601f01601f19169290920160200192915050565b60006020808301818452808551808352604092508286019150828160051b87010184880160005b83811015614c9157603f1989840301855281516101008151855288820151818a870152614beb82870182614b69565b9150508782015185820389870152614c038282614b69565b91505060608083015186830382880152614c1d8382614b69565b9250505060808083015186830382880152614c388382614b69565b9250505060a080830151818701525060c080830151614c61828801826001600160a01b03169052565b505060e08083015192508582038187015250614c7d8183614b69565b968901969450505090860190600101614bbc565b509098975050505050505050565b80356001600160a01b0381168114614cb657600080fd5b919050565b60008060408385031215614cce57600080fd5b614cd783614c9f565b946020939093013593505050565b60008060408385031215614cf857600080fd5b82359150602083013560038110614d0e57600080fd5b809150509250929050565b600060208284031215614d2b57600080fd5b5035919050565b634e487b7160e01b600052602160045260246000fd5b60038110614d5857614d58614d32565b9052565b60006101008a8352806020840152614d768184018b614b69565b9050886040840152614d8b6060840189614d48565b8281036080840152614d9d8188614b69565b905082810360a0840152614db18187614b69565b905082810360c0840152614dc58186614b69565b905082810360e0840152614dd98185614b69565b9b9a5050505050505050505050565b634e487b7160e01b600052604160045260246000fd5b600082601f830112614e0f57600080fd5b81356001600160401b0380821115614e2957614e29614de8565b604051601f8301601f19908116603f01168101908282118183101715614e5157614e51614de8565b81604052838152866020858801011115614e6a57600080fd5b836020870160208301376000602085830101528094505050505092915050565b60008060408385031215614e9d57600080fd5b82356001600160401b03811115614eb357600080fd5b614ebf85828601614dfe565b95602094909401359450505050565b60008060408385031215614ee157600080fd5b82356001600160401b03811115614ef757600080fd5b614f0385828601614dfe565b925050614f1260208401614c9f565b90509250929050565b600060208284031215614f2d57600080fd5b614ae882614c9f565b60008060008060008060c08789031215614f4f57600080fd5b86356001600160401b0380821115614f6657600080fd5b614f728a838b01614dfe565b9750602089013596506040890135915080821115614f8f57600080fd5b614f9b8a838b01614dfe565b95506060890135915080821115614fb157600080fd5b614fbd8a838b01614dfe565b94506080890135915080821115614fd357600080fd5b614fdf8a838b01614dfe565b935060a0890135915080821115614ff557600080fd5b5061500289828a01614dfe565b9150509295509295509295565b6000806000806080858703121561502557600080fd5b84356001600160401b038082111561503c57600080fd5b61504888838901614dfe565b9550602087013591508082111561505e57600080fd5b61506a88838901614dfe565b9450604087013591508082111561508057600080fd5b61508c88838901614dfe565b935060608701359150808211156150a257600080fd5b506150af87828801614dfe565b91505092959194509250565b6000602082840312156150cd57600080fd5b81356001600160401b038111156150e357600080fd5b6150ef84828501614dfe565b949350505050565b6000806040838503121561510a57600080fd5b82356001600160401b038082111561512157600080fd5b61512d86838701614dfe565b9350602085013591508082111561514357600080fd5b5061515085828601614dfe565b9150509250929050565b60006020808301818452808551808352604092508286019150828160051b87010184880160005b83811015614c9157603f198984030185528151608081518186526151a782870182614b69565b91505088820151898601528782015188860152606080830151925085820381870152506151d48183614b69565b968901969450505090860190600101615181565b6000806000606084860312156151fd57600080fd5b83356001600160401b0381111561521357600080fd5b61521f86828701614dfe565b93505061522e60208501614c9f565b915060408401356004811061524257600080fd5b809150509250925092565b60006020808301818452808551808352604092508286019150828160051b87010184880160005b83811015614c9157888303603f19018552815180516001600160a01b031684528781015160a0898601819052906152ad82870182614b69565b9150508782015188860152606080830151868303828801526152cf8382614b69565b60809485015115159790940196909652505094870194925090860190600101615274565b60006020808301818452808551808352604092508286019150828160051b87010184880160005b83811015614c9157603f1989840301855281516080815181865261534082870182614b69565b915050888201518582038a8701526153588282614b69565b838a0151878b0152606093840151151593909601929092525050938601939086019060010161531a565b60008060006060848603121561539757600080fd5b6153a084614c9f565b925060208401356001600160401b03808211156153bc57600080fd5b6153c887838801614dfe565b935060408601359150808211156153de57600080fd5b506153eb86828701614dfe565b9150509250925092565b600080600080600060a0868803121561540d57600080fd5b85356001600160401b038082111561542457600080fd5b61543089838a01614dfe565b9650602088013591508082111561544657600080fd5b61545289838a01614dfe565b9550604088013591508082111561546857600080fd5b61547489838a01614dfe565b9450606088013591508082111561548a57600080fd5b61549689838a01614dfe565b935060808801359150808211156154ac57600080fd5b506154b988828901614dfe565b9150509295509295909350565b60006020808301818452808551808352604092508286019150828160051b87010184880160005b83811015614c9157603f1989840301855281516101008151855288820151818a87015261551c82870182614b69565b915050878201518886015260608083015161553982880182614d48565b5050608080830151868303828801526155528382614b69565b9250505060a0808301518683038288015261556d8382614b69565b9250505060c080830151868303828801526155888382614b69565b9250505060e080830151925085820381870152506155a68183614b69565b9689019694505050908601906001016154ed565b60006020808301818452808551808352604092508286019150828160051b87010184880160005b83811015614c9157603f19898403018552815160c0815181865261560782870182614b69565b91505088820151898601528782015188860152606080830151868303828801526156318382614b69565b925050506080808301518683038288015261564c8382614b69565b60a094850151151597909401969096525050948701949250908601906001016155e1565b6000806000806080858703121561568657600080fd5b84356001600160401b038082111561569d57600080fd5b6156a988838901614dfe565b955060208701359150808211156156bf57600080fd5b6156cb88838901614dfe565b94506040870135935060608701359150808211156150a257600080fd5b60058110614d5857614d58614d32565b6020810161187982846156e8565b60a08152600061571960a0830188614b69565b828103602084015261572b8188614b69565b915050841515604083015261574360608301856156e8565b8260808301529695505050505050565b600181811c9082168061576757607f821691505b60208210810361578757634e487b7160e01b600052602260045260246000fd5b50919050565b602081016118798284614d48565b600081546157a881615753565b600182811680156157c057600181146157d557615804565b60ff1984168752821515830287019450615804565b8560005260208060002060005b858110156157fb5781548a8201529084019082016157e2565b50505082870194505b5050505092915050565b6000614ae8828461579b565b634e487b7160e01b600052601160045260246000fd5b808201808211156118795761187961581a565b60008251615855818460208701614b45565b9190910192915050565b6020808252600c908201526b155b985d5d1a1bdc9a5e995960a21b604082015260600190565b602080825260139082015272556e617574686f72697a65642061636365737360681b604082015260600190565b6000600182016158c4576158c461581a565b5060010190565b601f821115610c1d57600081815260208120601f850160051c810160208610156158f25750805b601f850160051c820191505b818110156144b3578281556001016158fe565b81516001600160401b0381111561592a5761592a614de8565b61593e816159388454615753565b846158cb565b602080601f831160018114615973576000841561595b5750858301515b600019600386901b1c1916600185901b1785556144b3565b600085815260208120601f198616915b828110156159a257888601518255948401946001909101908401615983565b50858210156159c05787850151600019600388901b60f8161c191681555b5050505050600190811b01905550565b6040815260006159e36040830185614b69565b905060018060a01b03831660208301529392505050565b634e487b7160e01b600052603260045260246000fd5b604081526000615a236040830185614b69565b8281036020840152615a358185614b69565b95945050505050565b6020808252600e908201526d139bdd08185d5d1a1bdc9a5e995960921b604082015260600190565b6020810160048310615a7a57615a7a614d32565b91905290565b604081526000615a936040830185614b69565b90508260208301529392505050565b818103818111156118795761187961581a565b602081526000614ae86020830184614b6956fea2646970667358221220a8edd6178ae3be9e5ccb35696bce00b5716f1c4e6703d45a70cb52acba8920f564736f6c63430008130033","opcodes":"PUSH1 0x80 PUSH1 0x40 MSTORE CALLVALUE DUP1 ISZERO PUSH2 0x10 JUMPI PUSH1 0x0 DUP1 REVERT JUMPDEST POP CALLER PUSH1 0x0 SWAP1 DUP2 MSTORE PUSH1 0x6 PUSH1 0x20 SWAP1 DUP2 MSTORE PUSH1 0x40 DUP1 DUP4 KECCAK256 DUP1 SLOAD PUSH1 0xFF NOT SWAP1 DUP2 AND PUSH1 0x3 SWAP1 DUP2 OR SWAP1 SWAP3 SSTORE SWAP3 MSTORE SWAP1 SWAP2 KECCAK256 DUP1 SLOAD SWAP1 SWAP2 AND PUSH1 0x1 OR SWAP1 SSTORE PUSH2 0x5AFE DUP1 PUSH3 0x52 PUSH1 0x0 CODECOPY PUSH1 0x0 RETURN INVALID PUSH1 0x80 PUSH1 0x40 MSTORE CALLVALUE DUP1 ISZERO PUSH2 0x10 JUMPI PUSH1 0x0 DUP1 REVERT JUMPDEST POP PUSH1 0x4 CALLDATASIZE LT PUSH2 0x211 JUMPI PUSH1 0x0 CALLDATALOAD PUSH1 0xE0 SHR DUP1 PUSH4 0x73BD0B68 GT PUSH2 0x125 JUMPI DUP1 PUSH4 0xA9583C22 GT PUSH2 0xAD JUMPI DUP1 PUSH4 0xD7222CDC GT PUSH2 0x7C JUMPI DUP1 PUSH4 0xD7222CDC EQ PUSH2 0x526 JUMPI DUP1 PUSH4 0xDFE0B5FE EQ PUSH2 0x539 JUMPI DUP1 PUSH4 0xF121477D EQ PUSH2 0x54C JUMPI DUP1 PUSH4 0xF24AF6E8 EQ PUSH2 0x55F JUMPI DUP1 PUSH4 0xFD189B3C EQ PUSH2 0x572 JUMPI PUSH1 0x0 DUP1 REVERT JUMPDEST DUP1 PUSH4 0xA9583C22 EQ PUSH2 0x4C9 JUMPI DUP1 PUSH4 0xC5555424 EQ PUSH2 0x4ED JUMPI DUP1 PUSH4 0xC5598C91 EQ PUSH2 0x500 JUMPI DUP1 PUSH4 0xC5B99858 EQ PUSH2 0x513 JUMPI PUSH1 0x0 DUP1 REVERT JUMPDEST DUP1 PUSH4 0x882D763B GT PUSH2 0xF4 JUMPI DUP1 PUSH4 0x882D763B EQ PUSH2 0x44D JUMPI DUP1 PUSH4 0x8ADFCD6A EQ PUSH2 0x460 JUMPI DUP1 PUSH4 0x931126E9 EQ PUSH2 0x473 JUMPI DUP1 PUSH4 0x99374642 EQ PUSH2 0x486 JUMPI DUP1 PUSH4 0x9A5A34F7 EQ PUSH2 0x4B6 JUMPI PUSH1 0x0 DUP1 REVERT JUMPDEST DUP1 PUSH4 0x73BD0B68 EQ PUSH2 0x3E7 JUMPI DUP1 PUSH4 0x776DAC47 EQ PUSH2 0x3FA JUMPI DUP1 PUSH4 0x7CC2E92B EQ PUSH2 0x41A JUMPI DUP1 PUSH4 0x869C9EAF EQ PUSH2 0x43A JUMPI PUSH1 0x0 DUP1 REVERT JUMPDEST DUP1 PUSH4 0x2D7B3E67 GT PUSH2 0x1A8 JUMPI DUP1 PUSH4 0x402AB614 GT PUSH2 0x177 JUMPI DUP1 PUSH4 0x402AB614 EQ PUSH2 0x36E JUMPI DUP1 PUSH4 0x4BC19D34 EQ PUSH2 0x381 JUMPI DUP1 PUSH4 0x52BE3B21 EQ PUSH2 0x3A1 JUMPI DUP1 PUSH4 0x53D08EF4 EQ PUSH2 0x3C1 JUMPI DUP1 PUSH4 0x57CD46F5 EQ PUSH2 0x3D4 JUMPI PUSH1 0x0 DUP1 REVERT JUMPDEST DUP1 PUSH4 0x2D7B3E67 EQ PUSH2 0x2FD JUMPI DUP1 PUSH4 0x30B84026 EQ PUSH2 0x310 JUMPI DUP1 PUSH4 0x3A2A3B1B EQ PUSH2 0x33B JUMPI DUP1 PUSH4 0x3FF9B87B EQ PUSH2 0x35B JUMPI PUSH1 0x0 DUP1 REVERT JUMPDEST DUP1 PUSH4 0x1453E51F GT PUSH2 0x1E4 JUMPI DUP1 PUSH4 0x1453E51F EQ PUSH2 0x291 JUMPI DUP1 PUSH4 0x18892A1A EQ PUSH2 0x2A4 JUMPI DUP1 PUSH4 0x26FC9787 EQ PUSH2 0x2B7 JUMPI DUP1 PUSH4 0x27627BF3 EQ PUSH2 0x2EA JUMPI PUSH1 0x0 DUP1 REVERT JUMPDEST DUP1 PUSH4 0x163E4F8 EQ PUSH2 0x216 JUMPI DUP1 PUSH4 0x68884D7 EQ PUSH2 0x234 JUMPI DUP1 PUSH4 0x68A423B EQ PUSH2 0x255 JUMPI DUP1 PUSH4 0x12DC9013 EQ PUSH2 0x26A JUMPI JUMPDEST PUSH1 0x0 DUP1 REVERT JUMPDEST PUSH2 0x21E PUSH2 0x585 JUMP JUMPDEST PUSH1 0x40 MLOAD PUSH2 0x22B SWAP2 SWAP1 PUSH2 0x4B95 JUMP JUMPDEST PUSH1 0x40 MLOAD DUP1 SWAP2 SUB SWAP1 RETURN JUMPDEST PUSH2 0x247 PUSH2 0x242 CALLDATASIZE PUSH1 0x4 PUSH2 0x4CBB JUMP JUMPDEST PUSH2 0x8EA JUMP JUMPDEST PUSH1 0x40 MLOAD SWAP1 DUP2 MSTORE PUSH1 0x20 ADD PUSH2 0x22B JUMP JUMPDEST PUSH2 0x268 PUSH2 0x263 CALLDATASIZE PUSH1 0x4 PUSH2 0x4CE5 JUMP JUMPDEST PUSH2 0x91B JUMP JUMPDEST STOP JUMPDEST PUSH2 0x27D PUSH2 0x278 CALLDATASIZE PUSH1 0x4 PUSH2 0x4D19 JUMP JUMPDEST PUSH2 0xC22 JUMP JUMPDEST PUSH1 0x40 MLOAD PUSH2 0x22B SWAP9 SWAP8 SWAP7 SWAP6 SWAP5 SWAP4 SWAP3 SWAP2 SWAP1 PUSH2 0x4D5C JUMP JUMPDEST PUSH2 0x247 PUSH2 0x29F CALLDATASIZE PUSH1 0x4 PUSH2 0x4E8A JUMP JUMPDEST PUSH2 0xF13 JUMP JUMPDEST PUSH2 0x268 PUSH2 0x2B2 CALLDATASIZE PUSH1 0x4 PUSH2 0x4ECE JUMP JUMPDEST PUSH2 0xF3E JUMP JUMPDEST PUSH2 0x2DA PUSH2 0x2C5 CALLDATASIZE PUSH1 0x4 PUSH2 0x4F1B JUMP JUMPDEST PUSH1 0x3 PUSH1 0x20 MSTORE PUSH1 0x0 SWAP1 DUP2 MSTORE PUSH1 0x40 SWAP1 KECCAK256 SLOAD PUSH1 0xFF AND DUP2 JUMP JUMPDEST PUSH1 0x40 MLOAD SWAP1 ISZERO ISZERO DUP2 MSTORE PUSH1 0x20 ADD PUSH2 0x22B JUMP JUMPDEST PUSH2 0x268 PUSH2 0x2F8 CALLDATASIZE PUSH1 0x4 PUSH2 0x4F36 JUMP JUMPDEST PUSH2 0x102E JUMP JUMPDEST PUSH2 0x268 PUSH2 0x30B CALLDATASIZE PUSH1 0x4 PUSH2 0x500F JUMP JUMPDEST PUSH2 0x134D JUMP JUMPDEST PUSH2 0x247 PUSH2 0x31E CALLDATASIZE PUSH1 0x4 PUSH2 0x50BB JUMP JUMPDEST DUP1 MLOAD PUSH1 0x20 DUP2 DUP4 ADD DUP2 ADD DUP1 MLOAD PUSH1 0x2 DUP3 MSTORE SWAP3 DUP3 ADD SWAP2 SWAP1 SWAP4 ADD KECCAK256 SWAP2 MSTORE SLOAD DUP2 JUMP JUMPDEST PUSH2 0x34E PUSH2 0x349 CALLDATASIZE PUSH1 0x4 PUSH2 0x50F7 JUMP JUMPDEST PUSH2 0x1684 JUMP JUMPDEST PUSH1 0x40 MLOAD PUSH2 0x22B SWAP2 SWAP1 PUSH2 0x515A JUMP JUMPDEST PUSH2 0x268 PUSH2 0x369 CALLDATASIZE PUSH1 0x4 PUSH2 0x4E8A JUMP JUMPDEST PUSH2 0x187F JUMP JUMPDEST PUSH2 0x268 PUSH2 0x37C CALLDATASIZE PUSH1 0x4 PUSH2 0x51E8 JUMP JUMPDEST PUSH2 0x19CE JUMP JUMPDEST PUSH2 0x394 PUSH2 0x38F CALLDATASIZE PUSH1 0x4 PUSH2 0x50BB JUMP JUMPDEST PUSH2 0x1B11 JUMP JUMPDEST PUSH1 0x40 MLOAD PUSH2 0x22B SWAP2 SWAP1 PUSH2 0x524D JUMP JUMPDEST PUSH2 0x3B4 PUSH2 0x3AF CALLDATASIZE PUSH1 0x4 PUSH2 0x50BB JUMP JUMPDEST PUSH2 0x1E5B JUMP JUMPDEST PUSH1 0x40 MLOAD PUSH2 0x22B SWAP2 SWAP1 PUSH2 0x52F3 JUMP JUMPDEST PUSH2 0x268 PUSH2 0x3CF CALLDATASIZE PUSH1 0x4 PUSH2 0x5382 JUMP JUMPDEST PUSH2 0x2043 JUMP JUMPDEST PUSH2 0x247 PUSH2 0x3E2 CALLDATASIZE PUSH1 0x4 PUSH2 0x4CBB JUMP JUMPDEST PUSH2 0x2233 JUMP JUMPDEST PUSH2 0x268 PUSH2 0x3F5 CALLDATASIZE PUSH1 0x4 PUSH2 0x53F5 JUMP JUMPDEST PUSH2 0x224F JUMP JUMPDEST PUSH2 0x40D PUSH2 0x408 CALLDATASIZE PUSH1 0x4 PUSH2 0x50BB JUMP JUMPDEST PUSH2 0x2666 JUMP JUMPDEST PUSH1 0x40 MLOAD PUSH2 0x22B SWAP2 SWAP1 PUSH2 0x54C6 JUMP JUMPDEST PUSH2 0x42D PUSH2 0x428 CALLDATASIZE PUSH1 0x4 PUSH2 0x50BB JUMP JUMPDEST PUSH2 0x2AAC JUMP JUMPDEST PUSH1 0x40 MLOAD PUSH2 0x22B SWAP2 SWAP1 PUSH2 0x55BA JUMP JUMPDEST PUSH2 0x268 PUSH2 0x448 CALLDATASIZE PUSH1 0x4 PUSH2 0x50BB JUMP JUMPDEST PUSH2 0x2D22 JUMP JUMPDEST PUSH2 0x268 PUSH2 0x45B CALLDATASIZE PUSH1 0x4 PUSH2 0x5670 JUMP JUMPDEST PUSH2 0x2E72 JUMP JUMPDEST PUSH2 0x40D PUSH2 0x46E CALLDATASIZE PUSH1 0x4 PUSH2 0x4F1B JUMP JUMPDEST PUSH2 0x3142 JUMP JUMPDEST PUSH2 0x21E PUSH2 0x481 CALLDATASIZE PUSH1 0x4 PUSH2 0x50BB JUMP JUMPDEST PUSH2 0x354B JUMP JUMPDEST PUSH2 0x4A9 PUSH2 0x494 CALLDATASIZE PUSH1 0x4 PUSH2 0x4F1B JUMP JUMPDEST PUSH1 0x6 PUSH1 0x20 MSTORE PUSH1 0x0 SWAP1 DUP2 MSTORE PUSH1 0x40 SWAP1 KECCAK256 SLOAD PUSH1 0xFF AND DUP2 JUMP JUMPDEST PUSH1 0x40 MLOAD PUSH2 0x22B SWAP2 SWAP1 PUSH2 0x56F8 JUMP JUMPDEST PUSH2 0x247 PUSH2 0x4C4 CALLDATASIZE PUSH1 0x4 PUSH2 0x50BB JUMP JUMPDEST PUSH2 0x38C3 JUMP JUMPDEST PUSH2 0x4DC PUSH2 0x4D7 CALLDATASIZE PUSH1 0x4 PUSH2 0x4F1B JUMP JUMPDEST PUSH2 0x3913 JUMP JUMPDEST PUSH1 0x40 MLOAD PUSH2 0x22B SWAP6 SWAP5 SWAP4 SWAP3 SWAP2 SWAP1 PUSH2 0x5706 JUMP JUMPDEST PUSH2 0x268 PUSH2 0x4FB CALLDATASIZE PUSH1 0x4 PUSH2 0x50BB JUMP JUMPDEST PUSH2 0x3A58 JUMP JUMPDEST PUSH2 0x40D PUSH2 0x50E CALLDATASIZE PUSH1 0x4 PUSH2 0x4F1B JUMP JUMPDEST PUSH2 0x3B50 JUMP JUMPDEST PUSH2 0x268 PUSH2 0x521 CALLDATASIZE PUSH1 0x4 PUSH2 0x4F1B JUMP JUMPDEST PUSH2 0x3F91 JUMP JUMPDEST PUSH2 0x268 PUSH2 0x534 CALLDATASIZE PUSH1 0x4 PUSH2 0x50BB JUMP JUMPDEST PUSH2 0x401E JUMP JUMPDEST PUSH2 0x268 PUSH2 0x547 CALLDATASIZE PUSH1 0x4 PUSH2 0x4ECE JUMP JUMPDEST PUSH2 0x4180 JUMP JUMPDEST PUSH2 0x268 PUSH2 0x55A CALLDATASIZE PUSH1 0x4 PUSH2 0x50F7 JUMP JUMPDEST PUSH2 0x4290 JUMP JUMPDEST PUSH2 0x34E PUSH2 0x56D CALLDATASIZE PUSH1 0x4 PUSH2 0x50BB JUMP JUMPDEST PUSH2 0x44BB JUMP JUMPDEST PUSH2 0x268 PUSH2 0x580 CALLDATASIZE PUSH1 0x4 PUSH2 0x4E8A JUMP JUMPDEST PUSH2 0x468D JUMP JUMPDEST PUSH1 0x60 PUSH1 0x1 DUP1 SLOAD DUP1 PUSH1 0x20 MUL PUSH1 0x20 ADD PUSH1 0x40 MLOAD SWAP1 DUP2 ADD PUSH1 0x40 MSTORE DUP1 SWAP3 SWAP2 SWAP1 DUP2 DUP2 MSTORE PUSH1 0x20 ADD PUSH1 0x0 SWAP1 JUMPDEST DUP3 DUP3 LT ISZERO PUSH2 0x8E1 JUMPI DUP4 DUP3 SWAP1 PUSH1 0x0 MSTORE PUSH1 0x20 PUSH1 0x0 KECCAK256 SWAP1 PUSH1 0x8 MUL ADD PUSH1 0x40 MLOAD DUP1 PUSH2 0x100 ADD PUSH1 0x40 MSTORE SWAP1 DUP2 PUSH1 0x0 DUP3 ADD SLOAD DUP2 MSTORE PUSH1 0x20 ADD PUSH1 0x1 DUP3 ADD DUP1 SLOAD PUSH2 0x5E7 SWAP1 PUSH2 0x5753 JUMP JUMPDEST DUP1 PUSH1 0x1F ADD PUSH1 0x20 DUP1 SWAP2 DIV MUL PUSH1 0x20 ADD PUSH1 0x40 MLOAD SWAP1 DUP2 ADD PUSH1 0x40 MSTORE DUP1 SWAP3 SWAP2 SWAP1 DUP2 DUP2 MSTORE PUSH1 0x20 ADD DUP3 DUP1 SLOAD PUSH2 0x613 SWAP1 PUSH2 0x5753 JUMP JUMPDEST DUP1 ISZERO PUSH2 0x660 JUMPI DUP1 PUSH1 0x1F LT PUSH2 0x635 JUMPI PUSH2 0x100 DUP1 DUP4 SLOAD DIV MUL DUP4 MSTORE SWAP2 PUSH1 0x20 ADD SWAP2 PUSH2 0x660 JUMP JUMPDEST DUP3 ADD SWAP2 SWAP1 PUSH1 0x0 MSTORE PUSH1 0x20 PUSH1 0x0 KECCAK256 SWAP1 JUMPDEST DUP2 SLOAD DUP2 MSTORE SWAP1 PUSH1 0x1 ADD SWAP1 PUSH1 0x20 ADD DUP1 DUP4 GT PUSH2 0x643 JUMPI DUP3 SWAP1 SUB PUSH1 0x1F AND DUP3 ADD SWAP2 JUMPDEST POP POP POP POP POP DUP2 MSTORE PUSH1 0x20 ADD PUSH1 0x2 DUP3 ADD DUP1 SLOAD PUSH2 0x679 SWAP1 PUSH2 0x5753 JUMP JUMPDEST DUP1 PUSH1 0x1F ADD PUSH1 0x20 DUP1 SWAP2 DIV MUL PUSH1 0x20 ADD PUSH1 0x40 MLOAD SWAP1 DUP2 ADD PUSH1 0x40 MSTORE DUP1 SWAP3 SWAP2 SWAP1 DUP2 DUP2 MSTORE PUSH1 0x20 ADD DUP3 DUP1 SLOAD PUSH2 0x6A5 SWAP1 PUSH2 0x5753 JUMP JUMPDEST DUP1 ISZERO PUSH2 0x6F2 JUMPI DUP1 PUSH1 0x1F LT PUSH2 0x6C7 JUMPI PUSH2 0x100 DUP1 DUP4 SLOAD DIV MUL DUP4 MSTORE SWAP2 PUSH1 0x20 ADD SWAP2 PUSH2 0x6F2 JUMP JUMPDEST DUP3 ADD SWAP2 SWAP1 PUSH1 0x0 MSTORE PUSH1 0x20 PUSH1 0x0 KECCAK256 SWAP1 JUMPDEST DUP2 SLOAD DUP2 MSTORE SWAP1 PUSH1 0x1 ADD SWAP1 PUSH1 0x20 ADD DUP1 DUP4 GT PUSH2 0x6D5 JUMPI DUP3 SWAP1 SUB PUSH1 0x1F AND DUP3 ADD SWAP2 JUMPDEST POP POP POP POP POP DUP2 MSTORE PUSH1 0x20 ADD PUSH1 0x3 DUP3 ADD DUP1 SLOAD PUSH2 0x70B SWAP1 PUSH2 0x5753 JUMP JUMPDEST DUP1 PUSH1 0x1F ADD PUSH1 0x20 DUP1 SWAP2 DIV MUL PUSH1 0x20 ADD PUSH1 0x40 MLOAD SWAP1 DUP2 ADD PUSH1 0x40 MSTORE DUP1 SWAP3 SWAP2 SWAP1 DUP2 DUP2 MSTORE PUSH1 0x20 ADD DUP3 DUP1 SLOAD PUSH2 0x737 SWAP1 PUSH2 0x5753 JUMP JUMPDEST DUP1 ISZERO PUSH2 0x784 JUMPI DUP1 PUSH1 0x1F LT PUSH2 0x759 JUMPI PUSH2 0x100 DUP1 DUP4 SLOAD DIV MUL DUP4 MSTORE SWAP2 PUSH1 0x20 ADD SWAP2 PUSH2 0x784 JUMP JUMPDEST DUP3 ADD SWAP2 SWAP1 PUSH1 0x0 MSTORE PUSH1 0x20 PUSH1 0x0 KECCAK256 SWAP1 JUMPDEST DUP2 SLOAD DUP2 MSTORE SWAP1 PUSH1 0x1 ADD SWAP1 PUSH1 0x20 ADD DUP1 DUP4 GT PUSH2 0x767 JUMPI DUP3 SWAP1 SUB PUSH1 0x1F AND DUP3 ADD SWAP2 JUMPDEST POP POP POP POP POP DUP2 MSTORE PUSH1 0x20 ADD PUSH1 0x4 DUP3 ADD DUP1 SLOAD PUSH2 0x79D SWAP1 PUSH2 0x5753 JUMP JUMPDEST DUP1 PUSH1 0x1F ADD PUSH1 0x20 DUP1 SWAP2 DIV MUL PUSH1 0x20 ADD PUSH1 0x40 MLOAD SWAP1 DUP2 ADD PUSH1 0x40 MSTORE DUP1 SWAP3 SWAP2 SWAP1 DUP2 DUP2 MSTORE PUSH1 0x20 ADD DUP3 DUP1 SLOAD PUSH2 0x7C9 SWAP1 PUSH2 0x5753 JUMP JUMPDEST DUP1 ISZERO PUSH2 0x816 JUMPI DUP1 PUSH1 0x1F LT PUSH2 0x7EB JUMPI PUSH2 0x100 DUP1 DUP4 SLOAD DIV MUL DUP4 MSTORE SWAP2 PUSH1 0x20 ADD SWAP2 PUSH2 0x816 JUMP JUMPDEST DUP3 ADD SWAP2 SWAP1 PUSH1 0x0 MSTORE PUSH1 0x20 PUSH1 0x0 KECCAK256 SWAP1 JUMPDEST DUP2 SLOAD DUP2 MSTORE SWAP1 PUSH1 0x1 ADD SWAP1 PUSH1 0x20 ADD DUP1 DUP4 GT PUSH2 0x7F9 JUMPI DUP3 SWAP1 SUB PUSH1 0x1F AND DUP3 ADD SWAP2 JUMPDEST POP POP POP SWAP2 DUP4 MSTORE POP POP PUSH1 0x5 DUP3 ADD SLOAD PUSH1 0x20 DUP3 ADD MSTORE PUSH1 0x6 DUP3 ADD SLOAD PUSH1 0x1 PUSH1 0x1 PUSH1 0xA0 SHL SUB AND PUSH1 0x40 DUP3 ADD MSTORE PUSH1 0x7 DUP3 ADD DUP1 SLOAD PUSH1 0x60 SWAP1 SWAP3 ADD SWAP2 PUSH2 0x850 SWAP1 PUSH2 0x5753 JUMP JUMPDEST DUP1 PUSH1 0x1F ADD PUSH1 0x20 DUP1 SWAP2 DIV MUL PUSH1 0x20 ADD PUSH1 0x40 MLOAD SWAP1 DUP2 ADD PUSH1 0x40 MSTORE DUP1 SWAP3 SWAP2 SWAP1 DUP2 DUP2 MSTORE PUSH1 0x20 ADD DUP3 DUP1 SLOAD PUSH2 0x87C SWAP1 PUSH2 0x5753 JUMP JUMPDEST DUP1 ISZERO PUSH2 0x8C9 JUMPI DUP1 PUSH1 0x1F LT PUSH2 0x89E JUMPI PUSH2 0x100 DUP1 DUP4 SLOAD DIV MUL DUP4 MSTORE SWAP2 PUSH1 0x20 ADD SWAP2 PUSH2 0x8C9 JUMP JUMPDEST DUP3 ADD SWAP2 SWAP1 PUSH1 0x0 MSTORE PUSH1 0x20 PUSH1 0x0 KECCAK256 SWAP1 JUMPDEST DUP2 SLOAD DUP2 MSTORE SWAP1 PUSH1 0x1 ADD SWAP1 PUSH1 0x20 ADD DUP1 DUP4 GT PUSH2 0x8AC JUMPI DUP3 SWAP1 SUB PUSH1 0x1F AND DUP3 ADD SWAP2 JUMPDEST POP POP POP POP POP DUP2 MSTORE POP POP DUP2 MSTORE PUSH1 0x20 ADD SWAP1 PUSH1 0x1 ADD SWAP1 PUSH2 0x5A9 JUMP JUMPDEST POP POP POP POP SWAP1 POP SWAP1 JUMP JUMPDEST PUSH1 0xC PUSH1 0x20 MSTORE DUP2 PUSH1 0x0 MSTORE PUSH1 0x40 PUSH1 0x0 KECCAK256 DUP2 DUP2 SLOAD DUP2 LT PUSH2 0x906 JUMPI PUSH1 0x0 DUP1 REVERT JUMPDEST SWAP1 PUSH1 0x0 MSTORE PUSH1 0x20 PUSH1 0x0 KECCAK256 ADD PUSH1 0x0 SWAP2 POP SWAP2 POP POP SLOAD DUP2 JUMP JUMPDEST PUSH1 0x8 SLOAD DUP3 LT PUSH2 0x96A JUMPI PUSH1 0x40 MLOAD PUSH3 0x461BCD PUSH1 0xE5 SHL DUP2 MSTORE PUSH1 0x20 PUSH1 0x4 DUP3 ADD MSTORE PUSH1 0x16 PUSH1 0x24 DUP3 ADD MSTORE PUSH22 0x125B9D985B1A5908185C1C1BDA5B9D1B595B9D081251 PUSH1 0x52 SHL PUSH1 0x44 DUP3 ADD MSTORE PUSH1 0x64 ADD JUMPDEST PUSH1 0x40 MLOAD DUP1 SWAP2 SUB SWAP1 REVERT JUMPDEST PUSH1 0x0 DUP3 DUP2 MSTORE PUSH1 0x9 PUSH1 0x20 MSTORE PUSH1 0x40 DUP2 KECCAK256 PUSH1 0x1 DUP2 ADD DUP1 SLOAD SWAP2 SWAP3 SWAP2 PUSH2 0x98A SWAP1 PUSH2 0x5753 JUMP JUMPDEST SWAP1 POP GT PUSH2 0x9D9 JUMPI PUSH1 0x40 MLOAD PUSH3 0x461BCD PUSH1 0xE5 SHL DUP2 MSTORE PUSH1 0x20 PUSH1 0x4 DUP3 ADD MSTORE PUSH1 0x1A PUSH1 0x24 DUP3 ADD MSTORE PUSH32 0x4170706F696E746D656E7420646F6573206E6F74206578697374000000000000 PUSH1 0x44 DUP3 ADD MSTORE PUSH1 0x64 ADD PUSH2 0x961 JUMP JUMPDEST PUSH1 0x2 CALLER PUSH1 0x0 SWAP1 DUP2 MSTORE PUSH1 0x6 PUSH1 0x20 MSTORE PUSH1 0x40 SWAP1 KECCAK256 SLOAD PUSH1 0xFF AND PUSH1 0x4 DUP2 GT ISZERO PUSH2 0x9FF JUMPI PUSH2 0x9FF PUSH2 0x4D32 JUMP JUMPDEST EQ DUP1 PUSH2 0xA2E JUMPI POP PUSH1 0x3 CALLER PUSH1 0x0 SWAP1 DUP2 MSTORE PUSH1 0x6 PUSH1 0x20 MSTORE PUSH1 0x40 SWAP1 KECCAK256 SLOAD PUSH1 0xFF AND PUSH1 0x4 DUP2 GT ISZERO PUSH2 0xA2C JUMPI PUSH2 0xA2C PUSH2 0x4D32 JUMP JUMPDEST EQ JUMPDEST PUSH2 0xAA0 JUMPI PUSH1 0x40 MLOAD PUSH3 0x461BCD PUSH1 0xE5 SHL DUP2 MSTORE PUSH1 0x20 PUSH1 0x4 DUP3 ADD MSTORE PUSH1 0x3D PUSH1 0x24 DUP3 ADD MSTORE PUSH32 0x4F6E6C7920646F63746F7273206F7220686F73706974616C2061646D696E7320 PUSH1 0x44 DUP3 ADD MSTORE PUSH32 0x63616E20757064617465206170706F696E746D656E7420737461747573000000 PUSH1 0x64 DUP3 ADD MSTORE PUSH1 0x84 ADD PUSH2 0x961 JUMP JUMPDEST PUSH1 0x3 DUP2 ADD DUP1 SLOAD DUP4 SWAP2 SWAP1 PUSH1 0xFF NOT AND PUSH1 0x1 DUP4 PUSH1 0x2 DUP2 GT ISZERO PUSH2 0xAC1 JUMPI PUSH2 0xAC1 PUSH2 0x4D32 JUMP JUMPDEST MUL OR SWAP1 SSTORE POP DUP3 PUSH32 0xBFA90A4F3468C2E94521FB7CF539F022E2C0B69CFD0A24D63A1D775342C1AF04 DUP4 PUSH1 0x40 MLOAD PUSH2 0xAF6 SWAP2 SWAP1 PUSH2 0x578D JUMP JUMPDEST PUSH1 0x40 MLOAD DUP1 SWAP2 SUB SWAP1 LOG2 PUSH1 0x1 DUP3 PUSH1 0x2 DUP2 GT ISZERO PUSH2 0xB12 JUMPI PUSH2 0xB12 PUSH2 0x4D32 JUMP JUMPDEST SUB PUSH2 0xB4F JUMPI PUSH1 0x64 PUSH1 0x2 DUP3 PUSH1 0x1 ADD PUSH1 0x40 MLOAD PUSH2 0xB2C SWAP2 SWAP1 PUSH2 0x580E JUMP JUMPDEST SWAP1 DUP2 MSTORE PUSH1 0x20 ADD PUSH1 0x40 MLOAD DUP1 SWAP2 SUB SWAP1 KECCAK256 PUSH1 0x0 DUP3 DUP3 SLOAD PUSH2 0xB49 SWAP2 SWAP1 PUSH2 0x5830 JUMP JUMPDEST SWAP1 SWAP2 SSTORE POP POP JUMPDEST PUSH2 0xC1D DUP2 PUSH1 0x1 ADD DUP1 SLOAD PUSH2 0xB61 SWAP1 PUSH2 0x5753 JUMP JUMPDEST DUP1 PUSH1 0x1F ADD PUSH1 0x20 DUP1 SWAP2 DIV MUL PUSH1 0x20 ADD PUSH1 0x40 MLOAD SWAP1 DUP2 ADD PUSH1 0x40 MSTORE DUP1 SWAP3 SWAP2 SWAP1 DUP2 DUP2 MSTORE PUSH1 0x20 ADD DUP3 DUP1 SLOAD PUSH2 0xB8D SWAP1 PUSH2 0x5753 JUMP JUMPDEST DUP1 ISZERO PUSH2 0xBDA JUMPI DUP1 PUSH1 0x1F LT PUSH2 0xBAF JUMPI PUSH2 0x100 DUP1 DUP4 SLOAD DIV MUL DUP4 MSTORE SWAP2 PUSH1 0x20 ADD SWAP2 PUSH2 0xBDA JUMP JUMPDEST DUP3 ADD SWAP2 SWAP1 PUSH1 0x0 MSTORE PUSH1 0x20 PUSH1 0x0 KECCAK256 SWAP1 JUMPDEST DUP2 SLOAD DUP2 MSTORE SWAP1 PUSH1 0x1 ADD SWAP1 PUSH1 0x20 ADD DUP1 DUP4 GT PUSH2 0xBBD JUMPI DUP3 SWAP1 SUB PUSH1 0x1F AND DUP3 ADD SWAP2 JUMPDEST POP POP POP POP POP CALLER PUSH1 0x40 MLOAD DUP1 PUSH1 0x40 ADD PUSH1 0x40 MSTORE DUP1 PUSH1 0x19 DUP2 MSTORE PUSH1 0x20 ADD PUSH32 0x557064617465204170706F696E746D656E742053746174757300000000000000 DUP2 MSTORE POP PUSH1 0x0 PUSH2 0x4805 JUMP JUMPDEST POP POP POP JUMP JUMPDEST PUSH1 0x9 PUSH1 0x20 MSTORE PUSH1 0x0 SWAP1 DUP2 MSTORE PUSH1 0x40 SWAP1 KECCAK256 DUP1 SLOAD PUSH1 0x1 DUP3 ADD DUP1 SLOAD SWAP2 SWAP3 SWAP2 PUSH2 0xC44 SWAP1 PUSH2 0x5753 JUMP JUMPDEST DUP1 PUSH1 0x1F ADD PUSH1 0x20 DUP1 SWAP2 DIV MUL PUSH1 0x20 ADD PUSH1 0x40 MLOAD SWAP1 DUP2 ADD PUSH1 0x40 MSTORE DUP1 SWAP3 SWAP2 SWAP1 DUP2 DUP2 MSTORE PUSH1 0x20 ADD DUP3 DUP1 SLOAD PUSH2 0xC70 SWAP1 PUSH2 0x5753 JUMP JUMPDEST DUP1 ISZERO PUSH2 0xCBD JUMPI DUP1 PUSH1 0x1F LT PUSH2 0xC92 JUMPI PUSH2 0x100 DUP1 DUP4 SLOAD DIV MUL DUP4 MSTORE SWAP2 PUSH1 0x20 ADD SWAP2 PUSH2 0xCBD JUMP JUMPDEST DUP3 ADD SWAP2 SWAP1 PUSH1 0x0 MSTORE PUSH1 0x20 PUSH1 0x0 KECCAK256 SWAP1 JUMPDEST DUP2 SLOAD DUP2 MSTORE SWAP1 PUSH1 0x1 ADD SWAP1 PUSH1 0x20 ADD DUP1 DUP4 GT PUSH2 0xCA0 JUMPI DUP3 SWAP1 SUB PUSH1 0x1F AND DUP3 ADD SWAP2 JUMPDEST POP POP POP POP PUSH1 0x2 DUP4 ADD SLOAD PUSH1 0x3 DUP5 ADD SLOAD PUSH1 0x4 DUP6 ADD DUP1 SLOAD SWAP5 SWAP6 SWAP3 SWAP5 PUSH1 0xFF SWAP1 SWAP3 AND SWAP4 POP SWAP1 PUSH2 0xCE6 SWAP1 PUSH2 0x5753 JUMP JUMPDEST DUP1 PUSH1 0x1F ADD PUSH1 0x20 DUP1 SWAP2 DIV MUL PUSH1 0x20 ADD PUSH1 0x40 MLOAD SWAP1 DUP2 ADD PUSH1 0x40 MSTORE DUP1 SWAP3 SWAP2 SWAP1 DUP2 DUP2 MSTORE PUSH1 0x20 ADD DUP3 DUP1 SLOAD PUSH2 0xD12 SWAP1 PUSH2 0x5753 JUMP JUMPDEST DUP1 ISZERO PUSH2 0xD5F JUMPI DUP1 PUSH1 0x1F LT PUSH2 0xD34 JUMPI PUSH2 0x100 DUP1 DUP4 SLOAD DIV MUL DUP4 MSTORE SWAP2 PUSH1 0x20 ADD SWAP2 PUSH2 0xD5F JUMP JUMPDEST DUP3 ADD SWAP2 SWAP1 PUSH1 0x0 MSTORE PUSH1 0x20 PUSH1 0x0 KECCAK256 SWAP1 JUMPDEST DUP2 SLOAD DUP2 MSTORE SWAP1 PUSH1 0x1 ADD SWAP1 PUSH1 0x20 ADD DUP1 DUP4 GT PUSH2 0xD42 JUMPI DUP3 SWAP1 SUB PUSH1 0x1F AND DUP3 ADD SWAP2 JUMPDEST POP POP POP POP POP SWAP1 DUP1 PUSH1 0x5 ADD DUP1 SLOAD PUSH2 0xD74 SWAP1 PUSH2 0x5753 JUMP JUMPDEST DUP1 PUSH1 0x1F ADD PUSH1 0x20 DUP1 SWAP2 DIV MUL PUSH1 0x20 ADD PUSH1 0x40 MLOAD SWAP1 DUP2 ADD PUSH1 0x40 MSTORE DUP1 SWAP3 SWAP2 SWAP1 DUP2 DUP2 MSTORE PUSH1 0x20 ADD DUP3 DUP1 SLOAD PUSH2 0xDA0 SWAP1 PUSH2 0x5753 JUMP JUMPDEST DUP1 ISZERO PUSH2 0xDED JUMPI DUP1 PUSH1 0x1F LT PUSH2 0xDC2 JUMPI PUSH2 0x100 DUP1 DUP4 SLOAD DIV MUL DUP4 MSTORE SWAP2 PUSH1 0x20 ADD SWAP2 PUSH2 0xDED JUMP JUMPDEST DUP3 ADD SWAP2 SWAP1 PUSH1 0x0 MSTORE PUSH1 0x20 PUSH1 0x0 KECCAK256 SWAP1 JUMPDEST DUP2 SLOAD DUP2 MSTORE SWAP1 PUSH1 0x1 ADD SWAP1 PUSH1 0x20 ADD DUP1 DUP4 GT PUSH2 0xDD0 JUMPI DUP3 SWAP1 SUB PUSH1 0x1F AND DUP3 ADD SWAP2 JUMPDEST POP POP POP POP POP SWAP1 DUP1 PUSH1 0x6 ADD DUP1 SLOAD PUSH2 0xE02 SWAP1 PUSH2 0x5753 JUMP JUMPDEST DUP1 PUSH1 0x1F ADD PUSH1 0x20 DUP1 SWAP2 DIV MUL PUSH1 0x20 ADD PUSH1 0x40 MLOAD SWAP1 DUP2 ADD PUSH1 0x40 MSTORE DUP1 SWAP3 SWAP2 SWAP1 DUP2 DUP2 MSTORE PUSH1 0x20 ADD DUP3 DUP1 SLOAD PUSH2 0xE2E SWAP1 PUSH2 0x5753 JUMP JUMPDEST DUP1 ISZERO PUSH2 0xE7B JUMPI DUP1 PUSH1 0x1F LT PUSH2 0xE50 JUMPI PUSH2 0x100 DUP1 DUP4 SLOAD DIV MUL DUP4 MSTORE SWAP2 PUSH1 0x20 ADD SWAP2 PUSH2 0xE7B JUMP JUMPDEST DUP3 ADD SWAP2 SWAP1 PUSH1 0x0 MSTORE PUSH1 0x20 PUSH1 0x0 KECCAK256 SWAP1 JUMPDEST DUP2 SLOAD DUP2 MSTORE SWAP1 PUSH1 0x1 ADD SWAP1 PUSH1 0x20 ADD DUP1 DUP4 GT PUSH2 0xE5E JUMPI DUP3 SWAP1 SUB PUSH1 0x1F AND DUP3 ADD SWAP2 JUMPDEST POP POP POP POP POP SWAP1 DUP1 PUSH1 0x7 ADD DUP1 SLOAD PUSH2 0xE90 SWAP1 PUSH2 0x5753 JUMP JUMPDEST DUP1 PUSH1 0x1F ADD PUSH1 0x20 DUP1 SWAP2 DIV MUL PUSH1 0x20 ADD PUSH1 0x40 MLOAD SWAP1 DUP2 ADD PUSH1 0x40 MSTORE DUP1 SWAP3 SWAP2 SWAP1 DUP2 DUP2 MSTORE PUSH1 0x20 ADD DUP3 DUP1 SLOAD PUSH2 0xEBC SWAP1 PUSH2 0x5753 JUMP JUMPDEST DUP1 ISZERO PUSH2 0xF09 JUMPI DUP1 PUSH1 0x1F LT PUSH2 0xEDE JUMPI PUSH2 0x100 DUP1 DUP4 SLOAD DIV MUL DUP4 MSTORE SWAP2 PUSH1 0x20 ADD SWAP2 PUSH2 0xF09 JUMP JUMPDEST DUP3 ADD SWAP2 SWAP1 PUSH1 0x0 MSTORE PUSH1 0x20 PUSH1 0x0 KECCAK256 SWAP1 JUMPDEST DUP2 SLOAD DUP2 MSTORE SWAP1 PUSH1 0x1 ADD SWAP1 PUSH1 0x20 ADD DUP1 DUP4 GT PUSH2 0xEEC JUMPI DUP3 SWAP1 SUB PUSH1 0x1F AND DUP3 ADD SWAP2 JUMPDEST POP POP POP POP POP SWAP1 POP DUP9 JUMP JUMPDEST DUP2 MLOAD PUSH1 0x20 DUP2 DUP5 ADD DUP2 ADD DUP1 MLOAD PUSH1 0xA DUP3 MSTORE SWAP3 DUP3 ADD SWAP2 DUP6 ADD SWAP2 SWAP1 SWAP2 KECCAK256 SWAP2 SWAP1 MSTORE DUP1 SLOAD DUP3 SWAP1 DUP2 LT PUSH2 0x906 JUMPI PUSH1 0x0 DUP1 REVERT JUMPDEST PUSH1 0x1 CALLER PUSH1 0x0 SWAP1 DUP2 MSTORE PUSH1 0x6 PUSH1 0x20 MSTORE PUSH1 0x40 SWAP1 KECCAK256 SLOAD PUSH1 0xFF AND PUSH1 0x4 DUP2 GT ISZERO PUSH2 0xF64 JUMPI PUSH2 0xF64 PUSH2 0x4D32 JUMP JUMPDEST EQ DUP1 ISZERO PUSH2 0xFA6 JUMPI POP DUP2 DUP1 MLOAD SWAP1 PUSH1 0x20 ADD KECCAK256 PUSH1 0x5 DUP4 PUSH1 0x40 MLOAD PUSH2 0xF84 SWAP2 SWAP1 PUSH2 0x5843 JUMP JUMPDEST SWAP1 DUP2 MSTORE PUSH1 0x40 MLOAD SWAP1 DUP2 SWAP1 SUB PUSH1 0x20 ADD DUP2 KECCAK256 PUSH2 0xF9C SWAP2 PUSH2 0x580E JUMP JUMPDEST PUSH1 0x40 MLOAD DUP1 SWAP2 SUB SWAP1 KECCAK256 EQ JUMPDEST PUSH2 0xFC2 JUMPI PUSH1 0x40 MLOAD PUSH3 0x461BCD PUSH1 0xE5 SHL DUP2 MSTORE PUSH1 0x4 ADD PUSH2 0x961 SWAP1 PUSH2 0x585F JUMP JUMPDEST PUSH1 0x5 DUP3 PUSH1 0x40 MLOAD PUSH2 0xFD2 SWAP2 SWAP1 PUSH2 0x5843 JUMP JUMPDEST SWAP1 DUP2 MSTORE PUSH1 0x40 DUP1 MLOAD PUSH1 0x20 SWAP3 DUP2 SWAP1 SUB DUP4 ADD SWAP1 KECCAK256 PUSH1 0x3 ADD DUP1 SLOAD PUSH1 0x1 DUP2 ADD DUP3 SSTORE PUSH1 0x0 SWAP2 DUP3 MSTORE DUP4 DUP3 KECCAK256 ADD DUP1 SLOAD PUSH1 0x1 PUSH1 0x1 PUSH1 0xA0 SHL SUB NOT AND PUSH1 0x1 PUSH1 0x1 PUSH1 0xA0 SHL SUB SWAP6 SWAP1 SWAP6 AND SWAP5 DUP6 OR SWAP1 SSTORE SWAP3 DUP4 MSTORE PUSH1 0x6 SWAP1 SWAP2 MSTORE SWAP1 KECCAK256 DUP1 SLOAD PUSH1 0x4 PUSH1 0xFF NOT SWAP1 SWAP2 AND OR SWAP1 SSTORE POP JUMP JUMPDEST DUP6 PUSH1 0x2 PUSH2 0x103C DUP3 CALLER DUP4 PUSH2 0x4957 JUMP JUMPDEST DUP1 PUSH2 0x1069 JUMPI POP PUSH1 0x5 DUP3 PUSH1 0x40 MLOAD PUSH2 0x1052 SWAP2 SWAP1 PUSH2 0x5843 JUMP JUMPDEST SWAP1 DUP2 MSTORE PUSH1 0x40 MLOAD SWAP1 DUP2 SWAP1 SUB PUSH1 0x20 ADD SWAP1 KECCAK256 PUSH1 0x4 ADD SLOAD PUSH1 0xFF AND JUMPDEST PUSH2 0x1085 JUMPI PUSH1 0x40 MLOAD PUSH3 0x461BCD PUSH1 0xE5 SHL DUP2 MSTORE PUSH1 0x4 ADD PUSH2 0x961 SWAP1 PUSH2 0x5885 JUMP JUMPDEST PUSH2 0x10DB DUP3 CALLER PUSH1 0x40 MLOAD DUP1 PUSH1 0x40 ADD PUSH1 0x40 MSTORE DUP1 PUSH1 0xD DUP2 MSTORE PUSH1 0x20 ADD PUSH13 0x5265636F726420416363657373 PUSH1 0x98 SHL DUP2 MSTORE POP PUSH1 0x5 DUP7 PUSH1 0x40 MLOAD PUSH2 0x10C0 SWAP2 SWAP1 PUSH2 0x5843 JUMP JUMPDEST SWAP1 DUP2 MSTORE PUSH1 0x40 MLOAD SWAP1 DUP2 SWAP1 SUB PUSH1 0x20 ADD SWAP1 KECCAK256 PUSH1 0x4 ADD SLOAD PUSH1 0xFF AND PUSH2 0x4805 JUMP JUMPDEST TIMESTAMP DUP8 GT PUSH2 0x112A JUMPI PUSH1 0x40 MLOAD PUSH3 0x461BCD PUSH1 0xE5 SHL DUP2 MSTORE PUSH1 0x20 PUSH1 0x4 DUP3 ADD MSTORE PUSH1 0x18 PUSH1 0x24 DUP3 ADD MSTORE PUSH32 0x496E76616C6964206170706F696E746D656E742074696D650000000000000000 PUSH1 0x44 DUP3 ADD MSTORE PUSH1 0x64 ADD PUSH2 0x961 JUMP JUMPDEST PUSH1 0x8 DUP1 SLOAD PUSH1 0x0 SWAP2 DUP3 PUSH2 0x113B DUP4 PUSH2 0x58B2 JUMP JUMPDEST SWAP2 SWAP1 POP SSTORE SWAP1 POP PUSH1 0x40 MLOAD DUP1 PUSH2 0x100 ADD PUSH1 0x40 MSTORE DUP1 DUP3 DUP2 MSTORE PUSH1 0x20 ADD DUP11 DUP2 MSTORE PUSH1 0x20 ADD DUP10 DUP2 MSTORE PUSH1 0x20 ADD PUSH1 0x0 PUSH1 0x2 DUP2 GT ISZERO PUSH2 0x1172 JUMPI PUSH2 0x1172 PUSH2 0x4D32 JUMP JUMPDEST DUP2 MSTORE PUSH1 0x20 DUP1 DUP3 ADD DUP11 SWAP1 MSTORE PUSH1 0x40 DUP1 DUP4 ADD DUP11 SWAP1 MSTORE PUSH1 0x60 DUP4 ADD DUP10 SWAP1 MSTORE PUSH1 0x80 SWAP1 SWAP3 ADD DUP8 SWAP1 MSTORE PUSH1 0x0 DUP5 DUP2 MSTORE PUSH1 0x9 DUP3 MSTORE SWAP2 SWAP1 SWAP2 KECCAK256 DUP3 MLOAD DUP2 SSTORE SWAP1 DUP3 ADD MLOAD PUSH1 0x1 DUP3 ADD SWAP1 PUSH2 0x11B7 SWAP1 DUP3 PUSH2 0x5911 JUMP JUMPDEST POP PUSH1 0x40 DUP3 ADD MLOAD DUP2 PUSH1 0x2 ADD SSTORE PUSH1 0x60 DUP3 ADD MLOAD DUP2 PUSH1 0x3 ADD PUSH1 0x0 PUSH2 0x100 EXP DUP2 SLOAD DUP2 PUSH1 0xFF MUL NOT AND SWAP1 DUP4 PUSH1 0x2 DUP2 GT ISZERO PUSH2 0x11EC JUMPI PUSH2 0x11EC PUSH2 0x4D32 JUMP JUMPDEST MUL OR SWAP1 SSTORE POP PUSH1 0x80 DUP3 ADD MLOAD PUSH1 0x4 DUP3 ADD SWAP1 PUSH2 0x1205 SWAP1 DUP3 PUSH2 0x5911 JUMP JUMPDEST POP PUSH1 0xA0 DUP3 ADD MLOAD PUSH1 0x5 DUP3 ADD SWAP1 PUSH2 0x121A SWAP1 DUP3 PUSH2 0x5911 JUMP JUMPDEST POP PUSH1 0xC0 DUP3 ADD MLOAD PUSH1 0x6 DUP3 ADD SWAP1 PUSH2 0x122F SWAP1 DUP3 PUSH2 0x5911 JUMP JUMPDEST POP PUSH1 0xE0 DUP3 ADD MLOAD PUSH1 0x7 DUP3 ADD SWAP1 PUSH2 0x1244 SWAP1 DUP3 PUSH2 0x5911 JUMP JUMPDEST POP SWAP1 POP POP PUSH1 0xA DUP10 PUSH1 0x40 MLOAD PUSH2 0x1258 SWAP2 SWAP1 PUSH2 0x5843 JUMP JUMPDEST SWAP1 DUP2 MSTORE PUSH1 0x40 DUP1 MLOAD SWAP2 DUP3 SWAP1 SUB PUSH1 0x20 SWAP1 DUP2 ADD DUP4 KECCAK256 DUP1 SLOAD PUSH1 0x1 DUP2 DUP2 ADD DUP4 SSTORE PUSH1 0x0 SWAP3 DUP4 MSTORE DUP4 DUP4 KECCAK256 SWAP1 SWAP2 ADD DUP7 SWAP1 SSTORE CALLER DUP3 MSTORE PUSH1 0xC DUP4 MSTORE SWAP3 DUP2 KECCAK256 DUP1 SLOAD SWAP4 DUP5 ADD DUP2 SSTORE DUP2 MSTORE KECCAK256 ADD DUP3 SWAP1 SSTORE PUSH1 0x32 SWAP1 PUSH1 0x2 SWAP1 PUSH2 0x12AA SWAP1 DUP13 SWAP1 PUSH2 0x5843 JUMP JUMPDEST SWAP1 DUP2 MSTORE PUSH1 0x20 ADD PUSH1 0x40 MLOAD DUP1 SWAP2 SUB SWAP1 KECCAK256 PUSH1 0x0 DUP3 DUP3 SLOAD PUSH2 0x12C7 SWAP2 SWAP1 PUSH2 0x5830 JUMP JUMPDEST SWAP3 POP POP DUP2 SWAP1 SSTORE POP PUSH2 0x1307 DUP10 CALLER PUSH1 0x40 MLOAD DUP1 PUSH1 0x40 ADD PUSH1 0x40 MSTORE DUP1 PUSH1 0x14 DUP2 MSTORE PUSH1 0x20 ADD PUSH20 0x14D8DA19591D5B1948105C1C1BDA5B9D1B595B9D PUSH1 0x62 SHL DUP2 MSTORE POP PUSH1 0x0 PUSH2 0x4805 JUMP JUMPDEST DUP1 PUSH32 0xC7E62119D394EED933B5EDA9911107F252DDD2C36D9737DDAB518EC9E60EAB98 DUP11 PUSH1 0x0 PUSH1 0x40 MLOAD PUSH2 0x133A SWAP3 SWAP2 SWAP1 PUSH2 0x59D0 JUMP JUMPDEST PUSH1 0x40 MLOAD DUP1 SWAP2 SUB SWAP1 LOG2 POP POP POP POP POP POP POP POP POP JUMP JUMPDEST DUP4 PUSH1 0x2 PUSH2 0x135B DUP3 CALLER DUP4 PUSH2 0x4957 JUMP JUMPDEST DUP1 PUSH2 0x1388 JUMPI POP PUSH1 0x5 DUP3 PUSH1 0x40 MLOAD PUSH2 0x1371 SWAP2 SWAP1 PUSH2 0x5843 JUMP JUMPDEST SWAP1 DUP2 MSTORE PUSH1 0x40 MLOAD SWAP1 DUP2 SWAP1 SUB PUSH1 0x20 ADD SWAP1 KECCAK256 PUSH1 0x4 ADD SLOAD PUSH1 0xFF AND JUMPDEST PUSH2 0x13A4 JUMPI PUSH1 0x40 MLOAD PUSH3 0x461BCD PUSH1 0xE5 SHL DUP2 MSTORE PUSH1 0x4 ADD PUSH2 0x961 SWAP1 PUSH2 0x5885 JUMP JUMPDEST PUSH2 0x13DF DUP3 CALLER PUSH1 0x40 MLOAD DUP1 PUSH1 0x40 ADD PUSH1 0x40 MSTORE DUP1 PUSH1 0xD DUP2 MSTORE PUSH1 0x20 ADD PUSH13 0x5265636F726420416363657373 PUSH1 0x98 SHL DUP2 MSTORE POP PUSH1 0x5 DUP7 PUSH1 0x40 MLOAD PUSH2 0x10C0 SWAP2 SWAP1 PUSH2 0x5843 JUMP JUMPDEST PUSH1 0x2 CALLER PUSH1 0x0 SWAP1 DUP2 MSTORE PUSH1 0x6 PUSH1 0x20 MSTORE PUSH1 0x40 SWAP1 KECCAK256 SLOAD PUSH1 0xFF AND PUSH1 0x4 DUP2 GT ISZERO PUSH2 0x1405 JUMPI PUSH2 0x1405 PUSH2 0x4D32 JUMP JUMPDEST EQ DUP1 PUSH2 0x1434 JUMPI POP PUSH1 0x3 CALLER PUSH1 0x0 SWAP1 DUP2 MSTORE PUSH1 0x6 PUSH1 0x20 MSTORE PUSH1 0x40 SWAP1 KECCAK256 SLOAD PUSH1 0xFF AND PUSH1 0x4 DUP2 GT ISZERO PUSH2 0x1432 JUMPI PUSH2 0x1432 PUSH2 0x4D32 JUMP JUMPDEST EQ JUMPDEST PUSH2 0x1450 JUMPI PUSH1 0x40 MLOAD PUSH3 0x461BCD PUSH1 0xE5 SHL DUP2 MSTORE PUSH1 0x4 ADD PUSH2 0x961 SWAP1 PUSH2 0x585F JUMP JUMPDEST PUSH1 0x0 DUP1 PUSH1 0xF DUP9 PUSH1 0x40 MLOAD PUSH2 0x1463 SWAP2 SWAP1 PUSH2 0x5843 JUMP JUMPDEST SWAP1 DUP2 MSTORE PUSH1 0x20 ADD PUSH1 0x40 MLOAD DUP1 SWAP2 SUB SWAP1 KECCAK256 SWAP1 POP PUSH1 0x0 JUMPDEST DUP2 SLOAD DUP2 LT ISZERO PUSH2 0x1573 JUMPI DUP8 DUP1 MLOAD SWAP1 PUSH1 0x20 ADD KECCAK256 DUP3 DUP3 DUP2 SLOAD DUP2 LT PUSH2 0x1499 JUMPI PUSH2 0x1499 PUSH2 0x59FA JUMP JUMPDEST SWAP1 PUSH1 0x0 MSTORE PUSH1 0x20 PUSH1 0x0 KECCAK256 SWAP1 PUSH1 0x6 MUL ADD PUSH1 0x0 ADD PUSH1 0x40 MLOAD PUSH2 0x14B7 SWAP2 SWAP1 PUSH2 0x580E JUMP JUMPDEST PUSH1 0x40 MLOAD DUP1 SWAP2 SUB SWAP1 KECCAK256 EQ DUP1 ISZERO PUSH2 0x14F1 JUMPI POP DUP2 DUP2 DUP2 SLOAD DUP2 LT PUSH2 0x14D9 JUMPI PUSH2 0x14D9 PUSH2 0x59FA JUMP JUMPDEST PUSH1 0x0 SWAP2 DUP3 MSTORE PUSH1 0x20 SWAP1 SWAP2 KECCAK256 PUSH1 0x5 PUSH1 0x6 SWAP1 SWAP3 MUL ADD ADD SLOAD PUSH1 0xFF AND JUMPDEST ISZERO PUSH2 0x1561 JUMPI DUP7 DUP3 DUP3 DUP2 SLOAD DUP2 LT PUSH2 0x1509 JUMPI PUSH2 0x1509 PUSH2 0x59FA JUMP JUMPDEST SWAP1 PUSH1 0x0 MSTORE PUSH1 0x20 PUSH1 0x0 KECCAK256 SWAP1 PUSH1 0x6 MUL ADD PUSH1 0x3 ADD SWAP1 DUP2 PUSH2 0x1526 SWAP2 SWAP1 PUSH2 0x5911 JUMP JUMPDEST POP DUP6 DUP3 DUP3 DUP2 SLOAD DUP2 LT PUSH2 0x153A JUMPI PUSH2 0x153A PUSH2 0x59FA JUMP JUMPDEST SWAP1 PUSH1 0x0 MSTORE PUSH1 0x20 PUSH1 0x0 KECCAK256 SWAP1 PUSH1 0x6 MUL ADD PUSH1 0x4 ADD SWAP1 DUP2 PUSH2 0x1557 SWAP2 SWAP1 PUSH2 0x5911 JUMP JUMPDEST POP PUSH1 0x1 SWAP3 POP PUSH2 0x1573 JUMP JUMPDEST DUP1 PUSH2 0x156B DUP2 PUSH2 0x58B2 JUMP JUMPDEST SWAP2 POP POP PUSH2 0x1476 JUMP JUMPDEST POP DUP2 PUSH2 0x162B JUMPI PUSH1 0x40 DUP1 MLOAD PUSH1 0xC0 DUP2 ADD DUP3 MSTORE DUP9 DUP2 MSTORE TIMESTAMP PUSH1 0x20 DUP1 DUP4 ADD SWAP2 SWAP1 SWAP2 MSTORE PUSH1 0x0 SWAP3 DUP3 ADD DUP4 SWAP1 MSTORE PUSH1 0x60 DUP3 ADD DUP10 SWAP1 MSTORE PUSH1 0x80 DUP3 ADD DUP9 SWAP1 MSTORE PUSH1 0x1 PUSH1 0xA0 DUP4 ADD DUP2 SWAP1 MSTORE DUP5 SLOAD SWAP1 DUP2 ADD DUP6 SSTORE DUP5 DUP5 MSTORE SWAP3 KECCAK256 DUP2 MLOAD SWAP2 SWAP3 PUSH1 0x6 MUL ADD SWAP1 DUP2 SWAP1 PUSH2 0x15D0 SWAP1 DUP3 PUSH2 0x5911 JUMP JUMPDEST POP PUSH1 0x20 DUP3 ADD MLOAD PUSH1 0x1 DUP3 ADD SSTORE PUSH1 0x40 DUP3 ADD MLOAD PUSH1 0x2 DUP3 ADD SSTORE PUSH1 0x60 DUP3 ADD MLOAD PUSH1 0x3 DUP3 ADD SWAP1 PUSH2 0x15F9 SWAP1 DUP3 PUSH2 0x5911 JUMP JUMPDEST POP PUSH1 0x80 DUP3 ADD MLOAD PUSH1 0x4 DUP3 ADD SWAP1 PUSH2 0x160E SWAP1 DUP3 PUSH2 0x5911 JUMP JUMPDEST POP PUSH1 0xA0 SWAP2 SWAP1 SWAP2 ADD MLOAD PUSH1 0x5 SWAP1 SWAP2 ADD DUP1 SLOAD PUSH1 0xFF NOT AND SWAP2 ISZERO ISZERO SWAP2 SWAP1 SWAP2 OR SWAP1 SSTORE JUMPDEST DUP8 PUSH1 0x40 MLOAD PUSH2 0x1639 SWAP2 SWAP1 PUSH2 0x5843 JUMP JUMPDEST PUSH1 0x40 MLOAD DUP1 SWAP2 SUB SWAP1 KECCAK256 PUSH32 0xA8ED6C1BF0F562BBB6CAFC7F7C502B61497A02A3431AC098ECA12DFCF3F3DAF DUP9 DUP9 PUSH1 0x40 MLOAD PUSH2 0x1672 SWAP3 SWAP2 SWAP1 PUSH2 0x5A10 JUMP JUMPDEST PUSH1 0x40 MLOAD DUP1 SWAP2 SUB SWAP1 LOG2 POP POP POP POP POP POP POP POP JUMP JUMPDEST PUSH1 0x60 PUSH2 0x1692 DUP4 CALLER PUSH1 0x1 PUSH2 0x4957 JUMP JUMPDEST PUSH2 0x16AE JUMPI PUSH1 0x40 MLOAD PUSH3 0x461BCD PUSH1 0xE5 SHL DUP2 MSTORE PUSH1 0x4 ADD PUSH2 0x961 SWAP1 PUSH2 0x5A3E JUMP JUMPDEST PUSH1 0xE DUP4 PUSH1 0x40 MLOAD PUSH2 0x16BE SWAP2 SWAP1 PUSH2 0x5843 JUMP JUMPDEST SWAP1 DUP2 MSTORE PUSH1 0x20 ADD PUSH1 0x40 MLOAD DUP1 SWAP2 SUB SWAP1 KECCAK256 DUP3 PUSH1 0x40 MLOAD PUSH2 0x16DA SWAP2 SWAP1 PUSH2 0x5843 JUMP JUMPDEST SWAP1 DUP2 MSTORE PUSH1 0x20 ADD PUSH1 0x40 MLOAD DUP1 SWAP2 SUB SWAP1 KECCAK256 DUP1 SLOAD DUP1 PUSH1 0x20 MUL PUSH1 0x20 ADD PUSH1 0x40 MLOAD SWAP1 DUP2 ADD PUSH1 0x40 MSTORE DUP1 SWAP3 SWAP2 SWAP1 DUP2 DUP2 MSTORE PUSH1 0x20 ADD PUSH1 0x0 SWAP1 JUMPDEST DUP3 DUP3 LT ISZERO PUSH2 0x1872 JUMPI DUP4 DUP3 SWAP1 PUSH1 0x0 MSTORE PUSH1 0x20 PUSH1 0x0 KECCAK256 SWAP1 PUSH1 0x4 MUL ADD PUSH1 0x40 MLOAD DUP1 PUSH1 0x80 ADD PUSH1 0x40 MSTORE SWAP1 DUP2 PUSH1 0x0 DUP3 ADD DUP1 SLOAD PUSH2 0x173B SWAP1 PUSH2 0x5753 JUMP JUMPDEST DUP1 PUSH1 0x1F ADD PUSH1 0x20 DUP1 SWAP2 DIV MUL PUSH1 0x20 ADD PUSH1 0x40 MLOAD SWAP1 DUP2 ADD PUSH1 0x40 MSTORE DUP1 SWAP3 SWAP2 SWAP1 DUP2 DUP2 MSTORE PUSH1 0x20 ADD DUP3 DUP1 SLOAD PUSH2 0x1767 SWAP1 PUSH2 0x5753 JUMP JUMPDEST DUP1 ISZERO PUSH2 0x17B4 JUMPI DUP1 PUSH1 0x1F LT PUSH2 0x1789 JUMPI PUSH2 0x100 DUP1 DUP4 SLOAD DIV MUL DUP4 MSTORE SWAP2 PUSH1 0x20 ADD SWAP2 PUSH2 0x17B4 JUMP JUMPDEST DUP3 ADD SWAP2 SWAP1 PUSH1 0x0 MSTORE PUSH1 0x20 PUSH1 0x0 KECCAK256 SWAP1 JUMPDEST DUP2 SLOAD DUP2 MSTORE SWAP1 PUSH1 0x1 ADD SWAP1 PUSH1 0x20 ADD DUP1 DUP4 GT PUSH2 0x1797 JUMPI DUP3 SWAP1 SUB PUSH1 0x1F AND DUP3 ADD SWAP2 JUMPDEST POP POP POP POP POP DUP2 MSTORE PUSH1 0x20 ADD PUSH1 0x1 DUP3 ADD SLOAD DUP2 MSTORE PUSH1 0x20 ADD PUSH1 0x2 DUP3 ADD SLOAD DUP2 MSTORE PUSH1 0x20 ADD PUSH1 0x3 DUP3 ADD DUP1 SLOAD PUSH2 0x17E1 SWAP1 PUSH2 0x5753 JUMP JUMPDEST DUP1 PUSH1 0x1F ADD PUSH1 0x20 DUP1 SWAP2 DIV MUL PUSH1 0x20 ADD PUSH1 0x40 MLOAD SWAP1 DUP2 ADD PUSH1 0x40 MSTORE DUP1 SWAP3 SWAP2 SWAP1 DUP2 DUP2 MSTORE PUSH1 0x20 ADD DUP3 DUP1 SLOAD PUSH2 0x180D SWAP1 PUSH2 0x5753 JUMP JUMPDEST DUP1 ISZERO PUSH2 0x185A JUMPI DUP1 PUSH1 0x1F LT PUSH2 0x182F JUMPI PUSH2 0x100 DUP1 DUP4 SLOAD DIV MUL DUP4 MSTORE SWAP2 PUSH1 0x20 ADD SWAP2 PUSH2 0x185A JUMP JUMPDEST DUP3 ADD SWAP2 SWAP1 PUSH1 0x0 MSTORE PUSH1 0x20 PUSH1 0x0 KECCAK256 SWAP1 JUMPDEST DUP2 SLOAD DUP2 MSTORE SWAP1 PUSH1 0x1 ADD SWAP1 PUSH1 0x20 ADD DUP1 DUP4 GT PUSH2 0x183D JUMPI DUP3 SWAP1 SUB PUSH1 0x1F AND DUP3 ADD SWAP2 JUMPDEST POP POP POP POP POP DUP2 MSTORE POP POP DUP2 MSTORE PUSH1 0x20 ADD SWAP1 PUSH1 0x1 ADD SWAP1 PUSH2 0x1708 JUMP JUMPDEST POP POP POP POP SWAP1 POP JUMPDEST SWAP3 SWAP2 POP POP JUMP JUMPDEST DUP2 PUSH1 0x2 PUSH2 0x188D DUP3 CALLER DUP4 PUSH2 0x4957 JUMP JUMPDEST DUP1 PUSH2 0x18BA JUMPI POP PUSH1 0x5 DUP3 PUSH1 0x40 MLOAD PUSH2 0x18A3 SWAP2 SWAP1 PUSH2 0x5843 JUMP JUMPDEST SWAP1 DUP2 MSTORE PUSH1 0x40 MLOAD SWAP1 DUP2 SWAP1 SUB PUSH1 0x20 ADD SWAP1 KECCAK256 PUSH1 0x4 ADD SLOAD PUSH1 0xFF AND JUMPDEST PUSH2 0x18D6 JUMPI PUSH1 0x40 MLOAD PUSH3 0x461BCD PUSH1 0xE5 SHL DUP2 MSTORE PUSH1 0x4 ADD PUSH2 0x961 SWAP1 PUSH2 0x5885 JUMP JUMPDEST PUSH2 0x1911 DUP3 CALLER PUSH1 0x40 MLOAD DUP1 PUSH1 0x40 ADD PUSH1 0x40 MSTORE DUP1 PUSH1 0xD DUP2 MSTORE PUSH1 0x20 ADD PUSH13 0x5265636F726420416363657373 PUSH1 0x98 SHL DUP2 MSTORE POP PUSH1 0x5 DUP7 PUSH1 0x40 MLOAD PUSH2 0x10C0 SWAP2 SWAP1 PUSH2 0x5843 JUMP JUMPDEST PUSH1 0x10 DUP5 PUSH1 0x40 MLOAD PUSH2 0x1921 SWAP2 SWAP1 PUSH2 0x5843 JUMP JUMPDEST SWAP1 DUP2 MSTORE PUSH1 0x40 MLOAD SWAP1 DUP2 SWAP1 SUB PUSH1 0x20 ADD SWAP1 KECCAK256 SLOAD DUP4 LT PUSH2 0x1975 JUMPI PUSH1 0x40 MLOAD PUSH3 0x461BCD PUSH1 0xE5 SHL DUP2 MSTORE PUSH1 0x20 PUSH1 0x4 DUP3 ADD MSTORE PUSH1 0x13 PUSH1 0x24 DUP3 ADD MSTORE PUSH19 0x92DCECC2D8D2C840C2D8CAE4E840D2DCC8CAF PUSH1 0x6B SHL PUSH1 0x44 DUP3 ADD MSTORE PUSH1 0x64 ADD PUSH2 0x961 JUMP JUMPDEST PUSH1 0x1 PUSH1 0x10 DUP6 PUSH1 0x40 MLOAD PUSH2 0x1987 SWAP2 SWAP1 PUSH2 0x5843 JUMP JUMPDEST SWAP1 DUP2 MSTORE PUSH1 0x20 ADD PUSH1 0x40 MLOAD DUP1 SWAP2 SUB SWAP1 KECCAK256 DUP5 DUP2 SLOAD DUP2 LT PUSH2 0x19A6 JUMPI PUSH2 0x19A6 PUSH2 0x59FA JUMP JUMPDEST PUSH1 0x0 SWAP2 DUP3 MSTORE PUSH1 0x20 SWAP1 SWAP2 KECCAK256 PUSH1 0x4 SWAP1 SWAP2 MUL ADD PUSH1 0x3 ADD DUP1 SLOAD PUSH1 0xFF NOT AND SWAP2 ISZERO ISZERO SWAP2 SWAP1 SWAP2 OR SWAP1 SSTORE POP POP POP POP JUMP JUMPDEST CALLER ADDRESS EQ DUP1 PUSH2 0x1A3F JUMPI POP PUSH1 0x1 CALLER PUSH1 0x0 SWAP1 DUP2 MSTORE PUSH1 0x6 PUSH1 0x20 MSTORE PUSH1 0x40 SWAP1 KECCAK256 SLOAD PUSH1 0xFF AND PUSH1 0x4 DUP2 GT ISZERO PUSH2 0x19FD JUMPI PUSH2 0x19FD PUSH2 0x4D32 JUMP JUMPDEST EQ DUP1 ISZERO PUSH2 0x1A3F JUMPI POP DUP3 DUP1 MLOAD SWAP1 PUSH1 0x20 ADD KECCAK256 PUSH1 0x5 DUP5 PUSH1 0x40 MLOAD PUSH2 0x1A1D SWAP2 SWAP1 PUSH2 0x5843 JUMP JUMPDEST SWAP1 DUP2 MSTORE PUSH1 0x40 MLOAD SWAP1 DUP2 SWAP1 SUB PUSH1 0x20 ADD DUP2 KECCAK256 PUSH2 0x1A35 SWAP2 PUSH2 0x580E JUMP JUMPDEST PUSH1 0x40 MLOAD DUP1 SWAP2 SUB SWAP1 KECCAK256 EQ JUMPDEST PUSH2 0x1A5B JUMPI PUSH1 0x40 MLOAD PUSH3 0x461BCD PUSH1 0xE5 SHL DUP2 MSTORE PUSH1 0x4 ADD PUSH2 0x961 SWAP1 PUSH2 0x585F JUMP JUMPDEST DUP1 PUSH1 0x5 DUP5 PUSH1 0x40 MLOAD PUSH2 0x1A6C SWAP2 SWAP1 PUSH2 0x5843 JUMP JUMPDEST SWAP1 DUP2 MSTORE PUSH1 0x40 DUP1 MLOAD PUSH1 0x20 SWAP3 DUP2 SWAP1 SUB DUP4 ADD SWAP1 KECCAK256 PUSH1 0x1 PUSH1 0x1 PUSH1 0xA0 SHL SUB DUP7 AND PUSH1 0x0 SWAP1 DUP2 MSTORE PUSH1 0x2 SWAP1 SWAP2 ADD SWAP1 SWAP3 MSTORE SWAP1 KECCAK256 DUP1 SLOAD PUSH1 0xFF NOT AND PUSH1 0x1 DUP4 PUSH1 0x3 DUP2 GT ISZERO PUSH2 0x1AB0 JUMPI PUSH2 0x1AB0 PUSH2 0x4D32 JUMP JUMPDEST MUL OR SWAP1 SSTORE POP DUP2 PUSH1 0x1 PUSH1 0x1 PUSH1 0xA0 SHL SUB AND DUP4 PUSH1 0x40 MLOAD PUSH2 0x1ACD SWAP2 SWAP1 PUSH2 0x5843 JUMP JUMPDEST PUSH1 0x40 MLOAD DUP1 SWAP2 SUB SWAP1 KECCAK256 PUSH32 0x115F6EF52391618892F3A77F23446F2B996B12F28B601E7D85F2B8D372436C71 DUP4 PUSH1 0x40 MLOAD PUSH2 0x1B04 SWAP2 SWAP1 PUSH2 0x5A66 JUMP JUMPDEST PUSH1 0x40 MLOAD DUP1 SWAP2 SUB SWAP1 LOG3 POP POP POP JUMP JUMPDEST PUSH1 0x60 PUSH2 0x1B1F DUP3 CALLER PUSH1 0x1 PUSH2 0x4957 JUMP JUMPDEST PUSH2 0x1B3B JUMPI PUSH1 0x40 MLOAD PUSH3 0x461BCD PUSH1 0xE5 SHL DUP2 MSTORE PUSH1 0x4 ADD PUSH2 0x961 SWAP1 PUSH2 0x5A3E JUMP JUMPDEST PUSH1 0x0 DUP1 JUMPDEST PUSH1 0x7 SLOAD DUP2 LT ISZERO PUSH2 0x1BAF JUMPI DUP4 DUP1 MLOAD SWAP1 PUSH1 0x20 ADD KECCAK256 PUSH1 0x7 DUP3 DUP2 SLOAD DUP2 LT PUSH2 0x1B64 JUMPI PUSH2 0x1B64 PUSH2 0x59FA JUMP JUMPDEST SWAP1 PUSH1 0x0 MSTORE PUSH1 0x20 PUSH1 0x0 KECCAK256 SWAP1 PUSH1 0x5 MUL ADD PUSH1 0x1 ADD PUSH1 0x40 MLOAD PUSH2 0x1B82 SWAP2 SWAP1 PUSH2 0x580E JUMP JUMPDEST PUSH1 0x40 MLOAD DUP1 SWAP2 SUB SWAP1 KECCAK256 SUB PUSH2 0x1B9D JUMPI DUP2 PUSH2 0x1B99 DUP2 PUSH2 0x58B2 JUMP JUMPDEST SWAP3 POP POP JUMPDEST DUP1 PUSH2 0x1BA7 DUP2 PUSH2 0x58B2 JUMP JUMPDEST SWAP2 POP POP PUSH2 0x1B3F JUMP JUMPDEST POP PUSH1 0x0 DUP2 PUSH1 0x1 PUSH1 0x1 PUSH1 0x40 SHL SUB DUP2 GT ISZERO PUSH2 0x1BCA JUMPI PUSH2 0x1BCA PUSH2 0x4DE8 JUMP JUMPDEST PUSH1 0x40 MLOAD SWAP1 DUP1 DUP3 MSTORE DUP1 PUSH1 0x20 MUL PUSH1 0x20 ADD DUP3 ADD PUSH1 0x40 MSTORE DUP1 ISZERO PUSH2 0x1C38 JUMPI DUP2 PUSH1 0x20 ADD JUMPDEST PUSH2 0x1C25 PUSH1 0x40 MLOAD DUP1 PUSH1 0xA0 ADD PUSH1 0x40 MSTORE DUP1 PUSH1 0x0 PUSH1 0x1 PUSH1 0x1 PUSH1 0xA0 SHL SUB AND DUP2 MSTORE PUSH1 0x20 ADD PUSH1 0x60 DUP2 MSTORE PUSH1 0x20 ADD PUSH1 0x0 DUP2 MSTORE PUSH1 0x20 ADD PUSH1 0x60 DUP2 MSTORE PUSH1 0x20 ADD PUSH1 0x0 ISZERO ISZERO DUP2 MSTORE POP SWAP1 JUMP JUMPDEST DUP2 MSTORE PUSH1 0x20 ADD SWAP1 PUSH1 0x1 SWAP1 SUB SWAP1 DUP2 PUSH2 0x1BE8 JUMPI SWAP1 POP JUMPDEST POP SWAP1 POP PUSH1 0x0 DUP1 JUMPDEST PUSH1 0x7 SLOAD DUP2 LT ISZERO PUSH2 0x1E51 JUMPI DUP6 DUP1 MLOAD SWAP1 PUSH1 0x20 ADD KECCAK256 PUSH1 0x7 DUP3 DUP2 SLOAD DUP2 LT PUSH2 0x1C64 JUMPI PUSH2 0x1C64 PUSH2 0x59FA JUMP JUMPDEST SWAP1 PUSH1 0x0 MSTORE PUSH1 0x20 PUSH1 0x0 KECCAK256 SWAP1 PUSH1 0x5 MUL ADD PUSH1 0x1 ADD PUSH1 0x40 MLOAD PUSH2 0x1C82 SWAP2 SWAP1 PUSH2 0x580E JUMP JUMPDEST PUSH1 0x40 MLOAD DUP1 SWAP2 SUB SWAP1 KECCAK256 SUB PUSH2 0x1E3F JUMPI PUSH1 0x7 DUP2 DUP2 SLOAD DUP2 LT PUSH2 0x1CA2 JUMPI PUSH2 0x1CA2 PUSH2 0x59FA JUMP JUMPDEST PUSH1 0x0 SWAP2 DUP3 MSTORE PUSH1 0x20 SWAP2 DUP3 SWAP1 KECCAK256 PUSH1 0x40 DUP1 MLOAD PUSH1 0xA0 DUP2 ADD SWAP1 SWAP2 MSTORE PUSH1 0x5 SWAP1 SWAP3 MUL ADD DUP1 SLOAD PUSH1 0x1 PUSH1 0x1 PUSH1 0xA0 SHL SUB AND DUP3 MSTORE PUSH1 0x1 DUP2 ADD DUP1 SLOAD SWAP3 SWAP4 SWAP2 SWAP3 SWAP2 DUP5 ADD SWAP2 PUSH2 0x1CE2 SWAP1 PUSH2 0x5753 JUMP JUMPDEST DUP1 PUSH1 0x1F ADD PUSH1 0x20 DUP1 SWAP2 DIV MUL PUSH1 0x20 ADD PUSH1 0x40 MLOAD SWAP1 DUP2 ADD PUSH1 0x40 MSTORE DUP1 SWAP3 SWAP2 SWAP1 DUP2 DUP2 MSTORE PUSH1 0x20 ADD DUP3 DUP1 SLOAD PUSH2 0x1D0E SWAP1 PUSH2 0x5753 JUMP JUMPDEST DUP1 ISZERO PUSH2 0x1D5B JUMPI DUP1 PUSH1 0x1F LT PUSH2 0x1D30 JUMPI PUSH2 0x100 DUP1 DUP4 SLOAD DIV MUL DUP4 MSTORE SWAP2 PUSH1 0x20 ADD SWAP2 PUSH2 0x1D5B JUMP JUMPDEST DUP3 ADD SWAP2 SWAP1 PUSH1 0x0 MSTORE PUSH1 0x20 PUSH1 0x0 KECCAK256 SWAP1 JUMPDEST DUP2 SLOAD DUP2 MSTORE SWAP1 PUSH1 0x1 ADD SWAP1 PUSH1 0x20 ADD DUP1 DUP4 GT PUSH2 0x1D3E JUMPI DUP3 SWAP1 SUB PUSH1 0x1F AND DUP3 ADD SWAP2 JUMPDEST POP POP POP POP POP DUP2 MSTORE PUSH1 0x20 ADD PUSH1 0x2 DUP3 ADD SLOAD DUP2 MSTORE PUSH1 0x20 ADD PUSH1 0x3 DUP3 ADD DUP1 SLOAD PUSH2 0x1D7E SWAP1 PUSH2 0x5753 JUMP JUMPDEST DUP1 PUSH1 0x1F ADD PUSH1 0x20 DUP1 SWAP2 DIV MUL PUSH1 0x20 ADD PUSH1 0x40 MLOAD SWAP1 DUP2 ADD PUSH1 0x40 MSTORE DUP1 SWAP3 SWAP2 SWAP1 DUP2 DUP2 MSTORE PUSH1 0x20 ADD DUP3 DUP1 SLOAD PUSH2 0x1DAA SWAP1 PUSH2 0x5753 JUMP JUMPDEST DUP1 ISZERO PUSH2 0x1DF7 JUMPI DUP1 PUSH1 0x1F LT PUSH2 0x1DCC JUMPI PUSH2 0x100 DUP1 DUP4 SLOAD DIV MUL DUP4 MSTORE SWAP2 PUSH1 0x20 ADD SWAP2 PUSH2 0x1DF7 JUMP JUMPDEST DUP3 ADD SWAP2 SWAP1 PUSH1 0x0 MSTORE PUSH1 0x20 PUSH1 0x0 KECCAK256 SWAP1 JUMPDEST DUP2 SLOAD DUP2 MSTORE SWAP1 PUSH1 0x1 ADD SWAP1 PUSH1 0x20 ADD DUP1 DUP4 GT PUSH2 0x1DDA JUMPI DUP3 SWAP1 SUB PUSH1 0x1F AND DUP3 ADD SWAP2 JUMPDEST POP POP POP SWAP2 DUP4 MSTORE POP POP PUSH1 0x4 SWAP2 SWAP1 SWAP2 ADD SLOAD PUSH1 0xFF AND ISZERO ISZERO PUSH1 0x20 SWAP1 SWAP2 ADD MSTORE DUP4 MLOAD DUP5 SWAP1 DUP5 SWAP1 DUP2 LT PUSH2 0x1E25 JUMPI PUSH2 0x1E25 PUSH2 0x59FA JUMP JUMPDEST PUSH1 0x20 MUL PUSH1 0x20 ADD ADD DUP2 SWAP1 MSTORE POP DUP2 DUP1 PUSH2 0x1E3B SWAP1 PUSH2 0x58B2 JUMP JUMPDEST SWAP3 POP POP JUMPDEST DUP1 PUSH2 0x1E49 DUP2 PUSH2 0x58B2 JUMP JUMPDEST SWAP2 POP POP PUSH2 0x1C3F JUMP JUMPDEST POP SWAP1 SWAP5 SWAP4 POP POP POP POP JUMP JUMPDEST PUSH1 0x60 PUSH2 0x1E69 DUP3 CALLER PUSH1 0x1 PUSH2 0x4957 JUMP JUMPDEST PUSH2 0x1E85 JUMPI PUSH1 0x40 MLOAD PUSH3 0x461BCD PUSH1 0xE5 SHL DUP2 MSTORE PUSH1 0x4 ADD PUSH2 0x961 SWAP1 PUSH2 0x5A3E JUMP JUMPDEST PUSH1 0x10 DUP3 PUSH1 0x40 MLOAD PUSH2 0x1E95 SWAP2 SWAP1 PUSH2 0x5843 JUMP JUMPDEST SWAP1 DUP2 MSTORE PUSH1 0x20 ADD PUSH1 0x40 MLOAD DUP1 SWAP2 SUB SWAP1 KECCAK256 DUP1 SLOAD DUP1 PUSH1 0x20 MUL PUSH1 0x20 ADD PUSH1 0x40 MLOAD SWAP1 DUP2 ADD PUSH1 0x40 MSTORE DUP1 SWAP3 SWAP2 SWAP1 DUP2 DUP2 MSTORE PUSH1 0x20 ADD PUSH1 0x0 SWAP1 JUMPDEST DUP3 DUP3 LT ISZERO PUSH2 0x2038 JUMPI DUP4 DUP3 SWAP1 PUSH1 0x0 MSTORE PUSH1 0x20 PUSH1 0x0 KECCAK256 SWAP1 PUSH1 0x4 MUL ADD PUSH1 0x40 MLOAD DUP1 PUSH1 0x80 ADD PUSH1 0x40 MSTORE SWAP1 DUP2 PUSH1 0x0 DUP3 ADD DUP1 SLOAD PUSH2 0x1EF6 SWAP1 PUSH2 0x5753 JUMP JUMPDEST DUP1 PUSH1 0x1F ADD PUSH1 0x20 DUP1 SWAP2 DIV MUL PUSH1 0x20 ADD PUSH1 0x40 MLOAD SWAP1 DUP2 ADD PUSH1 0x40 MSTORE DUP1 SWAP3 SWAP2 SWAP1 DUP2 DUP2 MSTORE PUSH1 0x20 ADD DUP3 DUP1 SLOAD PUSH2 0x1F22 SWAP1 PUSH2 0x5753 JUMP JUMPDEST DUP1 ISZERO PUSH2 0x1F6F JUMPI DUP1 PUSH1 0x1F LT PUSH2 0x1F44 JUMPI PUSH2 0x100 DUP1 DUP4 SLOAD DIV MUL DUP4 MSTORE SWAP2 PUSH1 0x20 ADD SWAP2 PUSH2 0x1F6F JUMP JUMPDEST DUP3 ADD SWAP2 SWAP1 PUSH1 0x0 MSTORE PUSH1 0x20 PUSH1 0x0 KECCAK256 SWAP1 JUMPDEST DUP2 SLOAD DUP2 MSTORE SWAP1 PUSH1 0x1 ADD SWAP1 PUSH1 0x20 ADD DUP1 DUP4 GT PUSH2 0x1F52 JUMPI DUP3 SWAP1 SUB PUSH1 0x1F AND DUP3 ADD SWAP2 JUMPDEST POP POP POP POP POP DUP2 MSTORE PUSH1 0x20 ADD PUSH1 0x1 DUP3 ADD DUP1 SLOAD PUSH2 0x1F88 SWAP1 PUSH2 0x5753 JUMP JUMPDEST DUP1 PUSH1 0x1F ADD PUSH1 0x20 DUP1 SWAP2 DIV MUL PUSH1 0x20 ADD PUSH1 0x40 MLOAD SWAP1 DUP2 ADD PUSH1 0x40 MSTORE DUP1 SWAP3 SWAP2 SWAP1 DUP2 DUP2 MSTORE PUSH1 0x20 ADD DUP3 DUP1 SLOAD PUSH2 0x1FB4 SWAP1 PUSH2 0x5753 JUMP JUMPDEST DUP1 ISZERO PUSH2 0x2001 JUMPI DUP1 PUSH1 0x1F LT PUSH2 0x1FD6 JUMPI PUSH2 0x100 DUP1 DUP4 SLOAD DIV MUL DUP4 MSTORE SWAP2 PUSH1 0x20 ADD SWAP2 PUSH2 0x2001 JUMP JUMPDEST DUP3 ADD SWAP2 SWAP1 PUSH1 0x0 MSTORE PUSH1 0x20 PUSH1 0x0 KECCAK256 SWAP1 JUMPDEST DUP2 SLOAD DUP2 MSTORE SWAP1 PUSH1 0x1 ADD SWAP1 PUSH1 0x20 ADD DUP1 DUP4 GT PUSH2 0x1FE4 JUMPI DUP3 SWAP1 SUB PUSH1 0x1F AND DUP3 ADD SWAP2 JUMPDEST POP POP POP SWAP2 DUP4 MSTORE POP POP PUSH1 0x2 DUP3 ADD SLOAD PUSH1 0x20 DUP1 DUP4 ADD SWAP2 SWAP1 SWAP2 MSTORE PUSH1 0x3 SWAP1 SWAP3 ADD SLOAD PUSH1 0xFF AND ISZERO ISZERO PUSH1 0x40 SWAP1 SWAP2 ADD MSTORE SWAP1 DUP3 MSTORE PUSH1 0x1 SWAP3 SWAP1 SWAP3 ADD SWAP2 ADD PUSH2 0x1EC3 JUMP JUMPDEST POP POP POP POP SWAP1 POP SWAP2 SWAP1 POP JUMP JUMPDEST PUSH1 0x3 DUP1 CALLER PUSH1 0x0 SWAP1 DUP2 MSTORE PUSH1 0x6 PUSH1 0x20 MSTORE PUSH1 0x40 SWAP1 KECCAK256 SLOAD PUSH1 0xFF AND PUSH1 0x4 DUP2 GT ISZERO PUSH2 0x206A JUMPI PUSH2 0x206A PUSH2 0x4D32 JUMP JUMPDEST EQ PUSH2 0x20AB JUMPI PUSH1 0x40 MLOAD PUSH3 0x461BCD PUSH1 0xE5 SHL DUP2 MSTORE PUSH1 0x20 PUSH1 0x4 DUP3 ADD MSTORE PUSH1 0x11 PUSH1 0x24 DUP3 ADD MSTORE PUSH17 0x556E617574686F72697A656420726F6C65 PUSH1 0x78 SHL PUSH1 0x44 DUP3 ADD MSTORE PUSH1 0x64 ADD PUSH2 0x961 JUMP JUMPDEST PUSH1 0x1 PUSH1 0x1 PUSH1 0xA0 SHL SUB DUP5 AND PUSH1 0x0 SWAP1 DUP2 MSTORE PUSH1 0x4 PUSH1 0x20 MSTORE PUSH1 0x40 SWAP1 KECCAK256 PUSH1 0x2 ADD SLOAD PUSH1 0xFF AND ISZERO PUSH2 0x2117 JUMPI PUSH1 0x40 MLOAD PUSH3 0x461BCD PUSH1 0xE5 SHL DUP2 MSTORE PUSH1 0x20 PUSH1 0x4 DUP3 ADD MSTORE PUSH1 0x19 PUSH1 0x24 DUP3 ADD MSTORE PUSH32 0x446F63746F7220616C7265616479207265676973746572656400000000000000 PUSH1 0x44 DUP3 ADD MSTORE PUSH1 0x64 ADD PUSH2 0x961 JUMP JUMPDEST PUSH1 0x40 DUP1 MLOAD PUSH1 0xA0 DUP2 ADD DUP3 MSTORE DUP5 DUP2 MSTORE PUSH1 0x20 DUP1 DUP3 ADD DUP6 SWAP1 MSTORE PUSH1 0x1 DUP3 DUP5 ADD MSTORE PUSH1 0x2 PUSH1 0x60 DUP4 ADD MSTORE TIMESTAMP PUSH1 0x80 DUP4 ADD MSTORE PUSH1 0x1 PUSH1 0x1 PUSH1 0xA0 SHL SUB DUP8 AND PUSH1 0x0 SWAP1 DUP2 MSTORE PUSH1 0x4 SWAP1 SWAP2 MSTORE SWAP2 SWAP1 SWAP2 KECCAK256 DUP2 MLOAD DUP2 SWAP1 PUSH2 0x2165 SWAP1 DUP3 PUSH2 0x5911 JUMP JUMPDEST POP PUSH1 0x20 DUP3 ADD MLOAD PUSH1 0x1 DUP3 ADD SWAP1 PUSH2 0x217A SWAP1 DUP3 PUSH2 0x5911 JUMP JUMPDEST POP PUSH1 0x40 DUP3 ADD MLOAD PUSH1 0x2 DUP3 ADD DUP1 SLOAD SWAP2 ISZERO ISZERO PUSH1 0xFF NOT DUP4 AND DUP2 OR DUP3 SSTORE PUSH1 0x60 DUP6 ADD MLOAD SWAP3 PUSH2 0xFF00 NOT SWAP1 SWAP2 AND PUSH2 0xFFFF NOT SWAP1 SWAP2 AND OR PUSH2 0x100 DUP4 PUSH1 0x4 DUP2 GT ISZERO PUSH2 0x21BC JUMPI PUSH2 0x21BC PUSH2 0x4D32 JUMP JUMPDEST MUL OR SWAP1 SSTORE POP PUSH1 0x80 SWAP2 SWAP1 SWAP2 ADD MLOAD PUSH1 0x3 SWAP2 DUP3 ADD SSTORE PUSH1 0x1 PUSH1 0x1 PUSH1 0xA0 SHL SUB DUP6 AND PUSH1 0x0 DUP2 DUP2 MSTORE PUSH1 0x20 SWAP3 SWAP1 SWAP3 MSTORE PUSH1 0x40 SWAP2 DUP3 SWAP1 KECCAK256 DUP1 SLOAD PUSH1 0xFF NOT AND PUSH1 0x1 OR SWAP1 SSTORE SWAP1 MLOAD PUSH32 0xBC3A5B2AEB1BC52E3D56D3FD3423DD66CEA5ECFF8AE1F3BD0D75A0E608DA7B85 SWAP1 PUSH2 0x2225 SWAP1 DUP7 SWAP1 DUP7 SWAP1 PUSH2 0x5A10 JUMP JUMPDEST PUSH1 0x40 MLOAD DUP1 SWAP2 SUB SWAP1 LOG2 POP POP POP POP JUMP JUMPDEST PUSH1 0xB PUSH1 0x20 MSTORE DUP2 PUSH1 0x0 MSTORE PUSH1 0x40 PUSH1 0x0 KECCAK256 DUP2 DUP2 SLOAD DUP2 LT PUSH2 0x906 JUMPI PUSH1 0x0 DUP1 REVERT JUMPDEST DUP5 PUSH1 0x2 PUSH2 0x225D DUP3 CALLER DUP4 PUSH2 0x4957 JUMP JUMPDEST DUP1 PUSH2 0x228A JUMPI POP PUSH1 0x5 DUP3 PUSH1 0x40 MLOAD PUSH2 0x2273 SWAP2 SWAP1 PUSH2 0x5843 JUMP JUMPDEST SWAP1 DUP2 MSTORE PUSH1 0x40 MLOAD SWAP1 DUP2 SWAP1 SUB PUSH1 0x20 ADD SWAP1 KECCAK256 PUSH1 0x4 ADD SLOAD PUSH1 0xFF AND JUMPDEST PUSH2 0x22A6 JUMPI PUSH1 0x40 MLOAD PUSH3 0x461BCD PUSH1 0xE5 SHL DUP2 MSTORE PUSH1 0x4 ADD PUSH2 0x961 SWAP1 PUSH2 0x5885 JUMP JUMPDEST PUSH2 0x22E1 DUP3 CALLER PUSH1 0x40 MLOAD DUP1 PUSH1 0x40 ADD PUSH1 0x40 MSTORE DUP1 PUSH1 0xD DUP2 MSTORE PUSH1 0x20 ADD PUSH13 0x5265636F726420416363657373 PUSH1 0x98 SHL DUP2 MSTORE POP PUSH1 0x5 DUP7 PUSH1 0x40 MLOAD PUSH2 0x10C0 SWAP2 SWAP1 PUSH2 0x5843 JUMP JUMPDEST PUSH1 0x0 DUP8 MLOAD GT PUSH2 0x232B JUMPI PUSH1 0x40 MLOAD PUSH3 0x461BCD PUSH1 0xE5 SHL DUP2 MSTORE PUSH1 0x20 PUSH1 0x4 DUP3 ADD MSTORE PUSH1 0x16 PUSH1 0x24 DUP3 ADD MSTORE PUSH22 0x24B73B30B634B2103830BA34B2B73A1020B0B23430B9 PUSH1 0x51 SHL PUSH1 0x44 DUP3 ADD MSTORE PUSH1 0x64 ADD PUSH2 0x961 JUMP JUMPDEST PUSH1 0x0 DUP7 MLOAD GT PUSH2 0x2370 JUMPI PUSH1 0x40 MLOAD PUSH3 0x461BCD PUSH1 0xE5 SHL DUP2 MSTORE PUSH1 0x20 PUSH1 0x4 DUP3 ADD MSTORE PUSH1 0x11 PUSH1 0x24 DUP3 ADD MSTORE PUSH17 0x496E76616C696420646961676E6F736973 PUSH1 0x78 SHL PUSH1 0x44 DUP3 ADD MSTORE PUSH1 0x64 ADD PUSH2 0x961 JUMP JUMPDEST PUSH1 0x0 DUP6 MLOAD GT PUSH2 0x23BA JUMPI PUSH1 0x40 MLOAD PUSH3 0x461BCD PUSH1 0xE5 SHL DUP2 MSTORE PUSH1 0x20 PUSH1 0x4 DUP3 ADD MSTORE PUSH1 0x16 PUSH1 0x24 DUP3 ADD MSTORE PUSH22 0x496E76616C6964206D65646963696E65732064617461 PUSH1 0x50 SHL PUSH1 0x44 DUP3 ADD MSTORE PUSH1 0x64 ADD PUSH2 0x961 JUMP JUMPDEST PUSH1 0x1 DUP1 SLOAD PUSH1 0x0 SWAP2 PUSH2 0x23CB SWAP2 SWAP1 PUSH2 0x5830 JUMP JUMPDEST SWAP1 POP PUSH1 0x0 PUSH1 0x40 MLOAD DUP1 PUSH2 0x100 ADD PUSH1 0x40 MSTORE DUP1 DUP4 DUP2 MSTORE PUSH1 0x20 ADD DUP11 DUP2 MSTORE PUSH1 0x20 ADD DUP10 DUP2 MSTORE PUSH1 0x20 ADD DUP9 DUP2 MSTORE PUSH1 0x20 ADD DUP8 DUP2 MSTORE PUSH1 0x20 ADD TIMESTAMP DUP2 MSTORE PUSH1 0x20 ADD CALLER PUSH1 0x1 PUSH1 0x1 PUSH1 0xA0 SHL SUB AND DUP2 MSTORE PUSH1 0x20 ADD DUP7 DUP2 MSTORE POP SWAP1 POP PUSH1 0x0 DUP10 PUSH1 0x40 MLOAD PUSH2 0x2424 SWAP2 SWAP1 PUSH2 0x5843 JUMP JUMPDEST SWAP1 DUP2 MSTORE PUSH1 0x40 MLOAD PUSH1 0x20 SWAP2 DUP2 SWAP1 SUB DUP3 ADD SWAP1 KECCAK256 DUP1 SLOAD PUSH1 0x1 DUP1 DUP3 ADD DUP4 SSTORE PUSH1 0x0 SWAP3 DUP4 MSTORE SWAP2 DUP4 SWAP1 KECCAK256 DUP5 MLOAD PUSH1 0x8 SWAP1 SWAP3 MUL ADD SWAP1 DUP2 SSTORE SWAP2 DUP4 ADD MLOAD DUP4 SWAP3 SWAP2 DUP3 ADD SWAP1 PUSH2 0x2465 SWAP1 DUP3 PUSH2 0x5911 JUMP JUMPDEST POP PUSH1 0x40 DUP3 ADD MLOAD PUSH1 0x2 DUP3 ADD SWAP1 PUSH2 0x247A SWAP1 DUP3 PUSH2 0x5911 JUMP JUMPDEST POP PUSH1 0x60 DUP3 ADD MLOAD PUSH1 0x3 DUP3 ADD SWAP1 PUSH2 0x248F SWAP1 DUP3 PUSH2 0x5911 JUMP JUMPDEST POP PUSH1 0x80 DUP3 ADD MLOAD PUSH1 0x4 DUP3 ADD SWAP1 PUSH2 0x24A4 SWAP1 DUP3 PUSH2 0x5911 JUMP JUMPDEST POP PUSH1 0xA0 DUP3 ADD MLOAD PUSH1 0x5 DUP3 ADD SSTORE PUSH1 0xC0 DUP3 ADD MLOAD PUSH1 0x6 DUP3 ADD DUP1 SLOAD PUSH1 0x1 PUSH1 0x1 PUSH1 0xA0 SHL SUB NOT AND PUSH1 0x1 PUSH1 0x1 PUSH1 0xA0 SHL SUB SWAP1 SWAP3 AND SWAP2 SWAP1 SWAP2 OR SWAP1 SSTORE PUSH1 0xE0 DUP3 ADD MLOAD PUSH1 0x7 DUP3 ADD SWAP1 PUSH2 0x24E9 SWAP1 DUP3 PUSH2 0x5911 JUMP JUMPDEST POP POP PUSH1 0x1 DUP1 SLOAD DUP1 DUP3 ADD DUP3 SSTORE PUSH1 0x0 SWAP2 SWAP1 SWAP2 MSTORE DUP3 MLOAD PUSH1 0x8 SWAP1 SWAP2 MUL PUSH32 0xB10E2D527612073B26EECDFD717E6A320CF44B4AFAC2B0732D9FCBE2B7FA0CF6 DUP2 ADD SWAP2 DUP3 SSTORE PUSH1 0x20 DUP5 ADD MLOAD DUP5 SWAP4 POP PUSH32 0xB10E2D527612073B26EECDFD717E6A320CF44B4AFAC2B0732D9FCBE2B7FA0CF7 SWAP1 SWAP2 ADD SWAP1 PUSH2 0x255E SWAP1 DUP3 PUSH2 0x5911 JUMP JUMPDEST POP PUSH1 0x40 DUP3 ADD MLOAD PUSH1 0x2 DUP3 ADD SWAP1 PUSH2 0x2573 SWAP1 DUP3 PUSH2 0x5911 JUMP JUMPDEST POP PUSH1 0x60 DUP3 ADD MLOAD PUSH1 0x3 DUP3 ADD SWAP1 PUSH2 0x2588 SWAP1 DUP3 PUSH2 0x5911 JUMP JUMPDEST POP PUSH1 0x80 DUP3 ADD MLOAD PUSH1 0x4 DUP3 ADD SWAP1 PUSH2 0x259D SWAP1 DUP3 PUSH2 0x5911 JUMP JUMPDEST POP PUSH1 0xA0 DUP3 ADD MLOAD PUSH1 0x5 DUP3 ADD SSTORE PUSH1 0xC0 DUP3 ADD MLOAD PUSH1 0x6 DUP3 ADD DUP1 SLOAD PUSH1 0x1 PUSH1 0x1 PUSH1 0xA0 SHL SUB NOT AND PUSH1 0x1 PUSH1 0x1 PUSH1 0xA0 SHL SUB SWAP1 SWAP3 AND SWAP2 SWAP1 SWAP2 OR SWAP1 SSTORE PUSH1 0xE0 DUP3 ADD MLOAD PUSH1 0x7 DUP3 ADD SWAP1 PUSH2 0x25E2 SWAP1 DUP3 PUSH2 0x5911 JUMP JUMPDEST POP POP POP PUSH1 0xA PUSH1 0x2 DUP11 PUSH1 0x40 MLOAD PUSH2 0x25F7 SWAP2 SWAP1 PUSH2 0x5843 JUMP JUMPDEST SWAP1 DUP2 MSTORE PUSH1 0x20 ADD PUSH1 0x40 MLOAD DUP1 SWAP2 SUB SWAP1 KECCAK256 PUSH1 0x0 DUP3 DUP3 SLOAD PUSH2 0x2614 SWAP2 SWAP1 PUSH2 0x5830 JUMP JUMPDEST SWAP1 SWAP2 SSTORE POP POP PUSH1 0x40 MLOAD CALLER SWAP1 PUSH2 0x2629 SWAP1 DUP12 SWAP1 PUSH2 0x5843 JUMP JUMPDEST PUSH1 0x40 MLOAD SWAP1 DUP2 SWAP1 SUB DUP2 KECCAK256 SWAP1 DUP5 SWAP1 PUSH32 0xCD719798F402A27A912A62D3B7E471F85FBA10A63E2BBB6EDE9A733A8616C2F1 SWAP1 PUSH1 0x0 SWAP1 LOG4 POP POP POP POP POP POP POP POP POP JUMP JUMPDEST PUSH1 0x60 PUSH2 0x2674 DUP3 CALLER PUSH1 0x1 PUSH2 0x4957 JUMP JUMPDEST PUSH2 0x2690 JUMPI PUSH1 0x40 MLOAD PUSH3 0x461BCD PUSH1 0xE5 SHL DUP2 MSTORE PUSH1 0x4 ADD PUSH2 0x961 SWAP1 PUSH2 0x5A3E JUMP JUMPDEST PUSH1 0x0 PUSH1 0xA DUP4 PUSH1 0x40 MLOAD PUSH2 0x26A2 SWAP2 SWAP1 PUSH2 0x5843 JUMP JUMPDEST SWAP1 DUP2 MSTORE PUSH1 0x20 ADD PUSH1 0x40 MLOAD DUP1 SWAP2 SUB SWAP1 KECCAK256 SWAP1 POP PUSH1 0x0 DUP2 DUP1 SLOAD SWAP1 POP PUSH1 0x1 PUSH1 0x1 PUSH1 0x40 SHL SUB DUP2 GT ISZERO PUSH2 0x26D0 JUMPI PUSH2 0x26D0 PUSH2 0x4DE8 JUMP JUMPDEST PUSH1 0x40 MLOAD SWAP1 DUP1 DUP3 MSTORE DUP1 PUSH1 0x20 MUL PUSH1 0x20 ADD DUP3 ADD PUSH1 0x40 MSTORE DUP1 ISZERO PUSH2 0x2709 JUMPI DUP2 PUSH1 0x20 ADD JUMPDEST PUSH2 0x26F6 PUSH2 0x4AEF JUMP JUMPDEST DUP2 MSTORE PUSH1 0x20 ADD SWAP1 PUSH1 0x1 SWAP1 SUB SWAP1 DUP2 PUSH2 0x26EE JUMPI SWAP1 POP JUMPDEST POP SWAP1 POP PUSH1 0x0 JUMPDEST DUP3 SLOAD DUP2 LT ISZERO PUSH2 0x2AA4 JUMPI PUSH1 0x9 PUSH1 0x0 DUP5 DUP4 DUP2 SLOAD DUP2 LT PUSH2 0x272E JUMPI PUSH2 0x272E PUSH2 0x59FA JUMP JUMPDEST SWAP1 PUSH1 0x0 MSTORE PUSH1 0x20 PUSH1 0x0 KECCAK256 ADD SLOAD DUP2 MSTORE PUSH1 0x20 ADD SWAP1 DUP2 MSTORE PUSH1 0x20 ADD PUSH1 0x0 KECCAK256 PUSH1 0x40 MLOAD DUP1 PUSH2 0x100 ADD PUSH1 0x40 MSTORE SWAP1 DUP2 PUSH1 0x0 DUP3 ADD SLOAD DUP2 MSTORE PUSH1 0x20 ADD PUSH1 0x1 DUP3 ADD DUP1 SLOAD PUSH2 0x276D SWAP1 PUSH2 0x5753 JUMP JUMPDEST DUP1 PUSH1 0x1F ADD PUSH1 0x20 DUP1 SWAP2 DIV MUL PUSH1 0x20 ADD PUSH1 0x40 MLOAD SWAP1 DUP2 ADD PUSH1 0x40 MSTORE DUP1 SWAP3 SWAP2 SWAP1 DUP2 DUP2 MSTORE PUSH1 0x20 ADD DUP3 DUP1 SLOAD PUSH2 0x2799 SWAP1 PUSH2 0x5753 JUMP JUMPDEST DUP1 ISZERO PUSH2 0x27E6 JUMPI DUP1 PUSH1 0x1F LT PUSH2 0x27BB JUMPI PUSH2 0x100 DUP1 DUP4 SLOAD DIV MUL DUP4 MSTORE SWAP2 PUSH1 0x20 ADD SWAP2 PUSH2 0x27E6 JUMP JUMPDEST DUP3 ADD SWAP2 SWAP1 PUSH1 0x0 MSTORE PUSH1 0x20 PUSH1 0x0 KECCAK256 SWAP1 JUMPDEST DUP2 SLOAD DUP2 MSTORE SWAP1 PUSH1 0x1 ADD SWAP1 PUSH1 0x20 ADD DUP1 DUP4 GT PUSH2 0x27C9 JUMPI DUP3 SWAP1 SUB PUSH1 0x1F AND DUP3 ADD SWAP2 JUMPDEST POP POP POP SWAP2 DUP4 MSTORE POP POP PUSH1 0x2 DUP3 DUP2 ADD SLOAD PUSH1 0x20 DUP4 ADD MSTORE PUSH1 0x3 DUP4 ADD SLOAD PUSH1 0x40 SWAP1 SWAP3 ADD SWAP2 PUSH1 0xFF AND SWAP1 DUP2 GT ISZERO PUSH2 0x2817 JUMPI PUSH2 0x2817 PUSH2 0x4D32 JUMP JUMPDEST PUSH1 0x2 DUP2 GT ISZERO PUSH2 0x2828 JUMPI PUSH2 0x2828 PUSH2 0x4D32 JUMP JUMPDEST DUP2 MSTORE PUSH1 0x20 ADD PUSH1 0x4 DUP3 ADD DUP1 SLOAD PUSH2 0x283C SWAP1 PUSH2 0x5753 JUMP JUMPDEST DUP1 PUSH1 0x1F ADD PUSH1 0x20 DUP1 SWAP2 DIV MUL PUSH1 0x20 ADD PUSH1 0x40 MLOAD SWAP1 DUP2 ADD PUSH1 0x40 MSTORE DUP1 SWAP3 SWAP2 SWAP1 DUP2 DUP2 MSTORE PUSH1 0x20 ADD DUP3 DUP1 SLOAD PUSH2 0x2868 SWAP1 PUSH2 0x5753 JUMP JUMPDEST DUP1 ISZERO PUSH2 0x28B5 JUMPI DUP1 PUSH1 0x1F LT PUSH2 0x288A JUMPI PUSH2 0x100 DUP1 DUP4 SLOAD DIV MUL DUP4 MSTORE SWAP2 PUSH1 0x20 ADD SWAP2 PUSH2 0x28B5 JUMP JUMPDEST DUP3 ADD SWAP2 SWAP1 PUSH1 0x0 MSTORE PUSH1 0x20 PUSH1 0x0 KECCAK256 SWAP1 JUMPDEST DUP2 SLOAD DUP2 MSTORE SWAP1 PUSH1 0x1 ADD SWAP1 PUSH1 0x20 ADD DUP1 DUP4 GT PUSH2 0x2898 JUMPI DUP3 SWAP1 SUB PUSH1 0x1F AND DUP3 ADD SWAP2 JUMPDEST POP POP POP POP POP DUP2 MSTORE PUSH1 0x20 ADD PUSH1 0x5 DUP3 ADD DUP1 SLOAD PUSH2 0x28CE SWAP1 PUSH2 0x5753 JUMP JUMPDEST DUP1 PUSH1 0x1F ADD PUSH1 0x20 DUP1 SWAP2 DIV MUL PUSH1 0x20 ADD PUSH1 0x40 MLOAD SWAP1 DUP2 ADD PUSH1 0x40 MSTORE DUP1 SWAP3 SWAP2 SWAP1 DUP2 DUP2 MSTORE PUSH1 0x20 ADD DUP3 DUP1 SLOAD PUSH2 0x28FA SWAP1 PUSH2 0x5753 JUMP JUMPDEST DUP1 ISZERO PUSH2 0x2947 JUMPI DUP1 PUSH1 0x1F LT PUSH2 0x291C JUMPI PUSH2 0x100 DUP1 DUP4 SLOAD DIV MUL DUP4 MSTORE SWAP2 PUSH1 0x20 ADD SWAP2 PUSH2 0x2947 JUMP JUMPDEST DUP3 ADD SWAP2 SWAP1 PUSH1 0x0 MSTORE PUSH1 0x20 PUSH1 0x0 KECCAK256 SWAP1 JUMPDEST DUP2 SLOAD DUP2 MSTORE SWAP1 PUSH1 0x1 ADD SWAP1 PUSH1 0x20 ADD DUP1 DUP4 GT PUSH2 0x292A JUMPI DUP3 SWAP1 SUB PUSH1 0x1F AND DUP3 ADD SWAP2 JUMPDEST POP POP POP POP POP DUP2 MSTORE PUSH1 0x20 ADD PUSH1 0x6 DUP3 ADD DUP1 SLOAD PUSH2 0x2960 SWAP1 PUSH2 0x5753 JUMP JUMPDEST DUP1 PUSH1 0x1F ADD PUSH1 0x20 DUP1 SWAP2 DIV MUL PUSH1 0x20 ADD PUSH1 0x40 MLOAD SWAP1 DUP2 ADD PUSH1 0x40 MSTORE DUP1 SWAP3 SWAP2 SWAP1 DUP2 DUP2 MSTORE PUSH1 0x20 ADD DUP3 DUP1 SLOAD PUSH2 0x298C SWAP1 PUSH2 0x5753 JUMP JUMPDEST DUP1 ISZERO PUSH2 0x29D9 JUMPI DUP1 PUSH1 0x1F LT PUSH2 0x29AE JUMPI PUSH2 0x100 DUP1 DUP4 SLOAD DIV MUL DUP4 MSTORE SWAP2 PUSH1 0x20 ADD SWAP2 PUSH2 0x29D9 JUMP JUMPDEST DUP3 ADD SWAP2 SWAP1 PUSH1 0x0 MSTORE PUSH1 0x20 PUSH1 0x0 KECCAK256 SWAP1 JUMPDEST DUP2 SLOAD DUP2 MSTORE SWAP1 PUSH1 0x1 ADD SWAP1 PUSH1 0x20 ADD DUP1 DUP4 GT PUSH2 0x29BC JUMPI DUP3 SWAP1 SUB PUSH1 0x1F AND DUP3 ADD SWAP2 JUMPDEST POP POP POP POP POP DUP2 MSTORE PUSH1 0x20 ADD PUSH1 0x7 DUP3 ADD DUP1 SLOAD PUSH2 0x29F2 SWAP1 PUSH2 0x5753 JUMP JUMPDEST DUP1 PUSH1 0x1F ADD PUSH1 0x20 DUP1 SWAP2 DIV MUL PUSH1 0x20 ADD PUSH1 0x40 MLOAD SWAP1 DUP2 ADD PUSH1 0x40 MSTORE DUP1 SWAP3 SWAP2 SWAP1 DUP2 DUP2 MSTORE PUSH1 0x20 ADD DUP3 DUP1 SLOAD PUSH2 0x2A1E SWAP1 PUSH2 0x5753 JUMP JUMPDEST DUP1 ISZERO PUSH2 0x2A6B JUMPI DUP1 PUSH1 0x1F LT PUSH2 0x2A40 JUMPI PUSH2 0x100 DUP1 DUP4 SLOAD DIV MUL DUP4 MSTORE SWAP2 PUSH1 0x20 ADD SWAP2 PUSH2 0x2A6B JUMP JUMPDEST DUP3 ADD SWAP2 SWAP1 PUSH1 0x0 MSTORE PUSH1 0x20 PUSH1 0x0 KECCAK256 SWAP1 JUMPDEST DUP2 SLOAD DUP2 MSTORE SWAP1 PUSH1 0x1 ADD SWAP1 PUSH1 0x20 ADD DUP1 DUP4 GT PUSH2 0x2A4E JUMPI DUP3 SWAP1 SUB PUSH1 0x1F AND DUP3 ADD SWAP2 JUMPDEST POP POP POP POP POP DUP2 MSTORE POP POP DUP3 DUP3 DUP2 MLOAD DUP2 LT PUSH2 0x2A86 JUMPI PUSH2 0x2A86 PUSH2 0x59FA JUMP JUMPDEST PUSH1 0x20 MUL PUSH1 0x20 ADD ADD DUP2 SWAP1 MSTORE POP DUP1 DUP1 PUSH2 0x2A9C SWAP1 PUSH2 0x58B2 JUMP JUMPDEST SWAP2 POP POP PUSH2 0x270F JUMP JUMPDEST POP SWAP4 SWAP3 POP POP POP JUMP JUMPDEST PUSH1 0x60 PUSH2 0x2ABA DUP3 CALLER PUSH1 0x1 PUSH2 0x4957 JUMP JUMPDEST PUSH2 0x2AD6 JUMPI PUSH1 0x40 MLOAD PUSH3 0x461BCD PUSH1 0xE5 SHL DUP2 MSTORE PUSH1 0x4 ADD PUSH2 0x961 SWAP1 PUSH2 0x5A3E JUMP JUMPDEST PUSH1 0xF DUP3 PUSH1 0x40 MLOAD PUSH2 0x2AE6 SWAP2 SWAP1 PUSH2 0x5843 JUMP JUMPDEST SWAP1 DUP2 MSTORE PUSH1 0x20 ADD PUSH1 0x40 MLOAD DUP1 SWAP2 SUB SWAP1 KECCAK256 DUP1 SLOAD DUP1 PUSH1 0x20 MUL PUSH1 0x20 ADD PUSH1 0x40 MLOAD SWAP1 DUP2 ADD PUSH1 0x40 MSTORE DUP1 SWAP3 SWAP2 SWAP1 DUP2 DUP2 MSTORE PUSH1 0x20 ADD PUSH1 0x0 SWAP1 JUMPDEST DUP3 DUP3 LT ISZERO PUSH2 0x2038 JUMPI DUP4 DUP3 SWAP1 PUSH1 0x0 MSTORE PUSH1 0x20 PUSH1 0x0 KECCAK256 SWAP1 PUSH1 0x6 MUL ADD PUSH1 0x40 MLOAD DUP1 PUSH1 0xC0 ADD PUSH1 0x40 MSTORE SWAP1 DUP2 PUSH1 0x0 DUP3 ADD DUP1 SLOAD PUSH2 0x2B47 SWAP1 PUSH2 0x5753 JUMP JUMPDEST DUP1 PUSH1 0x1F ADD PUSH1 0x20 DUP1 SWAP2 DIV MUL PUSH1 0x20 ADD PUSH1 0x40 MLOAD SWAP1 DUP2 ADD PUSH1 0x40 MSTORE DUP1 SWAP3 SWAP2 SWAP1 DUP2 DUP2 MSTORE PUSH1 0x20 ADD DUP3 DUP1 SLOAD PUSH2 0x2B73 SWAP1 PUSH2 0x5753 JUMP JUMPDEST DUP1 ISZERO PUSH2 0x2BC0 JUMPI DUP1 PUSH1 0x1F LT PUSH2 0x2B95 JUMPI PUSH2 0x100 DUP1 DUP4 SLOAD DIV MUL DUP4 MSTORE SWAP2 PUSH1 0x20 ADD SWAP2 PUSH2 0x2BC0 JUMP JUMPDEST DUP3 ADD SWAP2 SWAP1 PUSH1 0x0 MSTORE PUSH1 0x20 PUSH1 0x0 KECCAK256 SWAP1 JUMPDEST DUP2 SLOAD DUP2 MSTORE SWAP1 PUSH1 0x1 ADD SWAP1 PUSH1 0x20 ADD DUP1 DUP4 GT PUSH2 0x2BA3 JUMPI DUP3 SWAP1 SUB PUSH1 0x1F AND DUP3 ADD SWAP2 JUMPDEST POP POP POP POP POP DUP2 MSTORE PUSH1 0x20 ADD PUSH1 0x1 DUP3 ADD SLOAD DUP2 MSTORE PUSH1 0x20 ADD PUSH1 0x2 DUP3 ADD SLOAD DUP2 MSTORE PUSH1 0x20 ADD PUSH1 0x3 DUP3 ADD DUP1 SLOAD PUSH2 0x2BED SWAP1 PUSH2 0x5753 JUMP JUMPDEST DUP1 PUSH1 0x1F ADD PUSH1 0x20 DUP1 SWAP2 DIV MUL PUSH1 0x20 ADD PUSH1 0x40 MLOAD SWAP1 DUP2 ADD PUSH1 0x40 MSTORE DUP1 SWAP3 SWAP2 SWAP1 DUP2 DUP2 MSTORE PUSH1 0x20 ADD DUP3 DUP1 SLOAD PUSH2 0x2C19 SWAP1 PUSH2 0x5753 JUMP JUMPDEST DUP1 ISZERO PUSH2 0x2C66 JUMPI DUP1 PUSH1 0x1F LT PUSH2 0x2C3B JUMPI PUSH2 0x100 DUP1 DUP4 SLOAD DIV MUL DUP4 MSTORE SWAP2 PUSH1 0x20 ADD SWAP2 PUSH2 0x2C66 JUMP JUMPDEST DUP3 ADD SWAP2 SWAP1 PUSH1 0x0 MSTORE PUSH1 0x20 PUSH1 0x0 KECCAK256 SWAP1 JUMPDEST DUP2 SLOAD DUP2 MSTORE SWAP1 PUSH1 0x1 ADD SWAP1 PUSH1 0x20 ADD DUP1 DUP4 GT PUSH2 0x2C49 JUMPI DUP3 SWAP1 SUB PUSH1 0x1F AND DUP3 ADD SWAP2 JUMPDEST POP POP POP POP POP DUP2 MSTORE PUSH1 0x20 ADD PUSH1 0x4 DUP3 ADD DUP1 SLOAD PUSH2 0x2C7F SWAP1 PUSH2 0x5753 JUMP JUMPDEST DUP1 PUSH1 0x1F ADD PUSH1 0x20 DUP1 SWAP2 DIV MUL PUSH1 0x20 ADD PUSH1 0x40 MLOAD SWAP1 DUP2 ADD PUSH1 0x40 MSTORE DUP1 SWAP3 SWAP2 SWAP1 DUP2 DUP2 MSTORE PUSH1 0x20 ADD DUP3 DUP1 SLOAD PUSH2 0x2CAB SWAP1 PUSH2 0x5753 JUMP JUMPDEST DUP1 ISZERO PUSH2 0x2CF8 JUMPI DUP1 PUSH1 0x1F LT PUSH2 0x2CCD JUMPI PUSH2 0x100 DUP1 DUP4 SLOAD DIV MUL DUP4 MSTORE SWAP2 PUSH1 0x20 ADD SWAP2 PUSH2 0x2CF8 JUMP JUMPDEST DUP3 ADD SWAP2 SWAP1 PUSH1 0x0 MSTORE PUSH1 0x20 PUSH1 0x0 KECCAK256 SWAP1 JUMPDEST DUP2 SLOAD DUP2 MSTORE SWAP1 PUSH1 0x1 ADD SWAP1 PUSH1 0x20 ADD DUP1 DUP4 GT PUSH2 0x2CDB JUMPI DUP3 SWAP1 SUB PUSH1 0x1F AND DUP3 ADD SWAP2 JUMPDEST POP POP POP SWAP2 DUP4 MSTORE POP POP PUSH1 0x5 SWAP2 SWAP1 SWAP2 ADD SLOAD PUSH1 0xFF AND ISZERO ISZERO PUSH1 0x20 SWAP2 DUP3 ADD MSTORE SWAP1 DUP3 MSTORE PUSH1 0x1 SWAP3 SWAP1 SWAP3 ADD SWAP2 ADD PUSH2 0x2B14 JUMP JUMPDEST DUP1 MLOAD PUSH1 0xC EQ PUSH2 0x2D6B JUMPI PUSH1 0x40 MLOAD PUSH3 0x461BCD PUSH1 0xE5 SHL DUP2 MSTORE PUSH1 0x20 PUSH1 0x4 DUP3 ADD MSTORE PUSH1 0x15 PUSH1 0x24 DUP3 ADD MSTORE PUSH21 0x24B73B30B634B21020B0B23430B910373AB6B132B9 PUSH1 0x59 SHL PUSH1 0x44 DUP3 ADD MSTORE PUSH1 0x64 ADD PUSH2 0x961 JUMP JUMPDEST PUSH1 0x5 DUP2 PUSH1 0x40 MLOAD PUSH2 0x2D7B SWAP2 SWAP1 PUSH2 0x5843 JUMP JUMPDEST SWAP1 DUP2 MSTORE PUSH1 0x40 MLOAD SWAP1 DUP2 SWAP1 SUB PUSH1 0x20 ADD SWAP1 KECCAK256 PUSH1 0x1 ADD SLOAD PUSH1 0xFF AND ISZERO PUSH2 0x2DDE JUMPI PUSH1 0x40 MLOAD PUSH3 0x461BCD PUSH1 0xE5 SHL DUP2 MSTORE PUSH1 0x20 PUSH1 0x4 DUP3 ADD MSTORE PUSH1 0x1A PUSH1 0x24 DUP3 ADD MSTORE PUSH32 0x50617469656E7420616C72656164792072656769737465726564000000000000 PUSH1 0x44 DUP3 ADD MSTORE PUSH1 0x64 ADD PUSH2 0x961 JUMP JUMPDEST PUSH1 0x0 PUSH1 0x5 DUP3 PUSH1 0x40 MLOAD PUSH2 0x2DF0 SWAP2 SWAP1 PUSH2 0x5843 JUMP JUMPDEST SWAP1 DUP2 MSTORE PUSH1 0x40 MLOAD SWAP1 DUP2 SWAP1 SUB PUSH1 0x20 ADD SWAP1 KECCAK256 SWAP1 POP DUP1 PUSH2 0x2E0C DUP4 DUP3 PUSH2 0x5911 JUMP JUMPDEST POP PUSH1 0x1 DUP2 DUP2 ADD DUP1 SLOAD PUSH1 0xFF NOT AND DUP3 OR SWAP1 SSTORE PUSH1 0x4 DUP3 ADD DUP1 SLOAD PUSH2 0xFF00 NOT AND PUSH2 0x100 DUP4 MUL OR SWAP1 SSTORE POP DUP2 PUSH1 0x40 MLOAD PUSH2 0x2E3E SWAP2 SWAP1 PUSH2 0x5843 JUMP JUMPDEST PUSH1 0x40 MLOAD SWAP1 DUP2 SWAP1 SUB DUP2 KECCAK256 SWAP1 PUSH32 0xAD3E1C33E6905FBC7821165AEF0E1E95F461DEE673E49D56D8899C384DBDCD16 SWAP1 PUSH1 0x0 SWAP1 LOG2 POP POP JUMP JUMPDEST DUP4 PUSH1 0x2 PUSH2 0x2E80 DUP3 CALLER DUP4 PUSH2 0x4957 JUMP JUMPDEST DUP1 PUSH2 0x2EAD JUMPI POP PUSH1 0x5 DUP3 PUSH1 0x40 MLOAD PUSH2 0x2E96 SWAP2 SWAP1 PUSH2 0x5843 JUMP JUMPDEST SWAP1 DUP2 MSTORE PUSH1 0x40 MLOAD SWAP1 DUP2 SWAP1 SUB PUSH1 0x20 ADD SWAP1 KECCAK256 PUSH1 0x4 ADD SLOAD PUSH1 0xFF AND JUMPDEST PUSH2 0x2EC9 JUMPI PUSH1 0x40 MLOAD PUSH3 0x461BCD PUSH1 0xE5 SHL DUP2 MSTORE PUSH1 0x4 ADD PUSH2 0x961 SWAP1 PUSH2 0x5885 JUMP JUMPDEST PUSH2 0x2F04 DUP3 CALLER PUSH1 0x40 MLOAD DUP1 PUSH1 0x40 ADD PUSH1 0x40 MSTORE DUP1 PUSH1 0xD DUP2 MSTORE PUSH1 0x20 ADD PUSH13 0x5265636F726420416363657373 PUSH1 0x98 SHL DUP2 MSTORE POP PUSH1 0x5 DUP7 PUSH1 0x40 MLOAD PUSH2 0x10C0 SWAP2 SWAP1 PUSH2 0x5843 JUMP JUMPDEST PUSH1 0x0 DUP7 MLOAD GT PUSH2 0x2F4D JUMPI PUSH1 0x40 MLOAD PUSH3 0x461BCD PUSH1 0xE5 SHL DUP2 MSTORE PUSH1 0x20 PUSH1 0x4 DUP3 ADD MSTORE PUSH1 0x15 PUSH1 0x24 DUP3 ADD MSTORE PUSH21 0x24B73B30B634B21020B0B23430B910373AB6B132B9 PUSH1 0x59 SHL PUSH1 0x44 DUP3 ADD MSTORE PUSH1 0x64 ADD PUSH2 0x961 JUMP JUMPDEST PUSH1 0x0 DUP6 MLOAD GT PUSH2 0x2F94 JUMPI PUSH1 0x40 MLOAD PUSH3 0x461BCD PUSH1 0xE5 SHL DUP2 MSTORE PUSH1 0x20 PUSH1 0x4 DUP3 ADD MSTORE PUSH1 0x13 PUSH1 0x24 DUP3 ADD MSTORE PUSH19 0x496E76616C6964206D65747269632074797065 PUSH1 0x68 SHL PUSH1 0x44 DUP3 ADD MSTORE PUSH1 0x64 ADD PUSH2 0x961 JUMP JUMPDEST PUSH1 0x40 DUP1 MLOAD PUSH1 0x80 DUP2 ADD DUP3 MSTORE DUP7 DUP2 MSTORE PUSH1 0x20 DUP2 ADD DUP7 SWAP1 MSTORE TIMESTAMP DUP2 DUP4 ADD MSTORE PUSH1 0x60 DUP2 ADD DUP6 SWAP1 MSTORE SWAP1 MLOAD PUSH1 0xD SWAP1 PUSH2 0x2FC4 SWAP1 DUP10 SWAP1 PUSH2 0x5843 JUMP JUMPDEST SWAP1 DUP2 MSTORE PUSH1 0x40 MLOAD PUSH1 0x20 SWAP2 DUP2 SWAP1 SUB DUP3 ADD SWAP1 KECCAK256 DUP1 SLOAD PUSH1 0x1 DUP2 ADD DUP3 SSTORE PUSH1 0x0 SWAP2 DUP3 MSTORE SWAP2 SWAP1 KECCAK256 DUP3 MLOAD DUP4 SWAP3 PUSH1 0x4 MUL SWAP1 SWAP2 ADD SWAP1 DUP2 SWAP1 PUSH2 0x2FFB SWAP1 DUP3 PUSH2 0x5911 JUMP JUMPDEST POP PUSH1 0x20 DUP3 ADD MLOAD PUSH1 0x1 DUP3 ADD SSTORE PUSH1 0x40 DUP3 ADD MLOAD PUSH1 0x2 DUP3 ADD SSTORE PUSH1 0x60 DUP3 ADD MLOAD PUSH1 0x3 DUP3 ADD SWAP1 PUSH2 0x3024 SWAP1 DUP3 PUSH2 0x5911 JUMP JUMPDEST POP POP POP PUSH1 0xE DUP8 PUSH1 0x40 MLOAD PUSH2 0x3037 SWAP2 SWAP1 PUSH2 0x5843 JUMP JUMPDEST SWAP1 DUP2 MSTORE PUSH1 0x20 ADD PUSH1 0x40 MLOAD DUP1 SWAP2 SUB SWAP1 KECCAK256 DUP7 PUSH1 0x40 MLOAD PUSH2 0x3053 SWAP2 SWAP1 PUSH2 0x5843 JUMP JUMPDEST SWAP1 DUP2 MSTORE PUSH1 0x40 MLOAD PUSH1 0x20 SWAP2 DUP2 SWAP1 SUB DUP3 ADD SWAP1 KECCAK256 DUP1 SLOAD PUSH1 0x1 DUP2 ADD DUP3 SSTORE PUSH1 0x0 SWAP2 DUP3 MSTORE SWAP2 SWAP1 KECCAK256 DUP3 MLOAD DUP4 SWAP3 PUSH1 0x4 MUL SWAP1 SWAP2 ADD SWAP1 DUP2 SWAP1 PUSH2 0x308A SWAP1 DUP3 PUSH2 0x5911 JUMP JUMPDEST POP PUSH1 0x20 DUP3 ADD MLOAD PUSH1 0x1 DUP3 ADD SSTORE PUSH1 0x40 DUP3 ADD MLOAD PUSH1 0x2 DUP3 ADD SSTORE PUSH1 0x60 DUP3 ADD MLOAD PUSH1 0x3 DUP3 ADD SWAP1 PUSH2 0x30B3 SWAP1 DUP3 PUSH2 0x5911 JUMP JUMPDEST POP POP POP PUSH1 0xA PUSH1 0x2 DUP9 PUSH1 0x40 MLOAD PUSH2 0x30C8 SWAP2 SWAP1 PUSH2 0x5843 JUMP JUMPDEST SWAP1 DUP2 MSTORE PUSH1 0x20 ADD PUSH1 0x40 MLOAD DUP1 SWAP2 SUB SWAP1 KECCAK256 PUSH1 0x0 DUP3 DUP3 SLOAD PUSH2 0x30E5 SWAP2 SWAP1 PUSH2 0x5830 JUMP JUMPDEST SWAP1 SWAP2 SSTORE POP POP PUSH1 0x40 MLOAD PUSH2 0x30F8 SWAP1 DUP9 SWAP1 PUSH2 0x5843 JUMP JUMPDEST PUSH1 0x40 MLOAD DUP1 SWAP2 SUB SWAP1 KECCAK256 PUSH32 0xCE65C4D5B1A9EE66172B83A86B9A8C4EBD3C4EABC956A43B9F136FB9F30E69CF DUP8 DUP8 PUSH1 0x40 MLOAD PUSH2 0x3131 SWAP3 SWAP2 SWAP1 PUSH2 0x5A80 JUMP JUMPDEST PUSH1 0x40 MLOAD DUP1 SWAP2 SUB SWAP1 LOG2 POP POP POP POP POP POP POP JUMP JUMPDEST PUSH1 0x1 PUSH1 0x1 PUSH1 0xA0 SHL SUB DUP2 AND PUSH1 0x0 SWAP1 DUP2 MSTORE PUSH1 0xC PUSH1 0x20 MSTORE PUSH1 0x40 DUP2 KECCAK256 DUP1 SLOAD PUSH1 0x60 SWAP3 SWAP1 PUSH1 0x1 PUSH1 0x1 PUSH1 0x40 SHL SUB DUP2 GT ISZERO PUSH2 0x3177 JUMPI PUSH2 0x3177 PUSH2 0x4DE8 JUMP JUMPDEST PUSH1 0x40 MLOAD SWAP1 DUP1 DUP3 MSTORE DUP1 PUSH1 0x20 MUL PUSH1 0x20 ADD DUP3 ADD PUSH1 0x40 MSTORE DUP1 ISZERO PUSH2 0x31B0 JUMPI DUP2 PUSH1 0x20 ADD JUMPDEST PUSH2 0x319D PUSH2 0x4AEF JUMP JUMPDEST DUP2 MSTORE PUSH1 0x20 ADD SWAP1 PUSH1 0x1 SWAP1 SUB SWAP1 DUP2 PUSH2 0x3195 JUMPI SWAP1 POP JUMPDEST POP SWAP1 POP PUSH1 0x0 JUMPDEST DUP3 SLOAD DUP2 LT ISZERO PUSH2 0x2AA4 JUMPI PUSH1 0x9 PUSH1 0x0 DUP5 DUP4 DUP2 SLOAD DUP2 LT PUSH2 0x31D5 JUMPI PUSH2 0x31D5 PUSH2 0x59FA JUMP JUMPDEST SWAP1 PUSH1 0x0 MSTORE PUSH1 0x20 PUSH1 0x0 KECCAK256 ADD SLOAD DUP2 MSTORE PUSH1 0x20 ADD SWAP1 DUP2 MSTORE PUSH1 0x20 ADD PUSH1 0x0 KECCAK256 PUSH1 0x40 MLOAD DUP1 PUSH2 0x100 ADD PUSH1 0x40 MSTORE SWAP1 DUP2 PUSH1 0x0 DUP3 ADD SLOAD DUP2 MSTORE PUSH1 0x20 ADD PUSH1 0x1 DUP3 ADD DUP1 SLOAD PUSH2 0x3214 SWAP1 PUSH2 0x5753 JUMP JUMPDEST DUP1 PUSH1 0x1F ADD PUSH1 0x20 DUP1 SWAP2 DIV MUL PUSH1 0x20 ADD PUSH1 0x40 MLOAD SWAP1 DUP2 ADD PUSH1 0x40 MSTORE DUP1 SWAP3 SWAP2 SWAP1 DUP2 DUP2 MSTORE PUSH1 0x20 ADD DUP3 DUP1 SLOAD PUSH2 0x3240 SWAP1 PUSH2 0x5753 JUMP JUMPDEST DUP1 ISZERO PUSH2 0x328D JUMPI DUP1 PUSH1 0x1F LT PUSH2 0x3262 JUMPI PUSH2 0x100 DUP1 DUP4 SLOAD DIV MUL DUP4 MSTORE SWAP2 PUSH1 0x20 ADD SWAP2 PUSH2 0x328D JUMP JUMPDEST DUP3 ADD SWAP2 SWAP1 PUSH1 0x0 MSTORE PUSH1 0x20 PUSH1 0x0 KECCAK256 SWAP1 JUMPDEST DUP2 SLOAD DUP2 MSTORE SWAP1 PUSH1 0x1 ADD SWAP1 PUSH1 0x20 ADD DUP1 DUP4 GT PUSH2 0x3270 JUMPI DUP3 SWAP1 SUB PUSH1 0x1F AND DUP3 ADD SWAP2 JUMPDEST POP POP POP SWAP2 DUP4 MSTORE POP POP PUSH1 0x2 DUP3 DUP2 ADD SLOAD PUSH1 0x20 DUP4 ADD MSTORE PUSH1 0x3 DUP4 ADD SLOAD PUSH1 0x40 SWAP1 SWAP3 ADD SWAP2 PUSH1 0xFF AND SWAP1 DUP2 GT ISZERO PUSH2 0x32BE JUMPI PUSH2 0x32BE PUSH2 0x4D32 JUMP JUMPDEST PUSH1 0x2 DUP2 GT ISZERO PUSH2 0x32CF JUMPI PUSH2 0x32CF PUSH2 0x4D32 JUMP JUMPDEST DUP2 MSTORE PUSH1 0x20 ADD PUSH1 0x4 DUP3 ADD DUP1 SLOAD PUSH2 0x32E3 SWAP1 PUSH2 0x5753 JUMP JUMPDEST DUP1 PUSH1 0x1F ADD PUSH1 0x20 DUP1 SWAP2 DIV MUL PUSH1 0x20 ADD PUSH1 0x40 MLOAD SWAP1 DUP2 ADD PUSH1 0x40 MSTORE DUP1 SWAP3 SWAP2 SWAP1 DUP2 DUP2 MSTORE PUSH1 0x20 ADD DUP3 DUP1 SLOAD PUSH2 0x330F SWAP1 PUSH2 0x5753 JUMP JUMPDEST DUP1 ISZERO PUSH2 0x335C JUMPI DUP1 PUSH1 0x1F LT PUSH2 0x3331 JUMPI PUSH2 0x100 DUP1 DUP4 SLOAD DIV MUL DUP4 MSTORE SWAP2 PUSH1 0x20 ADD SWAP2 PUSH2 0x335C JUMP JUMPDEST DUP3 ADD SWAP2 SWAP1 PUSH1 0x0 MSTORE PUSH1 0x20 PUSH1 0x0 KECCAK256 SWAP1 JUMPDEST DUP2 SLOAD DUP2 MSTORE SWAP1 PUSH1 0x1 ADD SWAP1 PUSH1 0x20 ADD DUP1 DUP4 GT PUSH2 0x333F JUMPI DUP3 SWAP1 SUB PUSH1 0x1F AND DUP3 ADD SWAP2 JUMPDEST POP POP POP POP POP DUP2 MSTORE PUSH1 0x20 ADD PUSH1 0x5 DUP3 ADD DUP1 SLOAD PUSH2 0x3375 SWAP1 PUSH2 0x5753 JUMP JUMPDEST DUP1 PUSH1 0x1F ADD PUSH1 0x20 DUP1 SWAP2 DIV MUL PUSH1 0x20 ADD PUSH1 0x40 MLOAD SWAP1 DUP2 ADD PUSH1 0x40 MSTORE DUP1 SWAP3 SWAP2 SWAP1 DUP2 DUP2 MSTORE PUSH1 0x20 ADD DUP3 DUP1 SLOAD PUSH2 0x33A1 SWAP1 PUSH2 0x5753 JUMP JUMPDEST DUP1 ISZERO PUSH2 0x33EE JUMPI DUP1 PUSH1 0x1F LT PUSH2 0x33C3 JUMPI PUSH2 0x100 DUP1 DUP4 SLOAD DIV MUL DUP4 MSTORE SWAP2 PUSH1 0x20 ADD SWAP2 PUSH2 0x33EE JUMP JUMPDEST DUP3 ADD SWAP2 SWAP1 PUSH1 0x0 MSTORE PUSH1 0x20 PUSH1 0x0 KECCAK256 SWAP1 JUMPDEST DUP2 SLOAD DUP2 MSTORE SWAP1 PUSH1 0x1 ADD SWAP1 PUSH1 0x20 ADD DUP1 DUP4 GT PUSH2 0x33D1 JUMPI DUP3 SWAP1 SUB PUSH1 0x1F AND DUP3 ADD SWAP2 JUMPDEST POP POP POP POP POP DUP2 MSTORE PUSH1 0x20 ADD PUSH1 0x6 DUP3 ADD DUP1 SLOAD PUSH2 0x3407 SWAP1 PUSH2 0x5753 JUMP JUMPDEST DUP1 PUSH1 0x1F ADD PUSH1 0x20 DUP1 SWAP2 DIV MUL PUSH1 0x20 ADD PUSH1 0x40 MLOAD SWAP1 DUP2 ADD PUSH1 0x40 MSTORE DUP1 SWAP3 SWAP2 SWAP1 DUP2 DUP2 MSTORE PUSH1 0x20 ADD DUP3 DUP1 SLOAD PUSH2 0x3433 SWAP1 PUSH2 0x5753 JUMP JUMPDEST DUP1 ISZERO PUSH2 0x3480 JUMPI DUP1 PUSH1 0x1F LT PUSH2 0x3455 JUMPI PUSH2 0x100 DUP1 DUP4 SLOAD DIV MUL DUP4 MSTORE SWAP2 PUSH1 0x20 ADD SWAP2 PUSH2 0x3480 JUMP JUMPDEST DUP3 ADD SWAP2 SWAP1 PUSH1 0x0 MSTORE PUSH1 0x20 PUSH1 0x0 KECCAK256 SWAP1 JUMPDEST DUP2 SLOAD DUP2 MSTORE SWAP1 PUSH1 0x1 ADD SWAP1 PUSH1 0x20 ADD DUP1 DUP4 GT PUSH2 0x3463 JUMPI DUP3 SWAP1 SUB PUSH1 0x1F AND DUP3 ADD SWAP2 JUMPDEST POP POP POP POP POP DUP2 MSTORE PUSH1 0x20 ADD PUSH1 0x7 DUP3 ADD DUP1 SLOAD PUSH2 0x3499 SWAP1 PUSH2 0x5753 JUMP JUMPDEST DUP1 PUSH1 0x1F ADD PUSH1 0x20 DUP1 SWAP2 DIV MUL PUSH1 0x20 ADD PUSH1 0x40 MLOAD SWAP1 DUP2 ADD PUSH1 0x40 MSTORE DUP1 SWAP3 SWAP2 SWAP1 DUP2 DUP2 MSTORE PUSH1 0x20 ADD DUP3 DUP1 SLOAD PUSH2 0x34C5 SWAP1 PUSH2 0x5753 JUMP JUMPDEST DUP1 ISZERO PUSH2 0x3512 JUMPI DUP1 PUSH1 0x1F LT PUSH2 0x34E7 JUMPI PUSH2 0x100 DUP1 DUP4 SLOAD DIV MUL DUP4 MSTORE SWAP2 PUSH1 0x20 ADD SWAP2 PUSH2 0x3512 JUMP JUMPDEST DUP3 ADD SWAP2 SWAP1 PUSH1 0x0 MSTORE PUSH1 0x20 PUSH1 0x0 KECCAK256 SWAP1 JUMPDEST DUP2 SLOAD DUP2 MSTORE SWAP1 PUSH1 0x1 ADD SWAP1 PUSH1 0x20 ADD DUP1 DUP4 GT PUSH2 0x34F5 JUMPI DUP3 SWAP1 SUB PUSH1 0x1F AND DUP3 ADD SWAP2 JUMPDEST POP POP POP POP POP DUP2 MSTORE POP POP DUP3 DUP3 DUP2 MLOAD DUP2 LT PUSH2 0x352D JUMPI PUSH2 0x352D PUSH2 0x59FA JUMP JUMPDEST PUSH1 0x20 MUL PUSH1 0x20 ADD ADD DUP2 SWAP1 MSTORE POP DUP1 DUP1 PUSH2 0x3543 SWAP1 PUSH2 0x58B2 JUMP JUMPDEST SWAP2 POP POP PUSH2 0x31B6 JUMP JUMPDEST PUSH1 0x60 PUSH1 0x0 DUP3 PUSH1 0x40 MLOAD PUSH2 0x355D SWAP2 SWAP1 PUSH2 0x5843 JUMP JUMPDEST SWAP1 DUP2 MSTORE PUSH1 0x20 ADD PUSH1 0x40 MLOAD DUP1 SWAP2 SUB SWAP1 KECCAK256 DUP1 SLOAD DUP1 PUSH1 0x20 MUL PUSH1 0x20 ADD PUSH1 0x40 MLOAD SWAP1 DUP2 ADD PUSH1 0x40 MSTORE DUP1 SWAP3 SWAP2 SWAP1 DUP2 DUP2 MSTORE PUSH1 0x20 ADD PUSH1 0x0 SWAP1 JUMPDEST DUP3 DUP3 LT ISZERO PUSH2 0x2038 JUMPI DUP4 DUP3 SWAP1 PUSH1 0x0 MSTORE PUSH1 0x20 PUSH1 0x0 KECCAK256 SWAP1 PUSH1 0x8 MUL ADD PUSH1 0x40 MLOAD DUP1 PUSH2 0x100 ADD PUSH1 0x40 MSTORE SWAP1 DUP2 PUSH1 0x0 DUP3 ADD SLOAD DUP2 MSTORE PUSH1 0x20 ADD PUSH1 0x1 DUP3 ADD DUP1 SLOAD PUSH2 0x35C9 SWAP1 PUSH2 0x5753 JUMP JUMPDEST DUP1 PUSH1 0x1F ADD PUSH1 0x20 DUP1 SWAP2 DIV MUL PUSH1 0x20 ADD PUSH1 0x40 MLOAD SWAP1 DUP2 ADD PUSH1 0x40 MSTORE DUP1 SWAP3 SWAP2 SWAP1 DUP2 DUP2 MSTORE PUSH1 0x20 ADD DUP3 DUP1 SLOAD PUSH2 0x35F5 SWAP1 PUSH2 0x5753 JUMP JUMPDEST DUP1 ISZERO PUSH2 0x3642 JUMPI DUP1 PUSH1 0x1F LT PUSH2 0x3617 JUMPI PUSH2 0x100 DUP1 DUP4 SLOAD DIV MUL DUP4 MSTORE SWAP2 PUSH1 0x20 ADD SWAP2 PUSH2 0x3642 JUMP JUMPDEST DUP3 ADD SWAP2 SWAP1 PUSH1 0x0 MSTORE PUSH1 0x20 PUSH1 0x0 KECCAK256 SWAP1 JUMPDEST DUP2 SLOAD DUP2 MSTORE SWAP1 PUSH1 0x1 ADD SWAP1 PUSH1 0x20 ADD DUP1 DUP4 GT PUSH2 0x3625 JUMPI DUP3 SWAP1 SUB PUSH1 0x1F AND DUP3 ADD SWAP2 JUMPDEST POP POP POP POP POP DUP2 MSTORE PUSH1 0x20 ADD PUSH1 0x2 DUP3 ADD DUP1 SLOAD PUSH2 0x365B SWAP1 PUSH2 0x5753 JUMP JUMPDEST DUP1 PUSH1 0x1F ADD PUSH1 0x20 DUP1 SWAP2 DIV MUL PUSH1 0x20 ADD PUSH1 0x40 MLOAD SWAP1 DUP2 ADD PUSH1 0x40 MSTORE DUP1 SWAP3 SWAP2 SWAP1 DUP2 DUP2 MSTORE PUSH1 0x20 ADD DUP3 DUP1 SLOAD PUSH2 0x3687 SWAP1 PUSH2 0x5753 JUMP JUMPDEST DUP1 ISZERO PUSH2 0x36D4 JUMPI DUP1 PUSH1 0x1F LT PUSH2 0x36A9 JUMPI PUSH2 0x100 DUP1 DUP4 SLOAD DIV MUL DUP4 MSTORE SWAP2 PUSH1 0x20 ADD SWAP2 PUSH2 0x36D4 JUMP JUMPDEST DUP3 ADD SWAP2 SWAP1 PUSH1 0x0 MSTORE PUSH1 0x20 PUSH1 0x0 KECCAK256 SWAP1 JUMPDEST DUP2 SLOAD DUP2 MSTORE SWAP1 PUSH1 0x1 ADD SWAP1 PUSH1 0x20 ADD DUP1 DUP4 GT PUSH2 0x36B7 JUMPI DUP3 SWAP1 SUB PUSH1 0x1F AND DUP3 ADD SWAP2 JUMPDEST POP POP POP POP POP DUP2 MSTORE PUSH1 0x20 ADD PUSH1 0x3 DUP3 ADD DUP1 SLOAD PUSH2 0x36ED SWAP1 PUSH2 0x5753 JUMP JUMPDEST DUP1 PUSH1 0x1F ADD PUSH1 0x20 DUP1 SWAP2 DIV MUL PUSH1 0x20 ADD PUSH1 0x40 MLOAD SWAP1 DUP2 ADD PUSH1 0x40 MSTORE DUP1 SWAP3 SWAP2 SWAP1 DUP2 DUP2 MSTORE PUSH1 0x20 ADD DUP3 DUP1 SLOAD PUSH2 0x3719 SWAP1 PUSH2 0x5753 JUMP JUMPDEST DUP1 ISZERO PUSH2 0x3766 JUMPI DUP1 PUSH1 0x1F LT PUSH2 0x373B JUMPI PUSH2 0x100 DUP1 DUP4 SLOAD DIV MUL DUP4 MSTORE SWAP2 PUSH1 0x20 ADD SWAP2 PUSH2 0x3766 JUMP JUMPDEST DUP3 ADD SWAP2 SWAP1 PUSH1 0x0 MSTORE PUSH1 0x20 PUSH1 0x0 KECCAK256 SWAP1 JUMPDEST DUP2 SLOAD DUP2 MSTORE SWAP1 PUSH1 0x1 ADD SWAP1 PUSH1 0x20 ADD DUP1 DUP4 GT PUSH2 0x3749 JUMPI DUP3 SWAP1 SUB PUSH1 0x1F AND DUP3 ADD SWAP2 JUMPDEST POP POP POP POP POP DUP2 MSTORE PUSH1 0x20 ADD PUSH1 0x4 DUP3 ADD DUP1 SLOAD PUSH2 0x377F SWAP1 PUSH2 0x5753 JUMP JUMPDEST DUP1 PUSH1 0x1F ADD PUSH1 0x20 DUP1 SWAP2 DIV MUL PUSH1 0x20 ADD PUSH1 0x40 MLOAD SWAP1 DUP2 ADD PUSH1 0x40 MSTORE DUP1 SWAP3 SWAP2 SWAP1 DUP2 DUP2 MSTORE PUSH1 0x20 ADD DUP3 DUP1 SLOAD PUSH2 0x37AB SWAP1 PUSH2 0x5753 JUMP JUMPDEST DUP1 ISZERO PUSH2 0x37F8 JUMPI DUP1 PUSH1 0x1F LT PUSH2 0x37CD JUMPI PUSH2 0x100 DUP1 DUP4 SLOAD DIV MUL DUP4 MSTORE SWAP2 PUSH1 0x20 ADD SWAP2 PUSH2 0x37F8 JUMP JUMPDEST DUP3 ADD SWAP2 SWAP1 PUSH1 0x0 MSTORE PUSH1 0x20 PUSH1 0x0 KECCAK256 SWAP1 JUMPDEST DUP2 SLOAD DUP2 MSTORE SWAP1 PUSH1 0x1 ADD SWAP1 PUSH1 0x20 ADD DUP1 DUP4 GT PUSH2 0x37DB JUMPI DUP3 SWAP1 SUB PUSH1 0x1F AND DUP3 ADD SWAP2 JUMPDEST POP POP POP SWAP2 DUP4 MSTORE POP POP PUSH1 0x5 DUP3 ADD SLOAD PUSH1 0x20 DUP3 ADD MSTORE PUSH1 0x6 DUP3 ADD SLOAD PUSH1 0x1 PUSH1 0x1 PUSH1 0xA0 SHL SUB AND PUSH1 0x40 DUP3 ADD MSTORE PUSH1 0x7 DUP3 ADD DUP1 SLOAD PUSH1 0x60 SWAP1 SWAP3 ADD SWAP2 PUSH2 0x3832 SWAP1 PUSH2 0x5753 JUMP JUMPDEST DUP1 PUSH1 0x1F ADD PUSH1 0x20 DUP1 SWAP2 DIV MUL PUSH1 0x20 ADD PUSH1 0x40 MLOAD SWAP1 DUP2 ADD PUSH1 0x40 MSTORE DUP1 SWAP3 SWAP2 SWAP1 DUP2 DUP2 MSTORE PUSH1 0x20 ADD DUP3 DUP1 SLOAD PUSH2 0x385E SWAP1 PUSH2 0x5753 JUMP JUMPDEST DUP1 ISZERO PUSH2 0x38AB JUMPI DUP1 PUSH1 0x1F LT PUSH2 0x3880 JUMPI PUSH2 0x100 DUP1 DUP4 SLOAD DIV MUL DUP4 MSTORE SWAP2 PUSH1 0x20 ADD SWAP2 PUSH2 0x38AB JUMP JUMPDEST DUP3 ADD SWAP2 SWAP1 PUSH1 0x0 MSTORE PUSH1 0x20 PUSH1 0x0 KECCAK256 SWAP1 JUMPDEST DUP2 SLOAD DUP2 MSTORE SWAP1 PUSH1 0x1 ADD SWAP1 PUSH1 0x20 ADD DUP1 DUP4 GT PUSH2 0x388E JUMPI DUP3 SWAP1 SUB PUSH1 0x1F AND DUP3 ADD SWAP2 JUMPDEST POP POP POP POP POP DUP2 MSTORE POP POP DUP2 MSTORE PUSH1 0x20 ADD SWAP1 PUSH1 0x1 ADD SWAP1 PUSH2 0x358B JUMP JUMPDEST PUSH1 0x0 PUSH2 0x38D1 DUP3 CALLER PUSH1 0x1 PUSH2 0x4957 JUMP JUMPDEST PUSH2 0x38ED JUMPI PUSH1 0x40 MLOAD PUSH3 0x461BCD PUSH1 0xE5 SHL DUP2 MSTORE PUSH1 0x4 ADD PUSH2 0x961 SWAP1 PUSH2 0x5A3E JUMP JUMPDEST PUSH1 0x2 DUP3 PUSH1 0x40 MLOAD PUSH2 0x38FD SWAP2 SWAP1 PUSH2 0x5843 JUMP JUMPDEST SWAP1 DUP2 MSTORE PUSH1 0x20 ADD PUSH1 0x40 MLOAD DUP1 SWAP2 SUB SWAP1 KECCAK256 SLOAD SWAP1 POP SWAP2 SWAP1 POP JUMP JUMPDEST PUSH1 0x4 PUSH1 0x20 MSTORE PUSH1 0x0 SWAP1 DUP2 MSTORE PUSH1 0x40 SWAP1 KECCAK256 DUP1 SLOAD DUP2 SWAP1 PUSH2 0x392E SWAP1 PUSH2 0x5753 JUMP JUMPDEST DUP1 PUSH1 0x1F ADD PUSH1 0x20 DUP1 SWAP2 DIV MUL PUSH1 0x20 ADD PUSH1 0x40 MLOAD SWAP1 DUP2 ADD PUSH1 0x40 MSTORE DUP1 SWAP3 SWAP2 SWAP1 DUP2 DUP2 MSTORE PUSH1 0x20 ADD DUP3 DUP1 SLOAD PUSH2 0x395A SWAP1 PUSH2 0x5753 JUMP JUMPDEST DUP1 ISZERO PUSH2 0x39A7 JUMPI DUP1 PUSH1 0x1F LT PUSH2 0x397C JUMPI PUSH2 0x100 DUP1 DUP4 SLOAD DIV MUL DUP4 MSTORE SWAP2 PUSH1 0x20 ADD SWAP2 PUSH2 0x39A7 JUMP JUMPDEST DUP3 ADD SWAP2 SWAP1 PUSH1 0x0 MSTORE PUSH1 0x20 PUSH1 0x0 KECCAK256 SWAP1 JUMPDEST DUP2 SLOAD DUP2 MSTORE SWAP1 PUSH1 0x1 ADD SWAP1 PUSH1 0x20 ADD DUP1 DUP4 GT PUSH2 0x398A JUMPI DUP3 SWAP1 SUB PUSH1 0x1F AND DUP3 ADD SWAP2 JUMPDEST POP POP POP POP POP SWAP1 DUP1 PUSH1 0x1 ADD DUP1 SLOAD PUSH2 0x39BC SWAP1 PUSH2 0x5753 JUMP JUMPDEST DUP1 PUSH1 0x1F ADD PUSH1 0x20 DUP1 SWAP2 DIV MUL PUSH1 0x20 ADD PUSH1 0x40 MLOAD SWAP1 DUP2 ADD PUSH1 0x40 MSTORE DUP1 SWAP3 SWAP2 SWAP1 DUP2 DUP2 MSTORE PUSH1 0x20 ADD DUP3 DUP1 SLOAD PUSH2 0x39E8 SWAP1 PUSH2 0x5753 JUMP JUMPDEST DUP1 ISZERO PUSH2 0x3A35 JUMPI DUP1 PUSH1 0x1F LT PUSH2 0x3A0A JUMPI PUSH2 0x100 DUP1 DUP4 SLOAD DIV MUL DUP4 MSTORE SWAP2 PUSH1 0x20 ADD SWAP2 PUSH2 0x3A35 JUMP JUMPDEST DUP3 ADD SWAP2 SWAP1 PUSH1 0x0 MSTORE PUSH1 0x20 PUSH1 0x0 KECCAK256 SWAP1 JUMPDEST DUP2 SLOAD DUP2 MSTORE SWAP1 PUSH1 0x1 ADD SWAP1 PUSH1 0x20 ADD DUP1 DUP4 GT PUSH2 0x3A18 JUMPI DUP3 SWAP1 SUB PUSH1 0x1F AND DUP3 ADD SWAP2 JUMPDEST POP POP POP POP PUSH1 0x2 DUP4 ADD SLOAD PUSH1 0x3 SWAP1 SWAP4 ADD SLOAD SWAP2 SWAP3 PUSH1 0xFF DUP1 DUP3 AND SWAP4 PUSH2 0x100 SWAP1 SWAP3 DIV AND SWAP2 POP DUP6 JUMP JUMPDEST PUSH1 0x1 CALLER PUSH1 0x0 SWAP1 DUP2 MSTORE PUSH1 0x6 PUSH1 0x20 MSTORE PUSH1 0x40 SWAP1 KECCAK256 SLOAD PUSH1 0xFF AND PUSH1 0x4 DUP2 GT ISZERO PUSH2 0x3A7E JUMPI PUSH2 0x3A7E PUSH2 0x4D32 JUMP JUMPDEST EQ DUP1 ISZERO PUSH2 0x3AC0 JUMPI POP DUP1 DUP1 MLOAD SWAP1 PUSH1 0x20 ADD KECCAK256 PUSH1 0x5 DUP3 PUSH1 0x40 MLOAD PUSH2 0x3A9E SWAP2 SWAP1 PUSH2 0x5843 JUMP JUMPDEST SWAP1 DUP2 MSTORE PUSH1 0x40 MLOAD SWAP1 DUP2 SWAP1 SUB PUSH1 0x20 ADD DUP2 KECCAK256 PUSH2 0x3AB6 SWAP2 PUSH2 0x580E JUMP JUMPDEST PUSH1 0x40 MLOAD DUP1 SWAP2 SUB SWAP1 KECCAK256 EQ JUMPDEST PUSH2 0x3ADC JUMPI PUSH1 0x40 MLOAD PUSH3 0x461BCD PUSH1 0xE5 SHL DUP2 MSTORE PUSH1 0x4 ADD PUSH2 0x961 SWAP1 PUSH2 0x585F JUMP JUMPDEST PUSH1 0x0 PUSH1 0x5 DUP3 PUSH1 0x40 MLOAD PUSH2 0x3AEE SWAP2 SWAP1 PUSH2 0x5843 JUMP JUMPDEST SWAP1 DUP2 MSTORE PUSH1 0x40 MLOAD SWAP1 DUP2 SWAP1 SUB PUSH1 0x20 ADD DUP2 KECCAK256 PUSH1 0x4 ADD DUP1 SLOAD SWAP3 ISZERO ISZERO PUSH1 0xFF NOT SWAP1 SWAP4 AND SWAP3 SWAP1 SWAP3 OR SWAP1 SWAP2 SSTORE PUSH2 0x3B1D SWAP1 DUP3 SWAP1 PUSH2 0x5843 JUMP JUMPDEST PUSH1 0x40 MLOAD SWAP1 DUP2 SWAP1 SUB DUP2 KECCAK256 SWAP1 PUSH32 0x603D08020C4DC71D72674C8861E13340FF6BFEB2E5CDDA1243DCF8C37CE6955D SWAP1 PUSH1 0x0 SWAP1 LOG2 POP JUMP JUMPDEST PUSH1 0x60 PUSH2 0x3B6D PUSH1 0x40 MLOAD DUP1 PUSH1 0x20 ADD PUSH1 0x40 MSTORE DUP1 PUSH1 0x0 DUP2 MSTORE POP CALLER PUSH1 0x1 PUSH2 0x4957 JUMP JUMPDEST PUSH2 0x3B89 JUMPI PUSH1 0x40 MLOAD PUSH3 0x461BCD PUSH1 0xE5 SHL DUP2 MSTORE PUSH1 0x4 ADD PUSH2 0x961 SWAP1 PUSH2 0x5A3E JUMP JUMPDEST PUSH1 0x1 PUSH1 0x1 PUSH1 0xA0 SHL SUB DUP3 AND PUSH1 0x0 SWAP1 DUP2 MSTORE PUSH1 0xB PUSH1 0x20 MSTORE PUSH1 0x40 DUP2 KECCAK256 DUP1 SLOAD SWAP1 SWAP2 SWAP1 PUSH1 0x1 PUSH1 0x1 PUSH1 0x40 SHL SUB DUP2 GT ISZERO PUSH2 0x3BBD JUMPI PUSH2 0x3BBD PUSH2 0x4DE8 JUMP JUMPDEST PUSH1 0x40 MLOAD SWAP1 DUP1 DUP3 MSTORE DUP1 PUSH1 0x20 MUL PUSH1 0x20 ADD DUP3 ADD PUSH1 0x40 MSTORE DUP1 ISZERO PUSH2 0x3BF6 JUMPI DUP2 PUSH1 0x20 ADD JUMPDEST PUSH2 0x3BE3 PUSH2 0x4AEF JUMP JUMPDEST DUP2 MSTORE PUSH1 0x20 ADD SWAP1 PUSH1 0x1 SWAP1 SUB SWAP1 DUP2 PUSH2 0x3BDB JUMPI SWAP1 POP JUMPDEST POP SWAP1 POP PUSH1 0x0 JUMPDEST DUP3 SLOAD DUP2 LT ISZERO PUSH2 0x2AA4 JUMPI PUSH1 0x9 PUSH1 0x0 DUP5 DUP4 DUP2 SLOAD DUP2 LT PUSH2 0x3C1B JUMPI PUSH2 0x3C1B PUSH2 0x59FA JUMP JUMPDEST SWAP1 PUSH1 0x0 MSTORE PUSH1 0x20 PUSH1 0x0 KECCAK256 ADD SLOAD DUP2 MSTORE PUSH1 0x20 ADD SWAP1 DUP2 MSTORE PUSH1 0x20 ADD PUSH1 0x0 KECCAK256 PUSH1 0x40 MLOAD DUP1 PUSH2 0x100 ADD PUSH1 0x40 MSTORE SWAP1 DUP2 PUSH1 0x0 DUP3 ADD SLOAD DUP2 MSTORE PUSH1 0x20 ADD PUSH1 0x1 DUP3 ADD DUP1 SLOAD PUSH2 0x3C5A SWAP1 PUSH2 0x5753 JUMP JUMPDEST DUP1 PUSH1 0x1F ADD PUSH1 0x20 DUP1 SWAP2 DIV MUL PUSH1 0x20 ADD PUSH1 0x40 MLOAD SWAP1 DUP2 ADD PUSH1 0x40 MSTORE DUP1 SWAP3 SWAP2 SWAP1 DUP2 DUP2 MSTORE PUSH1 0x20 ADD DUP3 DUP1 SLOAD PUSH2 0x3C86 SWAP1 PUSH2 0x5753 JUMP JUMPDEST DUP1 ISZERO PUSH2 0x3CD3 JUMPI DUP1 PUSH1 0x1F LT PUSH2 0x3CA8 JUMPI PUSH2 0x100 DUP1 DUP4 SLOAD DIV MUL DUP4 MSTORE SWAP2 PUSH1 0x20 ADD SWAP2 PUSH2 0x3CD3 JUMP JUMPDEST DUP3 ADD SWAP2 SWAP1 PUSH1 0x0 MSTORE PUSH1 0x20 PUSH1 0x0 KECCAK256 SWAP1 JUMPDEST DUP2 SLOAD DUP2 MSTORE SWAP1 PUSH1 0x1 ADD SWAP1 PUSH1 0x20 ADD DUP1 DUP4 GT PUSH2 0x3CB6 JUMPI DUP3 SWAP1 SUB PUSH1 0x1F AND DUP3 ADD SWAP2 JUMPDEST POP POP POP SWAP2 DUP4 MSTORE POP POP PUSH1 0x2 DUP3 DUP2 ADD SLOAD PUSH1 0x20 DUP4 ADD MSTORE PUSH1 0x3 DUP4 ADD SLOAD PUSH1 0x40 SWAP1 SWAP3 ADD SWAP2 PUSH1 0xFF AND SWAP1 DUP2 GT ISZERO PUSH2 0x3D04 JUMPI PUSH2 0x3D04 PUSH2 0x4D32 JUMP JUMPDEST PUSH1 0x2 DUP2 GT ISZERO PUSH2 0x3D15 JUMPI PUSH2 0x3D15 PUSH2 0x4D32 JUMP JUMPDEST DUP2 MSTORE PUSH1 0x20 ADD PUSH1 0x4 DUP3 ADD DUP1 SLOAD PUSH2 0x3D29 SWAP1 PUSH2 0x5753 JUMP JUMPDEST DUP1 PUSH1 0x1F ADD PUSH1 0x20 DUP1 SWAP2 DIV MUL PUSH1 0x20 ADD PUSH1 0x40 MLOAD SWAP1 DUP2 ADD PUSH1 0x40 MSTORE DUP1 SWAP3 SWAP2 SWAP1 DUP2 DUP2 MSTORE PUSH1 0x20 ADD DUP3 DUP1 SLOAD PUSH2 0x3D55 SWAP1 PUSH2 0x5753 JUMP JUMPDEST DUP1 ISZERO PUSH2 0x3DA2 JUMPI DUP1 PUSH1 0x1F LT PUSH2 0x3D77 JUMPI PUSH2 0x100 DUP1 DUP4 SLOAD DIV MUL DUP4 MSTORE SWAP2 PUSH1 0x20 ADD SWAP2 PUSH2 0x3DA2 JUMP JUMPDEST DUP3 ADD SWAP2 SWAP1 PUSH1 0x0 MSTORE PUSH1 0x20 PUSH1 0x0 KECCAK256 SWAP1 JUMPDEST DUP2 SLOAD DUP2 MSTORE SWAP1 PUSH1 0x1 ADD SWAP1 PUSH1 0x20 ADD DUP1 DUP4 GT PUSH2 0x3D85 JUMPI DUP3 SWAP1 SUB PUSH1 0x1F AND DUP3 ADD SWAP2 JUMPDEST POP POP POP POP POP DUP2 MSTORE PUSH1 0x20 ADD PUSH1 0x5 DUP3 ADD DUP1 SLOAD PUSH2 0x3DBB SWAP1 PUSH2 0x5753 JUMP JUMPDEST DUP1 PUSH1 0x1F ADD PUSH1 0x20 DUP1 SWAP2 DIV MUL PUSH1 0x20 ADD PUSH1 0x40 MLOAD SWAP1 DUP2 ADD PUSH1 0x40 MSTORE DUP1 SWAP3 SWAP2 SWAP1 DUP2 DUP2 MSTORE PUSH1 0x20 ADD DUP3 DUP1 SLOAD PUSH2 0x3DE7 SWAP1 PUSH2 0x5753 JUMP JUMPDEST DUP1 ISZERO PUSH2 0x3E34 JUMPI DUP1 PUSH1 0x1F LT PUSH2 0x3E09 JUMPI PUSH2 0x100 DUP1 DUP4 SLOAD DIV MUL DUP4 MSTORE SWAP2 PUSH1 0x20 ADD SWAP2 PUSH2 0x3E34 JUMP JUMPDEST DUP3 ADD SWAP2 SWAP1 PUSH1 0x0 MSTORE PUSH1 0x20 PUSH1 0x0 KECCAK256 SWAP1 JUMPDEST DUP2 SLOAD DUP2 MSTORE SWAP1 PUSH1 0x1 ADD SWAP1 PUSH1 0x20 ADD DUP1 DUP4 GT PUSH2 0x3E17 JUMPI DUP3 SWAP1 SUB PUSH1 0x1F AND DUP3 ADD SWAP2 JUMPDEST POP POP POP POP POP DUP2 MSTORE PUSH1 0x20 ADD PUSH1 0x6 DUP3 ADD DUP1 SLOAD PUSH2 0x3E4D SWAP1 PUSH2 0x5753 JUMP JUMPDEST DUP1 PUSH1 0x1F ADD PUSH1 0x20 DUP1 SWAP2 DIV MUL PUSH1 0x20 ADD PUSH1 0x40 MLOAD SWAP1 DUP2 ADD PUSH1 0x40 MSTORE DUP1 SWAP3 SWAP2 SWAP1 DUP2 DUP2 MSTORE PUSH1 0x20 ADD DUP3 DUP1 SLOAD PUSH2 0x3E79 SWAP1 PUSH2 0x5753 JUMP JUMPDEST DUP1 ISZERO PUSH2 0x3EC6 JUMPI DUP1 PUSH1 0x1F LT PUSH2 0x3E9B JUMPI PUSH2 0x100 DUP1 DUP4 SLOAD DIV MUL DUP4 MSTORE SWAP2 PUSH1 0x20 ADD SWAP2 PUSH2 0x3EC6 JUMP JUMPDEST DUP3 ADD SWAP2 SWAP1 PUSH1 0x0 MSTORE PUSH1 0x20 PUSH1 0x0 KECCAK256 SWAP1 JUMPDEST DUP2 SLOAD DUP2 MSTORE SWAP1 PUSH1 0x1 ADD SWAP1 PUSH1 0x20 ADD DUP1 DUP4 GT PUSH2 0x3EA9 JUMPI DUP3 SWAP1 SUB PUSH1 0x1F AND DUP3 ADD SWAP2 JUMPDEST POP POP POP POP POP DUP2 MSTORE PUSH1 0x20 ADD PUSH1 0x7 DUP3 ADD DUP1 SLOAD PUSH2 0x3EDF SWAP1 PUSH2 0x5753 JUMP JUMPDEST DUP1 PUSH1 0x1F ADD PUSH1 0x20 DUP1 SWAP2 DIV MUL PUSH1 0x20 ADD PUSH1 0x40 MLOAD SWAP1 DUP2 ADD PUSH1 0x40 MSTORE DUP1 SWAP3 SWAP2 SWAP1 DUP2 DUP2 MSTORE PUSH1 0x20 ADD DUP3 DUP1 SLOAD PUSH2 0x3F0B SWAP1 PUSH2 0x5753 JUMP JUMPDEST DUP1 ISZERO PUSH2 0x3F58 JUMPI DUP1 PUSH1 0x1F LT PUSH2 0x3F2D JUMPI PUSH2 0x100 DUP1 DUP4 SLOAD DIV MUL DUP4 MSTORE SWAP2 PUSH1 0x20 ADD SWAP2 PUSH2 0x3F58 JUMP JUMPDEST DUP3 ADD SWAP2 SWAP1 PUSH1 0x0 MSTORE PUSH1 0x20 PUSH1 0x0 KECCAK256 SWAP1 JUMPDEST DUP2 SLOAD DUP2 MSTORE SWAP1 PUSH1 0x1 ADD SWAP1 PUSH1 0x20 ADD DUP1 DUP4 GT PUSH2 0x3F3B JUMPI DUP3 SWAP1 SUB PUSH1 0x1F AND DUP3 ADD SWAP2 JUMPDEST POP POP POP POP POP DUP2 MSTORE POP POP DUP3 DUP3 DUP2 MLOAD DUP2 LT PUSH2 0x3F73 JUMPI PUSH2 0x3F73 PUSH2 0x59FA JUMP JUMPDEST PUSH1 0x20 MUL PUSH1 0x20 ADD ADD DUP2 SWAP1 MSTORE POP DUP1 DUP1 PUSH2 0x3F89 SWAP1 PUSH2 0x58B2 JUMP JUMPDEST SWAP2 POP POP PUSH2 0x3BFC JUMP JUMPDEST PUSH1 0x3 DUP1 CALLER PUSH1 0x0 SWAP1 DUP2 MSTORE PUSH1 0x6 PUSH1 0x20 MSTORE PUSH1 0x40 SWAP1 KECCAK256 SLOAD PUSH1 0xFF AND PUSH1 0x4 DUP2 GT ISZERO PUSH2 0x3FB8 JUMPI PUSH2 0x3FB8 PUSH2 0x4D32 JUMP JUMPDEST EQ PUSH2 0x3FF9 JUMPI PUSH1 0x40 MLOAD PUSH3 0x461BCD PUSH1 0xE5 SHL DUP2 MSTORE PUSH1 0x20 PUSH1 0x4 DUP3 ADD MSTORE PUSH1 0x11 PUSH1 0x24 DUP3 ADD MSTORE PUSH17 0x556E617574686F72697A656420726F6C65 PUSH1 0x78 SHL PUSH1 0x44 DUP3 ADD MSTORE PUSH1 0x64 ADD PUSH2 0x961 JUMP JUMPDEST POP PUSH1 0x1 PUSH1 0x1 PUSH1 0xA0 SHL SUB AND PUSH1 0x0 SWAP1 DUP2 MSTORE PUSH1 0x3 PUSH1 0x20 MSTORE PUSH1 0x40 SWAP1 KECCAK256 DUP1 SLOAD PUSH1 0xFF NOT AND PUSH1 0x1 OR SWAP1 SSTORE JUMP JUMPDEST PUSH1 0x0 DUP1 JUMPDEST PUSH1 0x5 DUP4 PUSH1 0x40 MLOAD PUSH2 0x4032 SWAP2 SWAP1 PUSH2 0x5843 JUMP JUMPDEST SWAP1 DUP2 MSTORE PUSH1 0x40 MLOAD SWAP1 DUP2 SWAP1 SUB PUSH1 0x20 ADD SWAP1 KECCAK256 PUSH1 0x3 ADD SLOAD DUP2 LT ISZERO PUSH2 0x40BD JUMPI CALLER PUSH1 0x1 PUSH1 0x1 PUSH1 0xA0 SHL SUB AND PUSH1 0x5 DUP5 PUSH1 0x40 MLOAD PUSH2 0x4066 SWAP2 SWAP1 PUSH2 0x5843 JUMP JUMPDEST SWAP1 DUP2 MSTORE PUSH1 0x20 ADD PUSH1 0x40 MLOAD DUP1 SWAP2 SUB SWAP1 KECCAK256 PUSH1 0x3 ADD DUP3 DUP2 SLOAD DUP2 LT PUSH2 0x4088 JUMPI PUSH2 0x4088 PUSH2 0x59FA JUMP JUMPDEST PUSH1 0x0 SWAP2 DUP3 MSTORE PUSH1 0x20 SWAP1 SWAP2 KECCAK256 ADD SLOAD PUSH1 0x1 PUSH1 0x1 PUSH1 0xA0 SHL SUB AND SUB PUSH2 0x40AB JUMPI PUSH1 0x1 SWAP2 POP PUSH2 0x40BD JUMP JUMPDEST DUP1 PUSH2 0x40B5 DUP2 PUSH2 0x58B2 JUMP JUMPDEST SWAP2 POP POP PUSH2 0x4022 JUMP JUMPDEST POP DUP1 PUSH2 0x410B JUMPI PUSH1 0x40 MLOAD PUSH3 0x461BCD PUSH1 0xE5 SHL DUP2 MSTORE PUSH1 0x20 PUSH1 0x4 DUP3 ADD MSTORE PUSH1 0x18 PUSH1 0x24 DUP3 ADD MSTORE PUSH32 0x4E6F7420616E20656D657267656E637920636F6E746163740000000000000000 PUSH1 0x44 DUP3 ADD MSTORE PUSH1 0x64 ADD PUSH2 0x961 JUMP JUMPDEST PUSH1 0x1 PUSH1 0x5 DUP4 PUSH1 0x40 MLOAD PUSH2 0x411D SWAP2 SWAP1 PUSH2 0x5843 JUMP JUMPDEST SWAP1 DUP2 MSTORE PUSH1 0x40 MLOAD SWAP1 DUP2 SWAP1 SUB PUSH1 0x20 ADD DUP2 KECCAK256 PUSH1 0x4 ADD DUP1 SLOAD SWAP3 ISZERO ISZERO PUSH1 0xFF NOT SWAP1 SWAP4 AND SWAP3 SWAP1 SWAP3 OR SWAP1 SWAP2 SSTORE PUSH2 0x414C SWAP1 DUP4 SWAP1 PUSH2 0x5843 JUMP JUMPDEST PUSH1 0x40 MLOAD SWAP1 DUP2 SWAP1 SUB DUP2 KECCAK256 SWAP1 PUSH32 0x2BC0DE3F6C76F020B84DD1D38DECDCDA01FE7E3D5CD178CD7A19864E4135F7D SWAP1 PUSH1 0x0 SWAP1 LOG2 POP POP JUMP JUMPDEST CALLER ADDRESS EQ DUP1 PUSH2 0x41F1 JUMPI POP PUSH1 0x1 CALLER PUSH1 0x0 SWAP1 DUP2 MSTORE PUSH1 0x6 PUSH1 0x20 MSTORE PUSH1 0x40 SWAP1 KECCAK256 SLOAD PUSH1 0xFF AND PUSH1 0x4 DUP2 GT ISZERO PUSH2 0x41AF JUMPI PUSH2 0x41AF PUSH2 0x4D32 JUMP JUMPDEST EQ DUP1 ISZERO PUSH2 0x41F1 JUMPI POP DUP2 DUP1 MLOAD SWAP1 PUSH1 0x20 ADD KECCAK256 PUSH1 0x5 DUP4 PUSH1 0x40 MLOAD PUSH2 0x41CF SWAP2 SWAP1 PUSH2 0x5843 JUMP JUMPDEST SWAP1 DUP2 MSTORE PUSH1 0x40 MLOAD SWAP1 DUP2 SWAP1 SUB PUSH1 0x20 ADD DUP2 KECCAK256 PUSH2 0x41E7 SWAP2 PUSH2 0x580E JUMP JUMPDEST PUSH1 0x40 MLOAD DUP1 SWAP2 SUB SWAP1 KECCAK256 EQ JUMPDEST PUSH2 0x420D JUMPI PUSH1 0x40 MLOAD PUSH3 0x461BCD PUSH1 0xE5 SHL DUP2 MSTORE PUSH1 0x4 ADD PUSH2 0x961 SWAP1 PUSH2 0x585F JUMP JUMPDEST PUSH1 0x5 DUP3 PUSH1 0x40 MLOAD PUSH2 0x421D SWAP2 SWAP1 PUSH2 0x5843 JUMP JUMPDEST SWAP1 DUP2 MSTORE PUSH1 0x40 DUP1 MLOAD PUSH1 0x20 SWAP3 DUP2 SWAP1 SUB DUP4 ADD DUP2 KECCAK256 PUSH1 0x1 PUSH1 0x1 PUSH1 0xA0 SHL SUB DUP6 AND PUSH1 0x0 DUP2 DUP2 MSTORE PUSH1 0x2 SWAP1 SWAP3 ADD SWAP1 SWAP5 MSTORE SWAP2 SWAP1 SWAP2 KECCAK256 DUP1 SLOAD PUSH1 0xFF NOT AND SWAP1 SSTORE PUSH2 0x425C SWAP1 DUP5 SWAP1 PUSH2 0x5843 JUMP JUMPDEST PUSH1 0x40 MLOAD SWAP1 DUP2 SWAP1 SUB DUP2 KECCAK256 SWAP1 PUSH32 0xA4056635223780A71518E8C10B6FC0FD195775C8375C4841C124A959AE5C30AD SWAP1 PUSH1 0x0 SWAP1 LOG3 POP POP JUMP JUMPDEST DUP2 PUSH1 0x2 PUSH2 0x429E DUP3 CALLER DUP4 PUSH2 0x4957 JUMP JUMPDEST DUP1 PUSH2 0x42CB JUMPI POP PUSH1 0x5 DUP3 PUSH1 0x40 MLOAD PUSH2 0x42B4 SWAP2 SWAP1 PUSH2 0x5843 JUMP JUMPDEST SWAP1 DUP2 MSTORE PUSH1 0x40 MLOAD SWAP1 DUP2 SWAP1 SUB PUSH1 0x20 ADD SWAP1 KECCAK256 PUSH1 0x4 ADD SLOAD PUSH1 0xFF AND JUMPDEST PUSH2 0x42E7 JUMPI PUSH1 0x40 MLOAD PUSH3 0x461BCD PUSH1 0xE5 SHL DUP2 MSTORE PUSH1 0x4 ADD PUSH2 0x961 SWAP1 PUSH2 0x5885 JUMP JUMPDEST PUSH2 0x4322 DUP3 CALLER PUSH1 0x40 MLOAD DUP1 PUSH1 0x40 ADD PUSH1 0x40 MSTORE DUP1 PUSH1 0xD DUP2 MSTORE PUSH1 0x20 ADD PUSH13 0x5265636F726420416363657373 PUSH1 0x98 SHL DUP2 MSTORE POP PUSH1 0x5 DUP7 PUSH1 0x40 MLOAD PUSH2 0x10C0 SWAP2 SWAP1 PUSH2 0x5843 JUMP JUMPDEST PUSH1 0x2 CALLER PUSH1 0x0 SWAP1 DUP2 MSTORE PUSH1 0x6 PUSH1 0x20 MSTORE PUSH1 0x40 SWAP1 KECCAK256 SLOAD PUSH1 0xFF AND PUSH1 0x4 DUP2 GT ISZERO PUSH2 0x4348 JUMPI PUSH2 0x4348 PUSH2 0x4D32 JUMP JUMPDEST EQ DUP1 PUSH2 0x4377 JUMPI POP PUSH1 0x3 CALLER PUSH1 0x0 SWAP1 DUP2 MSTORE PUSH1 0x6 PUSH1 0x20 MSTORE PUSH1 0x40 SWAP1 KECCAK256 SLOAD PUSH1 0xFF AND PUSH1 0x4 DUP2 GT ISZERO PUSH2 0x4375 JUMPI PUSH2 0x4375 PUSH2 0x4D32 JUMP JUMPDEST EQ JUMPDEST PUSH2 0x4393 JUMPI PUSH1 0x40 MLOAD PUSH3 0x461BCD PUSH1 0xE5 SHL DUP2 MSTORE PUSH1 0x4 ADD PUSH2 0x961 SWAP1 PUSH2 0x585F JUMP JUMPDEST PUSH1 0x0 PUSH1 0xF DUP6 PUSH1 0x40 MLOAD PUSH2 0x43A5 SWAP2 SWAP1 PUSH2 0x5843 JUMP JUMPDEST SWAP1 DUP2 MSTORE PUSH1 0x20 ADD PUSH1 0x40 MLOAD DUP1 SWAP2 SUB SWAP1 KECCAK256 SWAP1 POP PUSH1 0x0 JUMPDEST DUP2 SLOAD DUP2 LT ISZERO PUSH2 0x44B3 JUMPI DUP5 DUP1 MLOAD SWAP1 PUSH1 0x20 ADD KECCAK256 DUP3 DUP3 DUP2 SLOAD DUP2 LT PUSH2 0x43DB JUMPI PUSH2 0x43DB PUSH2 0x59FA JUMP JUMPDEST SWAP1 PUSH1 0x0 MSTORE PUSH1 0x20 PUSH1 0x0 KECCAK256 SWAP1 PUSH1 0x6 MUL ADD PUSH1 0x0 ADD PUSH1 0x40 MLOAD PUSH2 0x43F9 SWAP2 SWAP1 PUSH2 0x580E JUMP JUMPDEST PUSH1 0x40 MLOAD DUP1 SWAP2 SUB SWAP1 KECCAK256 EQ DUP1 ISZERO PUSH2 0x4433 JUMPI POP DUP2 DUP2 DUP2 SLOAD DUP2 LT PUSH2 0x441B JUMPI PUSH2 0x441B PUSH2 0x59FA JUMP JUMPDEST PUSH1 0x0 SWAP2 DUP3 MSTORE PUSH1 0x20 SWAP1 SWAP2 KECCAK256 PUSH1 0x5 PUSH1 0x6 SWAP1 SWAP3 MUL ADD ADD SLOAD PUSH1 0xFF AND JUMPDEST ISZERO PUSH2 0x44A1 JUMPI PUSH1 0x0 DUP3 DUP3 DUP2 SLOAD DUP2 LT PUSH2 0x444C JUMPI PUSH2 0x444C PUSH2 0x59FA JUMP JUMPDEST SWAP1 PUSH1 0x0 MSTORE PUSH1 0x20 PUSH1 0x0 KECCAK256 SWAP1 PUSH1 0x6 MUL ADD PUSH1 0x5 ADD PUSH1 0x0 PUSH2 0x100 EXP DUP2 SLOAD DUP2 PUSH1 0xFF MUL NOT AND SWAP1 DUP4 ISZERO ISZERO MUL OR SWAP1 SSTORE POP TIMESTAMP DUP3 DUP3 DUP2 SLOAD DUP2 LT PUSH2 0x4487 JUMPI PUSH2 0x4487 PUSH2 0x59FA JUMP JUMPDEST SWAP1 PUSH1 0x0 MSTORE PUSH1 0x20 PUSH1 0x0 KECCAK256 SWAP1 PUSH1 0x6 MUL ADD PUSH1 0x2 ADD DUP2 SWAP1 SSTORE POP PUSH2 0x44B3 JUMP JUMPDEST DUP1 PUSH2 0x44AB DUP2 PUSH2 0x58B2 JUMP JUMPDEST SWAP2 POP POP PUSH2 0x43B8 JUMP JUMPDEST POP POP POP POP POP POP JUMP JUMPDEST PUSH1 0x60 PUSH2 0x44C9 DUP3 CALLER PUSH1 0x1 PUSH2 0x4957 JUMP JUMPDEST PUSH2 0x44E5 JUMPI PUSH1 0x40 MLOAD PUSH3 0x461BCD PUSH1 0xE5 SHL DUP2 MSTORE PUSH1 0x4 ADD PUSH2 0x961 SWAP1 PUSH2 0x5A3E JUMP JUMPDEST PUSH1 0xD DUP3 PUSH1 0x40 MLOAD PUSH2 0x44F5 SWAP2 SWAP1 PUSH2 0x5843 JUMP JUMPDEST SWAP1 DUP2 MSTORE PUSH1 0x20 ADD PUSH1 0x40 MLOAD DUP1 SWAP2 SUB SWAP1 KECCAK256 DUP1 SLOAD DUP1 PUSH1 0x20 MUL PUSH1 0x20 ADD PUSH1 0x40 MLOAD SWAP1 DUP2 ADD PUSH1 0x40 MSTORE DUP1 SWAP3 SWAP2 SWAP1 DUP2 DUP2 MSTORE PUSH1 0x20 ADD PUSH1 0x0 SWAP1 JUMPDEST DUP3 DUP3 LT ISZERO PUSH2 0x2038 JUMPI DUP4 DUP3 SWAP1 PUSH1 0x0 MSTORE PUSH1 0x20 PUSH1 0x0 KECCAK256 SWAP1 PUSH1 0x4 MUL ADD PUSH1 0x40 MLOAD DUP1 PUSH1 0x80 ADD PUSH1 0x40 MSTORE SWAP1 DUP2 PUSH1 0x0 DUP3 ADD DUP1 SLOAD PUSH2 0x4556 SWAP1 PUSH2 0x5753 JUMP JUMPDEST DUP1 PUSH1 0x1F ADD PUSH1 0x20 DUP1 SWAP2 DIV MUL PUSH1 0x20 ADD PUSH1 0x40 MLOAD SWAP1 DUP2 ADD PUSH1 0x40 MSTORE DUP1 SWAP3 SWAP2 SWAP1 DUP2 DUP2 MSTORE PUSH1 0x20 ADD DUP3 DUP1 SLOAD PUSH2 0x4582 SWAP1 PUSH2 0x5753 JUMP JUMPDEST DUP1 ISZERO PUSH2 0x45CF JUMPI DUP1 PUSH1 0x1F LT PUSH2 0x45A4 JUMPI PUSH2 0x100 DUP1 DUP4 SLOAD DIV MUL DUP4 MSTORE SWAP2 PUSH1 0x20 ADD SWAP2 PUSH2 0x45CF JUMP JUMPDEST DUP3 ADD SWAP2 SWAP1 PUSH1 0x0 MSTORE PUSH1 0x20 PUSH1 0x0 KECCAK256 SWAP1 JUMPDEST DUP2 SLOAD DUP2 MSTORE SWAP1 PUSH1 0x1 ADD SWAP1 PUSH1 0x20 ADD DUP1 DUP4 GT PUSH2 0x45B2 JUMPI DUP3 SWAP1 SUB PUSH1 0x1F AND DUP3 ADD SWAP2 JUMPDEST POP POP POP POP POP DUP2 MSTORE PUSH1 0x20 ADD PUSH1 0x1 DUP3 ADD SLOAD DUP2 MSTORE PUSH1 0x20 ADD PUSH1 0x2 DUP3 ADD SLOAD DUP2 MSTORE PUSH1 0x20 ADD PUSH1 0x3 DUP3 ADD DUP1 SLOAD PUSH2 0x45FC SWAP1 PUSH2 0x5753 JUMP JUMPDEST DUP1 PUSH1 0x1F ADD PUSH1 0x20 DUP1 SWAP2 DIV MUL PUSH1 0x20 ADD PUSH1 0x40 MLOAD SWAP1 DUP2 ADD PUSH1 0x40 MSTORE DUP1 SWAP3 SWAP2 SWAP1 DUP2 DUP2 MSTORE PUSH1 0x20 ADD DUP3 DUP1 SLOAD PUSH2 0x4628 SWAP1 PUSH2 0x5753 JUMP JUMPDEST DUP1 ISZERO PUSH2 0x4675 JUMPI DUP1 PUSH1 0x1F LT PUSH2 0x464A JUMPI PUSH2 0x100 DUP1 DUP4 SLOAD DIV MUL DUP4 MSTORE SWAP2 PUSH1 0x20 ADD SWAP2 PUSH2 0x4675 JUMP JUMPDEST DUP3 ADD SWAP2 SWAP1 PUSH1 0x0 MSTORE PUSH1 0x20 PUSH1 0x0 KECCAK256 SWAP1 JUMPDEST DUP2 SLOAD DUP2 MSTORE SWAP1 PUSH1 0x1 ADD SWAP1 PUSH1 0x20 ADD DUP1 DUP4 GT PUSH2 0x4658 JUMPI DUP3 SWAP1 SUB PUSH1 0x1F AND DUP3 ADD SWAP2 JUMPDEST POP POP POP POP POP DUP2 MSTORE POP POP DUP2 MSTORE PUSH1 0x20 ADD SWAP1 PUSH1 0x1 ADD SWAP1 PUSH2 0x4523 JUMP JUMPDEST DUP2 PUSH1 0x2 PUSH2 0x469B DUP3 CALLER DUP4 PUSH2 0x4957 JUMP JUMPDEST DUP1 PUSH2 0x46C8 JUMPI POP PUSH1 0x5 DUP3 PUSH1 0x40 MLOAD PUSH2 0x46B1 SWAP2 SWAP1 PUSH2 0x5843 JUMP JUMPDEST SWAP1 DUP2 MSTORE PUSH1 0x40 MLOAD SWAP1 DUP2 SWAP1 SUB PUSH1 0x20 ADD SWAP1 KECCAK256 PUSH1 0x4 ADD SLOAD PUSH1 0xFF AND JUMPDEST PUSH2 0x46E4 JUMPI PUSH1 0x40 MLOAD PUSH3 0x461BCD PUSH1 0xE5 SHL DUP2 MSTORE PUSH1 0x4 ADD PUSH2 0x961 SWAP1 PUSH2 0x5885 JUMP JUMPDEST PUSH2 0x471F DUP3 CALLER PUSH1 0x40 MLOAD DUP1 PUSH1 0x40 ADD PUSH1 0x40 MSTORE DUP1 PUSH1 0xD DUP2 MSTORE PUSH1 0x20 ADD PUSH13 0x5265636F726420416363657373 PUSH1 0x98 SHL DUP2 MSTORE POP PUSH1 0x5 DUP7 PUSH1 0x40 MLOAD PUSH2 0x10C0 SWAP2 SWAP1 PUSH2 0x5843 JUMP JUMPDEST DUP3 PUSH1 0x2 DUP6 PUSH1 0x40 MLOAD PUSH2 0x4730 SWAP2 SWAP1 PUSH2 0x5843 JUMP JUMPDEST SWAP1 DUP2 MSTORE PUSH1 0x20 ADD PUSH1 0x40 MLOAD DUP1 SWAP2 SUB SWAP1 KECCAK256 SLOAD LT ISZERO PUSH2 0x478D JUMPI PUSH1 0x40 MLOAD PUSH3 0x461BCD PUSH1 0xE5 SHL DUP2 MSTORE PUSH1 0x20 PUSH1 0x4 DUP3 ADD MSTORE PUSH1 0x19 PUSH1 0x24 DUP3 ADD MSTORE PUSH32 0x496E73756666696369656E74206865616C746820636F696E7300000000000000 PUSH1 0x44 DUP3 ADD MSTORE PUSH1 0x64 ADD PUSH2 0x961 JUMP JUMPDEST DUP3 PUSH1 0x2 DUP6 PUSH1 0x40 MLOAD PUSH2 0x479E SWAP2 SWAP1 PUSH2 0x5843 JUMP JUMPDEST SWAP1 DUP2 MSTORE PUSH1 0x20 ADD PUSH1 0x40 MLOAD DUP1 SWAP2 SUB SWAP1 KECCAK256 PUSH1 0x0 DUP3 DUP3 SLOAD PUSH2 0x47BB SWAP2 SWAP1 PUSH2 0x5AA2 JUMP JUMPDEST SWAP1 SWAP2 SSTORE POP POP PUSH1 0x40 MLOAD PUSH2 0x47CE SWAP1 DUP6 SWAP1 PUSH2 0x5843 JUMP JUMPDEST PUSH1 0x40 MLOAD SWAP1 DUP2 SWAP1 SUB DUP2 KECCAK256 DUP5 DUP3 MSTORE SWAP1 PUSH32 0xF78100B79988CA94AAA795967F9F5D213A54D36607A35040061897D737897D45 SWAP1 PUSH1 0x20 ADD PUSH2 0x2225 JUMP JUMPDEST PUSH1 0x40 DUP1 MLOAD PUSH1 0xA0 DUP2 ADD DUP3 MSTORE PUSH1 0x1 PUSH1 0x1 PUSH1 0xA0 SHL SUB DUP6 DUP2 AND DUP3 MSTORE PUSH1 0x20 DUP3 ADD DUP8 DUP2 MSTORE TIMESTAMP SWAP4 DUP4 ADD SWAP4 SWAP1 SWAP4 MSTORE PUSH1 0x60 DUP3 ADD DUP6 SWAP1 MSTORE DUP4 ISZERO ISZERO PUSH1 0x80 DUP4 ADD MSTORE PUSH1 0x7 DUP1 SLOAD PUSH1 0x1 DUP2 ADD DUP3 SSTORE PUSH1 0x0 SWAP2 SWAP1 SWAP2 MSTORE DUP3 MLOAD PUSH32 0xA66CC928B5EDB82AF9BD49922954155AB7B0942694BEA4CE44661D9A8736C688 PUSH1 0x5 SWAP1 SWAP3 MUL SWAP2 DUP3 ADD DUP1 SLOAD PUSH1 0x1 PUSH1 0x1 PUSH1 0xA0 SHL SUB NOT AND SWAP2 SWAP1 SWAP4 AND OR DUP3 SSTORE SWAP3 MLOAD SWAP2 SWAP3 DUP4 SWAP3 PUSH32 0xA66CC928B5EDB82AF9BD49922954155AB7B0942694BEA4CE44661D9A8736C689 SWAP1 SWAP2 ADD SWAP1 PUSH2 0x48BD SWAP1 DUP3 PUSH2 0x5911 JUMP JUMPDEST POP PUSH1 0x40 DUP3 ADD MLOAD PUSH1 0x2 DUP3 ADD SSTORE PUSH1 0x60 DUP3 ADD MLOAD PUSH1 0x3 DUP3 ADD SWAP1 PUSH2 0x48DC SWAP1 DUP3 PUSH2 0x5911 JUMP JUMPDEST POP PUSH1 0x80 SWAP2 SWAP1 SWAP2 ADD MLOAD PUSH1 0x4 SWAP1 SWAP2 ADD DUP1 SLOAD PUSH1 0xFF NOT AND SWAP2 ISZERO ISZERO SWAP2 SWAP1 SWAP2 OR SWAP1 SSTORE PUSH1 0x40 MLOAD PUSH1 0x1 PUSH1 0x1 PUSH1 0xA0 SHL SUB DUP6 AND SWAP1 PUSH2 0x4911 SWAP1 DUP8 SWAP1 PUSH2 0x5843 JUMP JUMPDEST PUSH1 0x40 MLOAD DUP1 SWAP2 SUB SWAP1 KECCAK256 PUSH32 0x3080B8B7888BFF2FD89AE826442395530945D5733B453CBC662B1EC33780DC2D DUP6 PUSH1 0x40 MLOAD PUSH2 0x4948 SWAP2 SWAP1 PUSH2 0x5AB5 JUMP JUMPDEST PUSH1 0x40 MLOAD DUP1 SWAP2 SUB SWAP1 LOG3 POP POP POP POP POP JUMP JUMPDEST PUSH1 0x1 PUSH1 0x1 PUSH1 0xA0 SHL SUB DUP3 AND PUSH1 0x0 SWAP1 DUP2 MSTORE PUSH1 0x6 PUSH1 0x20 MSTORE PUSH1 0x40 DUP2 KECCAK256 SLOAD PUSH1 0xFF AND PUSH1 0x3 DUP2 PUSH1 0x4 DUP2 GT ISZERO PUSH2 0x4987 JUMPI PUSH2 0x4987 PUSH2 0x4D32 JUMP JUMPDEST SUB PUSH2 0x4996 JUMPI PUSH1 0x1 SWAP2 POP POP PUSH2 0x4AE8 JUMP JUMPDEST PUSH1 0x2 DUP2 PUSH1 0x4 DUP2 GT ISZERO PUSH2 0x49AA JUMPI PUSH2 0x49AA PUSH2 0x4D32 JUMP JUMPDEST SUB PUSH2 0x4A15 JUMPI PUSH1 0x1 DUP4 PUSH1 0x3 DUP2 GT ISZERO PUSH2 0x49C3 JUMPI PUSH2 0x49C3 PUSH2 0x4D32 JUMP JUMPDEST SUB PUSH2 0x49D2 JUMPI PUSH1 0x1 SWAP2 POP POP PUSH2 0x4AE8 JUMP JUMPDEST PUSH1 0x1 PUSH1 0x1 PUSH1 0xA0 SHL SUB DUP5 AND PUSH1 0x0 SWAP1 DUP2 MSTORE PUSH1 0x11 PUSH1 0x20 MSTORE PUSH1 0x40 SWAP1 DUP2 SWAP1 KECCAK256 SWAP1 MLOAD PUSH2 0x49F9 SWAP1 DUP8 SWAP1 PUSH2 0x5843 JUMP JUMPDEST SWAP1 DUP2 MSTORE PUSH1 0x40 MLOAD SWAP1 DUP2 SWAP1 SUB PUSH1 0x20 ADD SWAP1 KECCAK256 SLOAD PUSH1 0xFF AND SWAP2 POP PUSH2 0x4AE8 SWAP1 POP JUMP JUMPDEST PUSH1 0x1 DUP2 PUSH1 0x4 DUP2 GT ISZERO PUSH2 0x4A29 JUMPI PUSH2 0x4A29 PUSH2 0x4D32 JUMP JUMPDEST EQ DUP1 ISZERO PUSH2 0x4A75 JUMPI POP DUP5 DUP1 MLOAD SWAP1 PUSH1 0x20 ADD KECCAK256 PUSH1 0x13 PUSH1 0x0 DUP7 PUSH1 0x1 PUSH1 0x1 PUSH1 0xA0 SHL SUB AND PUSH1 0x1 PUSH1 0x1 PUSH1 0xA0 SHL SUB AND DUP2 MSTORE PUSH1 0x20 ADD SWAP1 DUP2 MSTORE PUSH1 0x20 ADD PUSH1 0x0 KECCAK256 PUSH1 0x40 MLOAD PUSH2 0x4A6B SWAP2 SWAP1 PUSH2 0x580E JUMP JUMPDEST PUSH1 0x40 MLOAD DUP1 SWAP2 SUB SWAP1 KECCAK256 EQ JUMPDEST ISZERO PUSH2 0x4A84 JUMPI PUSH1 0x1 SWAP2 POP POP PUSH2 0x4AE8 JUMP JUMPDEST PUSH1 0x4 DUP2 PUSH1 0x4 DUP2 GT ISZERO PUSH2 0x4A98 JUMPI PUSH2 0x4A98 PUSH2 0x4D32 JUMP JUMPDEST EQ DUP1 ISZERO PUSH2 0x4AB6 JUMPI POP PUSH1 0x1 DUP4 PUSH1 0x3 DUP2 GT ISZERO PUSH2 0x4AB4 JUMPI PUSH2 0x4AB4 PUSH2 0x4D32 JUMP JUMPDEST EQ JUMPDEST ISZERO PUSH2 0x4AE2 JUMPI PUSH1 0x1 PUSH1 0x1 PUSH1 0xA0 SHL SUB DUP5 AND PUSH1 0x0 SWAP1 DUP2 MSTORE PUSH1 0x12 PUSH1 0x20 MSTORE PUSH1 0x40 SWAP1 DUP2 SWAP1 KECCAK256 SWAP1 MLOAD PUSH2 0x49F9 SWAP1 DUP8 SWAP1 PUSH2 0x5843 JUMP JUMPDEST PUSH1 0x0 SWAP2 POP POP JUMPDEST SWAP4 SWAP3 POP POP POP JUMP JUMPDEST PUSH1 0x40 MLOAD DUP1 PUSH2 0x100 ADD PUSH1 0x40 MSTORE DUP1 PUSH1 0x0 DUP2 MSTORE PUSH1 0x20 ADD PUSH1 0x60 DUP2 MSTORE PUSH1 0x20 ADD PUSH1 0x0 DUP2 MSTORE PUSH1 0x20 ADD PUSH1 0x0 PUSH1 0x2 DUP2 GT ISZERO PUSH2 0x4B23 JUMPI PUSH2 0x4B23 PUSH2 0x4D32 JUMP JUMPDEST DUP2 MSTORE PUSH1 0x20 ADD PUSH1 0x60 DUP2 MSTORE PUSH1 0x20 ADD PUSH1 0x60 DUP2 MSTORE PUSH1 0x20 ADD PUSH1 0x60 DUP2 MSTORE PUSH1 0x20 ADD PUSH1 0x60 DUP2 MSTORE POP SWAP1 JUMP JUMPDEST PUSH1 0x0 JUMPDEST DUP4 DUP2 LT ISZERO PUSH2 0x4B60 JUMPI DUP2 DUP2 ADD MLOAD DUP4 DUP3 ADD MSTORE PUSH1 0x20 ADD PUSH2 0x4B48 JUMP JUMPDEST POP POP PUSH1 0x0 SWAP2 ADD MSTORE JUMP JUMPDEST PUSH1 0x0 DUP2 MLOAD DUP1 DUP5 MSTORE PUSH2 0x4B81 DUP2 PUSH1 0x20 DUP7 ADD PUSH1 0x20 DUP7 ADD PUSH2 0x4B45 JUMP JUMPDEST PUSH1 0x1F ADD PUSH1 0x1F NOT AND SWAP3 SWAP1 SWAP3 ADD PUSH1 0x20 ADD SWAP3 SWAP2 POP POP JUMP JUMPDEST PUSH1 0x0 PUSH1 0x20 DUP1 DUP4 ADD DUP2 DUP5 MSTORE DUP1 DUP6 MLOAD DUP1 DUP4 MSTORE PUSH1 0x40 SWAP3 POP DUP3 DUP7 ADD SWAP2 POP DUP3 DUP2 PUSH1 0x5 SHL DUP8 ADD ADD DUP5 DUP9 ADD PUSH1 0x0 JUMPDEST DUP4 DUP2 LT ISZERO PUSH2 0x4C91 JUMPI PUSH1 0x3F NOT DUP10 DUP5 SUB ADD DUP6 MSTORE DUP2 MLOAD PUSH2 0x100 DUP2 MLOAD DUP6 MSTORE DUP9 DUP3 ADD MLOAD DUP2 DUP11 DUP8 ADD MSTORE PUSH2 0x4BEB DUP3 DUP8 ADD DUP3 PUSH2 0x4B69 JUMP JUMPDEST SWAP2 POP POP DUP8 DUP3 ADD MLOAD DUP6 DUP3 SUB DUP10 DUP8 ADD MSTORE PUSH2 0x4C03 DUP3 DUP3 PUSH2 0x4B69 JUMP JUMPDEST SWAP2 POP POP PUSH1 0x60 DUP1 DUP4 ADD MLOAD DUP7 DUP4 SUB DUP3 DUP9 ADD MSTORE PUSH2 0x4C1D DUP4 DUP3 PUSH2 0x4B69 JUMP JUMPDEST SWAP3 POP POP POP PUSH1 0x80 DUP1 DUP4 ADD MLOAD DUP7 DUP4 SUB DUP3 DUP9 ADD MSTORE PUSH2 0x4C38 DUP4 DUP3 PUSH2 0x4B69 JUMP JUMPDEST SWAP3 POP POP POP PUSH1 0xA0 DUP1 DUP4 ADD MLOAD DUP2 DUP8 ADD MSTORE POP PUSH1 0xC0 DUP1 DUP4 ADD MLOAD PUSH2 0x4C61 DUP3 DUP9 ADD DUP3 PUSH1 0x1 PUSH1 0x1 PUSH1 0xA0 SHL SUB AND SWAP1 MSTORE JUMP JUMPDEST POP POP PUSH1 0xE0 DUP1 DUP4 ADD MLOAD SWAP3 POP DUP6 DUP3 SUB DUP2 DUP8 ADD MSTORE POP PUSH2 0x4C7D DUP2 DUP4 PUSH2 0x4B69 JUMP JUMPDEST SWAP7 DUP10 ADD SWAP7 SWAP5 POP POP POP SWAP1 DUP7 ADD SWAP1 PUSH1 0x1 ADD PUSH2 0x4BBC JUMP JUMPDEST POP SWAP1 SWAP9 SWAP8 POP POP POP POP POP POP POP POP JUMP JUMPDEST DUP1 CALLDATALOAD PUSH1 0x1 PUSH1 0x1 PUSH1 0xA0 SHL SUB DUP2 AND DUP2 EQ PUSH2 0x4CB6 JUMPI PUSH1 0x0 DUP1 REVERT JUMPDEST SWAP2 SWAP1 POP JUMP JUMPDEST PUSH1 0x0 DUP1 PUSH1 0x40 DUP4 DUP6 SUB SLT ISZERO PUSH2 0x4CCE JUMPI PUSH1 0x0 DUP1 REVERT JUMPDEST PUSH2 0x4CD7 DUP4 PUSH2 0x4C9F JUMP JUMPDEST SWAP5 PUSH1 0x20 SWAP4 SWAP1 SWAP4 ADD CALLDATALOAD SWAP4 POP POP POP JUMP JUMPDEST PUSH1 0x0 DUP1 PUSH1 0x40 DUP4 DUP6 SUB SLT ISZERO PUSH2 0x4CF8 JUMPI PUSH1 0x0 DUP1 REVERT JUMPDEST DUP3 CALLDATALOAD SWAP2 POP PUSH1 0x20 DUP4 ADD CALLDATALOAD PUSH1 0x3 DUP2 LT PUSH2 0x4D0E JUMPI PUSH1 0x0 DUP1 REVERT JUMPDEST DUP1 SWAP2 POP POP SWAP3 POP SWAP3 SWAP1 POP JUMP JUMPDEST PUSH1 0x0 PUSH1 0x20 DUP3 DUP5 SUB SLT ISZERO PUSH2 0x4D2B JUMPI PUSH1 0x0 DUP1 REVERT JUMPDEST POP CALLDATALOAD SWAP2 SWAP1 POP JUMP JUMPDEST PUSH4 0x4E487B71 PUSH1 0xE0 SHL PUSH1 0x0 MSTORE PUSH1 0x21 PUSH1 0x4 MSTORE PUSH1 0x24 PUSH1 0x0 REVERT JUMPDEST PUSH1 0x3 DUP2 LT PUSH2 0x4D58 JUMPI PUSH2 0x4D58 PUSH2 0x4D32 JUMP JUMPDEST SWAP1 MSTORE JUMP JUMPDEST PUSH1 0x0 PUSH2 0x100 DUP11 DUP4 MSTORE DUP1 PUSH1 0x20 DUP5 ADD MSTORE PUSH2 0x4D76 DUP2 DUP5 ADD DUP12 PUSH2 0x4B69 JUMP JUMPDEST SWAP1 POP DUP9 PUSH1 0x40 DUP5 ADD MSTORE PUSH2 0x4D8B PUSH1 0x60 DUP5 ADD DUP10 PUSH2 0x4D48 JUMP JUMPDEST DUP3 DUP2 SUB PUSH1 0x80 DUP5 ADD MSTORE PUSH2 0x4D9D DUP2 DUP9 PUSH2 0x4B69 JUMP JUMPDEST SWAP1 POP DUP3 DUP2 SUB PUSH1 0xA0 DUP5 ADD MSTORE PUSH2 0x4DB1 DUP2 DUP8 PUSH2 0x4B69 JUMP JUMPDEST SWAP1 POP DUP3 DUP2 SUB PUSH1 0xC0 DUP5 ADD MSTORE PUSH2 0x4DC5 DUP2 DUP7 PUSH2 0x4B69 JUMP JUMPDEST SWAP1 POP DUP3 DUP2 SUB PUSH1 0xE0 DUP5 ADD MSTORE PUSH2 0x4DD9 DUP2 DUP6 PUSH2 0x4B69 JUMP JUMPDEST SWAP12 SWAP11 POP POP POP POP POP POP POP POP POP POP POP JUMP JUMPDEST PUSH4 0x4E487B71 PUSH1 0xE0 SHL PUSH1 0x0 MSTORE PUSH1 0x41 PUSH1 0x4 MSTORE PUSH1 0x24 PUSH1 0x0 REVERT JUMPDEST PUSH1 0x0 DUP3 PUSH1 0x1F DUP4 ADD SLT PUSH2 0x4E0F JUMPI PUSH1 0x0 DUP1 REVERT JUMPDEST DUP2 CALLDATALOAD PUSH1 0x1 PUSH1 0x1 PUSH1 0x40 SHL SUB DUP1 DUP3 GT ISZERO PUSH2 0x4E29 JUMPI PUSH2 0x4E29 PUSH2 0x4DE8 JUMP JUMPDEST PUSH1 0x40 MLOAD PUSH1 0x1F DUP4 ADD PUSH1 0x1F NOT SWAP1 DUP2 AND PUSH1 0x3F ADD AND DUP2 ADD SWAP1 DUP3 DUP3 GT DUP2 DUP4 LT OR ISZERO PUSH2 0x4E51 JUMPI PUSH2 0x4E51 PUSH2 0x4DE8 JUMP JUMPDEST DUP2 PUSH1 0x40 MSTORE DUP4 DUP2 MSTORE DUP7 PUSH1 0x20 DUP6 DUP9 ADD ADD GT ISZERO PUSH2 0x4E6A JUMPI PUSH1 0x0 DUP1 REVERT JUMPDEST DUP4 PUSH1 0x20 DUP8 ADD PUSH1 0x20 DUP4 ADD CALLDATACOPY PUSH1 0x0 PUSH1 0x20 DUP6 DUP4 ADD ADD MSTORE DUP1 SWAP5 POP POP POP POP POP SWAP3 SWAP2 POP POP JUMP JUMPDEST PUSH1 0x0 DUP1 PUSH1 0x40 DUP4 DUP6 SUB SLT ISZERO PUSH2 0x4E9D JUMPI PUSH1 0x0 DUP1 REVERT JUMPDEST DUP3 CALLDATALOAD PUSH1 0x1 PUSH1 0x1 PUSH1 0x40 SHL SUB DUP2 GT ISZERO PUSH2 0x4EB3 JUMPI PUSH1 0x0 DUP1 REVERT JUMPDEST PUSH2 0x4EBF DUP6 DUP3 DUP7 ADD PUSH2 0x4DFE JUMP JUMPDEST SWAP6 PUSH1 0x20 SWAP5 SWAP1 SWAP5 ADD CALLDATALOAD SWAP5 POP POP POP POP JUMP JUMPDEST PUSH1 0x0 DUP1 PUSH1 0x40 DUP4 DUP6 SUB SLT ISZERO PUSH2 0x4EE1 JUMPI PUSH1 0x0 DUP1 REVERT JUMPDEST DUP3 CALLDATALOAD PUSH1 0x1 PUSH1 0x1 PUSH1 0x40 SHL SUB DUP2 GT ISZERO PUSH2 0x4EF7 JUMPI PUSH1 0x0 DUP1 REVERT JUMPDEST PUSH2 0x4F03 DUP6 DUP3 DUP7 ADD PUSH2 0x4DFE JUMP JUMPDEST SWAP3 POP POP PUSH2 0x4F12 PUSH1 0x20 DUP5 ADD PUSH2 0x4C9F JUMP JUMPDEST SWAP1 POP SWAP3 POP SWAP3 SWAP1 POP JUMP JUMPDEST PUSH1 0x0 PUSH1 0x20 DUP3 DUP5 SUB SLT ISZERO PUSH2 0x4F2D JUMPI PUSH1 0x0 DUP1 REVERT JUMPDEST PUSH2 0x4AE8 DUP3 PUSH2 0x4C9F JUMP JUMPDEST PUSH1 0x0 DUP1 PUSH1 0x0 DUP1 PUSH1 0x0 DUP1 PUSH1 0xC0 DUP8 DUP10 SUB SLT ISZERO PUSH2 0x4F4F JUMPI PUSH1 0x0 DUP1 REVERT JUMPDEST DUP7 CALLDATALOAD PUSH1 0x1 PUSH1 0x1 PUSH1 0x40 SHL SUB DUP1 DUP3 GT ISZERO PUSH2 0x4F66 JUMPI PUSH1 0x0 DUP1 REVERT JUMPDEST PUSH2 0x4F72 DUP11 DUP4 DUP12 ADD PUSH2 0x4DFE JUMP JUMPDEST SWAP8 POP PUSH1 0x20 DUP10 ADD CALLDATALOAD SWAP7 POP PUSH1 0x40 DUP10 ADD CALLDATALOAD SWAP2 POP DUP1 DUP3 GT ISZERO PUSH2 0x4F8F JUMPI PUSH1 0x0 DUP1 REVERT JUMPDEST PUSH2 0x4F9B DUP11 DUP4 DUP12 ADD PUSH2 0x4DFE JUMP JUMPDEST SWAP6 POP PUSH1 0x60 DUP10 ADD CALLDATALOAD SWAP2 POP DUP1 DUP3 GT ISZERO PUSH2 0x4FB1 JUMPI PUSH1 0x0 DUP1 REVERT JUMPDEST PUSH2 0x4FBD DUP11 DUP4 DUP12 ADD PUSH2 0x4DFE JUMP JUMPDEST SWAP5 POP PUSH1 0x80 DUP10 ADD CALLDATALOAD SWAP2 POP DUP1 DUP3 GT ISZERO PUSH2 0x4FD3 JUMPI PUSH1 0x0 DUP1 REVERT JUMPDEST PUSH2 0x4FDF DUP11 DUP4 DUP12 ADD PUSH2 0x4DFE JUMP JUMPDEST SWAP4 POP PUSH1 0xA0 DUP10 ADD CALLDATALOAD SWAP2 POP DUP1 DUP3 GT ISZERO PUSH2 0x4FF5 JUMPI PUSH1 0x0 DUP1 REVERT JUMPDEST POP PUSH2 0x5002 DUP10 DUP3 DUP11 ADD PUSH2 0x4DFE JUMP JUMPDEST SWAP2 POP POP SWAP3 SWAP6 POP SWAP3 SWAP6 POP SWAP3 SWAP6 JUMP JUMPDEST PUSH1 0x0 DUP1 PUSH1 0x0 DUP1 PUSH1 0x80 DUP6 DUP8 SUB SLT ISZERO PUSH2 0x5025 JUMPI PUSH1 0x0 DUP1 REVERT JUMPDEST DUP5 CALLDATALOAD PUSH1 0x1 PUSH1 0x1 PUSH1 0x40 SHL SUB DUP1 DUP3 GT ISZERO PUSH2 0x503C JUMPI PUSH1 0x0 DUP1 REVERT JUMPDEST PUSH2 0x5048 DUP9 DUP4 DUP10 ADD PUSH2 0x4DFE JUMP JUMPDEST SWAP6 POP PUSH1 0x20 DUP8 ADD CALLDATALOAD SWAP2 POP DUP1 DUP3 GT ISZERO PUSH2 0x505E JUMPI PUSH1 0x0 DUP1 REVERT JUMPDEST PUSH2 0x506A DUP9 DUP4 DUP10 ADD PUSH2 0x4DFE JUMP JUMPDEST SWAP5 POP PUSH1 0x40 DUP8 ADD CALLDATALOAD SWAP2 POP DUP1 DUP3 GT ISZERO PUSH2 0x5080 JUMPI PUSH1 0x0 DUP1 REVERT JUMPDEST PUSH2 0x508C DUP9 DUP4 DUP10 ADD PUSH2 0x4DFE JUMP JUMPDEST SWAP4 POP PUSH1 0x60 DUP8 ADD CALLDATALOAD SWAP2 POP DUP1 DUP3 GT ISZERO PUSH2 0x50A2 JUMPI PUSH1 0x0 DUP1 REVERT JUMPDEST POP PUSH2 0x50AF DUP8 DUP3 DUP9 ADD PUSH2 0x4DFE JUMP JUMPDEST SWAP2 POP POP SWAP3 SWAP6 SWAP2 SWAP5 POP SWAP3 POP JUMP JUMPDEST PUSH1 0x0 PUSH1 0x20 DUP3 DUP5 SUB SLT ISZERO PUSH2 0x50CD JUMPI PUSH1 0x0 DUP1 REVERT JUMPDEST DUP2 CALLDATALOAD PUSH1 0x1 PUSH1 0x1 PUSH1 0x40 SHL SUB DUP2 GT ISZERO PUSH2 0x50E3 JUMPI PUSH1 0x0 DUP1 REVERT JUMPDEST PUSH2 0x50EF DUP5 DUP3 DUP6 ADD PUSH2 0x4DFE JUMP JUMPDEST SWAP5 SWAP4 POP POP POP POP JUMP JUMPDEST PUSH1 0x0 DUP1 PUSH1 0x40 DUP4 DUP6 SUB SLT ISZERO PUSH2 0x510A JUMPI PUSH1 0x0 DUP1 REVERT JUMPDEST DUP3 CALLDATALOAD PUSH1 0x1 PUSH1 0x1 PUSH1 0x40 SHL SUB DUP1 DUP3 GT ISZERO PUSH2 0x5121 JUMPI PUSH1 0x0 DUP1 REVERT JUMPDEST PUSH2 0x512D DUP7 DUP4 DUP8 ADD PUSH2 0x4DFE JUMP JUMPDEST SWAP4 POP PUSH1 0x20 DUP6 ADD CALLDATALOAD SWAP2 POP DUP1 DUP3 GT ISZERO PUSH2 0x5143 JUMPI PUSH1 0x0 DUP1 REVERT JUMPDEST POP PUSH2 0x5150 DUP6 DUP3 DUP7 ADD PUSH2 0x4DFE JUMP JUMPDEST SWAP2 POP POP SWAP3 POP SWAP3 SWAP1 POP JUMP JUMPDEST PUSH1 0x0 PUSH1 0x20 DUP1 DUP4 ADD DUP2 DUP5 MSTORE DUP1 DUP6 MLOAD DUP1 DUP4 MSTORE PUSH1 0x40 SWAP3 POP DUP3 DUP7 ADD SWAP2 POP DUP3 DUP2 PUSH1 0x5 SHL DUP8 ADD ADD DUP5 DUP9 ADD PUSH1 0x0 JUMPDEST DUP4 DUP2 LT ISZERO PUSH2 0x4C91 JUMPI PUSH1 0x3F NOT DUP10 DUP5 SUB ADD DUP6 MSTORE DUP2 MLOAD PUSH1 0x80 DUP2 MLOAD DUP2 DUP7 MSTORE PUSH2 0x51A7 DUP3 DUP8 ADD DUP3 PUSH2 0x4B69 JUMP JUMPDEST SWAP2 POP POP DUP9 DUP3 ADD MLOAD DUP10 DUP7 ADD MSTORE DUP8 DUP3 ADD MLOAD DUP9 DUP7 ADD MSTORE PUSH1 0x60 DUP1 DUP4 ADD MLOAD SWAP3 POP DUP6 DUP3 SUB DUP2 DUP8 ADD MSTORE POP PUSH2 0x51D4 DUP2 DUP4 PUSH2 0x4B69 JUMP JUMPDEST SWAP7 DUP10 ADD SWAP7 SWAP5 POP POP POP SWAP1 DUP7 ADD SWAP1 PUSH1 0x1 ADD PUSH2 0x5181 JUMP JUMPDEST PUSH1 0x0 DUP1 PUSH1 0x0 PUSH1 0x60 DUP5 DUP7 SUB SLT ISZERO PUSH2 0x51FD JUMPI PUSH1 0x0 DUP1 REVERT JUMPDEST DUP4 CALLDATALOAD PUSH1 0x1 PUSH1 0x1 PUSH1 0x40 SHL SUB DUP2 GT ISZERO PUSH2 0x5213 JUMPI PUSH1 0x0 DUP1 REVERT JUMPDEST PUSH2 0x521F DUP7 DUP3 DUP8 ADD PUSH2 0x4DFE JUMP JUMPDEST SWAP4 POP POP PUSH2 0x522E PUSH1 0x20 DUP6 ADD PUSH2 0x4C9F JUMP JUMPDEST SWAP2 POP PUSH1 0x40 DUP5 ADD CALLDATALOAD PUSH1 0x4 DUP2 LT PUSH2 0x5242 JUMPI PUSH1 0x0 DUP1 REVERT JUMPDEST DUP1 SWAP2 POP POP SWAP3 POP SWAP3 POP SWAP3 JUMP JUMPDEST PUSH1 0x0 PUSH1 0x20 DUP1 DUP4 ADD DUP2 DUP5 MSTORE DUP1 DUP6 MLOAD DUP1 DUP4 MSTORE PUSH1 0x40 SWAP3 POP DUP3 DUP7 ADD SWAP2 POP DUP3 DUP2 PUSH1 0x5 SHL DUP8 ADD ADD DUP5 DUP9 ADD PUSH1 0x0 JUMPDEST DUP4 DUP2 LT ISZERO PUSH2 0x4C91 JUMPI DUP9 DUP4 SUB PUSH1 0x3F NOT ADD DUP6 MSTORE DUP2 MLOAD DUP1 MLOAD PUSH1 0x1 PUSH1 0x1 PUSH1 0xA0 SHL SUB AND DUP5 MSTORE DUP8 DUP2 ADD MLOAD PUSH1 0xA0 DUP10 DUP7 ADD DUP2 SWAP1 MSTORE SWAP1 PUSH2 0x52AD DUP3 DUP8 ADD DUP3 PUSH2 0x4B69 JUMP JUMPDEST SWAP2 POP POP DUP8 DUP3 ADD MLOAD DUP9 DUP7 ADD MSTORE PUSH1 0x60 DUP1 DUP4 ADD MLOAD DUP7 DUP4 SUB DUP3 DUP9 ADD MSTORE PUSH2 0x52CF DUP4 DUP3 PUSH2 0x4B69 JUMP JUMPDEST PUSH1 0x80 SWAP5 DUP6 ADD MLOAD ISZERO ISZERO SWAP8 SWAP1 SWAP5 ADD SWAP7 SWAP1 SWAP7 MSTORE POP POP SWAP5 DUP8 ADD SWAP5 SWAP3 POP SWAP1 DUP7 ADD SWAP1 PUSH1 0x1 ADD PUSH2 0x5274 JUMP JUMPDEST PUSH1 0x0 PUSH1 0x20 DUP1 DUP4 ADD DUP2 DUP5 MSTORE DUP1 DUP6 MLOAD DUP1 DUP4 MSTORE PUSH1 0x40 SWAP3 POP DUP3 DUP7 ADD SWAP2 POP DUP3 DUP2 PUSH1 0x5 SHL DUP8 ADD ADD DUP5 DUP9 ADD PUSH1 0x0 JUMPDEST DUP4 DUP2 LT ISZERO PUSH2 0x4C91 JUMPI PUSH1 0x3F NOT DUP10 DUP5 SUB ADD DUP6 MSTORE DUP2 MLOAD PUSH1 0x80 DUP2 MLOAD DUP2 DUP7 MSTORE PUSH2 0x5340 DUP3 DUP8 ADD DUP3 PUSH2 0x4B69 JUMP JUMPDEST SWAP2 POP POP DUP9 DUP3 ADD MLOAD DUP6 DUP3 SUB DUP11 DUP8 ADD MSTORE PUSH2 0x5358 DUP3 DUP3 PUSH2 0x4B69 JUMP JUMPDEST DUP4 DUP11 ADD MLOAD DUP8 DUP12 ADD MSTORE PUSH1 0x60 SWAP4 DUP5 ADD MLOAD ISZERO ISZERO SWAP4 SWAP1 SWAP7 ADD SWAP3 SWAP1 SWAP3 MSTORE POP POP SWAP4 DUP7 ADD SWAP4 SWAP1 DUP7 ADD SWAP1 PUSH1 0x1 ADD PUSH2 0x531A JUMP JUMPDEST PUSH1 0x0 DUP1 PUSH1 0x0 PUSH1 0x60 DUP5 DUP7 SUB SLT ISZERO PUSH2 0x5397 JUMPI PUSH1 0x0 DUP1 REVERT JUMPDEST PUSH2 0x53A0 DUP5 PUSH2 0x4C9F JUMP JUMPDEST SWAP3 POP PUSH1 0x20 DUP5 ADD CALLDATALOAD PUSH1 0x1 PUSH1 0x1 PUSH1 0x40 SHL SUB DUP1 DUP3 GT ISZERO PUSH2 0x53BC JUMPI PUSH1 0x0 DUP1 REVERT JUMPDEST PUSH2 0x53C8 DUP8 DUP4 DUP9 ADD PUSH2 0x4DFE JUMP JUMPDEST SWAP4 POP PUSH1 0x40 DUP7 ADD CALLDATALOAD SWAP2 POP DUP1 DUP3 GT ISZERO PUSH2 0x53DE JUMPI PUSH1 0x0 DUP1 REVERT JUMPDEST POP PUSH2 0x53EB DUP7 DUP3 DUP8 ADD PUSH2 0x4DFE JUMP JUMPDEST SWAP2 POP POP SWAP3 POP SWAP3 POP SWAP3 JUMP JUMPDEST PUSH1 0x0 DUP1 PUSH1 0x0 DUP1 PUSH1 0x0 PUSH1 0xA0 DUP7 DUP9 SUB SLT ISZERO PUSH2 0x540D JUMPI PUSH1 0x0 DUP1 REVERT JUMPDEST DUP6 CALLDATALOAD PUSH1 0x1 PUSH1 0x1 PUSH1 0x40 SHL SUB DUP1 DUP3 GT ISZERO PUSH2 0x5424 JUMPI PUSH1 0x0 DUP1 REVERT JUMPDEST PUSH2 0x5430 DUP10 DUP4 DUP11 ADD PUSH2 0x4DFE JUMP JUMPDEST SWAP7 POP PUSH1 0x20 DUP9 ADD CALLDATALOAD SWAP2 POP DUP1 DUP3 GT ISZERO PUSH2 0x5446 JUMPI PUSH1 0x0 DUP1 REVERT JUMPDEST PUSH2 0x5452 DUP10 DUP4 DUP11 ADD PUSH2 0x4DFE JUMP JUMPDEST SWAP6 POP PUSH1 0x40 DUP9 ADD CALLDATALOAD SWAP2 POP DUP1 DUP3 GT ISZERO PUSH2 0x5468 JUMPI PUSH1 0x0 DUP1 REVERT JUMPDEST PUSH2 0x5474 DUP10 DUP4 DUP11 ADD PUSH2 0x4DFE JUMP JUMPDEST SWAP5 POP PUSH1 0x60 DUP9 ADD CALLDATALOAD SWAP2 POP DUP1 DUP3 GT ISZERO PUSH2 0x548A JUMPI PUSH1 0x0 DUP1 REVERT JUMPDEST PUSH2 0x5496 DUP10 DUP4 DUP11 ADD PUSH2 0x4DFE JUMP JUMPDEST SWAP4 POP PUSH1 0x80 DUP9 ADD CALLDATALOAD SWAP2 POP DUP1 DUP3 GT ISZERO PUSH2 0x54AC JUMPI PUSH1 0x0 DUP1 REVERT JUMPDEST POP PUSH2 0x54B9 DUP9 DUP3 DUP10 ADD PUSH2 0x4DFE JUMP JUMPDEST SWAP2 POP POP SWAP3 SWAP6 POP SWAP3 SWAP6 SWAP1 SWAP4 POP JUMP JUMPDEST PUSH1 0x0 PUSH1 0x20 DUP1 DUP4 ADD DUP2 DUP5 MSTORE DUP1 DUP6 MLOAD DUP1 DUP4 MSTORE PUSH1 0x40 SWAP3 POP DUP3 DUP7 ADD SWAP2 POP DUP3 DUP2 PUSH1 0x5 SHL DUP8 ADD ADD DUP5 DUP9 ADD PUSH1 0x0 JUMPDEST DUP4 DUP2 LT ISZERO PUSH2 0x4C91 JUMPI PUSH1 0x3F NOT DUP10 DUP5 SUB ADD DUP6 MSTORE DUP2 MLOAD PUSH2 0x100 DUP2 MLOAD DUP6 MSTORE DUP9 DUP3 ADD MLOAD DUP2 DUP11 DUP8 ADD MSTORE PUSH2 0x551C DUP3 DUP8 ADD DUP3 PUSH2 0x4B69 JUMP JUMPDEST SWAP2 POP POP DUP8 DUP3 ADD MLOAD DUP9 DUP7 ADD MSTORE PUSH1 0x60 DUP1 DUP4 ADD MLOAD PUSH2 0x5539 DUP3 DUP9 ADD DUP3 PUSH2 0x4D48 JUMP JUMPDEST POP POP PUSH1 0x80 DUP1 DUP4 ADD MLOAD DUP7 DUP4 SUB DUP3 DUP9 ADD MSTORE PUSH2 0x5552 DUP4 DUP3 PUSH2 0x4B69 JUMP JUMPDEST SWAP3 POP POP POP PUSH1 0xA0 DUP1 DUP4 ADD MLOAD DUP7 DUP4 SUB DUP3 DUP9 ADD MSTORE PUSH2 0x556D DUP4 DUP3 PUSH2 0x4B69 JUMP JUMPDEST SWAP3 POP POP POP PUSH1 0xC0 DUP1 DUP4 ADD MLOAD DUP7 DUP4 SUB DUP3 DUP9 ADD MSTORE PUSH2 0x5588 DUP4 DUP3 PUSH2 0x4B69 JUMP JUMPDEST SWAP3 POP POP POP PUSH1 0xE0 DUP1 DUP4 ADD MLOAD SWAP3 POP DUP6 DUP3 SUB DUP2 DUP8 ADD MSTORE POP PUSH2 0x55A6 DUP2 DUP4 PUSH2 0x4B69 JUMP JUMPDEST SWAP7 DUP10 ADD SWAP7 SWAP5 POP POP POP SWAP1 DUP7 ADD SWAP1 PUSH1 0x1 ADD PUSH2 0x54ED JUMP JUMPDEST PUSH1 0x0 PUSH1 0x20 DUP1 DUP4 ADD DUP2 DUP5 MSTORE DUP1 DUP6 MLOAD DUP1 DUP4 MSTORE PUSH1 0x40 SWAP3 POP DUP3 DUP7 ADD SWAP2 POP DUP3 DUP2 PUSH1 0x5 SHL DUP8 ADD ADD DUP5 DUP9 ADD PUSH1 0x0 JUMPDEST DUP4 DUP2 LT ISZERO PUSH2 0x4C91 JUMPI PUSH1 0x3F NOT DUP10 DUP5 SUB ADD DUP6 MSTORE DUP2 MLOAD PUSH1 0xC0 DUP2 MLOAD DUP2 DUP7 MSTORE PUSH2 0x5607 DUP3 DUP8 ADD DUP3 PUSH2 0x4B69 JUMP JUMPDEST SWAP2 POP POP DUP9 DUP3 ADD MLOAD DUP10 DUP7 ADD MSTORE DUP8 DUP3 ADD MLOAD DUP9 DUP7 ADD MSTORE PUSH1 0x60 DUP1 DUP4 ADD MLOAD DUP7 DUP4 SUB DUP3 DUP9 ADD MSTORE PUSH2 0x5631 DUP4 DUP3 PUSH2 0x4B69 JUMP JUMPDEST SWAP3 POP POP POP PUSH1 0x80 DUP1 DUP4 ADD MLOAD DUP7 DUP4 SUB DUP3 DUP9 ADD MSTORE PUSH2 0x564C DUP4 DUP3 PUSH2 0x4B69 JUMP JUMPDEST PUSH1 0xA0 SWAP5 DUP6 ADD MLOAD ISZERO ISZERO SWAP8 SWAP1 SWAP5 ADD SWAP7 SWAP1 SWAP7 MSTORE POP POP SWAP5 DUP8 ADD SWAP5 SWAP3 POP SWAP1 DUP7 ADD SWAP1 PUSH1 0x1 ADD PUSH2 0x55E1 JUMP JUMPDEST PUSH1 0x0 DUP1 PUSH1 0x0 DUP1 PUSH1 0x80 DUP6 DUP8 SUB SLT ISZERO PUSH2 0x5686 JUMPI PUSH1 0x0 DUP1 REVERT JUMPDEST DUP5 CALLDATALOAD PUSH1 0x1 PUSH1 0x1 PUSH1 0x40 SHL SUB DUP1 DUP3 GT ISZERO PUSH2 0x569D JUMPI PUSH1 0x0 DUP1 REVERT JUMPDEST PUSH2 0x56A9 DUP9 DUP4 DUP10 ADD PUSH2 0x4DFE JUMP JUMPDEST SWAP6 POP PUSH1 0x20 DUP8 ADD CALLDATALOAD SWAP2 POP DUP1 DUP3 GT ISZERO PUSH2 0x56BF JUMPI PUSH1 0x0 DUP1 REVERT JUMPDEST PUSH2 0x56CB DUP9 DUP4 DUP10 ADD PUSH2 0x4DFE JUMP JUMPDEST SWAP5 POP PUSH1 0x40 DUP8 ADD CALLDATALOAD SWAP4 POP PUSH1 0x60 DUP8 ADD CALLDATALOAD SWAP2 POP DUP1 DUP3 GT ISZERO PUSH2 0x50A2 JUMPI PUSH1 0x0 DUP1 REVERT JUMPDEST PUSH1 0x5 DUP2 LT PUSH2 0x4D58 JUMPI PUSH2 0x4D58 PUSH2 0x4D32 JUMP JUMPDEST PUSH1 0x20 DUP2 ADD PUSH2 0x1879 DUP3 DUP5 PUSH2 0x56E8 JUMP JUMPDEST PUSH1 0xA0 DUP2 MSTORE PUSH1 0x0 PUSH2 0x5719 PUSH1 0xA0 DUP4 ADD DUP9 PUSH2 0x4B69 JUMP JUMPDEST DUP3 DUP2 SUB PUSH1 0x20 DUP5 ADD MSTORE PUSH2 0x572B DUP2 DUP9 PUSH2 0x4B69 JUMP JUMPDEST SWAP2 POP POP DUP5 ISZERO ISZERO PUSH1 0x40 DUP4 ADD MSTORE PUSH2 0x5743 PUSH1 0x60 DUP4 ADD DUP6 PUSH2 0x56E8 JUMP JUMPDEST DUP3 PUSH1 0x80 DUP4 ADD MSTORE SWAP7 SWAP6 POP POP POP POP POP POP JUMP JUMPDEST PUSH1 0x1 DUP2 DUP2 SHR SWAP1 DUP3 AND DUP1 PUSH2 0x5767 JUMPI PUSH1 0x7F DUP3 AND SWAP2 POP JUMPDEST PUSH1 0x20 DUP3 LT DUP2 SUB PUSH2 0x5787 JUMPI PUSH4 0x4E487B71 PUSH1 0xE0 SHL PUSH1 0x0 MSTORE PUSH1 0x22 PUSH1 0x4 MSTORE PUSH1 0x24 PUSH1 0x0 REVERT JUMPDEST POP SWAP2 SWAP1 POP JUMP JUMPDEST PUSH1 0x20 DUP2 ADD PUSH2 0x1879 DUP3 DUP5 PUSH2 0x4D48 JUMP JUMPDEST PUSH1 0x0 DUP2 SLOAD PUSH2 0x57A8 DUP2 PUSH2 0x5753 JUMP JUMPDEST PUSH1 0x1 DUP3 DUP2 AND DUP1 ISZERO PUSH2 0x57C0 JUMPI PUSH1 0x1 DUP2 EQ PUSH2 0x57D5 JUMPI PUSH2 0x5804 JUMP JUMPDEST PUSH1 0xFF NOT DUP5 AND DUP8 MSTORE DUP3 ISZERO ISZERO DUP4 MUL DUP8 ADD SWAP5 POP PUSH2 0x5804 JUMP JUMPDEST DUP6 PUSH1 0x0 MSTORE PUSH1 0x20 DUP1 PUSH1 0x0 KECCAK256 PUSH1 0x0 JUMPDEST DUP6 DUP2 LT ISZERO PUSH2 0x57FB JUMPI DUP2 SLOAD DUP11 DUP3 ADD MSTORE SWAP1 DUP5 ADD SWAP1 DUP3 ADD PUSH2 0x57E2 JUMP JUMPDEST POP POP POP DUP3 DUP8 ADD SWAP5 POP JUMPDEST POP POP POP POP SWAP3 SWAP2 POP POP JUMP JUMPDEST PUSH1 0x0 PUSH2 0x4AE8 DUP3 DUP5 PUSH2 0x579B JUMP JUMPDEST PUSH4 0x4E487B71 PUSH1 0xE0 SHL PUSH1 0x0 MSTORE PUSH1 0x11 PUSH1 0x4 MSTORE PUSH1 0x24 PUSH1 0x0 REVERT JUMPDEST DUP1 DUP3 ADD DUP1 DUP3 GT ISZERO PUSH2 0x1879 JUMPI PUSH2 0x1879 PUSH2 0x581A JUMP JUMPDEST PUSH1 0x0 DUP3 MLOAD PUSH2 0x5855 DUP2 DUP5 PUSH1 0x20 DUP8 ADD PUSH2 0x4B45 JUMP JUMPDEST SWAP2 SWAP1 SWAP2 ADD SWAP3 SWAP2 POP POP JUMP JUMPDEST PUSH1 0x20 DUP1 DUP3 MSTORE PUSH1 0xC SWAP1 DUP3 ADD MSTORE PUSH12 0x155B985D5D1A1BDC9A5E9959 PUSH1 0xA2 SHL PUSH1 0x40 DUP3 ADD MSTORE PUSH1 0x60 ADD SWAP1 JUMP JUMPDEST PUSH1 0x20 DUP1 DUP3 MSTORE PUSH1 0x13 SWAP1 DUP3 ADD MSTORE PUSH19 0x556E617574686F72697A656420616363657373 PUSH1 0x68 SHL PUSH1 0x40 DUP3 ADD MSTORE PUSH1 0x60 ADD SWAP1 JUMP JUMPDEST PUSH1 0x0 PUSH1 0x1 DUP3 ADD PUSH2 0x58C4 JUMPI PUSH2 0x58C4 PUSH2 0x581A JUMP JUMPDEST POP PUSH1 0x1 ADD SWAP1 JUMP JUMPDEST PUSH1 0x1F DUP3 GT ISZERO PUSH2 0xC1D JUMPI PUSH1 0x0 DUP2 DUP2 MSTORE PUSH1 0x20 DUP2 KECCAK256 PUSH1 0x1F DUP6 ADD PUSH1 0x5 SHR DUP2 ADD PUSH1 0x20 DUP7 LT ISZERO PUSH2 0x58F2 JUMPI POP DUP1 JUMPDEST PUSH1 0x1F DUP6 ADD PUSH1 0x5 SHR DUP3 ADD SWAP2 POP JUMPDEST DUP2 DUP2 LT ISZERO PUSH2 0x44B3 JUMPI DUP3 DUP2 SSTORE PUSH1 0x1 ADD PUSH2 0x58FE JUMP JUMPDEST DUP2 MLOAD PUSH1 0x1 PUSH1 0x1 PUSH1 0x40 SHL SUB DUP2 GT ISZERO PUSH2 0x592A JUMPI PUSH2 0x592A PUSH2 0x4DE8 JUMP JUMPDEST PUSH2 0x593E DUP2 PUSH2 0x5938 DUP5 SLOAD PUSH2 0x5753 JUMP JUMPDEST DUP5 PUSH2 0x58CB JUMP JUMPDEST PUSH1 0x20 DUP1 PUSH1 0x1F DUP4 GT PUSH1 0x1 DUP2 EQ PUSH2 0x5973 JUMPI PUSH1 0x0 DUP5 ISZERO PUSH2 0x595B JUMPI POP DUP6 DUP4 ADD MLOAD JUMPDEST PUSH1 0x0 NOT PUSH1 0x3 DUP7 SWAP1 SHL SHR NOT AND PUSH1 0x1 DUP6 SWAP1 SHL OR DUP6 SSTORE PUSH2 0x44B3 JUMP JUMPDEST PUSH1 0x0 DUP6 DUP2 MSTORE PUSH1 0x20 DUP2 KECCAK256 PUSH1 0x1F NOT DUP7 AND SWAP2 JUMPDEST DUP3 DUP2 LT ISZERO PUSH2 0x59A2 JUMPI DUP9 DUP7 ADD MLOAD DUP3 SSTORE SWAP5 DUP5 ADD SWAP5 PUSH1 0x1 SWAP1 SWAP2 ADD SWAP1 DUP5 ADD PUSH2 0x5983 JUMP JUMPDEST POP DUP6 DUP3 LT ISZERO PUSH2 0x59C0 JUMPI DUP8 DUP6 ADD MLOAD PUSH1 0x0 NOT PUSH1 0x3 DUP9 SWAP1 SHL PUSH1 0xF8 AND SHR NOT AND DUP2 SSTORE JUMPDEST POP POP POP POP POP PUSH1 0x1 SWAP1 DUP2 SHL ADD SWAP1 SSTORE POP JUMP JUMPDEST PUSH1 0x40 DUP2 MSTORE PUSH1 0x0 PUSH2 0x59E3 PUSH1 0x40 DUP4 ADD DUP6 PUSH2 0x4B69 JUMP JUMPDEST SWAP1 POP PUSH1 0x1 DUP1 PUSH1 0xA0 SHL SUB DUP4 AND PUSH1 0x20 DUP4 ADD MSTORE SWAP4 SWAP3 POP POP POP JUMP JUMPDEST PUSH4 0x4E487B71 PUSH1 0xE0 SHL PUSH1 0x0 MSTORE PUSH1 0x32 PUSH1 0x4 MSTORE PUSH1 0x24 PUSH1 0x0 REVERT JUMPDEST PUSH1 0x40 DUP2 MSTORE PUSH1 0x0 PUSH2 0x5A23 PUSH1 0x40 DUP4 ADD DUP6 PUSH2 0x4B69 JUMP JUMPDEST DUP3 DUP2 SUB PUSH1 0x20 DUP5 ADD MSTORE PUSH2 0x5A35 DUP2 DUP6 PUSH2 0x4B69 JUMP JUMPDEST SWAP6 SWAP5 POP POP POP POP POP JUMP JUMPDEST PUSH1 0x20 DUP1 DUP3 MSTORE PUSH1 0xE SWAP1 DUP3 ADD MSTORE PUSH14 0x139BDD08185D5D1A1BDC9A5E9959 PUSH1 0x92 SHL PUSH1 0x40 DUP3 ADD MSTORE PUSH1 0x60 ADD SWAP1 JUMP JUMPDEST PUSH1 0x20 DUP2 ADD PUSH1 0x4 DUP4 LT PUSH2 0x5A7A JUMPI PUSH2 0x5A7A PUSH2 0x4D32 JUMP JUMPDEST SWAP2 SWAP1 MSTORE SWAP1 JUMP JUMPDEST PUSH1 0x40 DUP2 MSTORE PUSH1 0x0 PUSH2 0x5A93 PUSH1 0x40 DUP4 ADD DUP6 PUSH2 0x4B69 JUMP JUMPDEST SWAP1 POP DUP3 PUSH1 0x20 DUP4 ADD MSTORE SWAP4 SWAP3 POP POP POP JUMP JUMPDEST DUP2 DUP2 SUB DUP2 DUP2 GT ISZERO PUSH2 0x1879 JUMPI PUSH2 0x1879 PUSH2 0x581A JUMP JUMPDEST PUSH1 0x20 DUP2 MSTORE PUSH1 0x0 PUSH2 0x4AE8 PUSH1 0x20 DUP4 ADD DUP5 PUSH2 0x4B69 JUMP INVALID LOG2 PUSH5 0x6970667358 0x22 SLT KECCAK256 0xA8 0xED 0xD6 OR DUP11 0xE3 0xBE SWAP15 0x5C 0xCB CALLDATALOAD PUSH10 0x6BCE00B5716F1C4E6703 0xD4 GAS PUSH17 0xCB52ACBA8920F564736F6C634300081300 CALLER "},"methodIdentifiers":{"activateEmergencyAccess(string)":"d7222cdc","addEmergencyContact(string,address)":"18892a1a","addHealthMetric(string,string,uint256,string)":"882d763b","addPrescription(string,string,string,string,string)":"73bd0b68","appointments(uint256)":"12dc9013","deactivateEmergencyAccess(string)":"c5555424","doctorAppointments(address,uint256)":"57cd46f5","doctors(address)":"a9583c22","getAccessLogs(string)":"4bc19d34","getAllPrescriptions()":"0163e4f8","getDoctorAppointments(address)":"c5598c91","getHealthAlerts(string)":"52be3b21","getHealthCoins(string)":"9a5a34f7","getHealthMetrics(string)":"f24af6e8","getHealthMetrics(string,string)":"3a2a3b1b","getHospitalAppointments(address)":"8adfcd6a","getMedicationTracking(string)":"7cc2e92b","getPatientAppointments(string)":"776dac47","getPrescriptions(string)":"931126e9","grantAccess(string,address,uint8)":"402ab614","healthCoins(string)":"30b84026","hospitalAppointments(address,uint256)":"068884d7","patientAppointments(string,uint256)":"1453e51f","redeemHealthCoins(string,uint256)":"fd189b3c","registerDoctor(address,string,string)":"53d08ef4","registerHospital(address)":"c5b99858","registerPatient(string)":"869c9eaf","registeredHospitals(address)":"26fc9787","resolveHealthAlert(string,uint256)":"3ff9b87b","revokeAccess(string,address)":"dfe0b5fe","roles(address)":"99374642","scheduleAppointment(string,uint256,string,string,string,string)":"27627bf3","stopMedication(string,string)":"f121477d","updateAppointmentStatus(uint256,uint8)":"068a423b","updateMedicationTracking(string,string,string,string)":"2d7b3e67"}}}}}