{
  "_format": "hh-sol-artifact-1",
  "contractName": "InsuranceManager",
  "sourceName": "contracts/InsuranceManager.sol",
  "abi": [
    {
      "anonymous": false,
      "inputs": [
        {
          "indexed": true,
          "internalType": "address",
          "name": "patient",
          "type": "address"
        },
        {
          "indexed": false,
          "internalType": "string",
          "name": "policyNumber",
          "type": "string"
        }
      ],
      "name": "InsurancePlanAdded",
      "type": "event"
    },
    {
      "anonymous": false,
      "inputs": [
        {
          "indexed": true,
          "internalType": "address",
          "name": "patient",
          "type": "address"
        },
        {
          "indexed": false,
          "internalType": "string",
          "name": "policyNumber",
          "type": "string"
        }
      ],
      "name": "InsurancePlanCancelled",
      "type": "event"
    },
    {
      "anonymous": false,
      "inputs": [
        {
          "indexed": true,
          "internalType": "address",
          "name": "patient",
          "type": "address"
        },
        {
          "indexed": false,
          "internalType": "string",
          "name": "policyNumber",
          "type": "string"
        }
      ],
      "name": "InsurancePlanUpdated",
      "type": "event"
    },
    {
      "inputs": [
        {
          "internalType": "string",
          "name": "_policyNumber",
          "type": "string"
        },
        {
          "internalType": "string",
          "name": "_provider",
          "type": "string"
        },
        {
          "internalType": "string",
          "name": "_planName",
          "type": "string"
        },
        {
          "internalType": "uint256",
          "name": "_coverageAmount",
          "type": "uint256"
        },
        {
          "internalType": "uint256",
          "name": "_startDate",
          "type": "uint256"
        },
        {
          "internalType": "uint256",
          "name": "_endDate",
          "type": "uint256"
        },
        {
          "internalType": "uint256",
          "name": "_premiumAmount",
          "type": "uint256"
        },
        {
          "internalType": "uint256",
          "name": "_nextPremiumDate",
          "type": "uint256"
        },
        {
          "internalType": "address[]",
          "name": "_beneficiaries",
          "type": "address[]"
        },
        {
          "internalType": "bool",
          "name": "_hospitalCoverage",
          "type": "bool"
        },
        {
          "internalType": "bool",
          "name": "_medicineCoverage",
          "type": "bool"
        },
        {
          "internalType": "bool",
          "name": "_accidentCoverage",
          "type": "bool"
        },
        {
          "internalType": "bool",
          "name": "_criticalIllnessCoverage",
          "type": "bool"
        }
      ],
      "name": "addInsurancePlan",
      "outputs": [],
      "stateMutability": "nonpayable",
      "type": "function"
    },
    {
      "inputs": [
        {
          "internalType": "string",
          "name": "_policyNumber",
          "type": "string"
        }
      ],
      "name": "cancelInsurancePlan",
      "outputs": [],
      "stateMutability": "nonpayable",
      "type": "function"
    },
    {
      "inputs": [
        {
          "internalType": "address",
          "name": "_patient",
          "type": "address"
        }
      ],
      "name": "getActiveInsurancePlans",
      "outputs": [
        {
          "components": [
            {
              "internalType": "string",
              "name": "policyNumber",
              "type": "string"
            },
            {
              "internalType": "string",
              "name": "provider",
              "type": "string"
            },
            {
              "internalType": "string",
              "name": "planName",
              "type": "string"
            },
            {
              "internalType": "uint256",
              "name": "coverageAmount",
              "type": "uint256"
            },
            {
              "internalType": "uint256",
              "name": "startDate",
              "type": "uint256"
            },
            {
              "internalType": "uint256",
              "name": "endDate",
              "type": "uint256"
            },
            {
              "internalType": "bool",
              "name": "isActive",
              "type": "bool"
            },
            {
              "internalType": "uint256",
              "name": "premiumAmount",
              "type": "uint256"
            },
            {
              "internalType": "uint256",
              "name": "nextPremiumDate",
              "type": "uint256"
            },
            {
              "internalType": "address[]",
              "name": "beneficiaries",
              "type": "address[]"
            },
            {
              "internalType": "bool",
              "name": "hospitalCoverage",
              "type": "bool"
            },
            {
              "internalType": "bool",
              "name": "medicineCoverage",
              "type": "bool"
            },
            {
              "internalType": "bool",
              "name": "accidentCoverage",
              "type": "bool"
            },
            {
              "internalType": "bool",
              "name": "criticalIllnessCoverage",
              "type": "bool"
            }
          ],
          "internalType": "struct InsuranceManager.InsurancePlan[]",
          "name": "",
          "type": "tuple[]"
        }
      ],
      "stateMutability": "view",
      "type": "function"
    },
    {
      "inputs": [
        {
          "internalType": "address",
          "name": "_patient",
          "type": "address"
        }
      ],
      "name": "getInsurancePlans",
      "outputs": [
        {
          "components": [
            {
              "internalType": "string",
              "name": "policyNumber",
              "type": "string"
            },
            {
              "internalType": "string",
              "name": "provider",
              "type": "string"
            },
            {
              "internalType": "string",
              "name": "planName",
              "type": "string"
            },
            {
              "internalType": "uint256",
              "name": "coverageAmount",
              "type": "uint256"
            },
            {
              "internalType": "uint256",
              "name": "startDate",
              "type": "uint256"
            },
            {
              "internalType": "uint256",
              "name": "endDate",
              "type": "uint256"
            },
            {
              "internalType": "bool",
              "name": "isActive",
              "type": "bool"
            },
            {
              "internalType": "uint256",
              "name": "premiumAmount",
              "type": "uint256"
            },
            {
              "internalType": "uint256",
              "name": "nextPremiumDate",
              "type": "uint256"
            },
            {
              "internalType": "address[]",
              "name": "beneficiaries",
              "type": "address[]"
            },
            {
              "internalType": "bool",
              "name": "hospitalCoverage",
              "type": "bool"
            },
            {
              "internalType": "bool",
              "name": "medicineCoverage",
              "type": "bool"
            },
            {
              "internalType": "bool",
              "name": "accidentCoverage",
              "type": "bool"
            },
            {
              "internalType": "bool",
              "name": "criticalIllnessCoverage",
              "type": "bool"
            }
          ],
          "internalType": "struct InsuranceManager.InsurancePlan[]",
          "name": "",
          "type": "tuple[]"
        }
      ],
      "stateMutability": "view",
      "type": "function"
    }
  ],
  "bytecode": "0x6080806040523461001657611095908161001c8239f35b600080fdfe6080604052600436101561001257600080fd5b60003560e01c80634dc596c41461062957806378041a8b146105485780637b7c1c0e146102045763ccc2e7b31461004857600080fd5b346101ff576020806003193601126101ff576001600160a01b038061006b610d5c565b166000526000825260406000209182549061008582610d45565b926100936040519485610cce565b8284526000948552818520908285015b8487106100bc57604051806100b88882610db2565b0390f35b836040516100c981610cb2565b6040516100e1816100da8189610f90565b0382610cce565b81526040516001906100f9816100da81858b01610f90565b83830152604051610111816100da8160028b01610f90565b60408301526003860154606083015260048601546080830152600586015460a083015260ff9081600688015416151560c0840152600787015460e08401526008908188015461010085015260098801604051918287835491828152019260005287600020916000915b8083106101e65750505050918161019b6001989593600b9897950382610cce565b61012084015281600a8a0154809282821615156101408701521c161515610160840152818160101c16151561018084015260181c1615156101a08201528152019301960195916100a3565b83548c1685528d9990940193928101929181019161017a565b600080fd5b346101ff576020806003193601126101ff576001600160a01b039081610228610d5c565b1660005260008152604060002091825461024181610d45565b9361024f6040519586610cce565b81855260009081528381208486015b83831061040e5786866000805b83518110156102ca5760c0610280828661104b565b5101511515806102b3575b61029e575b61029990611026565b61026b565b906102ab61029991611026565b919050610290565b5060a06102c0828661104b565b510151421061028b565b50906102d582610d45565b916102e36040519384610cce565b8083526102f2601f1991610d45565b0160005b8181106103945750505060009060005b83518110156103865760c061031b828661104b565b51015115158061036f575b610339575b61033490611026565b610306565b916103676103349161034b858761104b565b51610356828661104b565b52610361818561104b565b50611026565b92905061032b565b5060a061037c828661104b565b5101514210610326565b604051806100b88482610db2565b82906040516103a281610cb2565b6060808252808483015280604083015260008183015260006080830152600060a0830152600060c0830152600060e0830152600061010083015261012082015260006101408201526000610160820152600061018082015260006101a0820152828287010152016102f6565b8560405161041b81610cb2565b60405161042c816100da8188610f90565b8152604051610442816100da8160018901610f90565b8282015260405161045a816100da8160028901610f90565b60408201526003840154606082015260048401546080820152600584015460a082015260ff80600686015416151560c0830152600785015460e0830152600885015461010083015260098501604051908185825491828152019160005285600020906000905b8c81831061052d575050505091816104e1600b969593600198950382610cce565b610120830152600a8701548181161515610140840152818160081c161515610160840152818160101c16151561018084015260181c1615156101a082015281520192019201919061025e565b83541684528d979093019260019283019291909101906104c0565b346101ff576020806003193601126101ff576004356001600160401b0381116101ff57610579903690600401610cef565b3360005260008252604060002090600091838201925b8154811015610627576100da6105b56105a88385610f0d565b5060405192838092610f90565b85815191012083518520146105d2576105cd90611026565b61058f565b7f0c80f4286dd0995f3a3ee6e0e6d35061ee7a310804f3efe30614119d319c257393506106056006916106229493610f0d565b500160ff1981541690556040519182918583523395830190610d72565b0390a2005b005b346101ff576101a03660031901126101ff576004356001600160401b0381116101ff5761065a903690600401610cef565b6024356001600160401b0381116101ff57610679903690600401610cef565b6044356001600160401b0381116101ff57610698903690600401610cef565b610104356001600160401b0381116101ff57366023820112156101ff5780600401356106c381610d45565b916106d16040519384610cce565b8183526024602084019260051b820101903682116101ff57602401915b818310610c92575050506101243580151581036101ff57610144359081151582036101ff57610164359283151584036101ff57610184359485151586036101ff576040519661073c88610cb2565b888852602088015260408701526064356060870152608435608087015260a43560a0870152600160c087015260c43560e087015260e43561010087015261012086015215156101408501521515610160840152151561018083015215156101a082015233600052600060205260406000208054600160401b811015610a57576107ca91600182018155610f0d565b610c7c5781519283516001600160401b038111610a57576107eb8354610f3f565b601f8111610c4a575b506020601f8211600114610be1578192939495600092610bd6575b50508160011b916000199060031b1c19161782555b60208301519283516001600160401b038111610a57576108476001850154610f3f565b601f8111610ba1575b506020601f8211600114610b32578192939495600092610b27575b50508160011b916000199060031b1c19161760018401555b60408101519283516001600160401b038111610a57576108a66002830154610f3f565b601f8111610ae7575b506020601f8211600114610a78578192939495600092610a6d575b50508160011b916000199060031b1c19161760028201555b606082015160038201556080820151600482015560a0820151600582015561091f60c08301511515600683019060ff801983541691151516179055565b60e08201516007820155610100820151600882015560098101610120830151908151916001600160401b038311610a5757600160401b8311610a57576020908254848455808510610a3a575b500190600052602060002060005b838110610a1d578686600a8701906109a46101408201511515839060ff801983541691151516179055565b610160810151151590825461ff0063ff0000006101a062ff0000610180860151151560101b16940151151560181b169360081b169063ffffff00191617171790557f25b930c9d71e8cd9ead4bf0c25f5cd650c1b71533c4fc8e0f3d3bc3b8c9b6156604051602081528061062233946020830190610d72565b82516001600160a01b031681830155602090920191600101610979565b610a51908460005285846000209182019101610f79565b8761096b565b634e487b7160e01b600052604160045260246000fd5b0151905085806108ca565b6002830160005260206000209060005b601f1984168110610acf575060019394959683601f19811610610ab6575b505050811b0160028201556108e2565b015160001960f88460031b161c19169055858080610aa6565b9091602060018192858b015181550193019101610a88565b610b1790600284016000526020600020601f840160051c81019160208510610b1d575b601f0160051c0190610f79565b856108af565b9091508190610b0a565b01519050858061086b565b6001850160005260206000209060005b601f1984168110610b89575060019394959683601f19811610610b70575b505050811b016001840155610883565b015160001960f88460031b161c19169055858080610b60565b9091602060018192858b015181550193019101610b42565b610bd090600186016000526020600020601f840160051c81019160208510610b1d57601f0160051c0190610f79565b85610850565b01519050858061080f565b8360005260206000209060005b601f1984168110610c32575060019394959683601f19811610610c19575b505050811b018255610824565b015160001960f88460031b161c19169055858080610c0c565b9091602060018192858b015181550193019101610bee565b610c7690846000526020600020601f840160051c81019160208510610b1d57601f0160051c0190610f79565b856107f4565b634e487b7160e01b600052600060045260246000fd5b82356001600160a01b03811681036101ff578152602092830192016106ee565b6101c081019081106001600160401b03821117610a5757604052565b90601f801991011681019081106001600160401b03821117610a5757604052565b81601f820112156101ff578035906001600160401b038211610a575760405192610d23601f8401601f191660200185610cce565b828452602083830101116101ff57816000926020809301838601378301015290565b6001600160401b038111610a575760051b60200190565b600435906001600160a01b03821682036101ff57565b919082519283825260005b848110610d9e575050826000602080949584010152601f8019910116010190565b602081830181015184830182015201610d7d565b602080820190808352835180925260409283810182858560051b84010196019460009081935b868510610dea57505050505050505090565b9091929394959697603f19828203018552868951610e37610e27610e1783516101c0808852870190610d72565b8484015186820386880152610d72565b8683015185820388870152610d72565b90606080820151908501526080808201519085015260a0808201519085015260c08082015115159085015260e0808201519085015261010080820151908501526101209182820151928582039086015283808451928381520193019088905b808210610eea575050506101408082015115159085015261016080820151151590850152610180808201511515908501526101a0908101511515930192909252909881019796956001019401929190610dd8565b82516001600160a01b031685528c95948501949092019160019190910190610e96565b8054821015610f2957600052600b602060002091020190600090565b634e487b7160e01b600052603260045260246000fd5b90600182811c92168015610f6f575b6020831014610f5957565b634e487b7160e01b600052602260045260246000fd5b91607f1691610f4e565b818110610f84575050565b60008155600101610f79565b9060009291805491610fa183610f3f565b9182825260019384811690816000146110035750600114610fc3575b50505050565b90919394506000526020928360002092846000945b838610610fef575050505001019038808080610fbd565b805485870183015294019385908201610fd8565b9294505050602093945060ff191683830152151560051b01019038808080610fbd565b60001981146110355760010190565b634e487b7160e01b600052601160045260246000fd5b8051821015610f295760209160051b01019056fea26469706673582212205c64e708e3433e7927050386eb6f4a8de10933f7fc664d3222d6c818a33e030e64736f6c63430008130033",
  "linkReferences": {},
  "deployedLinkReferences": {}
}