{
  "_format": "hh-sol-artifact-1",
  "contractName": "HealthcareSystem",
  "sourceName": "contracts/HealthcareSystem.sol",
  "abi": [
    {
      "inputs": [],
      "stateMutability": "nonpayable",
      "type": "constructor"
    },
    {
      "anonymous": false,
      "inputs": [
        {
          "indexed": true,
          "internalType": "string",
          "name": "patientAadhar",
          "type": "string"
        },
        {
          "indexed": true,
          "internalType": "address",
          "name": "provider",
          "type": "address"
        },
        {
          "indexed": false,
          "internalType": "enum HealthcareSystem.AccessLevel",
          "name": "level",
          "type": "uint8"
        }
      ],
      "name": "AccessGranted",
      "type": "event"
    },
    {
      "anonymous": false,
      "inputs": [
        {
          "indexed": true,
          "internalType": "string",
          "name": "patientAadhar",
          "type": "string"
        },
        {
          "indexed": true,
          "internalType": "address",
          "name": "accessor",
          "type": "address"
        },
        {
          "indexed": false,
          "internalType": "string",
          "name": "action",
          "type": "string"
        }
      ],
      "name": "AccessLogAdded",
      "type": "event"
    },
    {
      "anonymous": false,
      "inputs": [
        {
          "indexed": true,
          "internalType": "string",
          "name": "patientAadhar",
          "type": "string"
        },
        {
          "indexed": true,
          "internalType": "address",
          "name": "provider",
          "type": "address"
        }
      ],
      "name": "AccessRevoked",
      "type": "event"
    },
    {
      "anonymous": false,
      "inputs": [
        {
          "indexed": true,
          "internalType": "uint256",
          "name": "appointmentId",
          "type": "uint256"
        },
        {
          "indexed": false,
          "internalType": "string",
          "name": "patientAadhar",
          "type": "string"
        },
        {
          "indexed": false,
          "internalType": "address",
          "name": "doctor",
          "type": "address"
        }
      ],
      "name": "AppointmentScheduled",
      "type": "event"
    },
    {
      "anonymous": false,
      "inputs": [
        {
          "indexed": true,
          "internalType": "uint256",
          "name": "appointmentId",
          "type": "uint256"
        },
        {
          "indexed": false,
          "internalType": "enum HealthcareSystem.AppointmentStatus",
          "name": "status",
          "type": "uint8"
        }
      ],
      "name": "AppointmentStatusUpdated",
      "type": "event"
    },
    {
      "anonymous": false,
      "inputs": [
        {
          "indexed": true,
          "internalType": "address",
          "name": "doctor",
          "type": "address"
        },
        {
          "indexed": false,
          "internalType": "string",
          "name": "name",
          "type": "string"
        },
        {
          "indexed": false,
          "internalType": "string",
          "name": "specialization",
          "type": "string"
        }
      ],
      "name": "DoctorRegistered",
      "type": "event"
    },
    {
      "anonymous": false,
      "inputs": [
        {
          "indexed": true,
          "internalType": "string",
          "name": "patientAadhar",
          "type": "string"
        }
      ],
      "name": "EmergencyAccessActivated",
      "type": "event"
    },
    {
      "anonymous": false,
      "inputs": [
        {
          "indexed": true,
          "internalType": "string",
          "name": "patientAadhar",
          "type": "string"
        }
      ],
      "name": "EmergencyAccessDeactivated",
      "type": "event"
    },
    {
      "anonymous": false,
      "inputs": [
        {
          "indexed": true,
          "internalType": "string",
          "name": "aadharNumber",
          "type": "string"
        },
        {
          "indexed": false,
          "internalType": "string",
          "name": "alertType",
          "type": "string"
        }
      ],
      "name": "HealthAlertCreated",
      "type": "event"
    },
    {
      "anonymous": false,
      "inputs": [
        {
          "indexed": true,
          "internalType": "string",
          "name": "aadharNumber",
          "type": "string"
        },
        {
          "indexed": false,
          "internalType": "uint256",
          "name": "amount",
          "type": "uint256"
        }
      ],
      "name": "HealthCoinsAwarded",
      "type": "event"
    },
    {
      "anonymous": false,
      "inputs": [
        {
          "indexed": true,
          "internalType": "string",
          "name": "aadharNumber",
          "type": "string"
        },
        {
          "indexed": false,
          "internalType": "uint256",
          "name": "amount",
          "type": "uint256"
        }
      ],
      "name": "HealthCoinsRedeemed",
      "type": "event"
    },
    {
      "anonymous": false,
      "inputs": [
        {
          "indexed": true,
          "internalType": "string",
          "name": "aadharNumber",
          "type": "string"
        },
        {
          "indexed": false,
          "internalType": "string",
          "name": "metricType",
          "type": "string"
        },
        {
          "indexed": false,
          "internalType": "uint256",
          "name": "value",
          "type": "uint256"
        }
      ],
      "name": "HealthMetricAdded",
      "type": "event"
    },
    {
      "anonymous": false,
      "inputs": [
        {
          "indexed": true,
          "internalType": "string",
          "name": "aadharNumber",
          "type": "string"
        },
        {
          "indexed": false,
          "internalType": "string",
          "name": "medication",
          "type": "string"
        },
        {
          "indexed": false,
          "internalType": "string",
          "name": "effectiveness",
          "type": "string"
        }
      ],
      "name": "MedicationTrackingUpdated",
      "type": "event"
    },
    {
      "anonymous": false,
      "inputs": [
        {
          "indexed": true,
          "internalType": "string",
          "name": "aadharNumber",
          "type": "string"
        }
      ],
      "name": "PatientRegistered",
      "type": "event"
    },
    {
      "anonymous": false,
      "inputs": [
        {
          "indexed": true,
          "internalType": "uint256",
          "name": "prescriptionId",
          "type": "uint256"
        },
        {
          "indexed": true,
          "internalType": "string",
          "name": "aadharNumber",
          "type": "string"
        },
        {
          "indexed": true,
          "internalType": "address",
          "name": "hospital",
          "type": "address"
        }
      ],
      "name": "PrescriptionAdded",
      "type": "event"
    },
    {
      "inputs": [
        {
          "internalType": "string",
          "name": "_patientAadhar",
          "type": "string"
        }
      ],
      "name": "activateEmergencyAccess",
      "outputs": [],
      "stateMutability": "nonpayable",
      "type": "function"
    },
    {
      "inputs": [
        {
          "internalType": "string",
          "name": "_patientAadhar",
          "type": "string"
        },
        {
          "internalType": "address",
          "name": "_contact",
          "type": "address"
        }
      ],
      "name": "addEmergencyContact",
      "outputs": [],
      "stateMutability": "nonpayable",
      "type": "function"
    },
    {
      "inputs": [
        {
          "internalType": "string",
          "name": "_patientAadhar",
          "type": "string"
        },
        {
          "internalType": "string",
          "name": "_metricType",
          "type": "string"
        },
        {
          "internalType": "uint256",
          "name": "_value",
          "type": "uint256"
        },
        {
          "internalType": "string",
          "name": "_notes",
          "type": "string"
        }
      ],
      "name": "addHealthMetric",
      "outputs": [],
      "stateMutability": "nonpayable",
      "type": "function"
    },
    {
      "inputs": [
        {
          "internalType": "string",
          "name": "_patientAadhar",
          "type": "string"
        },
        {
          "internalType": "string",
          "name": "_diagnosis",
          "type": "string"
        },
        {
          "internalType": "string",
          "name": "_medicines",
          "type": "string"
        },
        {
          "internalType": "string",
          "name": "_notes",
          "type": "string"
        },
        {
          "internalType": "string",
          "name": "_hospitalName",
          "type": "string"
        }
      ],
      "name": "addPrescription",
      "outputs": [],
      "stateMutability": "nonpayable",
      "type": "function"
    },
    {
      "inputs": [
        {
          "internalType": "uint256",
          "name": "",
          "type": "uint256"
        }
      ],
      "name": "appointments",
      "outputs": [
        {
          "internalType": "uint256",
          "name": "id",
          "type": "uint256"
        },
        {
          "internalType": "string",
          "name": "patientAadhar",
          "type": "string"
        },
        {
          "internalType": "uint256",
          "name": "timestamp",
          "type": "uint256"
        },
        {
          "internalType": "enum HealthcareSystem.AppointmentStatus",
          "name": "status",
          "type": "uint8"
        },
        {
          "internalType": "string",
          "name": "contactEmail",
          "type": "string"
        },
        {
          "internalType": "string",
          "name": "contactPhone",
          "type": "string"
        },
        {
          "internalType": "string",
          "name": "notes",
          "type": "string"
        },
        {
          "internalType": "string",
          "name": "department",
          "type": "string"
        }
      ],
      "stateMutability": "view",
      "type": "function"
    },
    {
      "inputs": [
        {
          "internalType": "string",
          "name": "_patientAadhar",
          "type": "string"
        }
      ],
      "name": "deactivateEmergencyAccess",
      "outputs": [],
      "stateMutability": "nonpayable",
      "type": "function"
    },
    {
      "inputs": [
        {
          "internalType": "address",
          "name": "",
          "type": "address"
        },
        {
          "internalType": "uint256",
          "name": "",
          "type": "uint256"
        }
      ],
      "name": "doctorAppointments",
      "outputs": [
        {
          "internalType": "uint256",
          "name": "",
          "type": "uint256"
        }
      ],
      "stateMutability": "view",
      "type": "function"
    },
    {
      "inputs": [
        {
          "internalType": "address",
          "name": "",
          "type": "address"
        }
      ],
      "name": "doctors",
      "outputs": [
        {
          "internalType": "string",
          "name": "name",
          "type": "string"
        },
        {
          "internalType": "string",
          "name": "specialization",
          "type": "string"
        },
        {
          "internalType": "bool",
          "name": "isRegistered",
          "type": "bool"
        },
        {
          "internalType": "enum HealthcareSystem.Role",
          "name": "role",
          "type": "uint8"
        },
        {
          "internalType": "uint256",
          "name": "registeredAt",
          "type": "uint256"
        }
      ],
      "stateMutability": "view",
      "type": "function"
    },
    {
      "inputs": [
        {
          "internalType": "string",
          "name": "_patientAadhar",
          "type": "string"
        }
      ],
      "name": "getAccessLogs",
      "outputs": [
        {
          "components": [
            {
              "internalType": "address",
              "name": "accessor",
              "type": "address"
            },
            {
              "internalType": "string",
              "name": "patientAadhar",
              "type": "string"
            },
            {
              "internalType": "uint256",
              "name": "timestamp",
              "type": "uint256"
            },
            {
              "internalType": "string",
              "name": "action",
              "type": "string"
            },
            {
              "internalType": "bool",
              "name": "isEmergencyAccess",
              "type": "bool"
            }
          ],
          "internalType": "struct HealthcareSystem.AccessLog[]",
          "name": "",
          "type": "tuple[]"
        }
      ],
      "stateMutability": "view",
      "type": "function"
    },
    {
      "inputs": [],
      "name": "getAllPrescriptions",
      "outputs": [
        {
          "components": [
            {
              "internalType": "uint256",
              "name": "id",
              "type": "uint256"
            },
            {
              "internalType": "string",
              "name": "patientAadhar",
              "type": "string"
            },
            {
              "internalType": "string",
              "name": "diagnosis",
              "type": "string"
            },
            {
              "internalType": "string",
              "name": "medicines",
              "type": "string"
            },
            {
              "internalType": "string",
              "name": "notes",
              "type": "string"
            },
            {
              "internalType": "uint256",
              "name": "timestamp",
              "type": "uint256"
            },
            {
              "internalType": "address",
              "name": "hospital",
              "type": "address"
            },
            {
              "internalType": "string",
              "name": "hospitalName",
              "type": "string"
            }
          ],
          "internalType": "struct HealthcareSystem.Prescription[]",
          "name": "",
          "type": "tuple[]"
        }
      ],
      "stateMutability": "view",
      "type": "function"
    },
    {
      "inputs": [
        {
          "internalType": "address",
          "name": "_doctor",
          "type": "address"
        }
      ],
      "name": "getDoctorAppointments",
      "outputs": [
        {
          "components": [
            {
              "internalType": "uint256",
              "name": "id",
              "type": "uint256"
            },
            {
              "internalType": "string",
              "name": "patientAadhar",
              "type": "string"
            },
            {
              "internalType": "uint256",
              "name": "timestamp",
              "type": "uint256"
            },
            {
              "internalType": "enum HealthcareSystem.AppointmentStatus",
              "name": "status",
              "type": "uint8"
            },
            {
              "internalType": "string",
              "name": "contactEmail",
              "type": "string"
            },
            {
              "internalType": "string",
              "name": "contactPhone",
              "type": "string"
            },
            {
              "internalType": "string",
              "name": "notes",
              "type": "string"
            },
            {
              "internalType": "string",
              "name": "department",
              "type": "string"
            }
          ],
          "internalType": "struct HealthcareSystem.Appointment[]",
          "name": "",
          "type": "tuple[]"
        }
      ],
      "stateMutability": "view",
      "type": "function"
    },
    {
      "inputs": [
        {
          "internalType": "string",
          "name": "_patientAadhar",
          "type": "string"
        }
      ],
      "name": "getHealthAlerts",
      "outputs": [
        {
          "components": [
            {
              "internalType": "string",
              "name": "alertType",
              "type": "string"
            },
            {
              "internalType": "string",
              "name": "description",
              "type": "string"
            },
            {
              "internalType": "uint256",
              "name": "timestamp",
              "type": "uint256"
            },
            {
              "internalType": "bool",
              "name": "resolved",
              "type": "bool"
            }
          ],
          "internalType": "struct HealthcareSystem.HealthAlert[]",
          "name": "",
          "type": "tuple[]"
        }
      ],
      "stateMutability": "view",
      "type": "function"
    },
    {
      "inputs": [
        {
          "internalType": "string",
          "name": "_aadharNumber",
          "type": "string"
        }
      ],
      "name": "getHealthCoins",
      "outputs": [
        {
          "internalType": "uint256",
          "name": "",
          "type": "uint256"
        }
      ],
      "stateMutability": "view",
      "type": "function"
    },
    {
      "inputs": [
        {
          "internalType": "string",
          "name": "_patientAadhar",
          "type": "string"
        },
        {
          "internalType": "string",
          "name": "_metricType",
          "type": "string"
        }
      ],
      "name": "getHealthMetrics",
      "outputs": [
        {
          "components": [
            {
              "internalType": "string",
              "name": "metricType",
              "type": "string"
            },
            {
              "internalType": "uint256",
              "name": "value",
              "type": "uint256"
            },
            {
              "internalType": "uint256",
              "name": "timestamp",
              "type": "uint256"
            },
            {
              "internalType": "string",
              "name": "notes",
              "type": "string"
            }
          ],
          "internalType": "struct HealthcareSystem.HealthMetric[]",
          "name": "",
          "type": "tuple[]"
        }
      ],
      "stateMutability": "view",
      "type": "function"
    },
    {
      "inputs": [
        {
          "internalType": "string",
          "name": "_patientAadhar",
          "type": "string"
        }
      ],
      "name": "getHealthMetrics",
      "outputs": [
        {
          "components": [
            {
              "internalType": "string",
              "name": "metricType",
              "type": "string"
            },
            {
              "internalType": "uint256",
              "name": "value",
              "type": "uint256"
            },
            {
              "internalType": "uint256",
              "name": "timestamp",
              "type": "uint256"
            },
            {
              "internalType": "string",
              "name": "notes",
              "type": "string"
            }
          ],
          "internalType": "struct HealthcareSystem.HealthMetric[]",
          "name": "",
          "type": "tuple[]"
        }
      ],
      "stateMutability": "view",
      "type": "function"
    },
    {
      "inputs": [
        {
          "internalType": "address",
          "name": "_hospital",
          "type": "address"
        }
      ],
      "name": "getHospitalAppointments",
      "outputs": [
        {
          "components": [
            {
              "internalType": "uint256",
              "name": "id",
              "type": "uint256"
            },
            {
              "internalType": "string",
              "name": "patientAadhar",
              "type": "string"
            },
            {
              "internalType": "uint256",
              "name": "timestamp",
              "type": "uint256"
            },
            {
              "internalType": "enum HealthcareSystem.AppointmentStatus",
              "name": "status",
              "type": "uint8"
            },
            {
              "internalType": "string",
              "name": "contactEmail",
              "type": "string"
            },
            {
              "internalType": "string",
              "name": "contactPhone",
              "type": "string"
            },
            {
              "internalType": "string",
              "name": "notes",
              "type": "string"
            },
            {
              "internalType": "string",
              "name": "department",
              "type": "string"
            }
          ],
          "internalType": "struct HealthcareSystem.Appointment[]",
          "name": "",
          "type": "tuple[]"
        }
      ],
      "stateMutability": "view",
      "type": "function"
    },
    {
      "inputs": [
        {
          "internalType": "string",
          "name": "_patientAadhar",
          "type": "string"
        }
      ],
      "name": "getMedicationTracking",
      "outputs": [
        {
          "components": [
            {
              "internalType": "string",
              "name": "medication",
              "type": "string"
            },
            {
              "internalType": "uint256",
              "name": "startDate",
              "type": "uint256"
            },
            {
              "internalType": "uint256",
              "name": "endDate",
              "type": "uint256"
            },
            {
              "internalType": "string",
              "name": "effectiveness",
              "type": "string"
            },
            {
              "internalType": "string",
              "name": "sideEffects",
              "type": "string"
            },
            {
              "internalType": "bool",
              "name": "active",
              "type": "bool"
            }
          ],
          "internalType": "struct HealthcareSystem.MedicationTracking[]",
          "name": "",
          "type": "tuple[]"
        }
      ],
      "stateMutability": "view",
      "type": "function"
    },
    {
      "inputs": [
        {
          "internalType": "string",
          "name": "_patientAadhar",
          "type": "string"
        }
      ],
      "name": "getPatientAppointments",
      "outputs": [
        {
          "components": [
            {
              "internalType": "uint256",
              "name": "id",
              "type": "uint256"
            },
            {
              "internalType": "string",
              "name": "patientAadhar",
              "type": "string"
            },
            {
              "internalType": "uint256",
              "name": "timestamp",
              "type": "uint256"
            },
            {
              "internalType": "enum HealthcareSystem.AppointmentStatus",
              "name": "status",
              "type": "uint8"
            },
            {
              "internalType": "string",
              "name": "contactEmail",
              "type": "string"
            },
            {
              "internalType": "string",
              "name": "contactPhone",
              "type": "string"
            },
            {
              "internalType": "string",
              "name": "notes",
              "type": "string"
            },
            {
              "internalType": "string",
              "name": "department",
              "type": "string"
            }
          ],
          "internalType": "struct HealthcareSystem.Appointment[]",
          "name": "",
          "type": "tuple[]"
        }
      ],
      "stateMutability": "view",
      "type": "function"
    },
    {
      "inputs": [
        {
          "internalType": "string",
          "name": "_patientAadhar",
          "type": "string"
        }
      ],
      "name": "getPrescriptions",
      "outputs": [
        {
          "components": [
            {
              "internalType": "uint256",
              "name": "id",
              "type": "uint256"
            },
            {
              "internalType": "string",
              "name": "patientAadhar",
              "type": "string"
            },
            {
              "internalType": "string",
              "name": "diagnosis",
              "type": "string"
            },
            {
              "internalType": "string",
              "name": "medicines",
              "type": "string"
            },
            {
              "internalType": "string",
              "name": "notes",
              "type": "string"
            },
            {
              "internalType": "uint256",
              "name": "timestamp",
              "type": "uint256"
            },
            {
              "internalType": "address",
              "name": "hospital",
              "type": "address"
            },
            {
              "internalType": "string",
              "name": "hospitalName",
              "type": "string"
            }
          ],
          "internalType": "struct HealthcareSystem.Prescription[]",
          "name": "",
          "type": "tuple[]"
        }
      ],
      "stateMutability": "view",
      "type": "function"
    },
    {
      "inputs": [
        {
          "internalType": "string",
          "name": "_patientAadhar",
          "type": "string"
        },
        {
          "internalType": "address",
          "name": "_provider",
          "type": "address"
        },
        {
          "internalType": "enum HealthcareSystem.AccessLevel",
          "name": "_level",
          "type": "uint8"
        }
      ],
      "name": "grantAccess",
      "outputs": [],
      "stateMutability": "nonpayable",
      "type": "function"
    },
    {
      "inputs": [
        {
          "internalType": "string",
          "name": "",
          "type": "string"
        }
      ],
      "name": "healthCoins",
      "outputs": [
        {
          "internalType": "uint256",
          "name": "",
          "type": "uint256"
        }
      ],
      "stateMutability": "view",
      "type": "function"
    },
    {
      "inputs": [
        {
          "internalType": "address",
          "name": "",
          "type": "address"
        },
        {
          "internalType": "uint256",
          "name": "",
          "type": "uint256"
        }
      ],
      "name": "hospitalAppointments",
      "outputs": [
        {
          "internalType": "uint256",
          "name": "",
          "type": "uint256"
        }
      ],
      "stateMutability": "view",
      "type": "function"
    },
    {
      "inputs": [
        {
          "internalType": "string",
          "name": "",
          "type": "string"
        },
        {
          "internalType": "uint256",
          "name": "",
          "type": "uint256"
        }
      ],
      "name": "patientAppointments",
      "outputs": [
        {
          "internalType": "uint256",
          "name": "",
          "type": "uint256"
        }
      ],
      "stateMutability": "view",
      "type": "function"
    },
    {
      "inputs": [
        {
          "internalType": "string",
          "name": "_aadharNumber",
          "type": "string"
        },
        {
          "internalType": "uint256",
          "name": "_amount",
          "type": "uint256"
        }
      ],
      "name": "redeemHealthCoins",
      "outputs": [],
      "stateMutability": "nonpayable",
      "type": "function"
    },
    {
      "inputs": [
        {
          "internalType": "address",
          "name": "_doctorAddress",
          "type": "address"
        },
        {
          "internalType": "string",
          "name": "_name",
          "type": "string"
        },
        {
          "internalType": "string",
          "name": "_specialization",
          "type": "string"
        }
      ],
      "name": "registerDoctor",
      "outputs": [],
      "stateMutability": "nonpayable",
      "type": "function"
    },
    {
      "inputs": [
        {
          "internalType": "address",
          "name": "_hospital",
          "type": "address"
        }
      ],
      "name": "registerHospital",
      "outputs": [],
      "stateMutability": "nonpayable",
      "type": "function"
    },
    {
      "inputs": [
        {
          "internalType": "string",
          "name": "_aadharNumber",
          "type": "string"
        }
      ],
      "name": "registerPatient",
      "outputs": [],
      "stateMutability": "nonpayable",
      "type": "function"
    },
    {
      "inputs": [
        {
          "internalType": "address",
          "name": "",
          "type": "address"
        }
      ],
      "name": "registeredHospitals",
      "outputs": [
        {
          "internalType": "bool",
          "name": "",
          "type": "bool"
        }
      ],
      "stateMutability": "view",
      "type": "function"
    },
    {
      "inputs": [
        {
          "internalType": "string",
          "name": "_patientAadhar",
          "type": "string"
        },
        {
          "internalType": "uint256",
          "name": "_alertIndex",
          "type": "uint256"
        }
      ],
      "name": "resolveHealthAlert",
      "outputs": [],
      "stateMutability": "nonpayable",
      "type": "function"
    },
    {
      "inputs": [
        {
          "internalType": "string",
          "name": "_patientAadhar",
          "type": "string"
        },
        {
          "internalType": "address",
          "name": "_provider",
          "type": "address"
        }
      ],
      "name": "revokeAccess",
      "outputs": [],
      "stateMutability": "nonpayable",
      "type": "function"
    },
    {
      "inputs": [
        {
          "internalType": "address",
          "name": "",
          "type": "address"
        }
      ],
      "name": "roles",
      "outputs": [
        {
          "internalType": "enum HealthcareSystem.Role",
          "name": "",
          "type": "uint8"
        }
      ],
      "stateMutability": "view",
      "type": "function"
    },
    {
      "inputs": [
        {
          "internalType": "string",
          "name": "_patientAadhar",
          "type": "string"
        },
        {
          "internalType": "uint256",
          "name": "_timestamp",
          "type": "uint256"
        },
        {
          "internalType": "string",
          "name": "_contactEmail",
          "type": "string"
        },
        {
          "internalType": "string",
          "name": "_contactPhone",
          "type": "string"
        },
        {
          "internalType": "string",
          "name": "_notes",
          "type": "string"
        },
        {
          "internalType": "string",
          "name": "_department",
          "type": "string"
        }
      ],
      "name": "scheduleAppointment",
      "outputs": [],
      "stateMutability": "nonpayable",
      "type": "function"
    },
    {
      "inputs": [
        {
          "internalType": "string",
          "name": "_patientAadhar",
          "type": "string"
        },
        {
          "internalType": "string",
          "name": "_medication",
          "type": "string"
        }
      ],
      "name": "stopMedication",
      "outputs": [],
      "stateMutability": "nonpayable",
      "type": "function"
    },
    {
      "inputs": [
        {
          "internalType": "uint256",
          "name": "_appointmentId",
          "type": "uint256"
        },
        {
          "internalType": "enum HealthcareSystem.AppointmentStatus",
          "name": "_status",
          "type": "uint8"
        }
      ],
      "name": "updateAppointmentStatus",
      "outputs": [],
      "stateMutability": "nonpayable",
      "type": "function"
    },
    {
      "inputs": [
        {
          "internalType": "string",
          "name": "_patientAadhar",
          "type": "string"
        },
        {
          "internalType": "string",
          "name": "_medication",
          "type": "string"
        },
        {
          "internalType": "string",
          "name": "_effectiveness",
          "type": "string"
        },
        {
          "internalType": "string",
          "name": "_sideEffects",
          "type": "string"
        }
      ],
      "name": "updateMedicationTracking",
      "outputs": [],
      "stateMutability": "nonpayable",
      "type": "function"
    }
  ],
  "bytecode": "0x6080806040523461004557336000526006602052604060002060ff1990600382825416179055600360205260016040600020918254161790556161e690816200004b8239f35b600080fdfe6080604052600436101561001257600080fd5b60003560e01c80630163e4f814614fa7578063068884d714614f5d578063068a423b1461498957806312dc90131461486f5780631453e51f1461482857806318892a1a1461474a57806326fc97871461470b57806327627bf314613b1e5780632d7b3e671461324757806330b84026146132115780633a2a3b1b1461312a5780633ff9b87b14612ff9578063402ab61414612e965780634bc19d3414612c0557806352be3b2114612a9457806353d08ef41461267957806357cd46f51461262157806373bd0b6814611494578063776dac471461141c5780637cc2e92b14611267578063869c9eaf1461103f578063882d763b14610e125780638adfcd6a14610daa578063931126e914610c6f5780639937464214610c2b5780639a5a34f714610be2578063a9583c2214610b2b578063c555542414610a40578063c5598c91146108ba578063c5b9985814610856578063d7222cdc146106ef578063dfe0b5fe146105df578063f121477d14610426578063f24af6e8146103195763fd189b3c1461019d57600080fd5b34610314576101ab3661540c565b906101b633826157c7565b80156102e3575b6101c6906159f9565b604051815161020260ff60046020948581818901966101e681838a6150d2565b810160058152030190200154166101fb615a3b565b3386615a64565b83604051838186516102158183886150d2565b81016002815203019020541061029e578161023b916040518093819287519283916150d2565b81016002815203019020805492848403938411610288577ff78100b79988ca94aaa795967f9f5d213a54d36607a35040061897d737897d459361027e92556156ba565b92604051908152a2005b634e487b7160e01b600052601160045260246000fd5b60405162461bcd60e51b815260048101839052601960248201527f496e73756666696369656e74206865616c746820636f696e73000000000000006044820152606490fd5b506101c660ff600460405160208186516103008183858b016150d2565b8101600581520301902001541690506101bd565b600080fd5b3461031457602080600319360112610314576004356001600160401b038111610314578161034e6103739236906004016153b6565b61036061035b33836158c8565b615724565b81604051938285809451938492016150d2565b8101600d81520301902080546103888161579c565b916103966040519384615388565b8183526000908152838120938084015b8383106103bf57604051806103bb87826154ea565b0390f35b6004826001926040516103d181615337565b6040516103e9816103e2818e61526a565b0382615388565b8152848a01548382015260028a0154604082015260036104138b6103e2604051809481930161526a565b60608201528152019601920191946103a6565b3461031457610434366154a4565b61043e33836157c7565b80156105ae575b61044e906159f9565b604051825192602091828201946104668183886150d2565b8101916104916005938481526004848760ff9687940301902001541661048a615a3b565b3384615a64565b33600052600684528160406000205416958387101561059857849060028098148015610572575b926104c56104d6946156da565b6040519384928392519283916150d2565b8101600f8152030190209260005b8454811015610570576103e261050a6104fd83886160d4565b506040519283809261526a565b828151910120865183880120148061055a575b61052f5761052a90615715565b6104e4565b610553955084819594935061054492506160d4565b5001805460ff191690556160d4565b5042910155005b50828461056783886160d4565b5001541661051d565b005b5090503360005260068552826040600020541690848210156105985785916003146104b8565b634e487b7160e01b600052602160045260246000fd5b5061044e60ff600460405160208187516105cb8183858c016150d2565b810160058152030190200154169050610445565b34610314576105ed36615463565b903033148015610671575b9061060561064a926156da565b6002604051602081845161061c81838589016150d2565b81016005815203019020019260018060a01b03169283600052602052604060002060ff1981541690556156ba565b7fa4056635223780a71518e8c10b6fc0fd195775c8375c4841c124a959ae5c30ad600080a3005b5033600052600660205260ff6040600020541690600582101561059857600161064a9214806106a3575b9091506105f8565b506106056040516103e26106db845192602081818801956106c58183896150d2565b810160058152030190206040519283809261526a565b60208151910120908351902014905061069b565b3461031457602080600319360112610314576004356001600160401b038111610314576107209036906004016153b6565b600090828101825b60405183516107388183866150d2565b81016005908181528288600394859303019020015483101561084c57828261077c928960405180928a5161076d81848d6150d2565b82019081520301902001615218565b9054911b1c6001600160a01b0316331461079e5761079990615715565b610728565b5090915060015b15610807576107c56107e0936004926040518093819287519283916150d2565b8101600581520301902001600160ff198254161790556156ba565b7f02bc0de3f6c76f020b84dd1d38decdcda01fe7e3d5cd178cd7a19864e4135f7d600080a2005b60405162461bcd60e51b815260048101849052601860248201527f4e6f7420616e20656d657267656e637920636f6e7461637400000000000000006044820152606490fd5b50505090916107a5565b346103145760203660031901126103145761086f615202565b33600052600660205260ff6040600020541660058110156105985760036108969114615994565b6001600160a01b03166000908152600360205260409020805460ff19166001179055005b3461031457602080600319360112610314576108d4615202565b6040518281018181106001600160401b03821117610a2a576109029161035b916040526000815233906158c8565b6001600160a01b03166000908152600b8252604090208054909161092582615de2565b9260005b83811061093e57604051806103bb878261557f565b8061094c610a259284615218565b9054600391821b1c600052600985526007610a0560406000206109aa60ff6040519561097787615300565b8354875260405161098f816103e2816001890161526a565b8b880152600284015460408801528301541660608601615d89565b6040516109be816103e2816004860161526a565b60808501526040516109d7816103e2816005860161526a565b60a08501526040516109f0816103e2816006860161526a565b60c08501526103e2604051809481930161526a565b60e0820152610a1482886157b3565b52610a1f81876157b3565b50615715565b610929565b634e487b7160e01b600052604160045260246000fd5b3461031457602080600319360112610314576004356001600160401b03811161031457610a719036906004016153b6565b336000526006825260ff60406000205416600581101561059857610ad09260016004921480610af7575b610aa4906156da565b60405190818451610ab881838589016150d2565b810160058152030190200160ff1981541690556156ba565b7f603d08020c4dc71d72674c8861e13340ff6bfeb2e5cdda1243dcf8c37ce6955d600080a2005b50610aa46040516103e2610b188651928581818a01956106c58183896150d2565b8381519101209085519020149050610a9b565b34610314576020366003190112610314576001600160a01b03610b4c615202565b166000526004602052610baf604060002060405190610b7682610b6f818461526a565b0383615388565b604051610b8a816103e2816001860161526a565b610bd9610bbd600360028501549401549260405196879660a0885260a08801906150f5565b9086820360208801526150f5565b9260ff81161515604086015260ff606086019160081c16615669565b60808301520390f35b34610314576020366003190112610314576004356001600160401b03811161031457610c18602061034e819336906004016153b6565b8101600281520301902054604051908152f35b34610314576020366003190112610314576001600160a01b03610c4c615202565b166000526006602052602060ff60406000205416610c6d6040518092615669565bf35b3461031457602080600319360112610314576004356001600160401b0381116103145781610360610ca49236906004016153b6565b810160008152030190208054610cb98161579c565b91610cc76040519384615388565b8183526000908152838120938084015b838310610cec57604051806103bb878261511a565b600882600192604051610cfe81615300565b89548152604051610d15816103e281898f0161526a565b81840152604051610d2d816103e28160028f0161526a565b60408201526003610d488b6103e2604051809481930161526a565b6060820152604051610d61816103e28160048f0161526a565b608082015260058a015460a0820152848060a01b0360068b01541660c08201526007610d978b6103e2604051809481930161526a565b60e0820152815201960192019194610cd7565b3461031457602080600319360112610314576001600160a01b03610dcc615202565b16600052600c8152604060002090815490610de682615de2565b9260005b838110610dff57604051806103bb878261557f565b8061094c610e0d9284615218565b610dea565b34610314576080366003190112610314576001600160401b0360043581811161031457610e439036906004016153b6565b60243582811161031457610e5b9036906004016153b6565b6044359260643590811161031457610e779036906004016153b6565b90610e8233846157c7565b801561100e575b610e92906159f9565b60405191835190610ed060ff60046020968781818b0197610eb481838b6150d2565b81016005815203019020015416610ec9615a3b565b3388615a64565b610edc85511515615676565b825115610fd357610f6c91610f5b859260405190610ef982615337565b86825289858301524260408301526060820152610f318160405186818c51610f2281838b6150d2565b8101600d815203019020615e83565b610f5660405185818b51610f4681838a6150d2565b8101600e8152030190208761543d565b615e83565b6040518093819288519283916150d2565b8101600281520301902091825492600a8401809411610288577fce65c4d5b1a9ee66172b83a86b9a8c4ebd3c4eabc956a43b9f136fb9f30e69cf94610fca94610fb592556156ba565b946040519384936040855260408501906150f5565b918301520390a2005b60405162461bcd60e51b8152600481018590526013602482015272496e76616c6964206d6574726963207479706560681b6044820152606490fd5b50610e9260ff6004604051602081885161102b8183858d016150d2565b810160058152030190200154169050610e89565b3461031457602080600319360112610314576001600160401b03600435818111610314576110719036906004016153b6565b9061107f600c835114615676565b604051825160ff858501916110958185856150d2565b830160058152838760019586930301902001541661122257846110c3916040518093819288519283916150d2565b81016005815203019020918351908111610a2a576110e18354615230565b601f81116111d9575b5084601f8211600114611170575090816004939261113e96600091611165575b50600019600383901b1c191690821b1782555b818101805460ff1916909117905501805461ff0019166101001790556156ba565b7fad3e1c33e6905fbc7821165aef0e1e95f461dee673e49d56d8899c384dbdcd16600080a2005b90508501518761110a565b9094601f19861684600052826000209260005b8281106111c457505095839260049594928261113e99106111ab575b5050811b01825561111d565b87015160001960f88460031b161c19169055878061119f565b87840151855593850193928101928101611183565b8360005285600020601f830160051c810191878410611218575b601f0160051c019083905b82811061120c5750506110ea565b600081550183906111fe565b90915081906111f3565b60405162461bcd60e51b815260048101869052601a60248201527f50617469656e7420616c726561647920726567697374657265640000000000006044820152606490fd5b3461031457602080600319360112610314576004356001600160401b038111610314578161034e61129c9236906004016153b6565b8101600f815203019020908154916112b38361579c565b926112c16040519485615388565b8084528284018092600052836000206000915b8383106113905750505050604051918083019381845251809452604083019360408160051b85010192916000955b82871061130f5785850386f35b909192938280600192603f1989820301855287519061137461136161133c845160c08086528501906150f5565b85850151868501526040850151604085015260608086015190858303908601526150f5565b60808085015190848303908501526150f5565b9160a08091015115159101529601920196019592919092611302565b6006866001926040999899516113a58161531c565b6040516113b6816103e2818a61526a565b81528486015483820152600286015460408201526040516113de816103e28160038b0161526a565b60608201526040516113f7816103e28160048b0161526a565b608082015260ff600587015416151560a08201528152019201920191909594956112d4565b3461031457602080600319360112610314576004356001600160401b038111610314578161034e6114519236906004016153b6565b8101600a8152030190209081549061146882615de2565b9260005b83811061148157604051806103bb878261557f565b8061094c61148f9284615218565b61146c565b346103145760a0366003190112610314576004356001600160401b038111610314576114c49036906004016153b6565b6024356001600160401b038111610314576114e39036906004016153b6565b6044356001600160401b038111610314576115029036906004016153b6565b906064356001600160401b038111610314576115229036906004016153b6565b6084356001600160401b038111610314576115419036906004016153b6565b9061154c33866157c7565b80156125ee575b61155c906159f9565b61157a60ff600460405160208181610eb48c838151938492016150d2565b8451156125b05782511561257757835115612539576001549360018501851161028857604051936115aa85615300565b6001860185528660208601526040850152606084015260808301524260a08301523360c083015260e082015260405160208185516115eb8183858a016150d2565b81016000815203019020805490600160401b821015610a2a57600182018082558210156120d957600052602060002082518260031b82015560208301518051906001600160401b038211610a2a57819061164d60018660031b86010154615230565b601f81116124e1575b50602090601f83116001146124655760009261245a575b50508160011b916000199060031b1c19161760018360031b830101555b60408301518051906001600160401b038211610a2a5781906116b460028660031b86010154615230565b601f8111612402575b50602090601f83116001146123865760009261237b575b50508160011b916000199060031b1c19161760028360031b830101555b60608301518051906001600160401b038211610a2a57819061171a600386811b86010154615230565b601f8111612324575b50602090601f83116001146122aa5760009261229f575b50508160011b916000199060031b1c191617600383811b830101555b60808301518051906001600160401b038211610a2a57819061178060048660031b86010154615230565b601f8111612247575b50602090601f83116001146121cb576000926121c0575b50508160011b916000199060031b1c19161760048360031b830101555b60a083015160058360031b8301015560068260031b82010160018060a01b0360c0850151166001600160601b0360a01b82541617905560e08301518051906001600160401b038211610a2a5761181b60078560031b85010154615230565b601f8111612174575b50602090601f83116001146120fa576007939291600091836120ef575b50508160011b916000199060031b1c1916179260031b0101555b60015490600160401b821015610a2a5760018201806001558210156120d957600160005280518260031b7fb10e2d527612073b26eecdfd717e6a320cf44b4afac2b0732d9fcbe2b7fa0cf6015560208101518051906001600160401b038211610a2a5781906118dd6000805160206161718339815191528660031b0154615230565b601f8111612076575b50602090601f8311600114611fe457600092611fd9575b50508160011b916000199060031b1c1916176000805160206161718339815191528360031b01555b60408101518051906001600160401b038211610a2a57819061195a6000805160206161518339815191528660031b0154615230565b601f8111611f76575b50602090601f8311600114611ee457600092611ed9575b50508160011b916000199060031b1c1916176000805160206161518339815191528360031b01555b60608101518051906001600160401b038211610a2a5781906119d76000805160206161918339815191528660031b0154615230565b601f8111611e76575b50602090601f8311600114611de457600092611dd9575b50508160011b916000199060031b1c1916176000805160206161918339815191528360031b01555b60808101518051906001600160401b038211610a2a57611a526000805160206161318339815191528560031b0154615230565b601f8111611d82575b50602090601f8311600114611cef5760e093929160009183611ce4575b50508160011b916000199060031b1c1916176000805160206161318339815191528460031b01555b60a08101517fb10e2d527612073b26eecdfd717e6a320cf44b4afac2b0732d9fcbe2b7fa0cfb8460031b01557fb10e2d527612073b26eecdfd717e6a320cf44b4afac2b0732d9fcbe2b7fa0cfc8360031b0160018060a01b0360c0830151166001600160601b0360a01b82541617905501518051906001600160401b038211610a2a57611b406000805160206161118339815191528460031b0154615230565b601f8111611c89575b50602090601f8311600114611bf957600080516020616111833981519152929160009183611bee575b50508160011b916000199060031b1c1916179160031b01555b6040516020818451611ba081838589016150d2565b81016002815203019020805490600a820180921161028857556001611bc533936156ba565b91017fcd719798f402a27a912a62d3b7e471f85fba10a63e2bbb6ede9a733a8616c2f1600080a4005b015190508680611b72565b906000805160206161118339815191528460031b0160005260206000209160005b601f1985168110611c71575091839160019360008051602061611183398151915295601f19811610611c58575b505050811b019160031b0155611b8b565b015160001960f88460031b161c19169055868080611c47565b91926020600181928685015181550194019201611c1a565b6000805160206161118339815191528460031b016000526020600020601f840160051c81019160208510611cda575b601f0160051c01905b818110611cce5750611b49565b60008155600101611cc1565b9091508190611cb8565b015190508780611a78565b906000805160206161318339815191528560031b0160005260206000209160005b601f1985168110611d6a575091839160019360e09695601f19811610611d51575b505050811b016000805160206161318339815191528460031b0155611aa0565b015160001960f88460031b161c19169055878080611d31565b91926020600181928685015181550194019201611d10565b6000805160206161318339815191528560031b016000526020600020601f840160051c810160208510611dd2575b601f830160051c82018110611dc6575050611a5b565b60008155600101611db0565b5080611db0565b0151905086806119f7565b92506000805160206161918339815191528560031b016000526020600020906000935b601f1984168510611e5b576001945083601f19811610611e42575b505050811b016000805160206161918339815191528360031b0155611a1f565b015160001960f88460031b161c19169055868080611e22565b81810151835560209485019460019093019290910190611e07565b9091506000805160206161918339815191528560031b016000526020600020601f840160051c810160208510611ed2575b90849392915b601f830160051c82018110611ec35750506119e0565b60008155859450600101611ead565b5080611ea7565b01519050868061197a565b92506000805160206161518339815191528560031b016000526020600020906000935b601f1984168510611f5b576001945083601f19811610611f42575b505050811b016000805160206161518339815191528360031b01556119a2565b015160001960f88460031b161c19169055868080611f22565b81810151835560209485019460019093019290910190611f07565b9091506000805160206161518339815191528560031b016000526020600020601f840160051c810160208510611fd2575b90849392915b601f830160051c82018110611fc3575050611963565b60008155859450600101611fad565b5080611fa7565b0151905086806118fd565b92506000805160206161718339815191528560031b016000526020600020906000935b601f198416851061205b576001945083601f19811610612042575b505050811b016000805160206161718339815191528360031b0155611925565b015160001960f88460031b161c19169055868080612022565b81810151835560209485019460019093019290910190612007565b9091506000805160206161718339815191528560031b016000526020600020601f840160051c8101602085106120d2575b90849392915b601f830160051c820181106120c35750506118e6565b600081558594506001016120ad565b50806120a7565b634e487b7160e01b600052603260045260246000fd5b015190508880611841565b9060078560031b85010160005260206000209160005b601f198516811061215c575091839160019360079695601f19811610612143575b505050811b019260031b01015561185b565b015160001960f88460031b161c19169055888080612131565b91926020600181928685015181550194019201612110565b60078560031b8501016000526020600020601f840160051c8101602085106121b9575b601f830160051c820181106121ad575050611824565b60008155600101612197565b5080612197565b0151905087806117a0565b925060048560031b8501016000526020600020906000935b601f198416851061222c576001945083601f19811610612213575b505050811b0160048360031b830101556117bd565b015160001960f88460031b161c191690558780806121fe565b818101518355602094850194600190930192909101906121e3565b90915060048560031b8501016000526020600020601f840160051c810160208510612298575b90849392915b601f830160051c82018110612289575050611789565b60008155859450600101612273565b508061226d565b01519050878061173a565b9250600385811b8501016000526020600020906000935b601f1984168510612309576001945083601f198116106122f0575b505050811b01600383811b83010155611756565b015160001960f88460031b161c191690558780806122dc565b818101518355602094850194600190930192909101906122c1565b909150600385811b8501016000526020600020601f840160051c810160208510612374575b90849392915b601f830160051c82018110612365575050611723565b6000815585945060010161234f565b5080612349565b0151905087806116d4565b925060028560031b8501016000526020600020906000935b601f19841685106123e7576001945083601f198116106123ce575b505050811b0160028360031b830101556116f1565b015160001960f88460031b161c191690558780806123b9565b8181015183556020948501946001909301929091019061239e565b90915060028560031b8501016000526020600020601f840160051c810160208510612453575b90849392915b601f830160051c820181106124445750506116bd565b6000815585945060010161242e565b5080612428565b01519050878061166d565b925060018560031b8501016000526020600020906000935b601f19841685106124c6576001945083601f198116106124ad575b505050811b0160018360031b8301015561168a565b015160001960f88460031b161c19169055878080612498565b8181015183556020948501946001909301929091019061247d565b90915060018560031b8501016000526020600020601f840160051c810160208510612532575b90849392915b601f830160051c82018110612523575050611656565b6000815585945060010161250d565b5080612507565b60405162461bcd60e51b8152602060048201526016602482015275496e76616c6964206d65646963696e6573206461746160501b6044820152606490fd5b60405162461bcd60e51b8152602060048201526011602482015270496e76616c696420646961676e6f73697360781b6044820152606490fd5b60405162461bcd60e51b815260206004820152601660248201527524b73b30b634b2103830ba34b2b73a1020b0b23430b960511b6044820152606490fd5b5061155c60ff60046040516020818161260d8c838151938492016150d2565b810160058152030190200154169050611553565b346103145760403660031901126103145761263a615202565b6001600160a01b03166000908152600b60205260409020805460243591908210156103145760209161266b91615218565b90546040519160031b1c8152f35b3461031457606036600319011261031457612692615202565b6024356001600160401b038111610314576126b19036906004016153b6565b906044356001600160401b038111610314576126d19036906004016153b6565b33600052600660205260ff6040600020541660058110156105985760036126f89114615994565b6001600160a01b03821660009081526004602052604090206002015460ff16612a4f576040519161272883615352565b838352816020840152600160408401526002606084015242608084015260018060a01b0381166000526004602052604060002083518051906001600160401b038211610a2a57819061277a8454615230565b601f81116129ff575b50602090601f831160011461299357600092612988575b50508160011b916000199060031b1c19161781555b60208401518051906001600160401b038211610a2a5781906127d46001850154615230565b601f8111612935575b50602090601f83116001146128c3576000926128b8575b50508160011b916000199060031b1c19161760018201555b6002810161282c60408601511515829060ff801983541691151516179055565b6060850151600581101561059857815461ff00191660089190911b61ff00161790556080909301516003938401556001600160a01b03166000818152602093909352604092839020805460ff19166001179055915191927fbc3a5b2aeb1bc52e3d56d3fd3423dd66cea5ecff8ae1f3bd0d75a0e608da7b85929182916128b39190836159d4565b0390a2005b0151905087806127f4565b9250600184016000526020600020906000935b601f198416851061291a576001945083601f19811610612901575b505050811b01600182015561280c565b015160001960f88460031b161c191690558780806128f1565b818101518355602094850194600190930192909101906128d6565b909150600184016000526020600020601f840160051c810160208510612981575b90849392915b601f830160051c820181106129725750506127dd565b6000815585945060010161295c565b5080612956565b01519050878061279a565b9250836000526020600020906000935b601f19841685106129e4576001945083601f198116106129cb575b505050811b0181556127af565b015160001960f88460031b161c191690558780806129be565b818101518355602094850194600190930192909101906129a3565b909150836000526020600020601f840160051c810160208510612a48575b90849392915b601f830160051c82018110612a39575050612783565b60008155859450600101612a23565b5080612a1d565b60405162461bcd60e51b815260206004820152601960248201527f446f63746f7220616c72656164792072656769737465726564000000000000006044820152606490fd5b3461031457602080600319360112610314576004356001600160401b038111610314578161034e612ac99236906004016153b6565b8101601081520301902090815491612ae08361579c565b92612aee6040519485615388565b8084528284018092600052836000206000915b838310612b9c5750505050604051918083019381845251809452604083019360408160051b85010192916000955b828710612b3c5785850386f35b909192938280600192603f19898203018552875190612b76612b66835160808085528401906150f5565b84840151838203868501526150f5565b916040810151604083015260608091015115159101529601920196019592919092612b2f565b600486600192604099989951612bb181615337565b604051612bc2816103e2818a61526a565b8152604051612bd7816103e281898b0161526a565b838201526002860154604082015260ff60038701541615156060820152815201920192019190959495612b01565b3461031457602080600319360112610314576004356001600160401b03811161031457612c369036906004016153b6565b612c4361035b33836158c8565b600754600091838101835b838110612e445750612c5f8461579c565b93612c6d6040519586615388565b808552612c7c601f199161579c565b018560005b828110612e0d5750505060009160005b848110612d3c57604080518881528751818a01819052600092600582901b83018101918a8c01918c9085015b828710612cca5785850386f35b909192938280600192603f19898203018552875190848060a01b038251168152612d20612d038484015160a080878601528401906150f5565b6040840151604084015260608085015190848303908501526150f5565b9160808091015115159101529601920196019592919092612cbd565b612d4581615761565b50604051612d5b816103e281600180960161526a565b8881519101208351852014612d7a575b50612d7590615715565b612c91565b8194612e069160ff6004612d90612d7596615761565b506103e2612dc060405195612da487615352565b83546001600160a01b031687526040519283918290860161526a565b8d85015260028101546040850152604051612de2816103e2816003860161526a565b606085015201541615156080820152612dfb828a6157b3565b52610a1f81896157b3565b9390612d6b565b604051612e1981615352565b6000815260608084830152600060408301528082015260006080820152828289010152018690612c81565b6001612e63612e5283615761565b506103e2604051809481930161526a565b8681519101208351832014612e81575b612e7c90615715565b612c4e565b93612e8e612e7c91615715565b949050612e73565b34610314576060366003190112610314576004356001600160401b03811161031457612ec69036906004016153b6565b6024356001600160a01b038116919082900361031457604435906004821015610314573033148015612f6b575b612f617f115f6ef52391618892f3a77f23446f2b996b12f28b601e7d85f2b8d372436c7192612f236020936156da565b600260405184818451612f3981838589016150d2565b8101600581520301902001866000528352604060002060ff1981541660ff87161790556156ba565b92604051908152a3005b5033600052600660205260ff6040600020541690600582101561059857612f6160209160017f115f6ef52391618892f3a77f23446f2b996b12f28b601e7d85f2b8d372436c71941480612fc5575b9093509150612ef39050565b50612f236040516103e2612fe68451928781818801956106c58183896150d2565b8581519101209083519020149050612fb9565b34610314576130073661540c565b9061301233826157c7565b80156130f9575b613022906159f9565b6040519161305e60ff60048451956020818188019861304281838c6150d2565b81016005815203019020015416613057615a3b565b3385615a64565b60405160208184516130718183896150d2565b81016010815203019020548110156130be576130a060206003946130af946040519384928392519283916150d2565b81016010815203019020615e67565b5001805460ff19166001179055005b60405162461bcd60e51b8152602060048201526013602482015272092dcecc2d8d2c840c2d8cae4e840d2dcc8caf606b1b6044820152606490fd5b5061302260ff600460405160208186516131168183858b016150d2565b810160058152030190200154169050613019565b346103145761317361313b366154a4565b61314b61035b93929333856158c8565b604051838180955161316381602098898096016150d2565b8101600e8152030190209061543d565b805461317e8161579c565b9161318c6040519384615388565b8183526000908152838120938084015b8383106131b157604051806103bb87826154ea565b6004826001926040516131c381615337565b6040516131d4816103e2818e61526a565b8152848a01548382015260028a0154604082015260036131fe8b6103e2604051809481930161526a565b606082015281520196019201919461319c565b34610314576020366003190112610314576004356001600160401b03811161031457610c186020610360819336906004016153b6565b34610314576080366003190112610314576004356001600160401b038111610314576132779036906004016153b6565b6024356001600160401b038111610314576132969036906004016153b6565b906044356001600160401b038111610314576132b69036906004016153b6565b916064356001600160401b038111610314576132d69036906004016153b6565b926132e133846157c7565b8015613aed575b6132f1906159f9565b6040519261332781516133088187602086016150d2565b850160058152600486602060ff9889940301902001541661048a615a3b565b33600052600660205283604060002054166005811015610598576002148015613aca575b613354906156da565b600093604051602081845161336c81838589016150d2565b8101600f81520301902090600060208601905b8354811015613abe576103e26133986104fd83876160d4565b60208151910120875183201480613aa7575b6133bc576133b790615715565b61337f565b928094959697506133d092508391506160d4565b5084516001600160401b038111610a2a576133ee6003830154615230565b601f8111613a60575b506020601f82116001146139ee57816134319493926003926000916139e3575b508160011b9160001990841b1c1916179101555b826160d4565b5085516001600160401b038111610a2a5761344f6004830154615230565b601f811161399c575b506020601f821160011461392e579080600492600091613923575b508160011b916000199060031b1c1916179101555b60015b156134cd575b50906134bd7f0a8ed6c1bf0f562bbb6cafc7f7c502b61497a02a3431ac098eca12dfcf3f3daf926156ba565b926128b3604051928392836159d4565b604051946134da8661531c565b848652426020870152600060408701528360608701526080860152600160a08601528054600160401b811015610a2a57613519916001820181556160d4565b61390d5784518051906001600160401b038211610a2a57819061353c8454615230565b601f81116138bd575b50602090601f83116001146138575760009261384c575b50508160011b916000199060031b1c19161781555b602085015160018201556040850151600282015560608501518051906001600160401b038211610a2a5781906135aa6003850154615230565b601f81116137f9575b50602090601f831160011461378c57600092613781575b50508160011b916000199060031b1c19161760038201555b60808501519485516001600160401b038111610a2a576136056004840154615230565b601f8111613736575b506020601f821160011461369a5760a061368693836134bd9796946005947f0a8ed6c1bf0f562bbb6cafc7f7c502b61497a02a3431ac098eca12dfcf3f3daf9b9c60009261368f575b50508160011b916000199060031b1c19161760048501555b0151151591019060ff801983541691151516179055565b90849350613491565b015190508c80613657565b601f198216976004850160005260206000209860005b81811061371e5750936001847f0a8ed6c1bf0f562bbb6cafc7f7c502b61497a02a3431ac098eca12dfcf3f3daf9a9b60059560a0956134bd9b9a986136869a10613705575b505050811b01600485015561366f565b015160001960f88460031b161c191690558c80806136f5565b838301518b556001909a0199602093840193016136b0565b600484016000526020600020601f830160051c81019160208410613777575b601f0160051c01905b81811061376b575061360e565b6000815560010161375e565b9091508190613755565b0151905087806135ca565b600385016000908152602081209350601f198516905b8181106137e157509084600195949392106137c8575b505050811b0160038201556135e2565b015160001960f88460031b161c191690558780806137b8565b929360206001819287860151815501950193016137a2565b909150600384016000526020600020601f840160051c810160208510613845575b90849392915b601f830160051c820181106138365750506135b3565b60008155859450600101613820565b508061381a565b01519050878061355c565b6000858152602081209350601f198516905b8181106138a5575090846001959493921061388c575b505050811b018155613571565b015160001960f88460031b161c1916905587808061387f565b92936020600181928786015181550195019301613869565b909150836000526020600020601f840160051c810160208510613906575b90849392915b601f830160051c820181106138f7575050613545565b600081558594506001016138e1565b50806138db565b634e487b7160e01b600052600060045260246000fd5b905088015189613473565b601f198216906004840160005260206000209160005b8a828210613984575050908360049493921061396b575b5050600190811b01910155613488565b89015160001960f88460031b161c19169055888061395b565b60018495602093958493015181550194019201613944565b600483016000526020600020601f830160051c8101602084106139dc575b601f830160051c820181106139d0575050613458565b600081556001016139ba565b50806139ba565b90508801518b613417565b6003830160005260206000209060005b601f1984168110613a4857509160039161343195949382601f19811610613a30575b5050600190811b0191015561342b565b89015160001983851b60f8161c191690558a80613a20565b9091602060018192858c0151815501930191016139fe565b600383016000526020600020601f830160051c810160208410613aa0575b601f830160051c82018110613a945750506133f7565b60008155600101613a7e565b5080613a7e565b50826005613ab583876160d4565b500154166133aa565b5050509091929361348b565b50336000526006602052836040600020541660058110156105985760031461334b565b506132f160ff60046040516020818851613b0a8183858d016150d2565b8101600581520301902001541690506132e8565b346103145760c0366003190112610314576004356001600160401b03811161031457613b4e9036906004016153b6565b6044356001600160401b03811161031457613b6d9036906004016153b6565b906064356001600160401b03811161031457613b8d9036906004016153b6565b916084356001600160401b03811161031457613bad9036906004016153b6565b9260a4356001600160401b03811161031457613bcd9036906004016153b6565b613bd733856157c7565b80156146d8575b613be7906159f9565b613c2160ff600460405160208181613c058b838151938492016150d2565b81016005815203019020015416613c1a615a3b565b3387615a64565b4260243511156146935760085494613c3886615715565b60085560405192613c4884615300565b8684526020840194868652602435604086015260006060860152608085015260a084015260c083015260e082015283600052600960205260406000209181518355518051906001600160401b038211610a2a578190613caa6001860154615230565b601f8111614640575b50602090601f83116001146145ce576000926145c3575b50508160011b916000199060031b1c19161760018301555b604081015160028301556060810151600381101561059857613d079060038401615d95565b60808101518051906001600160401b038211610a2a578190613d2c6004860154615230565b601f8111614570575b50602090601f83116001146144fe576000926144f3575b50508160011b916000199060031b1c19161760048301555b60a08101518051906001600160401b038211610a2a578190613d896005860154615230565b601f81116144a0575b50602090601f831160011461442e57600092614423575b50508160011b916000199060031b1c19161760058301555b60c08101518051906001600160401b038211610a2a57613de46006850154615230565b601f81116143dc575b50602090601f83116001146143695760e09392916000918361435e575b50508160011b916000199060031b1c19161760068401555b01518051906001600160401b038211610a2a57613e426007840154615230565b601f8111614317575b50602090601f83116001146142a757600792916000918361429c575b50508160011b916000199060031b1c1916179101555b613ea5826040516020818551613e968183858a016150d2565b8101600a815203019020615dad565b33600052600c602052613ebc826040600020615dad565b6040516020818351613ed181838588016150d2565b81016002815203019020805490603282018092116102885755604051613ef68161536d565b601481527314d8da19591d5b1948105c1c1bda5b9d1b595b9d60621b6020820152604051613f2381615352565b338152602081019083825242604082015282606082015260006080820152600754600160401b811015610a2a57806001613f609201600755615761565b92909261390d57815183546001600160a01b0319166001600160a01b0391909116178355518051906001600160401b038211610a2a578190613fa56001860154615230565b601f8111614249575b50602090601f83116001146141d7576000926141cc575b50508160011b916000199060031b1c19161760018301555b6040810151600283015560608101518051906001600160401b038211610a2a5761400a6003850154615230565b601f8111614185575b50602090601f83116001146140e85760806140d196948461408b957fc7e62119d394eed933b5eda9911107f252ddd2c36d9737ddab518ec9e60eab989a98956004956000926140dd575b50508160011b916000199060031b1c19161760038501550151151591019060ff801983541691151516179055565b614094826156ba565b6000805160206160f183398151915260405160208152806140ba339560208301906150f5565b0390a36040519182916040835260408301906150f5565b600060208301520390a2005b015190508c8061405d565b90601f198316916003860160005260206000209260005b81811061416d5750946001857fc7e62119d394eed933b5eda9911107f252ddd2c36d9737ddab518ec9e60eab989a989560049560809561408b996140d19d9b10614154575b505050811b01600385015561366f565b015160001960f88460031b161c191690558c8080614144565b929360206001819287860151815501950193016140ff565b600385016000526020600020601f840160051c8101602085106141c5575b601f830160051c820181106141b9575050614013565b600081556001016141a3565b50806141a3565b015190508780613fc5565b9250600185016000526020600020906000935b601f198416851061422e576001945083601f19811610614215575b505050811b016001830155613fdd565b015160001960f88460031b161c19169055878080614205565b818101518355602094850194600190930192909101906141ea565b909150600185016000526020600020601f840160051c810160208510614295575b90849392915b601f830160051c82018110614286575050613fae565b60008155859450600101614270565b508061426a565b015190508680613e67565b906007840160005260206000209160005b601f19851681106142ff5750918391600193600795601f198116106142e6575b505050811b01910155613e7d565b015160001960f88460031b161c191690558680806142d8565b919260206001819286850151815501940192016142b8565b600784016000526020600020601f840160051c810160208510614357575b601f830160051c8201811061434b575050613e4b565b60008155600101614335565b5080614335565b015190508780613e0a565b906006850160005260206000209160005b601f19851681106143c4575091839160019360e09695601f198116106143ab575b505050811b016006840155613e22565b015160001960f88460031b161c1916905587808061439b565b9192602060018192868501518155019401920161437a565b600685016000526020600020601f840160051c81016020851061441c575b601f830160051c82018110614410575050613ded565b600081556001016143fa565b50806143fa565b015190508680613da9565b9250600585016000526020600020906000935b601f1984168510614485576001945083601f1981161061446c575b505050811b016005830155613dc1565b015160001960f88460031b161c1916905586808061445c565b81810151835560209485019460019093019290910190614441565b909150600585016000526020600020601f840160051c8101602085106144ec575b90849392915b601f830160051c820181106144dd575050613d92565b600081558594506001016144c7565b50806144c1565b015190508680613d4c565b9250600485016000526020600020906000935b601f1984168510614555576001945083601f1981161061453c575b505050811b016004830155613d64565b015160001960f88460031b161c1916905586808061452c565b81810151835560209485019460019093019290910190614511565b909150600485016000526020600020601f840160051c8101602085106145bc575b90849392915b601f830160051c820181106145ad575050613d35565b60008155859450600101614597565b5080614591565b015190508680613cca565b9250600185016000526020600020906000935b601f1984168510614625576001945083601f1981161061460c575b505050811b016001830155613ce2565b015160001960f88460031b161c191690558680806145fc565b818101518355602094850194600190930192909101906145e1565b909150600185016000526020600020601f840160051c81016020851061468c575b90849392915b601f830160051c8201811061467d575050613cb3565b60008155859450600101614667565b5080614661565b60405162461bcd60e51b815260206004820152601860248201527f496e76616c6964206170706f696e746d656e742074696d6500000000000000006044820152606490fd5b50613be760ff6004604051602081816146f78b838151938492016150d2565b810160058152030190200154169050613bde565b34610314576020366003190112610314576001600160a01b0361472c615202565b166000526003602052602060ff604060002054166040519015158152f35b346103145761475836615463565b90336000526020906006825260ff60406000205416906005821015610598578261479191600160039414806147f4575b610360906156da565b810160058152030190200191825492600160401b841015610a2a57836147be916001600696018155615218565b9160018060a01b038091169282549060031b9184831b921b1916179055600052526040600020600460ff19825416179055600080f35b506103606040516103e26148158451928681818801956106c58183896150d2565b8481519101209083519020149050614788565b3461031457602061485061483b3661540c565b929081604051938285809451938492016150d2565b8101600a81520301902080548210156103145760209161266b91615218565b34610314576020366003190112610314576004356000526009602052604060002080546103bb600761497b604051946148b6866148af816001850161526a565b0387615388565b61496d600282015461495f60ff600385015416916040516148de816103e28160048a0161526a565b614952604051946148f6866148af8160058c0161526a565b614925604051986149158a61490e816006850161526a565b038b615388565b61490e604051809d81930161526a565b6149426040519d8e9d8e528d6101009081602082015201906150f5565b9360408d015260608c01906153a9565b89820360808b01526150f5565b9087820360a08901526150f5565b9085820360c08701526150f5565b9083820360e08501526150f5565b3461031457604036600319011261031457600435602435600381101561031457600854821015614f1f5781600052600960205260406000209060018201926149d18454615230565b15614eda5733600052600660205260ff604060002054166005811015610598576002148015614eb6575b15614e4b57614a0f82600360019501615d95565b7fbfa90a4f3468c2e94521fb7cf539f022e2c0b69cfd0a24d63a1d775342c1af046020604051614a3f81866153a9565ba214614db1575b614a596103e2916040519283809261526a565b60405190614a668261536d565b601982527f557064617465204170706f696e746d656e7420537461747573000000000000006020830152604051614a9c81615352565b338152602081019082825242604082015283606082015260006080820152600754600160401b811015610a2a57806001614ad99201600755615761565b92909261390d57815183546001600160a01b0319166001600160a01b0391909116178355518051906001600160401b038211610a2a578190614b1e6001860154615230565b601f8111614d5e575b50602090601f8311600114614cec57600092614ce1575b50508160011b916000199060031b1c19161760018301555b6040810151600283015560608101518051906001600160401b038211610a2a57614b836003850154615230565b601f8111614c96575b50602090601f8311600114614c1c57614be19383614be6979694600494608094600092614c115750508160011b916000199060031b1c19161760038501550151151591019060ff801983541691151516179055565b6156ba565b6000805160206160f18339815191526040516020815280614c0c339560208301906150f5565b0390a3005b015190508a8061405d565b90601f198316916003860160005260206000209260005b818110614c7e575084600494608094614be19894614be69b9a9860019510614c6557505050811b01600385015561366f565b015160001960f88460031b161c191690558a8080614144565b92936020600181928786015181550195019301614c33565b600385016000526020600020601f840160051c81019160208510614cd7575b601f0160051c01905b818110614ccb5750614b8c565b60008155600101614cbe565b9091508190614cb5565b015190508680614b3e565b9250600185016000526020600020906000935b601f1984168510614d43576001945083601f19811610614d2a575b505050811b016001830155614b56565b015160001960f88460031b161c19169055868080614d1a565b81810151835560209485019460019093019290910190614cff565b909150600185016000526020600020601f840160051c810160208510614daa575b90849392915b601f830160051c82018110614d9b575050614b27565b60008155859450600101614d85565b5080614d7f565b6040518154816000614dc283615230565b9260018116908115614e345750600114614df9575b6020925060028152030190208054916064830180931161028857919055614a46565b5050826000528160206000206000905b838210614e1c5750506020918101614dd7565b60209192508060019154848701520191018391614e09565b60ff19168352506020928015150282019050614dd7565b60405162461bcd60e51b815260206004820152603d60248201527f4f6e6c7920646f63746f7273206f7220686f73706974616c2061646d696e732060448201527f63616e20757064617465206170706f696e746d656e74207374617475730000006064820152608490fd5b5033600052600660205260ff604060002054166005811015610598576003146149fb565b60405162461bcd60e51b815260206004820152601a60248201527f4170706f696e746d656e7420646f6573206e6f742065786973740000000000006044820152606490fd5b60405162461bcd60e51b8152602060048201526016602482015275125b9d985b1a5908185c1c1bda5b9d1b595b9d08125160521b6044820152606490fd5b3461031457604036600319011261031457614f76615202565b6001600160a01b03166000908152600c60205260409020805460243591908210156103145760209161266b91615218565b346103145760003660031901126103145760018054614fc58161579c565b90614fd36040519283615388565b808252600083815260207fb10e2d527612073b26eecdfd717e6a320cf44b4afac2b0732d9fcbe2b7fa0cf68185015b84841061501757604051806103bb888261511a565b600883889260405161502881615300565b8554815260405161503f816103e281898b0161526a565b83820152604051615057816103e28160028b0161526a565b6040820152604051615070816103e28160038b0161526a565b6060820152604051615089816103e28160048b0161526a565b6080820152600586015460a082015260068601546001600160a01b031660c08201526040516150bf816103e28160078b0161526a565b60e0820152815201920193019290615002565b60005b8381106150e55750506000910152565b81810151838201526020016150d5565b9060209161510e815180928185528580860191016150d2565b601f01601f1916010190565b602080820190808352835180925260409283810182858560051b8401019601946000925b85841061514f575050505050505090565b9091929394959685806151f1600193603f198682030188528b51805182526151c36151b061519d61518d87850151610100808a8901528701906150f5565b8b8501518682038d8801526150f5565b60608085015190868303908701526150f5565b60808084015190858303908601526150f5565b9160a0808301519082015260c0878060a01b0381840151169082015260e080920151918184039101526150f5565b99019401940192959493919061513e565b600435906001600160a01b038216820361031457565b80548210156120d95760005260206000200190600090565b90600182811c92168015615260575b602083101461524a57565b634e487b7160e01b600052602260045260246000fd5b91607f169161523f565b906000929180549161527b83615230565b9182825260019384811690816000146152dd575060011461529d575b50505050565b90919394506000526020928360002092846000945b8386106152c9575050505001019038808080615297565b8054858701830152940193859082016152b2565b9294505050602093945060ff191683830152151560051b01019038808080615297565b61010081019081106001600160401b03821117610a2a57604052565b60c081019081106001600160401b03821117610a2a57604052565b608081019081106001600160401b03821117610a2a57604052565b60a081019081106001600160401b03821117610a2a57604052565b604081019081106001600160401b03821117610a2a57604052565b90601f801991011681019081106001600160401b03821117610a2a57604052565b9060038210156105985752565b81601f82011215610314578035906001600160401b038211610a2a57604051926153ea601f8401601f191660200185615388565b8284526020838301011161031457816000926020809301838601378301015290565b604060031982011261031457600435906001600160401b03821161031457615436916004016153b6565b9060243590565b6020906154579282604051948386809551938492016150d2565b82019081520301902090565b604060031982011261031457600435906001600160401b0382116103145761548d916004016153b6565b906024356001600160a01b03811681036103145790565b906040600319830112610314576001600160401b0360043581811161031457836154d0916004016153b6565b92602435918211610314576154e7916004016153b6565b90565b602080820190808352835180925260409283810182858560051b8401019601946000925b85841061551f575050505050505090565b90919293949596858061556e600193603f198682030188528b5161554b815160808085528401906150f5565b9184820151858201528882015189820152606080920151918184039101526150f5565b99019401940192959493919061550e565b602080820190808352835180925260409283810182858560051b8401019601946000925b8584106155b4575050505050505090565b909192939495968580615658600193603f198682030188528b518051825261564561563261561f6155f287850151610100808a8901528701906150f5565b8b8501518c87015261560c606080870151908801906153a9565b60808086015190878303908801526150f5565b60a08085015190868303908701526150f5565b60c08084015190858303908601526150f5565b9160e080920151918184039101526150f5565b9901940194019295949391906155a3565b9060058210156105985752565b1561567d57565b60405162461bcd60e51b815260206004820152601560248201527424b73b30b634b21020b0b23430b910373ab6b132b960591b6044820152606490fd5b6156d2906020604051928284809451938492016150d2565b810103902090565b156156e157565b60405162461bcd60e51b815260206004820152600c60248201526b155b985d5d1a1bdc9a5e995960a21b6044820152606490fd5b60001981146102885760010190565b1561572b57565b60405162461bcd60e51b815260206004820152600e60248201526d139bdd08185d5d1a1bdc9a5e995960921b6044820152606490fd5b6007548110156120d9576005906007600052027fa66cc928b5edb82af9bd49922954155ab7b0942694bea4ce44661d9a8736c6880190600090565b6001600160401b038111610a2a5760051b60200190565b80518210156120d95760209160051b010190565b60009160018060a01b03168083526020906006825260ff60408520541660058110156158b4576003811461585e5760028114615898576001811480615868575b61585e57600414848161583c575b506158205750505090565b836012615837949360409360ff975252209061543d565b541690565b905061584a57600084615815565b634e487b7160e01b84526021600452602484fd5b5050505050600190565b50818552601383526103e2615886604087206040519283809261526a565b83815191012084518486012014615807565b50615837929160119160ff95506000525260406000209061543d565b634e487b7160e01b85526021600452602485fd5b60009160018060a01b0316808352600660205260ff604084205416600581101561584a57600381146159585760028114615958576001811480615961575b615958576004148381615936575b5061591e57505090565b906040836158379360ff95526012602052209061543d565b905061594457600183615914565b634e487b7160e01b83526021600452602483fd5b50505050600190565b5081845260136020526103e2615980604086206040519283809261526a565b602081519101208351602085012014615906565b1561599b57565b60405162461bcd60e51b8152602060048201526011602482015270556e617574686f72697a656420726f6c6560781b6044820152606490fd5b90916159eb6154e7936040845260408401906150f5565b9160208184039101526150f5565b15615a0057565b60405162461bcd60e51b8152602060048201526013602482015272556e617574686f72697a65642061636365737360681b6044820152606490fd5b60405190615a488261536d565b600d82526c5265636f72642041636365737360981b6020830152565b90604051615a7181615352565b60018060a01b0380921694858252602082018481526040830190428252606084019287845215156080850152600754600160401b811015610a2a57806001615abc9201600755615761565b95909561390d578451166001600160601b0360a01b865416178555519081516001600160401b038111610a2a5780615af76001880154615230565b93601f94858111615d34575b50602090858311600114615cc257600092615cb7575b50508160011b916000199060031b1c19161760018601555b516002850155600384019151908151916001600160401b038311610a2a57615b598454615230565b828111615c72575b506020918311600114615bea576080615bc5956000805160206160f1833981519152989585614be196615bda9a96600496600092615bdf575b50508160011b916000199060031b1c19161790550151151591019060ff801983541691151516179055565b926040519182916020835260208301906150f5565b0390a3565b015190503880615b9a565b90601f198316918460005260206000209260005b818110615c5a5750956000805160206160f18339815191529895600186615bda9a96600496608096614be19a615bc59d10615c41575b505050811b01905561366f565b015160001960f88460031b161c19169055388080615c34565b92936020600181928786015181550195019301615bfe565b8460005260206000208380860160051c82019260208710615cae575b0160051c01905b818110615ca25750615b61565b60008155600101615c95565b92508192615c8e565b015190503880615b19565b9250600188016000526020600020906000935b601f1984168510615d19576001945083601f19811610615d00575b505050811b016001860155615b31565b015160001960f88460031b161c19169055388080615cf0565b81810151835560209485019460019093019290910190615cd5565b9091506000600189018152602081208680860160051c82019360208710615d80575b908695949392910160051c01915b828110615d72575050615b03565b818155859450600101615d64565b93508193615d56565b60038210156105985752565b9060038110156105985760ff80198354169116179055565b8054600160401b811015610a2a57615dca91600182018155615218565b819291549060031b91821b91600019901b1916179055565b90615dec8261579c565b604090615dfb82519182615388565b8381528093615e0c601f199161579c565b0191600091825b848110615e21575050505050565b6020908351615e2f81615300565b858152606083908082840152878784015287818401528060808401528060a08401528060c084015260e0830152828501015201615e13565b80548210156120d95760005260206000209060021b0190600090565b8054600160401b811015610a2a57615ea2906001928382018155615e67565b61390d5782518051916001600160401b0392838111610a2a57615ec58254615230565b92601f9384811161608c575b5060209084831160011461602057918060609492600394600092616015575b505060001982851b1c191690871b1781555b60208701518682015560408701516002820155019401518051928311610a2a57615f2c8554615230565b828111615fcd575b506020918311600114615f6d57928293918392600094615f62575b50501b916000199060031b1c1916179055565b015192503880615f4f565b90601f198316918560005283826000209360005b87828210615fb457505010615f9b575b505050811b019055565b015160001960f88460031b161c19169055388080615f91565b8486015187559095019460209485019487935001615f81565b8560005260206000208380860160051c8201926020871061600c575b0160051c019085905b828110616000575050615f34565b60008155018590615ff2565b92508192615fe9565b015190503880615ef0565b869291601f1983169185600052816000209260005b81811061607457509160039593918560609896941061605c575b505050811b018155615f02565b015160001983871b60f8161c1916905538808061604f565b8284015185558a969094019360209384019301616035565b6000848152602081208680860160051c820193602087106160cb575b0160051c019188905b8381106160c057505050615ed1565b8281550188906160b1565b935081936160a8565b80548210156120d957600052600660206000209102019060009056fe3080b8b7888bff2fd89ae826442395530945d5733b453cbc662b1ec33780dc2db10e2d527612073b26eecdfd717e6a320cf44b4afac2b0732d9fcbe2b7fa0cfdb10e2d527612073b26eecdfd717e6a320cf44b4afac2b0732d9fcbe2b7fa0cfab10e2d527612073b26eecdfd717e6a320cf44b4afac2b0732d9fcbe2b7fa0cf8b10e2d527612073b26eecdfd717e6a320cf44b4afac2b0732d9fcbe2b7fa0cf7b10e2d527612073b26eecdfd717e6a320cf44b4afac2b0732d9fcbe2b7fa0cf9a26469706673582212203d3a1890d89983c886fbb37861171555d5994abe37182cac302ec591f90f388364736f6c63430008130033",
  "linkReferences": {},
  "deployedLinkReferences": {}
}