{
  "_format": "hh-sol-artifact-1",
  "contractName": "HealthcareSystem",
  "sourceName": "contracts/HealthcareSystem.sol",
  "abi": [
    {
      "inputs": [],
      "stateMutability": "nonpayable",
      "type": "constructor"
    },
    {
      "anonymous": false,
      "inputs": [
        {
          "indexed": true,
          "internalType": "string",
          "name": "patientAadhar",
          "type": "string"
        },
        {
          "indexed": true,
          "internalType": "address",
          "name": "provider",
          "type": "address"
        },
        {
          "indexed": false,
          "internalType": "enum HealthcareSystem.AccessLevel",
          "name": "level",
          "type": "uint8"
        }
      ],
      "name": "AccessGranted",
      "type": "event"
    },
    {
      "anonymous": false,
      "inputs": [
        {
          "indexed": true,
          "internalType": "string",
          "name": "patientAadhar",
          "type": "string"
        },
        {
          "indexed": true,
          "internalType": "address",
          "name": "accessor",
          "type": "address"
        },
        {
          "indexed": false,
          "internalType": "string",
          "name": "action",
          "type": "string"
        }
      ],
      "name": "AccessLogAdded",
      "type": "event"
    },
    {
      "anonymous": false,
      "inputs": [
        {
          "indexed": true,
          "internalType": "string",
          "name": "patientAadhar",
          "type": "string"
        },
        {
          "indexed": true,
          "internalType": "address",
          "name": "provider",
          "type": "address"
        }
      ],
      "name": "AccessRevoked",
      "type": "event"
    },
    {
      "anonymous": false,
      "inputs": [
        {
          "indexed": true,
          "internalType": "uint256",
          "name": "appointmentId",
          "type": "uint256"
        },
        {
          "indexed": false,
          "internalType": "string",
          "name": "patientAadhar",
          "type": "string"
        },
        {
          "indexed": false,
          "internalType": "address",
          "name": "doctor",
          "type": "address"
        }
      ],
      "name": "AppointmentScheduled",
      "type": "event"
    },
    {
      "anonymous": false,
      "inputs": [
        {
          "indexed": true,
          "internalType": "uint256",
          "name": "appointmentId",
          "type": "uint256"
        },
        {
          "indexed": false,
          "internalType": "enum HealthcareSystem.AppointmentStatus",
          "name": "status",
          "type": "uint8"
        }
      ],
      "name": "AppointmentStatusUpdated",
      "type": "event"
    },
    {
      "anonymous": false,
      "inputs": [
        {
          "indexed": true,
          "internalType": "address",
          "name": "doctor",
          "type": "address"
        },
        {
          "indexed": false,
          "internalType": "string",
          "name": "name",
          "type": "string"
        },
        {
          "indexed": false,
          "internalType": "string",
          "name": "specialization",
          "type": "string"
        }
      ],
      "name": "DoctorRegistered",
      "type": "event"
    },
    {
      "anonymous": false,
      "inputs": [
        {
          "indexed": true,
          "internalType": "string",
          "name": "patientAadhar",
          "type": "string"
        }
      ],
      "name": "EmergencyAccessActivated",
      "type": "event"
    },
    {
      "anonymous": false,
      "inputs": [
        {
          "indexed": true,
          "internalType": "string",
          "name": "patientAadhar",
          "type": "string"
        }
      ],
      "name": "EmergencyAccessDeactivated",
      "type": "event"
    },
    {
      "anonymous": false,
      "inputs": [
        {
          "indexed": true,
          "internalType": "string",
          "name": "aadharNumber",
          "type": "string"
        },
        {
          "indexed": false,
          "internalType": "string",
          "name": "alertType",
          "type": "string"
        }
      ],
      "name": "HealthAlertCreated",
      "type": "event"
    },
    {
      "anonymous": false,
      "inputs": [
        {
          "indexed": true,
          "internalType": "string",
          "name": "aadharNumber",
          "type": "string"
        },
        {
          "indexed": false,
          "internalType": "uint256",
          "name": "amount",
          "type": "uint256"
        }
      ],
      "name": "HealthCoinsAwarded",
      "type": "event"
    },
    {
      "anonymous": false,
      "inputs": [
        {
          "indexed": true,
          "internalType": "string",
          "name": "aadharNumber",
          "type": "string"
        },
        {
          "indexed": false,
          "internalType": "uint256",
          "name": "amount",
          "type": "uint256"
        }
      ],
      "name": "HealthCoinsRedeemed",
      "type": "event"
    },
    {
      "anonymous": false,
      "inputs": [
        {
          "indexed": true,
          "internalType": "string",
          "name": "aadharNumber",
          "type": "string"
        },
        {
          "indexed": false,
          "internalType": "string",
          "name": "metricType",
          "type": "string"
        },
        {
          "indexed": false,
          "internalType": "uint256",
          "name": "value",
          "type": "uint256"
        }
      ],
      "name": "HealthMetricAdded",
      "type": "event"
    },
    {
      "anonymous": false,
      "inputs": [
        {
          "indexed": true,
          "internalType": "string",
          "name": "aadharNumber",
          "type": "string"
        },
        {
          "indexed": false,
          "internalType": "string",
          "name": "medication",
          "type": "string"
        },
        {
          "indexed": false,
          "internalType": "string",
          "name": "effectiveness",
          "type": "string"
        }
      ],
      "name": "MedicationTrackingUpdated",
      "type": "event"
    },
    {
      "anonymous": false,
      "inputs": [
        {
          "indexed": true,
          "internalType": "string",
          "name": "aadharNumber",
          "type": "string"
        }
      ],
      "name": "PatientRegistered",
      "type": "event"
    },
    {
      "anonymous": false,
      "inputs": [
        {
          "indexed": true,
          "internalType": "uint256",
          "name": "prescriptionId",
          "type": "uint256"
        },
        {
          "indexed": true,
          "internalType": "string",
          "name": "aadharNumber",
          "type": "string"
        },
        {
          "indexed": true,
          "internalType": "address",
          "name": "hospital",
          "type": "address"
        }
      ],
      "name": "PrescriptionAdded",
      "type": "event"
    },
    {
      "inputs": [
        {
          "internalType": "string",
          "name": "_patientAadhar",
          "type": "string"
        }
      ],
      "name": "activateEmergencyAccess",
      "outputs": [],
      "stateMutability": "nonpayable",
      "type": "function"
    },
    {
      "inputs": [
        {
          "internalType": "string",
          "name": "_patientAadhar",
          "type": "string"
        },
        {
          "internalType": "address",
          "name": "_contact",
          "type": "address"
        }
      ],
      "name": "addEmergencyContact",
      "outputs": [],
      "stateMutability": "nonpayable",
      "type": "function"
    },
    {
      "inputs": [
        {
          "internalType": "string",
          "name": "_patientAadhar",
          "type": "string"
        },
        {
          "internalType": "string",
          "name": "_metricType",
          "type": "string"
        },
        {
          "internalType": "uint256",
          "name": "_value",
          "type": "uint256"
        },
        {
          "internalType": "string",
          "name": "_notes",
          "type": "string"
        }
      ],
      "name": "addHealthMetric",
      "outputs": [],
      "stateMutability": "nonpayable",
      "type": "function"
    },
    {
      "inputs": [
        {
          "internalType": "string",
          "name": "_patientAadhar",
          "type": "string"
        },
        {
          "internalType": "string",
          "name": "_diagnosis",
          "type": "string"
        },
        {
          "internalType": "string",
          "name": "_medicines",
          "type": "string"
        },
        {
          "internalType": "string",
          "name": "_notes",
          "type": "string"
        },
        {
          "internalType": "string",
          "name": "_hospitalName",
          "type": "string"
        }
      ],
      "name": "addPrescription",
      "outputs": [],
      "stateMutability": "nonpayable",
      "type": "function"
    },
    {
      "inputs": [
        {
          "internalType": "uint256",
          "name": "",
          "type": "uint256"
        }
      ],
      "name": "appointments",
      "outputs": [
        {
          "internalType": "uint256",
          "name": "id",
          "type": "uint256"
        },
        {
          "internalType": "string",
          "name": "patientAadhar",
          "type": "string"
        },
        {
          "internalType": "uint256",
          "name": "timestamp",
          "type": "uint256"
        },
        {
          "internalType": "enum HealthcareSystem.AppointmentStatus",
          "name": "status",
          "type": "uint8"
        },
        {
          "internalType": "string",
          "name": "contactEmail",
          "type": "string"
        },
        {
          "internalType": "string",
          "name": "contactPhone",
          "type": "string"
        },
        {
          "internalType": "string",
          "name": "notes",
          "type": "string"
        },
        {
          "internalType": "string",
          "name": "department",
          "type": "string"
        }
      ],
      "stateMutability": "view",
      "type": "function"
    },
    {
      "inputs": [
        {
          "internalType": "string",
          "name": "_patientAadhar",
          "type": "string"
        }
      ],
      "name": "deactivateEmergencyAccess",
      "outputs": [],
      "stateMutability": "nonpayable",
      "type": "function"
    },
    {
      "inputs": [
        {
          "internalType": "address",
          "name": "",
          "type": "address"
        },
        {
          "internalType": "uint256",
          "name": "",
          "type": "uint256"
        }
      ],
      "name": "doctorAppointments",
      "outputs": [
        {
          "internalType": "uint256",
          "name": "",
          "type": "uint256"
        }
      ],
      "stateMutability": "view",
      "type": "function"
    },
    {
      "inputs": [
        {
          "internalType": "address",
          "name": "",
          "type": "address"
        }
      ],
      "name": "doctors",
      "outputs": [
        {
          "internalType": "string",
          "name": "name",
          "type": "string"
        },
        {
          "internalType": "string",
          "name": "specialization",
          "type": "string"
        },
        {
          "internalType": "bool",
          "name": "isRegistered",
          "type": "bool"
        },
        {
          "internalType": "enum HealthcareSystem.Role",
          "name": "role",
          "type": "uint8"
        },
        {
          "internalType": "uint256",
          "name": "registeredAt",
          "type": "uint256"
        }
      ],
      "stateMutability": "view",
      "type": "function"
    },
    {
      "inputs": [
        {
          "internalType": "string",
          "name": "_patientAadhar",
          "type": "string"
        }
      ],
      "name": "getAccessLogs",
      "outputs": [
        {
          "components": [
            {
              "internalType": "address",
              "name": "accessor",
              "type": "address"
            },
            {
              "internalType": "string",
              "name": "patientAadhar",
              "type": "string"
            },
            {
              "internalType": "uint256",
              "name": "timestamp",
              "type": "uint256"
            },
            {
              "internalType": "string",
              "name": "action",
              "type": "string"
            },
            {
              "internalType": "bool",
              "name": "isEmergencyAccess",
              "type": "bool"
            }
          ],
          "internalType": "struct HealthcareSystem.AccessLog[]",
          "name": "",
          "type": "tuple[]"
        }
      ],
      "stateMutability": "view",
      "type": "function"
    },
    {
      "inputs": [],
      "name": "getAllPrescriptions",
      "outputs": [
        {
          "components": [
            {
              "internalType": "uint256",
              "name": "id",
              "type": "uint256"
            },
            {
              "internalType": "string",
              "name": "patientAadhar",
              "type": "string"
            },
            {
              "internalType": "string",
              "name": "diagnosis",
              "type": "string"
            },
            {
              "internalType": "string",
              "name": "medicines",
              "type": "string"
            },
            {
              "internalType": "string",
              "name": "notes",
              "type": "string"
            },
            {
              "internalType": "uint256",
              "name": "timestamp",
              "type": "uint256"
            },
            {
              "internalType": "address",
              "name": "hospital",
              "type": "address"
            },
            {
              "internalType": "string",
              "name": "hospitalName",
              "type": "string"
            }
          ],
          "internalType": "struct HealthcareSystem.Prescription[]",
          "name": "",
          "type": "tuple[]"
        }
      ],
      "stateMutability": "view",
      "type": "function"
    },
    {
      "inputs": [
        {
          "internalType": "address",
          "name": "_doctor",
          "type": "address"
        }
      ],
      "name": "getDoctorAppointments",
      "outputs": [
        {
          "components": [
            {
              "internalType": "uint256",
              "name": "id",
              "type": "uint256"
            },
            {
              "internalType": "string",
              "name": "patientAadhar",
              "type": "string"
            },
            {
              "internalType": "uint256",
              "name": "timestamp",
              "type": "uint256"
            },
            {
              "internalType": "enum HealthcareSystem.AppointmentStatus",
              "name": "status",
              "type": "uint8"
            },
            {
              "internalType": "string",
              "name": "contactEmail",
              "type": "string"
            },
            {
              "internalType": "string",
              "name": "contactPhone",
              "type": "string"
            },
            {
              "internalType": "string",
              "name": "notes",
              "type": "string"
            },
            {
              "internalType": "string",
              "name": "department",
              "type": "string"
            }
          ],
          "internalType": "struct HealthcareSystem.Appointment[]",
          "name": "",
          "type": "tuple[]"
        }
      ],
      "stateMutability": "view",
      "type": "function"
    },
    {
      "inputs": [
        {
          "internalType": "string",
          "name": "_patientAadhar",
          "type": "string"
        }
      ],
      "name": "getHealthAlerts",
      "outputs": [
        {
          "components": [
            {
              "internalType": "string",
              "name": "alertType",
              "type": "string"
            },
            {
              "internalType": "string",
              "name": "description",
              "type": "string"
            },
            {
              "internalType": "uint256",
              "name": "timestamp",
              "type": "uint256"
            },
            {
              "internalType": "bool",
              "name": "resolved",
              "type": "bool"
            }
          ],
          "internalType": "struct HealthcareSystem.HealthAlert[]",
          "name": "",
          "type": "tuple[]"
        }
      ],
      "stateMutability": "view",
      "type": "function"
    },
    {
      "inputs": [
        {
          "internalType": "string",
          "name": "_aadharNumber",
          "type": "string"
        }
      ],
      "name": "getHealthCoins",
      "outputs": [
        {
          "internalType": "uint256",
          "name": "",
          "type": "uint256"
        }
      ],
      "stateMutability": "view",
      "type": "function"
    },
    {
      "inputs": [
        {
          "internalType": "string",
          "name": "_patientAadhar",
          "type": "string"
        },
        {
          "internalType": "string",
          "name": "_metricType",
          "type": "string"
        }
      ],
      "name": "getHealthMetrics",
      "outputs": [
        {
          "components": [
            {
              "internalType": "string",
              "name": "metricType",
              "type": "string"
            },
            {
              "internalType": "uint256",
              "name": "value",
              "type": "uint256"
            },
            {
              "internalType": "uint256",
              "name": "timestamp",
              "type": "uint256"
            },
            {
              "internalType": "string",
              "name": "notes",
              "type": "string"
            }
          ],
          "internalType": "struct HealthcareSystem.HealthMetric[]",
          "name": "",
          "type": "tuple[]"
        }
      ],
      "stateMutability": "view",
      "type": "function"
    },
    {
      "inputs": [
        {
          "internalType": "string",
          "name": "_patientAadhar",
          "type": "string"
        }
      ],
      "name": "getHealthMetrics",
      "outputs": [
        {
          "components": [
            {
              "internalType": "string",
              "name": "metricType",
              "type": "string"
            },
            {
              "internalType": "uint256",
              "name": "value",
              "type": "uint256"
            },
            {
              "internalType": "uint256",
              "name": "timestamp",
              "type": "uint256"
            },
            {
              "internalType": "string",
              "name": "notes",
              "type": "string"
            }
          ],
          "internalType": "struct HealthcareSystem.HealthMetric[]",
          "name": "",
          "type": "tuple[]"
        }
      ],
      "stateMutability": "view",
      "type": "function"
    },
    {
      "inputs": [
        {
          "internalType": "address",
          "name": "_hospital",
          "type": "address"
        }
      ],
      "name": "getHospitalAppointments",
      "outputs": [
        {
          "components": [
            {
              "internalType": "uint256",
              "name": "id",
              "type": "uint256"
            },
            {
              "internalType": "string",
              "name": "patientAadhar",
              "type": "string"
            },
            {
              "internalType": "uint256",
              "name": "timestamp",
              "type": "uint256"
            },
            {
              "internalType": "enum HealthcareSystem.AppointmentStatus",
              "name": "status",
              "type": "uint8"
            },
            {
              "internalType": "string",
              "name": "contactEmail",
              "type": "string"
            },
            {
              "internalType": "string",
              "name": "contactPhone",
              "type": "string"
            },
            {
              "internalType": "string",
              "name": "notes",
              "type": "string"
            },
            {
              "internalType": "string",
              "name": "department",
              "type": "string"
            }
          ],
          "internalType": "struct HealthcareSystem.Appointment[]",
          "name": "",
          "type": "tuple[]"
        }
      ],
      "stateMutability": "view",
      "type": "function"
    },
    {
      "inputs": [
        {
          "internalType": "string",
          "name": "_patientAadhar",
          "type": "string"
        }
      ],
      "name": "getMedicationTracking",
      "outputs": [
        {
          "components": [
            {
              "internalType": "string",
              "name": "medication",
              "type": "string"
            },
            {
              "internalType": "uint256",
              "name": "startDate",
              "type": "uint256"
            },
            {
              "internalType": "uint256",
              "name": "endDate",
              "type": "uint256"
            },
            {
              "internalType": "string",
              "name": "effectiveness",
              "type": "string"
            },
            {
              "internalType": "string",
              "name": "sideEffects",
              "type": "string"
            },
            {
              "internalType": "bool",
              "name": "active",
              "type": "bool"
            }
          ],
          "internalType": "struct HealthcareSystem.MedicationTracking[]",
          "name": "",
          "type": "tuple[]"
        }
      ],
      "stateMutability": "view",
      "type": "function"
    },
    {
      "inputs": [
        {
          "internalType": "string",
          "name": "_patientAadhar",
          "type": "string"
        }
      ],
      "name": "getPatientAppointments",
      "outputs": [
        {
          "components": [
            {
              "internalType": "uint256",
              "name": "id",
              "type": "uint256"
            },
            {
              "internalType": "string",
              "name": "patientAadhar",
              "type": "string"
            },
            {
              "internalType": "uint256",
              "name": "timestamp",
              "type": "uint256"
            },
            {
              "internalType": "enum HealthcareSystem.AppointmentStatus",
              "name": "status",
              "type": "uint8"
            },
            {
              "internalType": "string",
              "name": "contactEmail",
              "type": "string"
            },
            {
              "internalType": "string",
              "name": "contactPhone",
              "type": "string"
            },
            {
              "internalType": "string",
              "name": "notes",
              "type": "string"
            },
            {
              "internalType": "string",
              "name": "department",
              "type": "string"
            }
          ],
          "internalType": "struct HealthcareSystem.Appointment[]",
          "name": "",
          "type": "tuple[]"
        }
      ],
      "stateMutability": "view",
      "type": "function"
    },
    {
      "inputs": [
        {
          "internalType": "string",
          "name": "_patientAadhar",
          "type": "string"
        }
      ],
      "name": "getPrescriptions",
      "outputs": [
        {
          "components": [
            {
              "internalType": "uint256",
              "name": "id",
              "type": "uint256"
            },
            {
              "internalType": "string",
              "name": "patientAadhar",
              "type": "string"
            },
            {
              "internalType": "string",
              "name": "diagnosis",
              "type": "string"
            },
            {
              "internalType": "string",
              "name": "medicines",
              "type": "string"
            },
            {
              "internalType": "string",
              "name": "notes",
              "type": "string"
            },
            {
              "internalType": "uint256",
              "name": "timestamp",
              "type": "uint256"
            },
            {
              "internalType": "address",
              "name": "hospital",
              "type": "address"
            },
            {
              "internalType": "string",
              "name": "hospitalName",
              "type": "string"
            }
          ],
          "internalType": "struct HealthcareSystem.Prescription[]",
          "name": "",
          "type": "tuple[]"
        }
      ],
      "stateMutability": "view",
      "type": "function"
    },
    {
      "inputs": [
        {
          "internalType": "string",
          "name": "_patientAadhar",
          "type": "string"
        },
        {
          "internalType": "address",
          "name": "_provider",
          "type": "address"
        },
        {
          "internalType": "enum HealthcareSystem.AccessLevel",
          "name": "_level",
          "type": "uint8"
        }
      ],
      "name": "grantAccess",
      "outputs": [],
      "stateMutability": "nonpayable",
      "type": "function"
    },
    {
      "inputs": [
        {
          "internalType": "string",
          "name": "",
          "type": "string"
        }
      ],
      "name": "healthCoins",
      "outputs": [
        {
          "internalType": "uint256",
          "name": "",
          "type": "uint256"
        }
      ],
      "stateMutability": "view",
      "type": "function"
    },
    {
      "inputs": [
        {
          "internalType": "address",
          "name": "",
          "type": "address"
        },
        {
          "internalType": "uint256",
          "name": "",
          "type": "uint256"
        }
      ],
      "name": "hospitalAppointments",
      "outputs": [
        {
          "internalType": "uint256",
          "name": "",
          "type": "uint256"
        }
      ],
      "stateMutability": "view",
      "type": "function"
    },
    {
      "inputs": [
        {
          "internalType": "string",
          "name": "",
          "type": "string"
        },
        {
          "internalType": "uint256",
          "name": "",
          "type": "uint256"
        }
      ],
      "name": "patientAppointments",
      "outputs": [
        {
          "internalType": "uint256",
          "name": "",
          "type": "uint256"
        }
      ],
      "stateMutability": "view",
      "type": "function"
    },
    {
      "inputs": [
        {
          "internalType": "string",
          "name": "_aadharNumber",
          "type": "string"
        },
        {
          "internalType": "uint256",
          "name": "_amount",
          "type": "uint256"
        }
      ],
      "name": "redeemHealthCoins",
      "outputs": [],
      "stateMutability": "nonpayable",
      "type": "function"
    },
    {
      "inputs": [
        {
          "internalType": "address",
          "name": "_doctorAddress",
          "type": "address"
        },
        {
          "internalType": "string",
          "name": "_name",
          "type": "string"
        },
        {
          "internalType": "string",
          "name": "_specialization",
          "type": "string"
        }
      ],
      "name": "registerDoctor",
      "outputs": [],
      "stateMutability": "nonpayable",
      "type": "function"
    },
    {
      "inputs": [
        {
          "internalType": "address",
          "name": "_hospital",
          "type": "address"
        }
      ],
      "name": "registerHospital",
      "outputs": [],
      "stateMutability": "nonpayable",
      "type": "function"
    },
    {
      "inputs": [
        {
          "internalType": "string",
          "name": "_aadharNumber",
          "type": "string"
        }
      ],
      "name": "registerPatient",
      "outputs": [],
      "stateMutability": "nonpayable",
      "type": "function"
    },
    {
      "inputs": [
        {
          "internalType": "address",
          "name": "",
          "type": "address"
        }
      ],
      "name": "registeredHospitals",
      "outputs": [
        {
          "internalType": "bool",
          "name": "",
          "type": "bool"
        }
      ],
      "stateMutability": "view",
      "type": "function"
    },
    {
      "inputs": [
        {
          "internalType": "string",
          "name": "_patientAadhar",
          "type": "string"
        },
        {
          "internalType": "uint256",
          "name": "_alertIndex",
          "type": "uint256"
        }
      ],
      "name": "resolveHealthAlert",
      "outputs": [],
      "stateMutability": "nonpayable",
      "type": "function"
    },
    {
      "inputs": [
        {
          "internalType": "string",
          "name": "_patientAadhar",
          "type": "string"
        },
        {
          "internalType": "address",
          "name": "_provider",
          "type": "address"
        }
      ],
      "name": "revokeAccess",
      "outputs": [],
      "stateMutability": "nonpayable",
      "type": "function"
    },
    {
      "inputs": [
        {
          "internalType": "address",
          "name": "",
          "type": "address"
        }
      ],
      "name": "roles",
      "outputs": [
        {
          "internalType": "enum HealthcareSystem.Role",
          "name": "",
          "type": "uint8"
        }
      ],
      "stateMutability": "view",
      "type": "function"
    },
    {
      "inputs": [
        {
          "internalType": "string",
          "name": "_patientAadhar",
          "type": "string"
        },
        {
          "internalType": "uint256",
          "name": "_timestamp",
          "type": "uint256"
        },
        {
          "internalType": "string",
          "name": "_contactEmail",
          "type": "string"
        },
        {
          "internalType": "string",
          "name": "_contactPhone",
          "type": "string"
        },
        {
          "internalType": "string",
          "name": "_notes",
          "type": "string"
        },
        {
          "internalType": "string",
          "name": "_department",
          "type": "string"
        }
      ],
      "name": "scheduleAppointment",
      "outputs": [],
      "stateMutability": "nonpayable",
      "type": "function"
    },
    {
      "inputs": [
        {
          "internalType": "string",
          "name": "_patientAadhar",
          "type": "string"
        },
        {
          "internalType": "string",
          "name": "_medication",
          "type": "string"
        }
      ],
      "name": "stopMedication",
      "outputs": [],
      "stateMutability": "nonpayable",
      "type": "function"
    },
    {
      "inputs": [
        {
          "internalType": "uint256",
          "name": "_appointmentId",
          "type": "uint256"
        },
        {
          "internalType": "enum HealthcareSystem.AppointmentStatus",
          "name": "_status",
          "type": "uint8"
        }
      ],
      "name": "updateAppointmentStatus",
      "outputs": [],
      "stateMutability": "nonpayable",
      "type": "function"
    },
    {
      "inputs": [
        {
          "internalType": "string",
          "name": "_patientAadhar",
          "type": "string"
        },
        {
          "internalType": "string",
          "name": "_medication",
          "type": "string"
        },
        {
          "internalType": "string",
          "name": "_effectiveness",
          "type": "string"
        },
        {
          "internalType": "string",
          "name": "_sideEffects",
          "type": "string"
        }
      ],
      "name": "updateMedicationTracking",
      "outputs": [],
      "stateMutability": "nonpayable",
      "type": "function"
    }
  ],
  "bytecode": "0x608060405234801561001057600080fd5b50336000908152600660209081526040808320805460ff199081166003908117909255925290912080549091166001179055615afe80620000526000396000f3fe608060405234801561001057600080fd5b50600436106102115760003560e01c806373bd0b6811610125578063a9583c22116100ad578063d7222cdc1161007c578063d7222cdc14610526578063dfe0b5fe14610539578063f121477d1461054c578063f24af6e81461055f578063fd189b3c1461057257600080fd5b8063a9583c22146104c9578063c5555424146104ed578063c5598c9114610500578063c5b998581461051357600080fd5b8063882d763b116100f4578063882d763b1461044d5780638adfcd6a14610460578063931126e91461047357806399374642146104865780639a5a34f7146104b657600080fd5b806373bd0b68146103e7578063776dac47146103fa5780637cc2e92b1461041a578063869c9eaf1461043a57600080fd5b80632d7b3e67116101a8578063402ab61411610177578063402ab6141461036e5780634bc19d341461038157806352be3b21146103a157806353d08ef4146103c157806357cd46f5146103d457600080fd5b80632d7b3e67146102fd57806330b84026146103105780633a2a3b1b1461033b5780633ff9b87b1461035b57600080fd5b80631453e51f116101e45780631453e51f1461029157806318892a1a146102a457806326fc9787146102b757806327627bf3146102ea57600080fd5b80630163e4f814610216578063068884d714610234578063068a423b1461025557806312dc90131461026a575b600080fd5b61021e610585565b60405161022b9190614b95565b60405180910390f35b610247610242366004614cbb565b6108ea565b60405190815260200161022b565b610268610263366004614ce5565b61091b565b005b61027d610278366004614d19565b610c22565b60405161022b989796959493929190614d5c565b61024761029f366004614e8a565b610f13565b6102686102b2366004614ece565b610f3e565b6102da6102c5366004614f1b565b60036020526000908152604090205460ff1681565b604051901515815260200161022b565b6102686102f8366004614f36565b61102e565b61026861030b36600461500f565b61134d565b61024761031e3660046150bb565b805160208183018101805160028252928201919093012091525481565b61034e6103493660046150f7565b611684565b60405161022b919061515a565b610268610369366004614e8a565b61187f565b61026861037c3660046151e8565b6119ce565b61039461038f3660046150bb565b611b11565b60405161022b919061524d565b6103b46103af3660046150bb565b611e5b565b60405161022b91906152f3565b6102686103cf366004615382565b612043565b6102476103e2366004614cbb565b612233565b6102686103f53660046153f5565b61224f565b61040d6104083660046150bb565b612666565b60405161022b91906154c6565b61042d6104283660046150bb565b612aac565b60405161022b91906155ba565b6102686104483660046150bb565b612d22565b61026861045b366004615670565b612e72565b61040d61046e366004614f1b565b613142565b61021e6104813660046150bb565b61354b565b6104a9610494366004614f1b565b60066020526000908152604090205460ff1681565b60405161022b91906156f8565b6102476104c43660046150bb565b6138c3565b6104dc6104d7366004614f1b565b613913565b60405161022b959493929190615706565b6102686104fb3660046150bb565b613a58565b61040d61050e366004614f1b565b613b50565b610268610521366004614f1b565b613f91565b6102686105343660046150bb565b61401e565b610268610547366004614ece565b614180565b61026861055a3660046150f7565b614290565b61034e61056d3660046150bb565b6144bb565b610268610580366004614e8a565b61468d565b60606001805480602002602001604051908101604052809291908181526020016000905b828210156108e1578382906000526020600020906008020160405180610100016040529081600082015481526020016001820180546105e790615753565b80601f016020809104026020016040519081016040528092919081815260200182805461061390615753565b80156106605780601f1061063557610100808354040283529160200191610660565b820191906000526020600020905b81548152906001019060200180831161064357829003601f168201915b5050505050815260200160028201805461067990615753565b80601f01602080910402602001604051908101604052809291908181526020018280546106a590615753565b80156106f25780601f106106c7576101008083540402835291602001916106f2565b820191906000526020600020905b8154815290600101906020018083116106d557829003601f168201915b5050505050815260200160038201805461070b90615753565b80601f016020809104026020016040519081016040528092919081815260200182805461073790615753565b80156107845780601f1061075957610100808354040283529160200191610784565b820191906000526020600020905b81548152906001019060200180831161076757829003601f168201915b5050505050815260200160048201805461079d90615753565b80601f01602080910402602001604051908101604052809291908181526020018280546107c990615753565b80156108165780601f106107eb57610100808354040283529160200191610816565b820191906000526020600020905b8154815290600101906020018083116107f957829003601f168201915b50505091835250506005820154602082015260068201546001600160a01b0316604082015260078201805460609092019161085090615753565b80601f016020809104026020016040519081016040528092919081815260200182805461087c90615753565b80156108c95780601f1061089e576101008083540402835291602001916108c9565b820191906000526020600020905b8154815290600101906020018083116108ac57829003601f168201915b505050505081525050815260200190600101906105a9565b50505050905090565b600c602052816000526040600020818154811061090657600080fd5b90600052602060002001600091509150505481565b600854821061096a5760405162461bcd60e51b8152602060048201526016602482015275125b9d985b1a5908185c1c1bda5b9d1b595b9d08125160521b60448201526064015b60405180910390fd5b600082815260096020526040812060018101805491929161098a90615753565b9050116109d95760405162461bcd60e51b815260206004820152601a60248201527f4170706f696e746d656e7420646f6573206e6f742065786973740000000000006044820152606401610961565b60023360009081526006602052604090205460ff1660048111156109ff576109ff614d32565b1480610a2e575060033360009081526006602052604090205460ff166004811115610a2c57610a2c614d32565b145b610aa05760405162461bcd60e51b815260206004820152603d60248201527f4f6e6c7920646f63746f7273206f7220686f73706974616c2061646d696e732060448201527f63616e20757064617465206170706f696e746d656e74207374617475730000006064820152608401610961565b60038101805483919060ff19166001836002811115610ac157610ac1614d32565b0217905550827fbfa90a4f3468c2e94521fb7cf539f022e2c0b69cfd0a24d63a1d775342c1af0483604051610af6919061578d565b60405180910390a26001826002811115610b1257610b12614d32565b03610b4f576064600282600101604051610b2c919061580e565b90815260200160405180910390206000828254610b499190615830565b90915550505b610c1d816001018054610b6190615753565b80601f0160208091040260200160405190810160405280929190818152602001828054610b8d90615753565b8015610bda5780601f10610baf57610100808354040283529160200191610bda565b820191906000526020600020905b815481529060010190602001808311610bbd57829003601f168201915b5050505050336040518060400160405280601981526020017f557064617465204170706f696e746d656e7420537461747573000000000000008152506000614805565b505050565b60096020526000908152604090208054600182018054919291610c4490615753565b80601f0160208091040260200160405190810160405280929190818152602001828054610c7090615753565b8015610cbd5780601f10610c9257610100808354040283529160200191610cbd565b820191906000526020600020905b815481529060010190602001808311610ca057829003601f168201915b50505050600283015460038401546004850180549495929460ff909216935090610ce690615753565b80601f0160208091040260200160405190810160405280929190818152602001828054610d1290615753565b8015610d5f5780601f10610d3457610100808354040283529160200191610d5f565b820191906000526020600020905b815481529060010190602001808311610d4257829003601f168201915b505050505090806005018054610d7490615753565b80601f0160208091040260200160405190810160405280929190818152602001828054610da090615753565b8015610ded5780601f10610dc257610100808354040283529160200191610ded565b820191906000526020600020905b815481529060010190602001808311610dd057829003601f168201915b505050505090806006018054610e0290615753565b80601f0160208091040260200160405190810160405280929190818152602001828054610e2e90615753565b8015610e7b5780601f10610e5057610100808354040283529160200191610e7b565b820191906000526020600020905b815481529060010190602001808311610e5e57829003601f168201915b505050505090806007018054610e9090615753565b80601f0160208091040260200160405190810160405280929190818152602001828054610ebc90615753565b8015610f095780601f10610ede57610100808354040283529160200191610f09565b820191906000526020600020905b815481529060010190602001808311610eec57829003601f168201915b5050505050905088565b8151602081840181018051600a82529282019185019190912091905280548290811061090657600080fd5b60013360009081526006602052604090205460ff166004811115610f6457610f64614d32565b148015610fa657508180519060200120600583604051610f849190615843565b908152604051908190036020018120610f9c9161580e565b6040518091039020145b610fc25760405162461bcd60e51b81526004016109619061585f565b600582604051610fd29190615843565b9081526040805160209281900383019020600301805460018101825560009182528382200180546001600160a01b0319166001600160a01b03959095169485179055928352600690915290208054600460ff1990911617905550565b85600261103c823383614957565b8061106957506005826040516110529190615843565b9081526040519081900360200190206004015460ff165b6110855760405162461bcd60e51b815260040161096190615885565b6110db82336040518060400160405280600d81526020016c5265636f72642041636365737360981b8152506005866040516110c09190615843565b9081526040519081900360200190206004015460ff16614805565b42871161112a5760405162461bcd60e51b815260206004820152601860248201527f496e76616c6964206170706f696e746d656e742074696d6500000000000000006044820152606401610961565b600880546000918261113b836158b2565b9190505590506040518061010001604052808281526020018a81526020018981526020016000600281111561117257611172614d32565b815260208082018a905260408083018a905260608301899052608090920187905260008481526009825291909120825181559082015160018201906111b79082615911565b506040820151816002015560608201518160030160006101000a81548160ff021916908360028111156111ec576111ec614d32565b0217905550608082015160048201906112059082615911565b5060a0820151600582019061121a9082615911565b5060c0820151600682019061122f9082615911565b5060e082015160078201906112449082615911565b50905050600a896040516112589190615843565b9081526040805191829003602090810183208054600181810183556000928352838320909101869055338252600c835292812080549384018155815220018290556032906002906112aa908c90615843565b908152602001604051809103902060008282546112c79190615830565b9250508190555061130789336040518060400160405280601481526020017314d8da19591d5b1948105c1c1bda5b9d1b595b9d60621b8152506000614805565b807fc7e62119d394eed933b5eda9911107f252ddd2c36d9737ddab518ec9e60eab988a600060405161133a9291906159d0565b60405180910390a2505050505050505050565b83600261135b823383614957565b8061138857506005826040516113719190615843565b9081526040519081900360200190206004015460ff165b6113a45760405162461bcd60e51b815260040161096190615885565b6113df82336040518060400160405280600d81526020016c5265636f72642041636365737360981b8152506005866040516110c09190615843565b60023360009081526006602052604090205460ff16600481111561140557611405614d32565b1480611434575060033360009081526006602052604090205460ff16600481111561143257611432614d32565b145b6114505760405162461bcd60e51b81526004016109619061585f565b600080600f886040516114639190615843565b9081526020016040518091039020905060005b8154811015611573578780519060200120828281548110611499576114996159fa565b90600052602060002090600602016000016040516114b7919061580e565b60405180910390201480156114f157508181815481106114d9576114d96159fa565b600091825260209091206005600690920201015460ff165b156115615786828281548110611509576115096159fa565b906000526020600020906006020160030190816115269190615911565b508582828154811061153a5761153a6159fa565b906000526020600020906006020160040190816115579190615911565b5060019250611573565b8061156b816158b2565b915050611476565b508161162b576040805160c0810182528881524260208083019190915260009282018390526060820189905260808201889052600160a0830181905284549081018555848452922081519192600602019081906115d09082615911565b506020820151600182015560408201516002820155606082015160038201906115f99082615911565b506080820151600482019061160e9082615911565b5060a091909101516005909101805460ff19169115159190911790555b876040516116399190615843565b60405180910390207f0a8ed6c1bf0f562bbb6cafc7f7c502b61497a02a3431ac098eca12dfcf3f3daf8888604051611672929190615a10565b60405180910390a25050505050505050565b606061169283336001614957565b6116ae5760405162461bcd60e51b815260040161096190615a3e565b600e836040516116be9190615843565b9081526020016040518091039020826040516116da9190615843565b9081526020016040518091039020805480602002602001604051908101604052809291908181526020016000905b82821015611872578382906000526020600020906004020160405180608001604052908160008201805461173b90615753565b80601f016020809104026020016040519081016040528092919081815260200182805461176790615753565b80156117b45780601f10611789576101008083540402835291602001916117b4565b820191906000526020600020905b81548152906001019060200180831161179757829003601f168201915b5050505050815260200160018201548152602001600282015481526020016003820180546117e190615753565b80601f016020809104026020016040519081016040528092919081815260200182805461180d90615753565b801561185a5780601f1061182f5761010080835404028352916020019161185a565b820191906000526020600020905b81548152906001019060200180831161183d57829003601f168201915b50505050508152505081526020019060010190611708565b5050505090505b92915050565b81600261188d823383614957565b806118ba57506005826040516118a39190615843565b9081526040519081900360200190206004015460ff165b6118d65760405162461bcd60e51b815260040161096190615885565b61191182336040518060400160405280600d81526020016c5265636f72642041636365737360981b8152506005866040516110c09190615843565b6010846040516119219190615843565b9081526040519081900360200190205483106119755760405162461bcd60e51b8152602060048201526013602482015272092dcecc2d8d2c840c2d8cae4e840d2dcc8caf606b1b6044820152606401610961565b60016010856040516119879190615843565b908152602001604051809103902084815481106119a6576119a66159fa565b60009182526020909120600490910201600301805460ff191691151591909117905550505050565b33301480611a3f575060013360009081526006602052604090205460ff1660048111156119fd576119fd614d32565b148015611a3f57508280519060200120600584604051611a1d9190615843565b908152604051908190036020018120611a359161580e565b6040518091039020145b611a5b5760405162461bcd60e51b81526004016109619061585f565b80600584604051611a6c9190615843565b90815260408051602092819003830190206001600160a01b038616600090815260029091019092529020805460ff19166001836003811115611ab057611ab0614d32565b0217905550816001600160a01b031683604051611acd9190615843565b60405180910390207f115f6ef52391618892f3a77f23446f2b996b12f28b601e7d85f2b8d372436c7183604051611b049190615a66565b60405180910390a3505050565b6060611b1f82336001614957565b611b3b5760405162461bcd60e51b815260040161096190615a3e565b6000805b600754811015611baf57838051906020012060078281548110611b6457611b646159fa565b9060005260206000209060050201600101604051611b82919061580e565b604051809103902003611b9d5781611b99816158b2565b9250505b80611ba7816158b2565b915050611b3f565b506000816001600160401b03811115611bca57611bca614de8565b604051908082528060200260200182016040528015611c3857816020015b611c256040518060a0016040528060006001600160a01b031681526020016060815260200160008152602001606081526020016000151581525090565b815260200190600190039081611be85790505b5090506000805b600754811015611e5157858051906020012060078281548110611c6457611c646159fa565b9060005260206000209060050201600101604051611c82919061580e565b604051809103902003611e3f5760078181548110611ca257611ca26159fa565b60009182526020918290206040805160a0810190915260059092020180546001600160a01b031682526001810180549293919291840191611ce290615753565b80601f0160208091040260200160405190810160405280929190818152602001828054611d0e90615753565b8015611d5b5780601f10611d3057610100808354040283529160200191611d5b565b820191906000526020600020905b815481529060010190602001808311611d3e57829003601f168201915b5050505050815260200160028201548152602001600382018054611d7e90615753565b80601f0160208091040260200160405190810160405280929190818152602001828054611daa90615753565b8015611df75780601f10611dcc57610100808354040283529160200191611df7565b820191906000526020600020905b815481529060010190602001808311611dda57829003601f168201915b50505091835250506004919091015460ff1615156020909101528351849084908110611e2557611e256159fa565b60200260200101819052508180611e3b906158b2565b9250505b80611e49816158b2565b915050611c3f565b5090949350505050565b6060611e6982336001614957565b611e855760405162461bcd60e51b815260040161096190615a3e565b601082604051611e959190615843565b9081526020016040518091039020805480602002602001604051908101604052809291908181526020016000905b828210156120385783829060005260206000209060040201604051806080016040529081600082018054611ef690615753565b80601f0160208091040260200160405190810160405280929190818152602001828054611f2290615753565b8015611f6f5780601f10611f4457610100808354040283529160200191611f6f565b820191906000526020600020905b815481529060010190602001808311611f5257829003601f168201915b50505050508152602001600182018054611f8890615753565b80601f0160208091040260200160405190810160405280929190818152602001828054611fb490615753565b80156120015780601f10611fd657610100808354040283529160200191612001565b820191906000526020600020905b815481529060010190602001808311611fe457829003601f168201915b5050509183525050600282015460208083019190915260039092015460ff1615156040909101529082526001929092019101611ec3565b505050509050919050565b6003803360009081526006602052604090205460ff16600481111561206a5761206a614d32565b146120ab5760405162461bcd60e51b8152602060048201526011602482015270556e617574686f72697a656420726f6c6560781b6044820152606401610961565b6001600160a01b03841660009081526004602052604090206002015460ff16156121175760405162461bcd60e51b815260206004820152601960248201527f446f63746f7220616c72656164792072656769737465726564000000000000006044820152606401610961565b6040805160a0810182528481526020808201859052600182840152600260608301524260808301526001600160a01b0387166000908152600490915291909120815181906121659082615911565b506020820151600182019061217a9082615911565b50604082015160028201805491151560ff1983168117825560608501519261ff001990911661ffff19909116176101008360048111156121bc576121bc614d32565b0217905550608091909101516003918201556001600160a01b0385166000818152602092909252604091829020805460ff1916600117905590517fbc3a5b2aeb1bc52e3d56d3fd3423dd66cea5ecff8ae1f3bd0d75a0e608da7b85906122259086908690615a10565b60405180910390a250505050565b600b602052816000526040600020818154811061090657600080fd5b84600261225d823383614957565b8061228a57506005826040516122739190615843565b9081526040519081900360200190206004015460ff165b6122a65760405162461bcd60e51b815260040161096190615885565b6122e182336040518060400160405280600d81526020016c5265636f72642041636365737360981b8152506005866040516110c09190615843565b600087511161232b5760405162461bcd60e51b815260206004820152601660248201527524b73b30b634b2103830ba34b2b73a1020b0b23430b960511b6044820152606401610961565b60008651116123705760405162461bcd60e51b8152602060048201526011602482015270496e76616c696420646961676e6f73697360781b6044820152606401610961565b60008551116123ba5760405162461bcd60e51b8152602060048201526016602482015275496e76616c6964206d65646963696e6573206461746160501b6044820152606401610961565b600180546000916123cb9190615830565b905060006040518061010001604052808381526020018a8152602001898152602001888152602001878152602001428152602001336001600160a01b031681526020018681525090506000896040516124249190615843565b908152604051602091819003820190208054600180820183556000928352918390208451600890920201908155918301518392918201906124659082615911565b506040820151600282019061247a9082615911565b506060820151600382019061248f9082615911565b50608082015160048201906124a49082615911565b5060a0820151600582015560c08201516006820180546001600160a01b0319166001600160a01b0390921691909117905560e082015160078201906124e99082615911565b5050600180548082018255600091909152825160089091027fb10e2d527612073b26eecdfd717e6a320cf44b4afac2b0732d9fcbe2b7fa0cf6810191825560208401518493507fb10e2d527612073b26eecdfd717e6a320cf44b4afac2b0732d9fcbe2b7fa0cf79091019061255e9082615911565b50604082015160028201906125739082615911565b50606082015160038201906125889082615911565b506080820151600482019061259d9082615911565b5060a0820151600582015560c08201516006820180546001600160a01b0319166001600160a01b0390921691909117905560e082015160078201906125e29082615911565b505050600a60028a6040516125f79190615843565b908152602001604051809103902060008282546126149190615830565b90915550506040513390612629908b90615843565b6040519081900381209084907fcd719798f402a27a912a62d3b7e471f85fba10a63e2bbb6ede9a733a8616c2f190600090a4505050505050505050565b606061267482336001614957565b6126905760405162461bcd60e51b815260040161096190615a3e565b6000600a836040516126a29190615843565b90815260200160405180910390209050600081805490506001600160401b038111156126d0576126d0614de8565b60405190808252806020026020018201604052801561270957816020015b6126f6614aef565b8152602001906001900390816126ee5790505b50905060005b8254811015612aa4576009600084838154811061272e5761272e6159fa565b90600052602060002001548152602001908152602001600020604051806101000160405290816000820154815260200160018201805461276d90615753565b80601f016020809104026020016040519081016040528092919081815260200182805461279990615753565b80156127e65780601f106127bb576101008083540402835291602001916127e6565b820191906000526020600020905b8154815290600101906020018083116127c957829003601f168201915b50505091835250506002828101546020830152600383015460409092019160ff169081111561281757612817614d32565b600281111561282857612828614d32565b815260200160048201805461283c90615753565b80601f016020809104026020016040519081016040528092919081815260200182805461286890615753565b80156128b55780601f1061288a576101008083540402835291602001916128b5565b820191906000526020600020905b81548152906001019060200180831161289857829003601f168201915b505050505081526020016005820180546128ce90615753565b80601f01602080910402602001604051908101604052809291908181526020018280546128fa90615753565b80156129475780601f1061291c57610100808354040283529160200191612947565b820191906000526020600020905b81548152906001019060200180831161292a57829003601f168201915b5050505050815260200160068201805461296090615753565b80601f016020809104026020016040519081016040528092919081815260200182805461298c90615753565b80156129d95780601f106129ae576101008083540402835291602001916129d9565b820191906000526020600020905b8154815290600101906020018083116129bc57829003601f168201915b505050505081526020016007820180546129f290615753565b80601f0160208091040260200160405190810160405280929190818152602001828054612a1e90615753565b8015612a6b5780601f10612a4057610100808354040283529160200191612a6b565b820191906000526020600020905b815481529060010190602001808311612a4e57829003601f168201915b505050505081525050828281518110612a8657612a866159fa565b60200260200101819052508080612a9c906158b2565b91505061270f565b509392505050565b6060612aba82336001614957565b612ad65760405162461bcd60e51b815260040161096190615a3e565b600f82604051612ae69190615843565b9081526020016040518091039020805480602002602001604051908101604052809291908181526020016000905b8282101561203857838290600052602060002090600602016040518060c0016040529081600082018054612b4790615753565b80601f0160208091040260200160405190810160405280929190818152602001828054612b7390615753565b8015612bc05780601f10612b9557610100808354040283529160200191612bc0565b820191906000526020600020905b815481529060010190602001808311612ba357829003601f168201915b505050505081526020016001820154815260200160028201548152602001600382018054612bed90615753565b80601f0160208091040260200160405190810160405280929190818152602001828054612c1990615753565b8015612c665780601f10612c3b57610100808354040283529160200191612c66565b820191906000526020600020905b815481529060010190602001808311612c4957829003601f168201915b50505050508152602001600482018054612c7f90615753565b80601f0160208091040260200160405190810160405280929190818152602001828054612cab90615753565b8015612cf85780601f10612ccd57610100808354040283529160200191612cf8565b820191906000526020600020905b815481529060010190602001808311612cdb57829003601f168201915b50505091835250506005919091015460ff1615156020918201529082526001929092019101612b14565b8051600c14612d6b5760405162461bcd60e51b815260206004820152601560248201527424b73b30b634b21020b0b23430b910373ab6b132b960591b6044820152606401610961565b600581604051612d7b9190615843565b9081526040519081900360200190206001015460ff1615612dde5760405162461bcd60e51b815260206004820152601a60248201527f50617469656e7420616c726561647920726567697374657265640000000000006044820152606401610961565b6000600582604051612df09190615843565b908152604051908190036020019020905080612e0c8382615911565b506001818101805460ff19168217905560048201805461ff00191661010083021790555081604051612e3e9190615843565b604051908190038120907fad3e1c33e6905fbc7821165aef0e1e95f461dee673e49d56d8899c384dbdcd1690600090a25050565b836002612e80823383614957565b80612ead5750600582604051612e969190615843565b9081526040519081900360200190206004015460ff165b612ec95760405162461bcd60e51b815260040161096190615885565b612f0482336040518060400160405280600d81526020016c5265636f72642041636365737360981b8152506005866040516110c09190615843565b6000865111612f4d5760405162461bcd60e51b815260206004820152601560248201527424b73b30b634b21020b0b23430b910373ab6b132b960591b6044820152606401610961565b6000855111612f945760405162461bcd60e51b8152602060048201526013602482015272496e76616c6964206d6574726963207479706560681b6044820152606401610961565b60408051608081018252868152602081018690524281830152606081018590529051600d90612fc4908990615843565b908152604051602091819003820190208054600181018255600091825291902082518392600402909101908190612ffb9082615911565b506020820151600182015560408201516002820155606082015160038201906130249082615911565b505050600e876040516130379190615843565b9081526020016040518091039020866040516130539190615843565b90815260405160209181900382019020805460018101825560009182529190208251839260040290910190819061308a9082615911565b506020820151600182015560408201516002820155606082015160038201906130b39082615911565b505050600a6002886040516130c89190615843565b908152602001604051809103902060008282546130e59190615830565b90915550506040516130f8908890615843565b60405180910390207fce65c4d5b1a9ee66172b83a86b9a8c4ebd3c4eabc956a43b9f136fb9f30e69cf8787604051613131929190615a80565b60405180910390a250505050505050565b6001600160a01b0381166000908152600c602052604081208054606092906001600160401b0381111561317757613177614de8565b6040519080825280602002602001820160405280156131b057816020015b61319d614aef565b8152602001906001900390816131955790505b50905060005b8254811015612aa457600960008483815481106131d5576131d56159fa565b90600052602060002001548152602001908152602001600020604051806101000160405290816000820154815260200160018201805461321490615753565b80601f016020809104026020016040519081016040528092919081815260200182805461324090615753565b801561328d5780601f106132625761010080835404028352916020019161328d565b820191906000526020600020905b81548152906001019060200180831161327057829003601f168201915b50505091835250506002828101546020830152600383015460409092019160ff16908111156132be576132be614d32565b60028111156132cf576132cf614d32565b81526020016004820180546132e390615753565b80601f016020809104026020016040519081016040528092919081815260200182805461330f90615753565b801561335c5780601f106133315761010080835404028352916020019161335c565b820191906000526020600020905b81548152906001019060200180831161333f57829003601f168201915b5050505050815260200160058201805461337590615753565b80601f01602080910402602001604051908101604052809291908181526020018280546133a190615753565b80156133ee5780601f106133c3576101008083540402835291602001916133ee565b820191906000526020600020905b8154815290600101906020018083116133d157829003601f168201915b5050505050815260200160068201805461340790615753565b80601f016020809104026020016040519081016040528092919081815260200182805461343390615753565b80156134805780601f1061345557610100808354040283529160200191613480565b820191906000526020600020905b81548152906001019060200180831161346357829003601f168201915b5050505050815260200160078201805461349990615753565b80601f01602080910402602001604051908101604052809291908181526020018280546134c590615753565b80156135125780601f106134e757610100808354040283529160200191613512565b820191906000526020600020905b8154815290600101906020018083116134f557829003601f168201915b50505050508152505082828151811061352d5761352d6159fa565b60200260200101819052508080613543906158b2565b9150506131b6565b606060008260405161355d9190615843565b9081526020016040518091039020805480602002602001604051908101604052809291908181526020016000905b82821015612038578382906000526020600020906008020160405180610100016040529081600082015481526020016001820180546135c990615753565b80601f01602080910402602001604051908101604052809291908181526020018280546135f590615753565b80156136425780601f1061361757610100808354040283529160200191613642565b820191906000526020600020905b81548152906001019060200180831161362557829003601f168201915b5050505050815260200160028201805461365b90615753565b80601f016020809104026020016040519081016040528092919081815260200182805461368790615753565b80156136d45780601f106136a9576101008083540402835291602001916136d4565b820191906000526020600020905b8154815290600101906020018083116136b757829003601f168201915b505050505081526020016003820180546136ed90615753565b80601f016020809104026020016040519081016040528092919081815260200182805461371990615753565b80156137665780601f1061373b57610100808354040283529160200191613766565b820191906000526020600020905b81548152906001019060200180831161374957829003601f168201915b5050505050815260200160048201805461377f90615753565b80601f01602080910402602001604051908101604052809291908181526020018280546137ab90615753565b80156137f85780601f106137cd576101008083540402835291602001916137f8565b820191906000526020600020905b8154815290600101906020018083116137db57829003601f168201915b50505091835250506005820154602082015260068201546001600160a01b0316604082015260078201805460609092019161383290615753565b80601f016020809104026020016040519081016040528092919081815260200182805461385e90615753565b80156138ab5780601f10613880576101008083540402835291602001916138ab565b820191906000526020600020905b81548152906001019060200180831161388e57829003601f168201915b5050505050815250508152602001906001019061358b565b60006138d182336001614957565b6138ed5760405162461bcd60e51b815260040161096190615a3e565b6002826040516138fd9190615843565b9081526020016040518091039020549050919050565b60046020526000908152604090208054819061392e90615753565b80601f016020809104026020016040519081016040528092919081815260200182805461395a90615753565b80156139a75780601f1061397c576101008083540402835291602001916139a7565b820191906000526020600020905b81548152906001019060200180831161398a57829003601f168201915b5050505050908060010180546139bc90615753565b80601f01602080910402602001604051908101604052809291908181526020018280546139e890615753565b8015613a355780601f10613a0a57610100808354040283529160200191613a35565b820191906000526020600020905b815481529060010190602001808311613a1857829003601f168201915b505050506002830154600390930154919260ff8082169361010090920416915085565b60013360009081526006602052604090205460ff166004811115613a7e57613a7e614d32565b148015613ac057508080519060200120600582604051613a9e9190615843565b908152604051908190036020018120613ab69161580e565b6040518091039020145b613adc5760405162461bcd60e51b81526004016109619061585f565b6000600582604051613aee9190615843565b908152604051908190036020018120600401805492151560ff1990931692909217909155613b1d908290615843565b604051908190038120907f603d08020c4dc71d72674c8861e13340ff6bfeb2e5cdda1243dcf8c37ce6955d90600090a250565b6060613b6d60405180602001604052806000815250336001614957565b613b895760405162461bcd60e51b815260040161096190615a3e565b6001600160a01b0382166000908152600b6020526040812080549091906001600160401b03811115613bbd57613bbd614de8565b604051908082528060200260200182016040528015613bf657816020015b613be3614aef565b815260200190600190039081613bdb5790505b50905060005b8254811015612aa45760096000848381548110613c1b57613c1b6159fa565b906000526020600020015481526020019081526020016000206040518061010001604052908160008201548152602001600182018054613c5a90615753565b80601f0160208091040260200160405190810160405280929190818152602001828054613c8690615753565b8015613cd35780601f10613ca857610100808354040283529160200191613cd3565b820191906000526020600020905b815481529060010190602001808311613cb657829003601f168201915b50505091835250506002828101546020830152600383015460409092019160ff1690811115613d0457613d04614d32565b6002811115613d1557613d15614d32565b8152602001600482018054613d2990615753565b80601f0160208091040260200160405190810160405280929190818152602001828054613d5590615753565b8015613da25780601f10613d7757610100808354040283529160200191613da2565b820191906000526020600020905b815481529060010190602001808311613d8557829003601f168201915b50505050508152602001600582018054613dbb90615753565b80601f0160208091040260200160405190810160405280929190818152602001828054613de790615753565b8015613e345780601f10613e0957610100808354040283529160200191613e34565b820191906000526020600020905b815481529060010190602001808311613e1757829003601f168201915b50505050508152602001600682018054613e4d90615753565b80601f0160208091040260200160405190810160405280929190818152602001828054613e7990615753565b8015613ec65780601f10613e9b57610100808354040283529160200191613ec6565b820191906000526020600020905b815481529060010190602001808311613ea957829003601f168201915b50505050508152602001600782018054613edf90615753565b80601f0160208091040260200160405190810160405280929190818152602001828054613f0b90615753565b8015613f585780601f10613f2d57610100808354040283529160200191613f58565b820191906000526020600020905b815481529060010190602001808311613f3b57829003601f168201915b505050505081525050828281518110613f7357613f736159fa565b60200260200101819052508080613f89906158b2565b915050613bfc565b6003803360009081526006602052604090205460ff166004811115613fb857613fb8614d32565b14613ff95760405162461bcd60e51b8152602060048201526011602482015270556e617574686f72697a656420726f6c6560781b6044820152606401610961565b506001600160a01b03166000908152600360205260409020805460ff19166001179055565b6000805b6005836040516140329190615843565b908152604051908190036020019020600301548110156140bd57336001600160a01b03166005846040516140669190615843565b90815260200160405180910390206003018281548110614088576140886159fa565b6000918252602090912001546001600160a01b0316036140ab57600191506140bd565b806140b5816158b2565b915050614022565b508061410b5760405162461bcd60e51b815260206004820152601860248201527f4e6f7420616e20656d657267656e637920636f6e7461637400000000000000006044820152606401610961565b600160058360405161411d9190615843565b908152604051908190036020018120600401805492151560ff199093169290921790915561414c908390615843565b604051908190038120907f02bc0de3f6c76f020b84dd1d38decdcda01fe7e3d5cd178cd7a19864e4135f7d90600090a25050565b333014806141f1575060013360009081526006602052604090205460ff1660048111156141af576141af614d32565b1480156141f1575081805190602001206005836040516141cf9190615843565b9081526040519081900360200181206141e79161580e565b6040518091039020145b61420d5760405162461bcd60e51b81526004016109619061585f565b60058260405161421d9190615843565b90815260408051602092819003830181206001600160a01b0385166000818152600290920190945291909120805460ff1916905561425c908490615843565b604051908190038120907fa4056635223780a71518e8c10b6fc0fd195775c8375c4841c124a959ae5c30ad90600090a35050565b81600261429e823383614957565b806142cb57506005826040516142b49190615843565b9081526040519081900360200190206004015460ff165b6142e75760405162461bcd60e51b815260040161096190615885565b61432282336040518060400160405280600d81526020016c5265636f72642041636365737360981b8152506005866040516110c09190615843565b60023360009081526006602052604090205460ff16600481111561434857614348614d32565b1480614377575060033360009081526006602052604090205460ff16600481111561437557614375614d32565b145b6143935760405162461bcd60e51b81526004016109619061585f565b6000600f856040516143a59190615843565b9081526020016040518091039020905060005b81548110156144b35784805190602001208282815481106143db576143db6159fa565b90600052602060002090600602016000016040516143f9919061580e565b6040518091039020148015614433575081818154811061441b5761441b6159fa565b600091825260209091206005600690920201015460ff165b156144a157600082828154811061444c5761444c6159fa565b906000526020600020906006020160050160006101000a81548160ff02191690831515021790555042828281548110614487576144876159fa565b9060005260206000209060060201600201819055506144b3565b806144ab816158b2565b9150506143b8565b505050505050565b60606144c982336001614957565b6144e55760405162461bcd60e51b815260040161096190615a3e565b600d826040516144f59190615843565b9081526020016040518091039020805480602002602001604051908101604052809291908181526020016000905b82821015612038578382906000526020600020906004020160405180608001604052908160008201805461455690615753565b80601f016020809104026020016040519081016040528092919081815260200182805461458290615753565b80156145cf5780601f106145a4576101008083540402835291602001916145cf565b820191906000526020600020905b8154815290600101906020018083116145b257829003601f168201915b5050505050815260200160018201548152602001600282015481526020016003820180546145fc90615753565b80601f016020809104026020016040519081016040528092919081815260200182805461462890615753565b80156146755780601f1061464a57610100808354040283529160200191614675565b820191906000526020600020905b81548152906001019060200180831161465857829003601f168201915b50505050508152505081526020019060010190614523565b81600261469b823383614957565b806146c857506005826040516146b19190615843565b9081526040519081900360200190206004015460ff165b6146e45760405162461bcd60e51b815260040161096190615885565b61471f82336040518060400160405280600d81526020016c5265636f72642041636365737360981b8152506005866040516110c09190615843565b826002856040516147309190615843565b908152602001604051809103902054101561478d5760405162461bcd60e51b815260206004820152601960248201527f496e73756666696369656e74206865616c746820636f696e73000000000000006044820152606401610961565b8260028560405161479e9190615843565b908152602001604051809103902060008282546147bb9190615aa2565b90915550506040516147ce908590615843565b604051908190038120848252907ff78100b79988ca94aaa795967f9f5d213a54d36607a35040061897d737897d4590602001612225565b6040805160a0810182526001600160a01b0385811682526020820187815242938301939093526060820185905283151560808301526007805460018101825560009190915282517fa66cc928b5edb82af9bd49922954155ab7b0942694bea4ce44661d9a8736c688600590920291820180546001600160a01b031916919093161782559251919283927fa66cc928b5edb82af9bd49922954155ab7b0942694bea4ce44661d9a8736c689909101906148bd9082615911565b5060408201516002820155606082015160038201906148dc9082615911565b50608091909101516004909101805460ff19169115159190911790556040516001600160a01b03851690614911908790615843565b60405180910390207f3080b8b7888bff2fd89ae826442395530945d5733b453cbc662b1ec33780dc2d856040516149489190615ab5565b60405180910390a35050505050565b6001600160a01b03821660009081526006602052604081205460ff16600381600481111561498757614987614d32565b03614996576001915050614ae8565b60028160048111156149aa576149aa614d32565b03614a155760018360038111156149c3576149c3614d32565b036149d2576001915050614ae8565b6001600160a01b0384166000908152601160205260409081902090516149f9908790615843565b9081526040519081900360200190205460ff169150614ae89050565b6001816004811115614a2957614a29614d32565b148015614a755750848051906020012060136000866001600160a01b03166001600160a01b03168152602001908152602001600020604051614a6b919061580e565b6040518091039020145b15614a84576001915050614ae8565b6004816004811115614a9857614a98614d32565b148015614ab657506001836003811115614ab457614ab4614d32565b145b15614ae2576001600160a01b0384166000908152601260205260409081902090516149f9908790615843565b60009150505b9392505050565b60405180610100016040528060008152602001606081526020016000815260200160006002811115614b2357614b23614d32565b8152602001606081526020016060815260200160608152602001606081525090565b60005b83811015614b60578181015183820152602001614b48565b50506000910152565b60008151808452614b81816020860160208601614b45565b601f01601f19169290920160200192915050565b60006020808301818452808551808352604092508286019150828160051b87010184880160005b83811015614c9157603f1989840301855281516101008151855288820151818a870152614beb82870182614b69565b9150508782015185820389870152614c038282614b69565b91505060608083015186830382880152614c1d8382614b69565b9250505060808083015186830382880152614c388382614b69565b9250505060a080830151818701525060c080830151614c61828801826001600160a01b03169052565b505060e08083015192508582038187015250614c7d8183614b69565b968901969450505090860190600101614bbc565b509098975050505050505050565b80356001600160a01b0381168114614cb657600080fd5b919050565b60008060408385031215614cce57600080fd5b614cd783614c9f565b946020939093013593505050565b60008060408385031215614cf857600080fd5b82359150602083013560038110614d0e57600080fd5b809150509250929050565b600060208284031215614d2b57600080fd5b5035919050565b634e487b7160e01b600052602160045260246000fd5b60038110614d5857614d58614d32565b9052565b60006101008a8352806020840152614d768184018b614b69565b9050886040840152614d8b6060840189614d48565b8281036080840152614d9d8188614b69565b905082810360a0840152614db18187614b69565b905082810360c0840152614dc58186614b69565b905082810360e0840152614dd98185614b69565b9b9a5050505050505050505050565b634e487b7160e01b600052604160045260246000fd5b600082601f830112614e0f57600080fd5b81356001600160401b0380821115614e2957614e29614de8565b604051601f8301601f19908116603f01168101908282118183101715614e5157614e51614de8565b81604052838152866020858801011115614e6a57600080fd5b836020870160208301376000602085830101528094505050505092915050565b60008060408385031215614e9d57600080fd5b82356001600160401b03811115614eb357600080fd5b614ebf85828601614dfe565b95602094909401359450505050565b60008060408385031215614ee157600080fd5b82356001600160401b03811115614ef757600080fd5b614f0385828601614dfe565b925050614f1260208401614c9f565b90509250929050565b600060208284031215614f2d57600080fd5b614ae882614c9f565b60008060008060008060c08789031215614f4f57600080fd5b86356001600160401b0380821115614f6657600080fd5b614f728a838b01614dfe565b9750602089013596506040890135915080821115614f8f57600080fd5b614f9b8a838b01614dfe565b95506060890135915080821115614fb157600080fd5b614fbd8a838b01614dfe565b94506080890135915080821115614fd357600080fd5b614fdf8a838b01614dfe565b935060a0890135915080821115614ff557600080fd5b5061500289828a01614dfe565b9150509295509295509295565b6000806000806080858703121561502557600080fd5b84356001600160401b038082111561503c57600080fd5b61504888838901614dfe565b9550602087013591508082111561505e57600080fd5b61506a88838901614dfe565b9450604087013591508082111561508057600080fd5b61508c88838901614dfe565b935060608701359150808211156150a257600080fd5b506150af87828801614dfe565b91505092959194509250565b6000602082840312156150cd57600080fd5b81356001600160401b038111156150e357600080fd5b6150ef84828501614dfe565b949350505050565b6000806040838503121561510a57600080fd5b82356001600160401b038082111561512157600080fd5b61512d86838701614dfe565b9350602085013591508082111561514357600080fd5b5061515085828601614dfe565b9150509250929050565b60006020808301818452808551808352604092508286019150828160051b87010184880160005b83811015614c9157603f198984030185528151608081518186526151a782870182614b69565b91505088820151898601528782015188860152606080830151925085820381870152506151d48183614b69565b968901969450505090860190600101615181565b6000806000606084860312156151fd57600080fd5b83356001600160401b0381111561521357600080fd5b61521f86828701614dfe565b93505061522e60208501614c9f565b915060408401356004811061524257600080fd5b809150509250925092565b60006020808301818452808551808352604092508286019150828160051b87010184880160005b83811015614c9157888303603f19018552815180516001600160a01b031684528781015160a0898601819052906152ad82870182614b69565b9150508782015188860152606080830151868303828801526152cf8382614b69565b60809485015115159790940196909652505094870194925090860190600101615274565b60006020808301818452808551808352604092508286019150828160051b87010184880160005b83811015614c9157603f1989840301855281516080815181865261534082870182614b69565b915050888201518582038a8701526153588282614b69565b838a0151878b0152606093840151151593909601929092525050938601939086019060010161531a565b60008060006060848603121561539757600080fd5b6153a084614c9f565b925060208401356001600160401b03808211156153bc57600080fd5b6153c887838801614dfe565b935060408601359150808211156153de57600080fd5b506153eb86828701614dfe565b9150509250925092565b600080600080600060a0868803121561540d57600080fd5b85356001600160401b038082111561542457600080fd5b61543089838a01614dfe565b9650602088013591508082111561544657600080fd5b61545289838a01614dfe565b9550604088013591508082111561546857600080fd5b61547489838a01614dfe565b9450606088013591508082111561548a57600080fd5b61549689838a01614dfe565b935060808801359150808211156154ac57600080fd5b506154b988828901614dfe565b9150509295509295909350565b60006020808301818452808551808352604092508286019150828160051b87010184880160005b83811015614c9157603f1989840301855281516101008151855288820151818a87015261551c82870182614b69565b915050878201518886015260608083015161553982880182614d48565b5050608080830151868303828801526155528382614b69565b9250505060a0808301518683038288015261556d8382614b69565b9250505060c080830151868303828801526155888382614b69565b9250505060e080830151925085820381870152506155a68183614b69565b9689019694505050908601906001016154ed565b60006020808301818452808551808352604092508286019150828160051b87010184880160005b83811015614c9157603f19898403018552815160c0815181865261560782870182614b69565b91505088820151898601528782015188860152606080830151868303828801526156318382614b69565b925050506080808301518683038288015261564c8382614b69565b60a094850151151597909401969096525050948701949250908601906001016155e1565b6000806000806080858703121561568657600080fd5b84356001600160401b038082111561569d57600080fd5b6156a988838901614dfe565b955060208701359150808211156156bf57600080fd5b6156cb88838901614dfe565b94506040870135935060608701359150808211156150a257600080fd5b60058110614d5857614d58614d32565b6020810161187982846156e8565b60a08152600061571960a0830188614b69565b828103602084015261572b8188614b69565b915050841515604083015261574360608301856156e8565b8260808301529695505050505050565b600181811c9082168061576757607f821691505b60208210810361578757634e487b7160e01b600052602260045260246000fd5b50919050565b602081016118798284614d48565b600081546157a881615753565b600182811680156157c057600181146157d557615804565b60ff1984168752821515830287019450615804565b8560005260208060002060005b858110156157fb5781548a8201529084019082016157e2565b50505082870194505b5050505092915050565b6000614ae8828461579b565b634e487b7160e01b600052601160045260246000fd5b808201808211156118795761187961581a565b60008251615855818460208701614b45565b9190910192915050565b6020808252600c908201526b155b985d5d1a1bdc9a5e995960a21b604082015260600190565b602080825260139082015272556e617574686f72697a65642061636365737360681b604082015260600190565b6000600182016158c4576158c461581a565b5060010190565b601f821115610c1d57600081815260208120601f850160051c810160208610156158f25750805b601f850160051c820191505b818110156144b3578281556001016158fe565b81516001600160401b0381111561592a5761592a614de8565b61593e816159388454615753565b846158cb565b602080601f831160018114615973576000841561595b5750858301515b600019600386901b1c1916600185901b1785556144b3565b600085815260208120601f198616915b828110156159a257888601518255948401946001909101908401615983565b50858210156159c05787850151600019600388901b60f8161c191681555b5050505050600190811b01905550565b6040815260006159e36040830185614b69565b905060018060a01b03831660208301529392505050565b634e487b7160e01b600052603260045260246000fd5b604081526000615a236040830185614b69565b8281036020840152615a358185614b69565b95945050505050565b6020808252600e908201526d139bdd08185d5d1a1bdc9a5e995960921b604082015260600190565b6020810160048310615a7a57615a7a614d32565b91905290565b604081526000615a936040830185614b69565b90508260208301529392505050565b818103818111156118795761187961581a565b602081526000614ae86020830184614b6956fea2646970667358221220a8edd6178ae3be9e5ccb35696bce00b5716f1c4e6703d45a70cb52acba8920f564736f6c63430008130033",
  "linkReferences": {},
  "deployedLinkReferences": {}
}